:020000022000DC
:106000000000012079630200616302006363020003
:10601000656302006763020069630200000000001C
:106020000000000000000000000000006B630200A0
:106030006D630200000000006F63020071630200E4
:106040002D950200736302006999020073630200D8
:106050007363020073630200E5970200E599020092
:106060007363020073630200495303007363020009
:1060700073630200736302007363020073630200C0
:1060800073630200813C04007D67030073630200B8
:10609000513D0400736302007D0C03007363020032
:1060A0007363020073630200736302007363020090
:1060B0007363020073630200000000000000000030
:1060C0007363020073630200736302007363020070
:1060D0007363020073630200736302000000000038
:1060E00000000000000000000000000000000000B0
:1060F00000000000000000000000000000000000A0
:10610000000000000000000000000000000000008F
:10611000000000000000000000000000000000007F
:10612000000000000000000000000000000000006F
:10613000000000000000000000000000000000005F
:10614000000000000000000000000000000000004F
:10615000000000000000000000000000000000003F
:10616000000000000000000000000000000000002F
:10617000000000000000000000000000000000001F
:10618000000000000000000000000000000000000F
:1061900000000000000000000000000000000000FF
:1061A00000000000000000000000000000000000EF
:1061B00000000000000000000000000000000000DF
:1061C00000000000000000000000000000000000CF
:1061D00000000000000000000000000000000000BF
:1061E00000000000000000000000000000000000AF
:1061F000000000000000000000000000000000009F
:10620000364937480A1A02D0072291438D4635494C
:1062100035480A1A06D00722914381F309880222E1
:1062200082F3148831483249324A00F045F8324846
:106230003249334A00F040F832483349334A00F0DB
:106240003BF833483349344A00F036F83348344990
:10625000344A00F031F834483449354A00F02CF81B
:1062600034483549354A00F027F835483549002289
:1062700000F02DF834483549002200F028F8344861
:106280003449091A082903DB002202600430016046
:10629000314A90471F482049884205D0026804309F
:1062A00003B4904703BCF7E700208646EC46002085
:1062B00000212A4A9047FEE7884207D0521A05D0AB
:1062C000037801300B700131013AF9D170478842EF
:1062D00002D002700130FAE7704700000000012090
:1062E00000E000200000012000000120C483040021
:1062F000F423002024280020D8630200D863020081
:10630000BC470400C4830400F4230020F4230020CD
:106310004C4A04004C4A04004C4A04004C4A040015
:106320004C4A04004C4A04004C4A04004C4A040005
:10633000C4830400F48704002428002024280020BB
:1063400024280020E05D0020E05D0020E05D0020CA
:10635000E05D0020E07D0020A163020011AF02009B
:10636000FEE7FEE7FEE7FEE7FEE7FEE7FEE7FEE705
:10637000FEE7FEE7704700BF1048804710484FF027
:106380000701884385460F4880470F48016841F45C
:1063900070010160BFF34F8FBFF36F8FFFF730BF06
:1063A0000A480B490B4A884207D0521A05D0037895
:1063B00001300B700131013AF9D170477563020069
:1063C000000001204D8F020088ED00E080490400AC
:0863D000E0230020F42300206B
:1063D800704770477047000007B5044B0093044AA4
:1063E800402300F032F803B05DF804FBFD630200BF
:1063F800252800202DE9F84389461446E2B10F4BC1
:106408000F4E0325002743F00108224609EB070138
:10641800002005F037FA0744241A48B933785BB1ED
:106428004FF47A40C047013D02D13570BDE8F8838A
:1064380001233370002CE8D1BDE8F883504A0400EA
:1064480024280020704705F06FBAF0B595B01C46B7
:1064580008460D46164602F08BFC1A9B0994002448
:106468000D930822234605A9284608960A948DF814
:106478002C400C9402F09AFC079B0293BDF818304C
:10648800ADF80C30BDF81A30ADF80E309DF8143068
:106498008DF8114003F00302012A1DD1BDF8144004
:1064A800059EC3F3C203C4F383148DF81030A20011
:1064B80008230EA9284602F079FCC6F3952608ABF6
:1064C8000093224602AB0EA9304600F06BFC28462A
:1064D80002F052FC15B0F0BD022AF8D1BDF8164002
:1064E800C3F3C203C4F389148DF810300827082CAD
:1064F800264628BF08263B4632460EA9284602F003
:1065080055FCA41B08AB02AA31460EA8374400F07C
:10651800ADFC002CEBD1DAE7014B01221A70704771
:10652800A62800207047000070B50E4D06460FCD16
:1065380088B06C460FC495E80F0084E80F0008A9DE
:10654800002E4FF00603084A41F8203D08BF0022FC
:10655800064802F071FF08B100F0E8FD044B1E7018
:1065680008B070BD644A040021650200F4230020CD
:106578006528002007B5044B0093044A4023FFF721
:1065880064FF03B05DF804FB9965020066280020EB
:1065980038B50D4B0D4D002018700D4804782D5D51
:1065A800D2B21C4665B1043003F0DEFF08B100F03A
:1065B800BDFD084B1A7812B12378002BFBD038BDEB
:1065C8000C3003F0C7FDF1E7A62800208430002036
:1065D800F42300206528002008B50848084A0378F5
:1065E800D35C3BB1043003F05BFF0020BDE80840FA
:1065F800FFF79ABF0C3003F049FDF6E7F4230020BB
:10660800843000200120FFF78FBF000038B50A4D05
:10661800FFF719FF0421284600F032FB074B01243D
:106628005C71FFF7EFFF042105F1100000F028FB73
:10663800034B5C7138BD00BF60490400082400208A
:1066480010240020037813F0040216D003F003038B
:10665800012B03D0022B09D0012070470A6800885B
:106668000232C0F3831002440A60F5E70B684288DF
:10667800023303EB92130B60EEE7104670470000FD
:106688002DE9F04F89B00646851C08A8494C0192AF
:1066980000230F4600F8113D00F09AFD23683B6087
:1066A8006268A3681344226801339B1A04F21C47EA
:1066B80004F5836A04F21448AB421AD3019A002302
:1066C800002A6FD0012262F3010343F0040366F34A
:1066D80089132168A2689DF80F000A4003320D440F
:1066E80044F82230256000F097FD012009B0BDE88C
:1066F800F08F0121384601F0B9FD504601F0D3FD75
:10670800404601F0D0FD0DF120096068D4F808B0CA
:1067180049F8100D00EA0B00033004EB80004946ED
:10672800FFF790FF049BB8B90BEA030204EB82025F
:10673800D16805919A1C013303EA0B0B04EB8B0E0D
:106748000492DEF80C30069301F00303012B21D0EC
:10675800022B04D083460CE00BEA0300DCE7BDF80B
:106768001630BDF81AB0C3F38913033302EB930351
:106778000493404601F09AFD08B1049B63605946B2
:10678800384601F073FD6268A36813442268013338
:106798009B1A91E7BDF81430BDF81AB0C3F3831300
:1067A8001344E5E7022262F3010343F0040366F3AE
:1067B8009F538EE7782900200B4B0C48FF2210B519
:1067C8009A600022C3F818241A605A60C3F8142487
:1067D80083F8202402F083FA044610B9044802F032
:1067E8002FFB204610BD00BF782900207C480400FC
:1067F800B44A040030B50A4C71B10A4A0A49121B5E
:10680800D20800239A4201D1002030BD31F823502C
:10681800854202D00133F5E7034654F8330030BD12
:106828009048040060490400F4230020094B013912
:1068380003EBC000032909D8DFE801F00A020406C7
:1068480004207047007970474079704700207047EE
:106858000220704790480400034B58681B68C31A0D
:1068680058425841704700BF782900202DE9F0436D
:1068780087B0FFF7F1FF0646002840F0F080804D12
:10688800C5F81804BFF34F8F6868AC6806AF47F8BF
:10689800100D2040033005EB80003946FFF7D2FE8B
:1068A800029B18B1D5F81824002A5CD004EA030228
:1068B800991C013305EB8202234005EB8303D26860
:1068C800DB68049302F00303022B039202915CD16C
:1068D800BDF80E306B48C3F389184646502EA8BF42
:1068E800502666F38F1306F10801ADF80E3002F05A
:1068F8000EFA0746002800F0BA8002F039FA08229A
:1069080003A90023384602F046FA029924EA010254
:1069180001329200964231D9002A00F0A28021402B
:106928005FFA82F90331A6EB0906574C05EB8101A2
:10693800F6B208234A46384602F02DFA34B109F176
:10694800080332462146384602F025FA029B08F130
:10695800030803EB98030293D5F81834002B48D1A9
:10696800D5F8104454E02A689A4204D86A60304640
:1069780007B0BDE8F08304EA03008BE70C40E11C94
:106988000823324605EB8101DDE7012B6FD1BDF805
:106998000C303C48C3F38311062928BF062161F354
:1069A800891302318900ADF80C3002F0B0F90746BE
:1069B80000285CD002F0DCF90023082203A938463D
:1069C80002F0E9F90026BDF80C20C2F38312B31CCB
:1069D80096424FEA8303BFD202994A1C21400331F1
:1069E800029205EB81010422384602F0D4F90136FF
:1069F800E9E7384602F0C0F9FFF72EFF80F0010002
:106A0800C6B2B4E7E3685B79002B33D1E3681C684E
:106A1800002CF7D1384602F0AFF906A800F8114D5E
:106A280000F0D6FBD5F818340BB9029B6B609DF8C3
:106A3800070000F0F1FBDFE7236820469B689847D2
:106A4800E3681C68002CF7D1104B11481149C01A93
:106A5800C008000440F0020000F076F8CCE70026F9
:106A680085E75FFA86F914460749164661E7D5F8BF
:106A78001044E7E7236839461B6820469847C5E76E
:106A8800782900207C4804008429002090480400CC
:106A9800C0480400C04A04002DE9F74F284C80463E
:106AA8000F46924601A9012218469B46A568FFF7A2
:106AB800E7FD88B3DDF80490002609F102025E457F
:106AC80034D100211F4801F084FB80F3100009F144
:106AD80001022A4004EB8202000405EA0903033399
:106AE80040EA1840D06014F8232068F3C50204F87F
:106AF800232034F8232066F3891224F8232054F83D
:106B08002320012167F39F2244F8232061F3010227
:106B18006FF3820204F8232094F820341BB1FFF7A6
:106B2800A5FE0028FBD103B0BDE8F08F02EA0501FD
:106B380004EB81015AF82630CB6001360132BEE7FA
:106B480078290020942D002000231A46FFF7A4BFBF
:106B580013B502AC012344F8042D2246FFF79CFF2D
:106B680002B010BD07B58DE80C0002236A46FFF796
:106B780093FF03B05DF804FB1FB50293069B0192D7
:106B8800039301AA0323FFF787FF05B05DF804FB11
:106B98001FB58DE80C00069B0293079B03936A467A
:106BA8000423FFF779FF05B05DF804FB2DE9F347EF
:106BB8008046314CD01C8A46174601A9002280081D
:106BC800A568FFF75DFD002840D0DDF80490A668B1
:106BD80009F10200019001362840361AB600B74282
:106BE80000F103003CD83A46514604EB80001DF002
:106BF80031FD0021214801F0ECFA80F3100009F181
:106C080001032B4004EB8303000440EA1840D860DA
:106C180005EA0903033304EB830214F8231068F32D
:106C2800C50104F8231034F823106FF38F1124F8EA
:106C38002310518867F38F11518014F82320022103
:106C480061F301026FF3820204F8232094F82034E0
:106C58001BB1FFF70BFE0028FBD102B0BDE8F0879F
:106C68003246514604EB80001DF0F4FCBA1B0AEBD7
:106C7800060104F10C00BAE778290020942D0020C1
:106C880030B50F49D1F81024002314463CB9C46824
:106C9800237152B9C1F810042260184630BDE46867
:106CA80025799D4206D02468F0E7D26811682160F2
:106CB8001060F2E701330A2BE7D14FF0FF33ECE71E
:106CC80078290020094A38B50123D2F8104482F8FF
:106CD80020341D4604B938BDE3685D712368204639
:106CE8005B689847E3681C68F4E700BF78290020D0
:106CF800C38873B504460D4633B1144A009214494B
:106D0800144A284601F033FB217A05291CD0637AFE
:106D18004BB1A088FFF78AFD0F4B104953F820208C
:106D2800284601F024FB227A0D4BA08853F82260F4
:106D38000021FFF75FFD0B4903463246284602B0A3
:106D4800BDE8704001F013BB02B070BD2B4B0400CE
:106D5800134B04000B4B0400D84A0400536504008D
:106D68003C4B0400304B0400037A052B10B50C464D
:106D78000FD0437A23B1084A0849204601F0F7FAB0
:106D88000749204601F0F3FA2046BDE8104001F01B
:106D9800E3BA002AF8D0F3E72B4B0400536504004C
:106DA800284B04002DE9F04385B01F460C9D0023B5
:106DB80006460C46904695F80C902B7329463846A3
:106DC800FFF796FFB8F1060F09D8DFE808F00412BC
:106DD800181F283340003146284601F0C8FA00221F
:106DE80029463846FFF7C0FF85F80C9005B0BDE886
:106DF800F08322683146284601F0B9FAEFE794E8B3
:106E08000C003146284601F0B2FAE8E7A36800937F
:106E1800314694E80C00284601F0A9FADFE7E36858
:106E28000193A3680093314694E80C00284601F0CA
:106E38009EFAD4E723690293E3680193A368009359
:106E4800314694E80C00284601F091FAC7E76369D7
:106E5800039323690293E3680193A368009331467F
:106E680094E80C00284601F082FAB8E708292DE9D1
:106E7800F84F80460E4617461C4636D8002593F82C
:106E88000C901D7319461046FFF732FFDFF87CA0FF
:106E9800DFF87CB0AE422AD918F8052059462046BA
:106EA80001F065FA0135082DF4D11649DFF864B010
:106EB800204601F05CFA0025AE421DD918F805A05D
:106EC80050461DF0E1FA002814BF52462E225946BA
:106ED800204601F04CFA0135082DEDD1012221465A
:106EE8003846FFF741FF84F80C90BDE8F88F51460B
:106EF800204601F03CFAD5E70349204601F037FA6D
:106F0800E9E700BF064B0400044B0400024B0400F1
:106F1800FC4A0400084B04002DE9F84FDFF8A4B040
:106F28000025254B1B78ECB2A34201D8BDE8F88FA9
:106F3800224BD3F8008018F8349001204A460021EB
:106F48001DF0CEF9DBE9002300EA020601EA030797
:106F58003E4308EBC40A2CD023EA010122EA0000D0
:106F6800CBE90001484602F02FFC18F8344081466E
:106F78002246012000211DF0B3F9114BD3E9006727
:106F8800224606400F40484600211DF0A9F98F42CD
:106F980008BF86420DD1DAF8043053B19AF80110CF
:106FA8004A1E51425141A1EB09004142414120464C
:106FB80098470135B5E700BF342E0020702E002019
:106FC800602E0020682E00202DE9F84307461F4850
:106FD8001DF0C0F8002837D13A46012000211DF0E5
:106FE8007FF91B4B04460D46D3E9000104EA00086B
:106FF80005EA010958EA09021E461FD1384602F07F
:10700800E3FB144B98B1D3E9000120432943C3E9BA
:107018000001D6E900231D430F4B0C48196814439F
:10702800C6E900450022BDE8F8431DF04DB8D3E994
:10703800000120EA040021EA0501E8E720EA040447
:1070480021EA0505C3E90045BDE8F8833C2E002088
:10705800682E0020602E0020382E0020042AF7B564
:1070680005460C46164638D902F0EAFAC8B11C4B58
:107078001C491D601C4B1D4F1C701D4B00221E60BF
:107088000023C1E900231B49C1E90023013CE4B204
:107098000026FF2C0BD1184A184800211DF002F8D1
:1070A80003E002F095FA0028E1D003B0F0BD23B266
:1070B80005EBC302032192788DF804108DF80520A2
:1070C80001A93A4615F833008DF8066002F0C2FAB5
:1070D800013CE4B20028DCD0E7E70720E5E700BF81
:1070E800702E0020602E0020342E0020D16F020068
:1070F800382E0020682E0020216F02009C4B0400CF
:1071080070B5084D084E00242B789C4201D300200E
:1071180070BD3368012113F8340002F00FFB01340D
:10712800F2E700BF342E0020702E00201FB500218A
:10713800039001AA44F201000191029100F010F8B5
:1071480005B05DF804FB00B583B002900091019290
:1071580044F2010071466A4600F002F803B000BD2F
:1071680010B572B6FFF7AEFDFFF780FB0028FBD124
:10717800104B114C1149E41AE408240444F00100AE
:10718800FFF7E2FC0E4B1B68DB0700D500BE0D497C
:1071980044F00200FFF7D8FCBFF34F8F0A490B4BAE
:1071A800CA6802F4E0621343CB60BFF34F8F00BF9D
:1071B800FDE700BF90480400C0480400A04B04004D
:1071C800F0ED00E0AC4B040000ED00E00400FA052F
:1071D80070B5EFF3108672B60C4A946801239CB917
:1071E80093600B4B0B4DD3F8801029401160C3F806
:1071F8008050D3F8841051604FF0FF32C3F88420D8
:10720800047006B962B670BD0370FAE7742E0020E8
:1072180000E100E0FC06FFBD084B9A6810B55AB1C2
:1072280050B9EFF3108272B605491C680C605C68AF
:107238004C60986002B962B610BD00BF742E002081
:1072480000E100E070B5064E0546002456F82430EB
:107258000BB1284698470134042CF7D170BD00BF04
:107268008C2E0020033080B240F2FD33984230B5B6
:107278001FD8124B1A783AB95C891D892C440444EA
:10728800A4B2B4F5806F0AD31A7DA2B99A8BDC8BAD
:107298002244024492B2B2F5806F0CD201220A80D5
:1072A8001446142202FB04335A89104458810020E2
:1072B80030BD092030BD072030BD00BFC02E0020E2
:1072C8000B4A0C4B5188142000FB0131CB6833B9B1
:1072D8000420496810700122074801F0CDBA05233F
:1072E8000649137002238B80012200230968F3E703
:1072F800A42E0020C02E0020E0230020882F00208C
:1073080007B5002305490093054A0968054808237D
:1073180001F018FA03B05DF804FB00BF882F0020C5
:10732800C84B0400E023002007B500230093014662
:107338000823034A034801F005FA03B05DF804FB8B
:10734800C04B0400E023002013B500230C46009333
:1073580001460423074A084801F0F4F938B9074BF5
:10736800142202FB04340123237402B010BD0E2042
:10737800FBE700BFBC4B0400E0230020C02E002028
:1073880037B50A480A4B42689C8819685388032510
:10739800033305709BB2002000909B0001EB840131
:1073A800044801F0CFF903B030BD00BFA42E00207F
:1073B800882F0020E023002010B50146044800F083
:1073C8003CFE1C22044600211DF06EF9204610BD2B
:1073D800742F00204388033300EB8303994209D3B9
:1073E80082884FF6FF739A4206D00088B0FA80F080
:1073F8004009704702207047012070472DE9F84383
:107408000223DFF864800B800D46174600F580568E
:1074180000F108044FF00109B44222D22368013375
:107428001FD031462046FFF7D5FF48B10FB187F886
:10743800009002280BD14FF480632B80BDE8F883BD
:10744800A368D8F80020934201D9C8F800302B88E7
:107458006288033313442B806388033304EB83046B
:10746800DAE7BDE8F88300BFB82E0020144A1423D9
:1074780003FB002070B50B6844680D4604F5805680
:1074880053B15C88033403EB8404A64202D9236811
:1074980001330BD1002070BD0834F6E72C600120C1
:1074A80070BD6388033304EB8304EEE7314620465E
:1074B800FFF790FF0128F4D0F0D30228EAD0E4E7E0
:1074C800C02E0020436873B505460C466BB3254AA9
:1074D800D1688B4229D31269934226D813F003024C
:1074E80023D121490089098988421ED128689968D1
:1074F80088421AD11D494868834203D900F5805053
:1075080083420ED38A6993420DD902F58052934281
:1075180009D2012323800020B0FA80F0400902B08C
:1075280070BD1346F6E70A20F6E7002323801E46BF
:107538002388012B01D90020F1E7019601A92088B1
:10754800FFF794FF18B9238801332380F0E7019BE4
:107558002A6899689142F1D16B60034B1B892B8192
:10756800DDE700BFE0230020A42E0020C02E00206D
:107578002DE9F8431C461E4B1B7806460F46154658
:107588007BB38AB384B3DFF870804FF01409A38803
:10759800012B02D90A20BDE8F88309FB03F318F888
:1075A80003302BB92146A088FFF760FF20B920607F
:1075B800A3880133A380EAE723681EB1998832883B
:1075C8009142EFD147B99A6885E80C00094B1B89AD
:1075D8002B810020BDE8F88319883A889142E1D1CF
:1075E800F1E70220BDE8F8830520BDE8F88300BF75
:1075F8009C2E0020A42E0020C02E002008B5074B8A
:10760800191D5888FFF732FF18B1BDE80840FFF789
:10761800B7BEBDE80840FFF753BE00BFA42E002048
:107628002DE9F04FA04FDFF8A49289B00646B8467E
:107638003B6823B949469D4800F039FD3860D8F8C1
:1076480000502A78531E052B00F2EC81DFE813F076
:10765800060070007000020102015B0126B1944B24
:1076680000225A60012425E02B79032B1ED8DFE87D
:1076780003F016023C478F490B78022B084632D09C
:107688000B7D022B4FF0010340F01082142253436C
:10769800C2180020C8545068FFF746FE03E00123D3
:1076A8002B71FFF72DFE002800F0CE80804B0022C2
:1076B8005A600E241422002103A81CF0F5FF41F69D
:1076C8001D539C4208BF0024D8F8003004941A784F
:1076D800023A042A00F2C581DFE812F0A601B201DD
:1076E800D501DD01E4010023D0E773497348002385
:1076F80002222B718A800122096801F0BDF8D2E7C5
:107708006D4C00262E7120686A4DFFF70DFE6C4BFC
:10771800D4F800E05A8814235343EA18EE54516809
:107728002160A188C2F804E011810222A280BAE790
:10773800B5F814A0DFF87CB1B6B1AA7DEB88022AAF
:1077480006D9142101FB0AB1DA1C088902440A810E
:10775800142202FB0ABAC3F57F43BAF80A20FD33A4
:107768001344AAF80A307DE7142303FB0AB31989E6
:107778005C68AB7D04EB8104062B05D8DFE803F0D9
:10778800274D35431C5967000F24AA7DEB88022A30
:1077980006D9142101FB0AB1DA1C088902440A81BE
:1077A800142202FB0ABAC3F57F43BAF80A20FD3354
:1077B8001344AAF80A307DE742484349002343604E
:1077C800AB690360FFF77EFE002800F029810223E1
:1077D800AB75002300930423EA182146374800F0CC
:1077E800B1FF002830D00E24CFE72B69002B14BF3F
:1077F80003230123AB750023009305F10C02042336
:1078080004F10801EAE70123AB750022EB88009236
:107818009B002A6904F10C01E0E7032A0CBF052349
:107828000623AB7500230093042305F10802E11831
:10783800D4E70623AB75244B1988224B5868FFF709
:1078480083FD04460028A0D109B0BDE8F08F41F6B9
:107858001D549AE7002E7FF405AF2B79012B37D002
:1078680005D3022B41F61D5418BF0F2422E702232B
:107878002B71039604960596EB6803930DF10A01A4
:1078880003A8FFF71FFE002800F0CA800498BDF87F
:107898000A108388EB8003882B81FFF755FD044687
:1078A800002C7FF407AFCFE7BC2E0020742F0020F8
:1078B8009C2E0020C02E0020882F0020E0230020CE
:1078C800A42E0020802E0020942F0020B42E00200B
:1078D800DFF8FCA103AA53463146A81DFFF748FE6E
:1078E800044650B9BAF804100498FFF72DFD044671
:1078F8000A2CD5D141F61D54DCE608223146504603
:107908001CF0D2FEF4E7002E7FF4ACAE6A4B1A7B73
:107918005AB11E731A78013A062A00F28380DFE80A
:1079280002F04A5F676A816D78001A78072AF1D8F1
:1079380001A151F822F000BF617902001D7902000F
:107948001D790200877902009B790200BB79020049
:10795800BB790200837902001A89584901321A81D9
:1079680000225A801A730A78B2FA82F252099A727D
:107978000A7DB2FA82F25209DA72012207E050490E
:1079880058688A884088033202448A8002221A7022
:10799800C0E74A4C5A884A49142505FB0242086840
:1079A800546850608888108102228A800C60062200
:1079B800EDE70722EBE79A7A32B1404900229A7242
:1079C800CA680AB9097C51B9DA7A62B10022DA7256
:1079D8003A4A116A39B992F8242022B101225A8010
:1079E800FFF70CFE5BE700221A705A805A6081E7A5
:1079F800FFF7C6FC53E7FFF763FC50E706221A704F
:107A08002E4A5B88142101FB03235868FFF78CFC7E
:107A180045E707221A7000225A60FFF771FC3EE71B
:107A28000A2447E60F2445E601228DF80C201A891E
:107A3800ADF818209A88ADF81A20DB68059310E095
:107A480002228DF80C201A89ADF818209A88ADF812
:107A58001A20DA6805929B7D9A1F534253418DF88C
:107A68001C3003A8FFF7EEFB002649461548C8F866
:107A7800006000F047FB0121134800F004FC0028D7
:107A88007FF4D6ADE0E603228DF80C20DA88ADF855
:107A980018201A89CFE704228DF80C20DB88ADF86E
:107AA8001830DEE705238DF80C30DAE7074A137043
:107AB800002353601EE700BFA42E0020C02E002024
:107AC800882F0020742F0020842F00209C2E002057
:107AD800982F00204068FFF7A3BD000008B50121DA
:107AE800044800F0B6FB18B9BDE80840FFF798BD98
:107AF80008BD00BF842F00202DE9F3419846344B80
:107B08001B7806460D46002B59D0002959D0098804
:107B18004FF6FF73994256D06B88002B53D06B6891
:107B28009B0752D14AB92F890DF102013846FFF758
:107B380099FB30B102B0BDE8F08113885788ADF8E1
:107B4800023001A8FFF738FC044658B9BDF80230E6
:107B5800204A142101FB032358890338C01B58818C
:107B68000820E7E700238375BDF8023083826B683D
:107B7800036180F800800121174800F077FBE0607E
:107B88002B8823816B88A380B8F1030F04BF0423DB
:107B9800A375E78004BF3368A3610025658101A947
:107BA8000E4800F074FA36B17560E36833600C4B28
:107BB800B5721B893381FFF791FF0020BAE70220D5
:107BC800B8E70520B6E70420B4E70320B2E700BF12
:107BD8009C2E0020C02E0020B82E0020742F0020DC
:107BE800A42E002008B5084B1A68042A09D0196881
:107BF800064A42F821000121184600F037FB002010
:107C080008BD0C2008BD00BF902F00208C2E00203E
:107C18002DE9F04F89B01422002103A81CF044FD7F
:107C28007A4A137803F0FF01009191463BB103A80B
:107C3800FFF708FB0026304609B0BDE8F08F101D9D
:107C480000F02EFB05460028F4D14FF010234FF02A
:107C580080525B6911695269DFF8DCA1581C08BFC2
:107C680002FB01F3CAF810300022A3F5405368491B
:107C7800CAF80C30504600F031FD06460028DAD12B
:107C88001C238C226349644800F0A2F93746B046A9
:107C98004FF0030B3446CDF804A0019BDA6818EBCB
:107CA80002000CD058F802205C4B9A4207D1426877
:107CB8005B4B9A4200F083805A498A425ED0021F89
:107CC80000F6FC7152F8043F013340F09180914274
:107CD800F8D1554A116829B9022101231060918011
:107CE80000930EE014226243504B4FF0020C991897
:107CF80003F802C04E4A486054800134A1F808C015
:107D0800A4B247F0010708F58058B8F5405FC4D120
:107D1800BBF1010F88BF3D46EDB2022D02D0062D02
:107D280002D05DB90B2686E7012389F8003003A845
:107D38000023C9F80430FFF785FA7CE702A8FFF7AB
:107D48003BFBC8B10123013D03700A2D09D8DFE8C8
:107D580005F006080608070807080F110F0000239A
:107D6800037102A92C4800F092F9FFF7B7FE62E709
:107D78000323F5E70223F3E708265CE7009BDFF817
:107D8800A8A073B1294B1422624399184FF0020E30
:107D980003F802E00134DAF800204A60A1F808E0AC
:107DA800A4B200222349CAF80000FFF727FBBAF85B
:107DB8000420022A14BF082204221743A3E71B4900
:107DC8004FF0140E0EFB04FE01EB0E024FF0000CF8
:107DD80001F80EC050600EF110020EF1080E0A44B0
:107DE8007144FFF70BFB47F002070134A4B28AE79E
:107DF8000E491422624301EB020E0BF1FF33CEF859
:107E0800040003201FFA83FB8854EEE79C2E002011
:107E1800BC4D0400E82E0020742F0020DEC0ADDE2B
:107E2800FE011EF1FF011EF1882F0020C02E002048
:107E3800A42E00208C2F0020E023002073B50D46CF
:107E48000446C8B1C1B10DF10601FFF73BFBA8B16B
:107E58000B4BBDF806006668142202FB00300121B6
:107E68000C3000F003FA63682E600C336B6001235A
:107E7800A372002002B070BD0520FBE70A20F9E7D5
:107E8800C02E002013B50446A8B10DF10601FFF776
:107E980019FB90B10B4ABDF80630142101FB0323EE
:107EA800DA6862B1A27A52B1DA680020013ADA607F
:107EB800A07202B010BD0520FBE70A20F9E70620F2
:107EC800F7E700BFC02E002002230022FFF714BEF0
:107ED80018B103230022FFF70FBE052070470000EA
:107EE800104B1B7813B50446ABB14FF6FF7398429D
:107EF80013D001A8FFF760FA88B1052303700123A6
:107F08000371C48001A9084800F0C1F8FFF7E6FD35
:107F1800002002B010BD0220FBE70420F9E708208A
:107F2800F7E700BF9C2E0020742F00200E4B1B7813
:107F380007B5A3B101A8FFF73FFA90B10623037074
:107F480001A90A4800F0A3F8094B1A780AB10122DE
:107F58001A73FFF7C3FD002003B05DF804FB02208D
:107F6800FAE70820F8E700BF9C2E0020742F0020B5
:107F7800A42E002007B5ADF8060002A820F8041DBD
:107F880001460DF10600FFF7F3FA03B05DF804FBB4
:107F980013B502AC134624F8020D0A460020214608
:107FA800FFF7E6FA02B010BD13B502AC134624F889
:107FB800020D0A4620460021FFF7DAFA02B010BD8A
:107FC80020B119B103680B60002070470520704785
:107FD80010B561B1B2FBF3F403FB1424A4B244B9A5
:107FE80080E8120084608281C381204610BD0E2083
:107FF80010BD092010BD82B050E8022FC188B2EB35
:10800800324F4FF0000317BF92B241EA014142EAF2
:10801800014104E04268B2EB324F08BF012340E857
:108028000212002AE8D18DF807309DF80730002B9E
:108038000CBF1120002002B0704737B550E8013F4F
:108048009DB2C48925448489A54228BF2D1B048973
:10805800A54202BFBFF32F8F002207E0C5EA030540
:1080680040E80154002CE9D14FF001028DF80320BB
:108078000193019B9DF803200B6002F0FF0322B1DE
:108088000B880068184403B030BD1846FBE70A881F
:108098004B889A4209D150E8012FC2EA024240E8CF
:1080A8000123002BF7D1012070470020704737B516
:1080B80050E8023F1FFAA3F5C488A54202BFBFF3E8
:1080C8002F8F00220DE0C48925448489A54228BF4A
:1080D8002D1BC3EA054540E80254002CE8D14FF0B7
:1080E80001028DF803200193019B9DF803200B608A
:1080F80002F0FF0322B14B880068184403B030BD7A
:108108001846FBE70A884B889A4209D150E8022FA3
:10811800C2EA224240E80223002BF7D1012070472F
:108128000020704701F01F024B090121914000EB2C
:10813800830000F067B84B0910B501F01F04012156
:10814800A14000EB830000F050F8E04000F001008F
:1081580010BD01F01F0301229A404B0900EB830078
:10816800D14300F069B84B0901F01F0150F8230012
:10817800C84000F0010070472DE9F0474E1E76090F
:1081880080460F460136002558F8254008EB850A39
:10819800E44394FAA4F4B4FA84F44FEA4519202C81
:1081A80006D10135AE42EFD83C462046BDE8F087FF
:1081B8004C44A742F5D921464046FFF7BCFF0028AA
:1081C800F3D0DAF80040E44394FAA4F4B4FA84F45F
:1081D800E5E700B550E8002F0B4640E8003E9EF06A
:1081E800000FF7D110465DF804FB00B550E8002FEA
:1081F80042EA010340E8003E9EF0000FF6D1104627
:108208005DF804FB00B550E8003F43EA010240E88E
:10821800002E9EF0000FF6D110465DF804FB00B565
:1082280050E8002F02EA010340E8003E9EF0000FEC
:10823800F6D110465DF804FB00B550E8003F03EAAC
:10824800010240E8002E9EF0000FF6D110465DF8BE
:1082580004FB00B550E8002F02EB010340E8003EA4
:108268009EF0000FF6D110465DF804FB00B550E80B
:10827800003F03EB010240E8002E9EF0000FF6D10C
:1082880010465DF804FB00B550E8003FA3EB01027F
:1082980040E8002E9EF0000FF6D110465DF804FB72
:1082A8000121FFF7A2BF0121FFF7ACBF0021FFF7B3
:1082B800B6BF10B590B14268836801689B1ADBB2FB
:1082C8000A60013BDBB2FF2B026802D1002010716B
:1082D80010BD11684C1C14600B70F2E70E2010BD25
:1082E80037B5054602A8002400F8014DFEF770FFD7
:1082F8002A686B68116899420ED9481E106011F8F7
:10830800014CEB68298A01FB0434AB6811791B1A0C
:10831800DBB2994238BF13719DF80700FEF77CFF66
:10832800204603B030BD37B5054602A8002300F843
:10833800013D0C46FEF74CFF2A681368591C116072
:10834800E968641A298AB4FBF1F41C709DF80700E7
:10835800FEF762FF03B030BD826810B504462AB14B
:1083680043690168006998470023A36010BD0EB4F3
:1083780003B5039929B102AA04AB42F8043D00F001
:108388006DF802B05DF804EB03B07047826830B452
:108398000468551C8560A154826843689A4202D3D8
:1083A80030BCFFF7D9BF30BC704700002DE9F84F4B
:1083B8000A9C99460B9B1746824688460A46012620
:1083C800BA420FD24E4538BF4E4613F0010B01D1C9
:1083D80064B900240125B9F1010F1AD909F1FF394F
:1083E8007D43F8E7B2FBF7F20136E9E79B070ED5C4
:1083F800B9F1000F0CBF30252025A642EAD2013C76
:1084080029465046FFF7C2FF002CF6D1E1E72025A8
:10841800F3E7B8FBF5F39F42E2D9DFF83C90B8FBED
:10842800F5F3504619F8031005FB1388FFF7AEFF64
:10843800B5FBF7F5002DF2D1BBF1000F0AD03CB91E
:10844800BDE8F88F013C20215046FFF79FFF0CB193
:10845800A642F7D3BDE8F88FD04B04002DE9F74FBB
:10846800054617460C46002900F0358114F8011B13
:1084780049B92B7B002B00F02E81284603B0BDE8BC
:10848800F04FFFF769BF252940F0218123460026D8
:10849800194611F8012B2D2A24D0302A26D02B2A50
:1084A80027D000242A2A994603F1010124D13B68E8
:1084B8001A1D1B683A601C44894699F800302E2B17
:1084C80025D109F101014FF00008894611F8012B67
:1084D800A2F1300009281CD80A2303FB0823A3F1C2
:1084E8003008F2E746F001060B46D1E746F00206EF
:1084F800FAE746F00406F7E71A780B46A2F13001CE
:108508000929DAD80A2101FB0424303CCAE74FF0D4
:10851800000899F8001001F0FB02682A02D119F846
:10852800011FF8E769290FD04BD8582965D007D81B
:1085380025296ED009F101042378002B96D198E7FC
:10854800632962D06429F5D13A68D2F800A0111DD8
:108558008AEAEA723960A2EBEA724FF0010B092A43
:108568005BDCC34538BFC3462CB1BAF1000F01DB51
:10857800710700D5013CB20702D5B8F1000F04D04D
:10858800F30702D4002C4ED10024BAF1000F52DABE
:10859800CAF1000A2D212846FFF7F8FE06F003026B
:1085A800022A05D1B8F1000F02D1002C47D10024CE
:1085B8008DE8500043460A2251462846FFF7F6FE4A
:1085C800B8E773294CD014D87029B3D13B681A1D69
:1085D8003A60302128461C68FFF7D8FE78212846E3
:1085E800FFF7D4FE002301930823009310222146AD
:1085F800E3E775292BD078299CD139680A1D3A60A0
:1086080043468DE85000102228E03B681A1D19786F
:108618003A602846FFF7BAFE8CE70A230BF1010BF4
:1086280092FBF3F29BE7A345AFD220212846013CF9
:10863800FFF7ACFEA6E77007B0D52B21ABE7A34543
:10864800B6D230212846013CFFF7A0FEADE73968D5
:108658000A1D3A608DE8500043460A220968ACE7D3
:108668003B681A1D3A60F107D3F800A012D55646A8
:10867800A6EB0A0B16F8011B41B95C457FF65AAF09
:1086880020212846013CFFF781FEF6E72846FFF740
:108698007DFEEDE7BAF1000F11D050461CF05AF8F4
:1086A8000646B44200D964B90AF1FF3A1AF8011F24
:1086B80000293FF43FAF2846FFF768FEF6E7564625
:1086C800EFE720212846013CFFF760FEE9E728464E
:1086D800FFF75CFE30E703B0BDE8F08F07B50B4647
:1086E80088B9124B1248134AC01A0E23C0080093C7
:1086F800114B0004114940F00100FEF73DFA0E202D
:1087080003B05DF804FB4BB9084B09480C4AC01A82
:10871800C0080E2300930004074BEBE703601B68B7
:10872800114603B05DF804EB184700BF90480400F9
:10873800F04804008D4C0400E04B0400924C040007
:10874800094D04002DE9F743DDF828C088B93E4BF0
:108758003E483F4AC01AC0080E243E4B009400040D
:108768003D4940F00100FEF707FA204603B0BDE896
:10877800F0834AB9344B3548384AC01AC0080E2429
:1087880000040094334BEBE7D0F800E0BEF1000F93
:1087980009D12D4B2D48324AC01AC00808240004BC
:1087A80000942C4BDCE74BB9274B28482D4AC01ABC
:1087B800C008092400040094264BD1E74768D7F87D
:1087C8000490B3FBF9F709FB17374FB11E4B1F484D
:1087D800254AC01AC0080924000400941D4BBFE7AD
:1087E8008F0709D0184B1948204AC01AC00810240E
:1087F80000040094174BB3E712F0030F09D0124B93
:1088080012481B4AC01AC008102400040094114BD7
:10881800A6E7C768B9420DD34C1E05691C44AC4293
:1088280008D8CDF828C0DEF80C40A44603B0BDE84F
:10883800F0436047044B05480E4AC01AC00810248C
:1088480000040094034B8BE790480400F0480400B0
:108858008D4C0400F24B0400924C04000F4D0400B0
:10886800034D0400C24C0400154D04003F4D0400A4
:10887800574D04007A4D0400F7B580B92A4B2B48B0
:108888002B4AC01AC0080E242A4B009400042A4917
:1088980040F00100FEF770F9204603B0F0BDD0F8B3
:1088A80000E0BEF1000F09D11F4B2048234AC01A2F
:1088B800C0080824000400941E4BE8E74AB91A4B84
:1088C8001A481F4AC01AC008092400040094194B0A
:1088D800DDE74768D7F800C00CF1FF370F4209D031
:1088E800114B1248174AC01AC008102400040094FB
:1088F800104BCCE7C768B94205D34C1E05690CFB81
:108908000244AC4209D9084B08480F4AC01AC008AB
:10891800102400040094074BB9E7DEF81040A44681
:1089280003B0BDE8F040604790480400F0480400F8
:108938008D4C0400054C0400924C0400034D0400C7
:10894800C24C0400184C04003E4C040029DF704758
:1089580028DF704770B503689D6886B004460E46E8
:108968006DB11822002168461BF09EFEA36805938E
:10897800237901962BB1012B0DD06846A84706B084
:1089880070BD01238DF8003023690293E3680393D7
:1089980063690493F1E702238DF80030E3681B0351
:1089A8000293F5E70846704700207047024B187A93
:1089B800003018BF012070473C300020034B187A64
:1089C8000122B0FA80F05A74400970473C30002008
:1089D80008B510461A461BF03DFE002008BD0000F1
:1089E80008B51422002104481BF05EFE0348FFF777
:1089F80002FB002008BD00BF3C3000202C300020C6
:108A080010B5094C094B43602046FFF749FC40B9B3
:108A180008F016F91C2320748C2205490548FFF735
:108A2800D7FA002010BD00BF3C300020B04D040034
:108A3800A02F00202C30002070B5244D244E2B7A16
:108A48002C463BB923492448FFF731FB306008B96D
:108A5800686070BD0223237233681A7972B1012AE3
:108A680024D018460321FFF775FF002323726360A3
:108A780018491948BDE87040FFF744BB98695A691E
:108A8800D9681D69121AB2F5805F28BF4FF4805269
:108A98009208012A014438BF01222844FFF756FFF3
:108AA80050B11128DDD10123237270BDD8681A692D
:108AB8001044FFF74DFFF3E7237C2BB90146BDE8CF
:108AC8007040022000F00AB870BD00BF3C300020A2
:108AD80054300020503000202C30002038B5831E40
:108AE800012B45D8234C237A002B41D0022B09D1E6
:108AF800032830D0204B1B680022E2601A793AB173
:108B0800012A22D0637C7BBBBDE83840FFF794BFC5
:108B18009A6959698D1AB5F5805F94BF521902F5A3
:108B280080529A619142EDD102284FF0000308BFAC
:108B380019462372104B18BF0D211868FFF70AFF5A
:108B48000E490F48FFF7DEFADCE71A6901321A61AD
:108B58005B699A42E7E7E3680133082B01D8E360D1
:108B6800D0E70023E360DFE7BDE8384008F058B8F5
:108B780038BD00BF3C300020543000205030002069
:108B88002C30002000F0FD03012B08D1044B0022FB
:108B98005A74421E504250411874FFF74DBF704737
:108BA8003C30002010B5064C201DFFF779FB28B992
:108BB800637C1BB9BDE81040FFF73EBF10BD00BF86
:108BC8003C3000202DE9F34180460D460F4801A9AD
:108BD80016461F46FFF731FA0446A8B11C220021A9
:108BE8001BF062FD2D0B0123237101A9C4F800803D
:108BF800A760E56066610548FFF749FAFFF7D2FF0D
:108C0800002002B0BDE8F0810420FAE72C300020F3
:108C18002DE9F74381468846104801A917461E46A4
:108C2800FFF70BFA0446B8B11C2200211BF03CFDEB
:108C380000250A9BA36001A92571C4F80090C4F817
:108C48001080E76066610548FFF721FAFFF7AAFF81
:108C5800284603B0BDE8F0830420FAE72C30002052
:108C68002DE9F047B0F806804479D2F800909DF8D5
:108C7800207008FB04F4043C03EB090E744538BF6C
:108C8800A4EB03090E46191DC2F80090B1FBF8F5D4
:108C9800044608FB15114DB9A8EB010ACA4528BFBF
:108CA800CA46B9F1000F04D1BDE8F0872468013D38
:108CB800F1E704317019631852466FB11946A9EBF0
:108CC8000A091BF0C7FCC84555442468C2464FF042
:108CD800000128BFCA46E4E701461846EFE7FFF758
:108CE800E8BAF8B546790446721E00239342246810
:108CF80004D301460025B54202D3F8BD0133F5E798
:108D08000F682046FFF70FFB01353946F3E72DE9D9
:108D1800F843078ACD1C8046FFF7E2FA043F3D443A
:108D28000446B5FBF7F5002650B10123EDB20671F4
:108D38004371C780013DC0F800808146AE4202D32E
:108D48002046BDE8F8834046FFF7CAFA074648B10F
:108D58006379013363710136C9F80000C0F80080F7
:108D68008146EBE72046FFF7BCFF3846BDE8F883AD
:108D780001210430FFF77ABA10B501210446043006
:108D8800FFF781FA10F0FF0F04D12046BDE810402C
:108D9800FFF7A7BF10BD1FB504AC44F8042D00228F
:108DA80000922246FFF75CFF04B010BD1FB504AC6B
:108DB80044F8042D012200922246FFF751FF04B027
:108DC80010BD41DF70470000064B10B500241C7031
:108DD800054B1C60BFF35F8F0449054800F039F864
:108DE800204610BD6030002064300020DC4D0400B7
:108DF8005830002007B502A8002300F8013DFEF70F
:108E0800E7F9F1EE103A23F09F03E1EE103ABFF3D1
:108E18005F8F0A4B4022C3F884219DF80700FEF7B4
:108E2800FBF907F00DFF20B1FFF7CBFF03B05DF8AA
:108E380004FB20BF40BF20BFF8E700BF00E100E00F
:108E4800836800225A609A601A615A61DA601A606F
:108E580070470B684A684360934208BF002301606B
:108E680008BF43607047436843B10268916852681D
:108E78000B449342436004BF0023436070470000E3
:108E88000D4930B5A1F594720225914201D8002010
:108E980030BD8B1ADB1093FBF5F302EBC30452F8D9
:108EA8003330834205D802D204F10802EDE7606846
:108EB80030BD2146E9E700BF2C4F040008B5FFF795
:108EC800DFFF024B002808BF184608BDF14D04001B
:108ED800094B1B78062B0CD1084B1B681A0708D1C5
:108EE800074B186800F0F000A0F1300358425841D1
:108EF80070470020704700BFE00F00F0E40F00F05B
:108F0800E80F00F00C4B1B78062B10D10B4B1B689D
:108F18001A070CD10A4B186800F0F003302B08D060
:108F280000F0E000A0F1400358425841704700208B
:108F380070470120704700BFE00F00F0E40F00F019
:108F4800E80F00F008B5FFF7DDFF28B17F4B804A36
:108F58001B68C3F304231360FFF7BAFF10B17D4BFE
:108F68007D4A1A60FFF7CEFF28B17C4B7C4A1B680C
:108F7800C3F342331360FFF7ABFF20B1794AD368DC
:108F880023F08073D360FFF7BDFF40B14FF08043FB
:108F98000022C3F80C21C3F81021C3F83825FFF7C5
:108FA80097FF10B1704B03221A60FFF791FF40B191
:108FB8006E4B05221A6001229A6700229A603F22AE
:108FC8005A606B4B1B78062B09D16A4B1B68190733
:108FD80005D1694B1B6803F0F003502B67D0FFF7EE
:108FE80091FF28B1654B664A1B6803F04F03136075
:108FF800FFF788FF48B14FF08043D3F80024D20729
:1090080044BF6FF00102C3F800245E4B1B68062BB7
:1090180004D15D4B1B68062B00F091805B4AD2F8A7
:10902800883043F47003C2F88830BFF34F8FBFF322
:109038006F8F4FF01023D3F80022002A03DBD3F8F8
:109048000432002B2FDA524B0122C3F80425D3F83F
:109058000024002AFBD04FF010221521C2F800127C
:10906800D3F80024002AFBD04FF010231522C3F8B0
:109078000422474B1A46D3F800140029FBD00021DC
:10908800C3F80415D2F80034002BFBD0BFF34F8F80
:109098003E49404BCA6802F4E0621343CB60BFF319
:1090A8004F8F00BFFDE73C4B3C4A1A6008BD4FF0AC
:1090B80080523B4BD2F80414C3F82015D2F8081498
:1090C800C3F82415D2F80C14C3F82815D2F81014D4
:1090D800C3F82C15D2F81414C3F83015D2F81814A4
:1090E800C3F83415D2F81C14C3F84015D2F820146C
:1090F800C3F84415D2F82414C3F84815D2F8281434
:10910800C3F84C15D2F82C14C3F85015D2F8301403
:10911800C3F85415D2F83414C3F86015D2F83814CB
:10912800C3F86415D2F83C14C3F86815D2F8401493
:10913800C3F86C15D2F84424C3F870254FE7194AD0
:10914800136843F48063136068E700BF24030010CA
:109158004035014074C007400DF0ADBA440200101C
:109168003C050040F0ED00E0A0050040105600402E
:10917800E00F00F0E40F00F0E80F00F058020010D4
:10918800E40E0040300100103401001000ED00E052
:1091980000E001400400FA05182400200090D003E4
:1091A80000C000403C170040054A4FF0A043105C47
:1091B800D3F8043523FA00F0C04300F001007047EB
:1091C800E8520400044B1A5C012393404FF0A0427C
:1091D800C2F80C35704700BFE8520400044B1A5C13
:1091E800012393404FF0A042C2F80835704700BFF2
:1091F800E852040008B50020FFF7F0FF0120FFF750
:10920800EDFF0220BDE80840FFF7E8BF08B50020E1
:10921800FFF7D8FF0120FFF7D5FF0220BDE808407F
:10922800FFF7D0BF074A4FF0A041105CD1F80435D2
:109238000122824022EA03001340C1F80805C1F860
:109248000C357047E8520400054A4FF0A043105C03
:10925800D3F8103523FA00F0C04300F0010070473E
:10926800E6520400102805D01E280CBF01204FF03C
:10927800FF30704700207047014B185C704700BFF3
:10928800E6520400C20708B501460AD54FF0A043CC
:109298000322C3F82027C3F84827C3F84027FFF75D
:1092A800A9FF8B0741BF4FF0A0430C22C3F840270A
:1092B800C3F8782708BD000038B5084C04F1080346
:1092C8000546002818BF1C4623682BB11A6822607F
:1092D8005B6828469847F7E738BD00BF7030002024
:1092E80020B9054B01225A70FFF7E6BF012802D1C9
:1092F800014A9070F8E770476830002020B9034BA6
:1093080001225A70FFF7D8BF704700BF68300020AD
:1093180038B50B4C237883B90A486360A36023618E
:10932800E36000F0D1F8054607F08AFC08B900F0C0
:10933800D9F801232370284638BD8525FBE700BFEF
:1093480068300020E992020037B502A80023094CD2
:1093580000F8013DFDF73CFFE368013BE360E56889
:1093680015B900F0D3F8A5709DF80700FDF754FF74
:1093780003B030BD68300020012813B509D003D3ED
:1093880003281BD002B010BD0F4B0122C3F8802068
:10939800F8E702A800230D4C00F8013DFDF718FF7F
:1093A80023780BB9FFF7B4FFE3689DF80700013392
:1093B800E3600123A370FDF72FFFE3E700F092F8C5
:1093C800FFF7C2FFDEE700BF00E100E068300020E1
:1093D8001FB503788DF8003043680193037A8DF840
:1093E8000830C3680393054A054B684653F8213093
:1093F80052F82110984705B05DF804FB7C30002036
:10940800803000201FB503788DF800304368019341
:1094180083688DF80830C3680393054A054B68468E
:1094280053F8213052F82110984705B05DF804FB35
:109438007C30002080300020F0B5194B067891F878
:109448001DC043F82620174B96460A6943F8262084
:10945800154B03F806C00C4607460FCC89B06D467D
:109468000FC594E80F0085E80F000496BCF1000FC3
:109478000AD0BEF1000F0D4A694608BF0022381D08
:1094880000F044FF09B0F0BDBEF1000F084A69467C
:1094980008BF002207F10C0000F036FDF2E700BF1C
:1094A800803000207C30002084300020D9930200D6
:1094B8000D94020000F180400023036082B003682D
:1094C8000193019B02B07047054A13792BB901211A
:1094D800106011715371184670478520704700BF9E
:1094E80088300020084B1A68D20706D4C02283F8B7
:1094F80000230122C3F880211A604FF08043012223
:10950800C3F81825704700BF00E100E0044B0122B2
:109518001A604FF08042D2F81834DB03FBD470474E
:109528000C000040124B1B6810B573B14FF48070EB
:10953800FFF7C0FF4FF080430122C3F808230D4B0B
:10954800587910B95A711B6898470B4B1B6873B14F
:109558004FF48270FFF7AEFF4FF080430222C3F84A
:109568000823044B01201B68BDE81040184710BDB4
:1095780000010040883000200401004000F18040D4
:1095880000F5C040002382B0036003680193019B8B
:1095980002B07047800000F1A040D0F8003723F4F3
:1095A8004033C0F80037D0F8003743EA0141C0F82B
:1095B80000177047054B4FF0FF32072843F820206B
:1095C80084BF1B1883F84820704700BF90300020E4
:1095D80010B5174C94F8583043BBFF21E2180133FB
:1095E800202B82F83010F9D10021C8B2FFF7E2FF32
:1095F80001310C29F9D1002104220E481BF054F83E
:109608000D4BC02283F806234022C3F880214FF473
:10961800BE701A60FFF7B2FF084B4FF00042C3F864
:109628000423012384F85830002010BD082010BD01
:1096380090300020E430002000E100E000600040AD
:10964800034B93F85800003018BF0120704700BF43
:1096580090300020F0B5374D2B1893F93030002B9F
:1096680065DA8E78C6F34006002E0BBF0823002368
:109678000C240824A34201D10420F0BD55F823701E
:10968800013740D12F185CB287F8304045F82320C5
:1096980016B92B4483F848008B785A0713D4DE0791
:1096A80033D5830003F1A043D3F8002722F0020248
:1096B800C3F80027204EC20800F007070123BB406B
:1096C800B75C3B43B3548B780A7813F0020325D078
:1096D800A30003F1804303F5C0430002D3F810153B
:1096E80021F4473121F44071C3F810151204D3F85E
:1096F800101500F4F85002F4403210430843C3F840
:1097080010050020F0BD0133B4E74A7800F5E07396
:109718004FF0A046920046F82320CBE7083C2C44A3
:1097280094F8500040EA821284F85020E9E70820B3
:10973800F0BD00BF90300020E430002038B5204C48
:10974800251895F93020072A18DD224492F8483068
:109758009B09032B0DD14FF0A043D3F81035C3401C
:1097680013F0010F0CBF02210321BDE83840FFF7B9
:1097780011BF012B14BF03210221F6E7D3B2072B37
:109788001CD8930003F1804303F5C043D3F81005B8
:1097980040F00100C3F8100502F14000800080B2DB
:1097A800FFF7ECFE51B195F9303054F823302BB166
:1097B800012303FA02F2034BC3F8042338BD00BFA8
:1097C80090300020006000404FF0A043D3F81035DF
:1097D80023FA00F000F00100704700002DE9FF4770
:1097E80000245A4A5A4E5B4D01940121A2F5C0400B
:1097F80052F8043B012B80B206D1D6F804330B4251
:1098080002D0FFF7BBFE0C43AA424FEA4101EDD15B
:10981800514B1B68012B0AD14FF4BE70FFF7AEFE07
:109828004FF0A04344F00044D3F81035019314F0EE
:10983800FF0F38D1002C80F2858000230293DFF8D7
:109848001C914FF0FF33039301260024A0464FF0EC
:10985800A04709EB080393F95020531C61D0D2B2FA
:1098680022F0C005E90804A8084402F0070310F82C
:1098780004EC06FA03F31EEA030F52D009EB050EB7
:1098880092099EF930E059F82EA0BAF1000F26D1BE
:10989800032A46D10DF1080C1CF801E04EEA030E2C
:1098A8000CF801E01DE02D4F01260025344210D0B0
:1098B800AB0003F1804303F5C043D3F81005D3F898
:1098C800101557F8253023B1C1F30141C0F3042026
:1098D80098470135082D4FEA4606E7D1AAE7032A3B
:1098E800D8D005F5E07110F80C0C57F82110184283
:1098F800C1F3014105D0022913D1032A0BD1114626
:1099080004E003290DD1032A05D102212846FFF7D7
:1099180041FE0134E4B2BAF1000F02D011462846E4
:10992800D04708F10108B8F1040F92D154B14FF0B3
:10993800A043019AD3F81035934203D00193029BB8
:10994800039382E704B0BDE8F08700BF00610040E0
:1099580000600040206100407C61004090300020A1
:10996800014B1B68184700BFEC3000200D4B984294
:1099780037B50D4610D102A8002300F8013DFDF7C8
:1099880027FC094B1C7914B901221D601A719DF836
:109998000700FDF741FC14B9002003B030BD1120C9
:1099A800FBE700BF00200040EC300020034B98424A
:1099B80001BF034B00221A601A7170470020004053
:1099C800EC30002000F1804000F5E0400023036007
:1099D80082B003680193019B02B07047F0B5504B09
:1099E800504C1B6885B0DBB14FF48270FFF7EAFF7B
:1099F80094F82E2012B194F82F30A3B16368029323
:109A08002389ADF80C30E36800218DF80410002B91
:109A180045D12374236801A89847002384F82F3080
:109A280094F82E300BB3404B1B68F3B14FF48070A1
:109A3800FFF7C8FF94F82D10638B8AB2934239D987
:109A48009B1A22899BB292B26383D31A626802EB93
:109A58004303364AC2F82C36C2F830164FF48270E7
:109A6800FFF7B0FF324B01221A60324B1B685BB123
:109A78004FF48870FFF7A6FF002304A8237402237D
:109A880000F80C3D236898472B4B1B68EBB14FF44B
:109A98008A70FFF797FF0023237405B0F0BD208B71
:109AA800608363602081E160002AB3D11F4B0122EB
:109AB8001A60AFE7D2D1E368012284F82F2013B1EE
:109AC80000226283C5E76383C8E766694FF00047F1
:109AD8000125002EE1D0B6FA86F227FA02F39200A9
:109AE80002F58C7226EA030602F1804303F5E0438F
:109AF8001B68002BEDD01046FFF764FFA2F58C72AF
:109B0800D30882F00402C2F380028DF808308DF881
:109B180004508DF80920236801A89847D9E700BFA9
:109B280004710040F43000200071004000700040D3
:109B380004700040107100401471004038B51D4B8E
:109B4800044693F82C0098BB1B4A19602178C2F888
:109B5800F0156178C2F8F415E5781874012183F8D6
:109B68002C1083F82D00586183F82F0083F82E50AD
:109B78006FF00043C2F808334FF48270FFF722FFFA
:109B88004FF48070FFF71EFFA3780C485B01DBB22F
:109B980080F807338023C0F8803103600223C2F8BD
:109BA80004330DB1C2F80413C2F80015002038BD03
:109BB800082038BDF43000200070004000E100E0CB
:109BC8002A4B1A7C70B502F0FF05002A4BD10A799E
:109BD800012A9CBF264CC4F8005500F10C0503EB84
:109BE8004504247924B993F82D40013483F82D4095
:109BF80003EB4503CC790D7A8E781C715D714B7837
:109C080036021B0106F4E06603F0300333430E7896
:109C180006F003063343CE78360306F48056334302
:109C2800160406F4E02633434E798979360506F49E
:109C380080160906334301F080710B430C4901EB90
:109C48000016000100F1804000F5E040012AC6F846
:109C58001835C0F81455C0F8104502D80123C1F8CA
:109C68000035002070BD112070BD00BFF430002009
:109C780000700040264A274B70B505461220C2F8EE
:109C880008031C7C022C03D1C2F80403112070BD08
:109C9800187C01281DD1D86818B10223C2F80433F2
:109CA800F4E7DD60198393F82E3063B91A4A136814
:109CB800002BFCD04FF48070FFF784FE144BC3F8E0
:109CC8002C56C3F83016124B0222C3F80423002086
:109CD80070BD022093F82E40C2F80403012600202C
:109CE8001E745D601981D8603CB1598393F82D309A
:109CF800C2F82C56C2F8303670BDC2F82C564FF454
:109D08008070C2F83016FFF75DFE1660DFE700BF0F
:109D180000700040F430002000710040084A137CB5
:109D2800DBB2012B09D192F82E0018B1054A0020A8
:109D380013607047044A136070470820704700BFDB
:109D4800F4300020007000400470004000234350AD
:109D580082B043580193019B02B070470A4610B580
:109D68004FF48E71FFF7F2FF136A9168C95C136AAA
:109D780001331362C0F81C1510BD8B690A4610B573
:109D88004FF4847123B9FFF7E1FFD0F8183510BDFF
:109D9800FFF7DCFF536AD168D0F81805C854536A36
:109DA8000133536210BD00001FB501238DF8003048
:109DB800044B02900191684693E80600904705B06D
:109DC8005DF804FB2431002030B54D4AD2F8043345
:109DD80013F4007F85B015464FD0D2F82431002BFC
:109DE8004BD04FF492711046FFF7B0FF4FF4017358
:109DF800C2F80833434B93F8291009B9012151607F
:109E08003F4902228DF80020D1F88024C1F880242F
:109E180003929A690292DA68019200229A61DA61E1
:109E2800684693E8060090473548D0F81C315BB186
:109E380034490A6A4B699A420A464CD291F828304A
:109E4800002B48D1FFF78AFF2D4AD2F8443193B14D
:109E58004FF4A2711046FFF779FF2A4B93F82910A7
:109E680009B1012111609A692AB100229A61586AE0
:109E7800D968FFF799FF05B030BDD5F804335B0703
:109E8800D2D5D5F80831002BCED01E4C1C4821461F
:109E9800FFF773FF636AA2699A422346C4D1E26955
:109EA80052B12369E168E3600023606AA261E3615B
:109EB8006362FFF779FFB7E794F829200AB901220E
:109EC8006A600F4A4FF40171C2F8081300229A61C0
:109ED800586AD968EDE74FF48E710948FFF736FFE5
:109EE80051690029B0D00023029191688DF80030A3
:109EF80001915361684692E80A009847A4E700BFB9
:109F080000200040243100202DE9F8435B4B047900
:109F180091462C2202FB0432064692F82A200D466E
:109F28009846002A40F0A58055490068FFF71EFDB5
:109F38000746002840F09F8029683368481C0BD0EA
:109F48004FF0A04001228A40C0F8082501F5E072D0
:109F58004FF0030E40F822E06868421C1FBF00F56E
:109F6800E0724FF0A04E4FF0000C4EF822C0AA69E4
:109F780095F814E0C3F824256A7DBEF1010F4EEA76
:109F88000202C3F86C25C3F81405C3F80C151DD1DB
:109F9800AA68511C1FBF02F5E0714FF0A0404FF0B6
:109FA800000E40F821E0E968481C0BD04FF0A04EA5
:109FB80001208840CEF8080501F5E0704FF0030C49
:109FC8004EF820C0C3F80815C3F810252C236343A6
:109FD80008EB0302C2F804902A6948F80320B9F193
:109FE800000F33D04FF48E7130682D7FFFF7AEFE2F
:109FF80030684FF4A271FFF7A9FE3268214BC2F80E
:10A008000433120B53B2002BA8BF03F160404FEA90
:10A0180053134FEA4511BABF1B4802F00F0500F56C
:10A0280061404FEA8303B4BFC9B2C9B203F16043C8
:10A03800B4BF415580F8001303F5614302F01F02D5
:10A04800012101FA02F2C3F880211A603368042260
:10A05800C3F800252C2303FB048300229A61DA61EC
:10A0680083F829205A61012283F82A203846BDE85E
:10A07800F8830827FAE71127F8E700BF2431002002
:10A08800D19D02008000020014ED00E0F8B50479CB
:10A0980000682D4D0023C0F800352C2303FB045322
:10A0A8005B6873B1294BC0F80833020B53B2012126
:10A0B8005B0902F01F0201FA02F22033244941F839
:10A0C8002320D0F80C65D0F81415D0F80835D0F84E
:10A0D80010254FF0FF37BE42C0F8147518BF06F5BB
:10A0E800E076C0F80C75C0F80875C0F810751EBF8A
:10A0F8004FF0A0474FF0020E47F826E04E1C1FBF56
:10A108004FF0A04601F5E071022746F82170511C76
:10A118001FBF4FF0A04102F5E072022641F822600D
:10A128005A1C1FBF03F5E0734FF0A042022142F80A
:10A138002310FFF73BFC2C2303FB0454002384F873
:10A148002A306360F8BD00BF243100208402020079
:10A1580000E100E02DE9F843234F06794FF02C0980
:10A1680009FB067480466569002D37D16261A160DC
:10A1780025624FF48E71006884F82850FFF7E6FDD9
:10A18800D8F80000012383602146FFF7E7FD6368E4
:10A19800A14633BBD8F80050226A63699A4212D3A9
:10A1A800D8F80030D3F81C21002AFBD00122DA604D
:10A1B80000202C2303FB067600237361BDE8F88397
:10A1C80094F8283043B9D5F81C31002BF8D049460B
:10A1D8002846FFF7C3FDDFE70F20EAE71120BDE8B7
:10A1E800F8832846BDE8F883243100200023435033
:10A1F80082B043580193019B02B070471FB50123F9
:10A208008DF80030054B8DF808000191684693E8F9
:10A218000600904705B05DF804FB00BF50310020F0
:10A228007FB5384AD2F82461002E49D010464FF441
:10A238009271FFF7DBFF02238DF80030D2F88034EB
:10A24800C2F880340393D2F83C358DF808302E4B91
:10A25800DA68019200229A61DA61684693E806009A
:10A268009047284AD2F8443173B14FF4A27110468E
:10A27800FFF7BCFF244B996931B100219961D2F8ED
:10A288003C05D968FFF7BAFF1E4AD2F82031ABB1B6
:10A298004FF490711046FFF7A9FF1B4B596969B13C
:10A2A800D2F84C158DF80810002299688DF8002016
:10A2B80001915A61684693E80600904704B070BD62
:10A2C800D2F81031002BCCD04FF488711046FFF72C
:10A2D8008DFF0D4BD2F83C0599698842C1D1DC69E4
:10A2E8006CB1D2F80052D96825F02005C2F80052A6
:10A2F8001A699C61DA60DE61FFF780FFB1E79C6153
:10A30800D968F9E700200040503100202DE9F843D2
:10A318005F4B06799146242202FB0632044692F8E6
:10A3280020200D469846002A40F0AD805949006823
:10A33800FFF71CFB0746002840F0A7802968236820
:10A34800481C0BD04FF0A04001228A40C0F80825D5
:10A3580001F5E0724FF0030E40F822E06868421CF5
:10A368001FBF00F5E0724FF0A04E4FF0000C4EF802
:10A3780022C0AA6995F814E0C3F824256A7DBEF1C5
:10A38800010F4EEA0202C3F86C25C3F80C15C3F896
:10A3980014051DD1AA68511C1FBF02F5E0714FF0CA
:10A3A800A0404FF0000E40F821E0E968481C0BD0AF
:10A3B8004FF0A04E01208840CEF8080501F5E07066
:10A3C8004FF0030C4EF820C0C3F80815C3F8102549
:10A3D8002423734308EB0302C2F804902A6948F85F
:10A3E8000320B9F1000F3DD04FF4887120682D7F0C
:10A3F800FFF7FCFE4FF490712068FFF7F7FE4FF46B
:10A4080092712068FFF7F2FE20684FF4A271FFF7FF
:10A41800EDFE2268204BC2F80433120B53B2002B16
:10A42800A8BF03F160404FEA53134FEA4511BABF82
:10A438001A4802F00F0500F561404FEA8303B4BFE4
:10A44800C9B2C9B203F16043B4BF415580F80013E3
:10A4580003F5614302F01F02012101FA02F2C3F879
:10A4680080211A6023680822C3F80025242303FBEF
:10A47800068300229A61DA615A61012283F820205A
:10A488003846BDE8F8830827FAE71127F8E700BF40
:10A498005031002029A202001003020014ED00E050
:10A4A800F8B5047900682D4D0023C0F80035242341
:10A4B80003FB04535B6873B1294BC0F80833020BE4
:10A4C80053B201215B0902F01F0201FA02F22033A4
:10A4D800244941F82320D0F80C65D0F81415D0F899
:10A4E8000835D0F810254FF0FF37BE42C0F80C757C
:10A4F80018BF06F5E076C0F81475C0F80875C0F8FE
:10A5080010751EBF4FF0A0474FF0020E47F826E027
:10A518004E1C1FBF4FF0A04601F5E071022746F818
:10A528002170511C1FBF4FF0A04102F5E0720226B6
:10A5380041F822605A1C1FBF03F5E0734FF0A04298
:10A54800022142F82310FFF731FA242303FB0454B5
:10A55800002384F820306360F8BD00BF503100202C
:10A568001003020000E100E001F06043B3F1005F76
:10A578002DE9F041074632D11D4B0679242505FB0C
:10A58800063598466C696CBB6A61A96000684FF42F
:10A598009071FFF72BFE4FF4AC713868FFF726FE79
:10A5A8003B686A69A968C3F84415C3F848250122BD
:10A5B8009A606A68CAB9D3F82011D3F8582149B902
:10A5C800002AF8D00F20242303FB0686002373619A
:10A5D800BDE8F081002A14BF0F200020F3E7102007
:10A5E800BDE8F0811120BDE8F0812046BDE8F0818A
:10A5F800503100200220FEF715BE000008B5074BB9
:10A608001B783BB10020FEF7E9FD0120BDE80840BA
:10A61800FEF7E4BDBDE80840FEF7ECBD753100204B
:10A62800F8B5784C237805461BB100232370FFF753
:10A63800E5FF172D00F28780DFE805F00C171743B8
:10A648005464757F878C878C949898989898C2C61C
:10A65800CDD4DEDEFFF7D2FF6B4819F07BFD6B4BE4
:10A66800002204461A702046F8BD0020FEF79CFD23
:10A67800F8B10020FEF7B2FD022D0CBF4FF4E161E6
:10A688004FF47A61614B1D704FF400404FF4FA7437
:10A698000025E0FB01454FF47A7200232046294645
:10A6A80019F032FE002201465748BDE8F84019F07B
:10A6B8000BBDFEF787FD022D0CBFC8214FF4C871F2
:10A6C800E0E70020FEF770FD40B10020FEF786FDB0
:10A6D8004FF4487103224D4B1A70D5E7FEF772FD0F
:10A6E800C821F7E70020FEF75FFD30B10020FEF734
:10A6F80075FD4FF47A610422EDE7FEF763FD4FF430
:10A70800C871F8E70020FEF74FFD48B10020FEF7BA
:10A7180065FD3E4B05221A7041F69A110022C3E7E7
:10A72800FEF750FDF5E70020FEF77CFD374B0622CB
:10A738001A70002240F6CD41B6E70020FEF742FD30
:10A748000722324B1A7000248DE701202070FEF793
:10A7580069FDEEE701202070FEF764FD00224FF44A
:10A768008041A1E7FEF752FD0C22EAE72848294E6E
:10A7780019F0F0FCD5F1110504461CD0D8B9012D0B
:10A7880013D0C8235D434FF4FA7000214FF40047FB
:10A798004FF47A720023C7FB050119F0B5FD224674
:10A7A80001461B4819F090FC04460220FEF70AFDFA
:10A7B8000123337057E70220FEF710FD0023F8E766
:10A7C800FFF71CFF1222BCE7FFF718FF0020FEF777
:10A7D800F9FC1322B5E7FFF711FF0120FEF7F2FCA1
:10A7E8001422AEE7FFF70AFF0020FEF7EBFC01207A
:10A7F800FEF7E8FC1522A4E7FEF708FD034B1D70E1
:10A80800A1E700BFE4310020B8310020EC3100207E
:10A8180078310020753100202DE9F04781460D463A
:10A82800FEF720FD0128044631D8012D04D022D39B
:10A83800022D2ED0BDE8F087194D47003A18A91807
:10A84800AE5C4A7852B1DFF86880164842464FF449
:10A85800004119F039FC08B988F800903B192B44DD
:10A868009A78114B1A5596B1104B1B687BB130463C
:10A87800BDE8F04718470B4819F06CFC084B04EB8F
:10A88800440213449E78084B1B5DB342EBD0BDE8ED
:10A89800F087034B00EB40041C446678E3E700BFF5
:10A8A800D831002098310020ED310020E831002017
:10A8B8007431002002210078FFF7AEBF044B1B68FB
:10A8C800DB0703D5034B1878FFF7AABE704700BF14
:10A8D800E0310020EC310020012801D8FEF7B4BC9B
:10A8E80000207047044B1B6813F0010301D0FFF7E9
:10A8F80097BE1846704700BFE031002038B51A4BA4
:10A9080018601A4B10F002040546196016D0184B4F
:10A9180018480E221A700F22DA70022140F266627D
:10A92800FCF79CFB044648B9FCF7EAFB044628B947
:10A938000146114A114819F0B5FB0446EB0711D539
:10A948000120FEF79FFC6CB921460D4A0D4819F00D
:10A95800A9FB044630B90C4A0C480121BDE838402F
:10A9680019F0A0BB204638BDE0310020E8310020B6
:10A97800D831002014530400BDA802002853040055
:10A98800C5A802002C530400FDA5020024530400AE
:10A99800012812D8012A0BD1012908D100F10E0291
:10A9A800D2B200EB40000C4B1A5400207047002232
:10A9B8000129F6D009D3022901D007207047064B98
:10A9C80000EB400018444270EFE7034B00EB4000F7
:10A9D80018448270E9E700BFD8310020012808B583
:10A9E80012D8FEF749FC800000F1A040D0F80037EB
:10A9F80023F44033C0F80037D0F8003743F440332D
:10AA0800C0F80037002008BD062008BD08B501229F
:10AA180002210020FFF7BCFF08B1072810D1072248
:10AA280002210120FFF7B4FF08B1072808D100214F
:10AA38000A220846FFF7ACFF10B1072808BF00201C
:10AA480008BD00000388102B10B502D0112B1ED0B2
:10AA580010BD194C2168B1B901220846FFF798FFCB
:10AA680008B1072821D1072202210120FFF790FF12
:10AA780008B1072819D1042202210020FFF788FF16
:10AA880008B1072811D123680133236010BD0A4A91
:10AA98001368013B136073B9FFF7B8FF58B1074B50
:10AAA8001B6843B1BDE810401847044B1B68002BD6
:10AAB800E9D09847E7E710BDF4310020F0310020D5
:10AAC80008B50020FFF78AFF08B1062806D1012043
:10AAD800FFF784FF10B1062808BF002008BD00005A
:10AAE8000D4B10B518600C4629B10120FFF7F4FE94
:10AAF80040B102232370094B1B6853B9BDE81040CD
:10AB0800FFF784BFFFF7E8FE08B10B23F2E72070D8
:10AB1800F1E7002010BD00BFF0310020F431002023
:10AB280076DF704777DF704778DF70477ADF7047E6
:10AB38007CDF70478FDF704733DF7047FCF7F6BA6A
:10AB480008B5FFF7EBF818B1BDE80840FCF7EEBA16
:10AB580008BD00000E2838B5A0F10E0504D00F2856
:10AB680023D0032D0FD938BD184B1B785BB1184C77
:10AB780023786BB90221174805F094FE50B9237861
:10AB880083F0010323702846BDE8384000F0E4BC98
:10AB98000021F0E71328F6D043F201439842F2D09F
:10ABA8000528F0D0FCF7C2FAEDE70B4B0B480C492F
:10ABB800C01AC008000440F00300FBF7C5FF1120CD
:10ABC800FFF790FE0028DED0ECE700BFB934002084
:10ABD800B83400209C34002090480400C048040089
:10ABE800745304000388212B13B504463AD005D8C2
:10ABF800102B17D0112B0AD002B010BD3B2B01D05F
:10AC0800562BF9D11321A088FFF78AFF25E01A4BAC
:10AC18001A481B49C01AC008000440F00300FBF79B
:10AC280093FFE9E7144B15481649C01AC0080004F9
:10AC380040F00300FBF788FF0720FFF753FE08B139
:10AC4800FCF774FAA188104803F0D4FA08B1FCF7AD
:10AC58006DFAA1880D4802F09BF80028CCD0FCF7CB
:10AC680065FAC9E7002301A980888DF804308DF8BA
:10AC78000530FFF75FFFF0E790480400C048040084
:10AC88005B53040069530400D03400202C240020B6
:10AC98000146014805F09CBD9C340020037810B59E
:10ACA800002B67D140680121B0F90040FEF7E2FFB0
:10ACB80008B1FCF73BFA4FF416734FF4806214FBAB
:10ACC80003F393FBF2F303EB4303590001F5877198
:10ACD8008BB240F6B732934248D840F6543293428A
:10ACE8001ED9C3F53B6308336FF039015943642318
:10ACF80091FBF3F11944C9B24FF6FE721E4805F0F4
:10AD08008AFC30F0080235D020F00202112A31D036
:10AD180043F2014290422DD0BDE81040FCF706BA3C
:10AD280040F6B4218B4208D9D31A6FF01701594362
:10AD3800A02391FBF3F12A31DDE740F68812934214
:10AD480006D9C91A6FF0180391FBF3F11231D2E753
:10AD580040F634018B420BD9D31A6FF005015943E1
:10AD68004FF4AA7391FBF3F10631C4E76421C3E7FA
:10AD78000021C1E710BD00BF54340020012808B5E8
:10AD880015D002D302281ED008BD154B1548164908
:10AD9800C01AC008000440F00300FBF7D5FE1120DC
:10ADA800FFF7A0FDD8B1BDE80840FCF7BFB90C4BD0
:10ADB8000C480E49C01AC008000440F00300FBF715
:10ADC800C3FE0D20ECE7064B06480949C01AC00827
:10ADD800000440F00300FBF7B7FE1020E0E708BDD1
:10ADE80090480400C0480400395304004353040049
:10ADF8004F5304000B7813B94878FFF7BFBF70476B
:10AE08000B7823B94B6813B11878FFF7B7BF7047B1
:10AE180008B598B103281ED10F4B10481049C01A25
:10AE2800C008000440F00300FBF78EFE0220FFF785
:10AE380059FD80B1BDE80840FCF778B9FFF752FD2D
:10AE480008B1FCF773F9FFF73BFE08B1FCF76EF9A0
:10AE5800FFF772FEEDE708BD90480400C048040003
:10AE6800BC5304000A7808B512B1012A0AD008BDFB
:10AE78004FF47011064819F027F938B1BDE80840B9
:10AE8800FCF754B9024819F065F9F6E708BD00BFA8
:10AE98006834002008B50B7813B1022B0CD008BD1C
:10AEA8008A890648498805F020FD08B1FCF73EF973
:10AEB8000122034B1A7008BD0022FAE79C340020D7
:10AEC800B934002008B50321044801F0E9F918B1A4
:10AED800BDE80840FCF72AB908BD00BFFC310020D6
:10AEE80010B5044604F098FC204604F0BBFA237819
:10AEF8000C2B03D1BDE81040FFF7E4BF10BDFCF7F1
:10AF080015B9FCF713B9000000B54FF40041ADB016
:10AF18000020FBF751FC08B1FCF708F9FBF776FBBA
:10AF280019F064F808B1FCF701F9A94AA948012108
:10AF380019F0B8F808B1FCF7F9F8A7490320FFF7AA
:10AF4800DDFC08B1FCF7F2F801A90020FFF7C8FD05
:10AF580008B1FCF7EBF89DF80450FDF735FF08B190
:10AF6800FCF7E4F805F0F0FD08B1FCF7DFF8002382
:10AF780001A90120019305F0ADFE08B1FCF7D6F850
:10AF880001A805F079FF08B1FCF7D0F89349944877
:10AF9800FEF7D4FD08B1FCF7C9F8924A1068516869
:10AFA800127A01AB03C301A900201A70FEF708FE4C
:10AFB80008B1FCF7BBF801218B48FEF75BFE08B12E
:10AFC800FCF7B4F801218948FEF754FE08B1FCF7F4
:10AFD800ADF89DF800308648012262F303032CACDB
:10AFE80062F3071304F8B03D19F0B4FB804982B24C
:10AFF8002046FFF79DFD08B1FCF798F84FF4107054
:10B00800FFF792FD08B1FCF791F80822002101A88A
:10B0180019F04AFB4FF448724FF4C873ADF8062094
:10B0280001A80022ADF80430ADF80820ADF80A30C8
:10B03800FFF77CFD08B1FCF779F800216D4802F0B4
:10B04800C7FF08B1FCF772F8AC22002101A819F07B
:10B058002BFB02238DF80430012306228DF80630DD
:10B068008DF880304FF448738DF80720239304221D
:10B078000023ADF8142024935F4A604B6048069281
:10B0880001A92A9301F08DF808B1FCF74FF85C4844
:10B09800012101F083F85B4801F040FE08B1FCF79C
:10B0A80045F8594B5948019301A903F091F808B1A3
:10B0B800FCF73CF80021022201A819F0F5FAF82360
:10B0C8008DF8043001A9022351488DF8053005F0A8
:10B0D800ACFC08B1FCF72AF80021082201A819F0F5
:10B0E800E3FA4C4B019301A902234B488DF8083031
:10B0F80005F033FB08B1FCF719F800210C2201A870
:10B1080019F0D2FA454B01930023454C8DF80C30C9
:10B1180001A90223434802948DF80D308DF80E30B2
:10B1280005F0EEFB08B1FCF701F81022002101A898
:10B1380019F0BAFA3C4B019300220123039201A9AA
:10B1480064223A488DF808308DF810208DF81130B7
:10B158008DF812308DF8133005F0EAF908B1FBF7D5
:10B16800E5FF0822002101A819F09EFA304B31486A
:10B17800029400221A7001A92F4B019305F064FB79
:10B1880008B1FBF7D3FF1C22002101A819F08CFAA3
:10B198004FF4203202924FF47022002303920322CC
:10B1A80001938DF81020ADF812300122069301A802
:10B1B800224B8DF81420079301F0B8FA08B1FBF779
:10B1C800B5FF03F0EFFDD8B3FBF7B0FF38E000BFE1
:10B1D80049AB0200845304005DAB0200A5AC020039
:10B1E8007F53040030530400F8310020FA31002066
:10B1F80088530400883400201C24002019AE020063
:10B20800FC31002099AC020007AF0200D0340020C6
:10B21800DC34002009AE0200F8260020FDAD020053
:10B228000BAF0200BC3400206DAE02005434002085
:10B23800B83400209C3400209DAE020045AB0200CB
:10B248000522002101A819F02FFA9DF8043043F0D7
:10B258000103032203F0F10362F306136FF3C7132C
:10B268008DF8043007238DF8053010238DF806304B
:10B278009DF8073013438DF807309DF8083001A872
:10B2880013438DF8083003F027FE08B1FBF74EFF93
:10B298001A4803F009FE08B1FBF748FF00F01EFA50
:10B2A800174C184B1849E41AE408240444F0030422
:10B2B8002046FBF749FC022D1CD114492046FBF718
:10B2C80043FC03F061FE08B1FBF730FF104B6FF051
:10B2D800070293F854100120FFF724FC08B1FBF78C
:10B2E80025FF00F009FAFBF7C1FA0028FBD1FDF7AA
:10B2F80081FDF8E7FFF7E6FDE8E700BFE9AE0200E9
:10B30800C04804009048040094530400AF5304005C
:10B31800FC310020044B05480549C01AC008000448
:10B3280040F00200FBF710BC90480400C04804003D
:10B33800E853040030B52D4B144652681B6887B09B
:10B348000D465AB35A041ED5294B1B68032B1ADD28
:10B358002F21284819F064F9B8B12F21254819F090
:10B368005FF9411C244B6268D3F804350492627873
:10B378000392227802926A880192204A009204205D
:10B388009D220DF0A5FB07B030BD5C21194819F0CE
:10B3980047F908B15C21E1E71649E3E75B04F2D518
:10B3A800134B1B68032BEEDD2F21124819F038F9D7
:10B3B80090B12F210F4819F033F9411C0E4B227818
:10B3C800D3F8043502926A8801920D4A009204204B
:10B3D800A2220DF07DFBD6E75C21064819F020F982
:10B3E80008B15C21E6E70349E8E700BF84270020AD
:10B3F800802700206954040000100140EE54040026
:10B40800405504000FF0B2BC38B51848184B194C19
:10B4180019491A4DC01AC008000440F00300FBF790
:10B4280093FB00232563A36284F82C3084F82D3025
:10B438000121204617F07AFB20B1114A40F217117A
:10B44800FBF781FE00236566E36584F8603084F8C5
:10B45800613002210B4817F069FB30B1084A40F20D
:10B468001711BDE83840FBF76EBE38BDC048040070
:10B4780090480400EC3400200C5604006C5504007D
:10B48800695404002035002008B503781C2B0DD121
:10B49800074B08480849C01AC008000440F00300D8
:10B4A800FBF752FBBDE8084014F012BE08BD00BF10
:10B4B80090480400C04804007855040013B50B4BAD
:10B4C8000B4C0C49E41AE408240444F00304204615
:10B4D800FBF73AFB01A808F0C7FCBDF804200649B1
:10B4E8002046FBF735FB02B010BD00BF90480400B2
:10B4F800C04804002C56040046560400012A11D006
:10B5080006D3022A15D00E4A90210320FBF71BBE52
:10B518000C4B0D480D49C01AC008000440F0030048
:10B52800FBF712BB074B08480949C01AC0080004BA
:10B53800F4E7044B04480749C01AC0080004EDE7C3
:10B548006954040090480400C048040007540400EB
:10B55800275404004754040070B53D4B3D4C3E4908
:10B56800E41AE408240444F003040546024686B0BD
:10B578002046FBF7EDFA032D06D8384A137883F0F6
:10B58800010313708DF80C30354A13788DF80D309F
:10B59800591C3223059364230493324B11701B68A2
:10B5A8005B0419D5304B1B68032B15DD2F212F4861
:10B5B80019F036F8B0B12F212C4819F031F8411C98
:10B5C8002B4B9DF80C20D3F804350192294A0092A0
:10B5D8000420DC220DF07CFA032D20D8DFE805F0EA
:10B5E8000B0B21215C21214819F01AF808B15C21C4
:10B5F800E2E71E49E4E7204E308807F06BFC04AA16
:10B6080003A9304617F0C0FA072815D010D830B172
:10B61800042814D119492A462046FBF799FA06B09E
:10B6280070BD022304AA03A9154817F0FFFAEBE737
:10B638000828EFD01128ECE72A461249ECE7002841
:10B64800EDD00A4A40F20711FBF77DFDE7E700BF9E
:10B6580090480400C048040091550400E8340020D4
:10B6680055350020842700208027002069540400D5
:10B6780000100140A4550400EC340020BF5504001C
:10B6880020350020D655040000B58BB000212422B7
:10B6980001A819F009F801238DF8043007238DF863
:10B6A800073006238DF80C30084B05930849094BE1
:10B6B800099301A814F0DAFC20B1074A40F22511D9
:10B6C800FBF741FD0BB05DF804FB00BF91B402002D
:10B6D8005435002011B402006954040008B5054A25
:10B6E80004214FF4C0400DF0D9F9BDE80840FFF738
:10B6F800CBBF00BF798A030030B5194B1B7887B0E0
:10B7080083B9184D0FCD6C460FC495E8030084E843
:10B718000300684618F0A4FD20B1134A40F23D1119
:10B72800FBF711FD0FF05AFB104C114B1149E41AAD
:10B73800E4082404054644F00300FBF705FA102248
:10B74800294644F00500FBF731FA14F03FFC20B11C
:10B75800054A4FF4A271FBF7F6FC07B030BD00BFF5
:10B7680054350020D053040069540400C048040034
:10B7780090480400005604000369C1688B429DBFCD
:10B788008268D21802F1FF3203F1FF3394BF501AD6
:10B79800581A70472DE9F041C7688668F61B96422B
:10B7A800044688461546406806D9384418F052FFC2
:10B7B8003D44E560BDE8F08132463844AD1B18F0E1
:10B7C80049FF2A4608EB0601606818F043FFF0E7D6
:10B7D8002DE9F843C5680646894617464FF0000824
:10B7E8003469B3687068A54228BFE418013C621B3D
:10B7F8005C1BBC4228BF3C46944228BF14464946BD
:10B808002844224618F026FFB36825449D4208BF05
:10B8180000253F1BA044A144F560E1D14046BDE8A6
:10B82800F883000010B5114C114AA261022323616C
:10B838006361104BE361A2644FF400730E4A236204
:10B84800E26400231022A3626362E362A365636576
:10B85800E36522650949E01D18F05AFF08492046AA
:10B8680018F056FF2023A37110BD00BF58350020E3
:10B8780088560400E0350020D03500209156040099
:10B8880095560400F8B5184C182300FB033503FB44
:10B8980000402544C46A012C0F46164611D003D334
:10B8A800022C1BD000240AE02846FFF765FFB042AF
:10B8B80005D3324639462846FFF76CFF3446204602
:10B8C800F8BD2846FFF758FF8642344628BF04468D
:10B8D800224639462846FFF75DFFF0E72846BDE8CF
:10B8E800F840FFF775BF00BF5835002073B50D4B02
:10B8F8001B7804460D4616460BB9FFF793FF02A8BE
:10B90800002300F8013DFBF763FC32462946204638
:10B91800FFF7B8FF04469DF80700FBF77DFC2046BB
:10B9280002B070BD58350020FFF77CBF826810B5A3
:10B9380004464068531C834205D820688154A3609C
:10B94800E3680133E360A26863689A420CD1216816
:10B958002069FFF7CBFFA368984203D04FF0FF336D
:10B96800E36010BD0023A36010BD00002DE9F84F6F
:10B978000A9C9A460B9B9046064689460A4601272A
:10B9880042451DD2574538BF574613F0010B12D117
:10B998008CB19B0718D5BAF1000F0CBF30252025B4
:10B9A800A74208D229463046FFF7C0FFF368002BAC
:10B9B80004F1FF340ADAF368002B09DABDE8F88FDE
:10B9C800B2FBF8F20137DBE72025E9E7002CE7D1E5
:10B9D8000125BAF1010F04D90AF1FF3A08FB05F570
:10B9E800F7E7B9FBF5F39845F8D9DFF84CA0B9FBB0
:10B9F800F5F330461AF8031005FB1399FFF796FF85
:10BA0800F368002B03DBB5FBF8F5002DEFD1BBF194
:10BA1800000FD3D064B9BDE8F88F20213046FFF776
:10BA280085FFF368002B04F1FF34C7DB002CC5D079
:10BA3800A742F2D3C2E700BF9C5604002DE9F04F9D
:10BA48009BB00AAB059340230693002303900E4650
:10BA580015460793099008934FF00A0916F8011B39
:10BA680039B9089B002B00F3FF8008981BB0BDE88C
:10BA7800F08F252940F0F48031464FF0000B0B7809
:10BA88002B2B01F1010019D00DD8232B19D000243C
:10BA98000E4611F8013BA3F13000092814D809FB20
:10BAA8000434303CF4E72D2B04D0302BEFD14BF08D
:10BAB800020B01E04BF0010B0146E0E74BF0040BF1
:10BAC800FAE74BF0080BF7E72E2B0ED1701C4FF05E
