:020000022000DC
:1060000000F0002079630200616302006363020014
:10601000656302006763020069630200000000001C
:106020000000000000000000000000006B630200A0
:106030006D630200000000006F63020071630200E4
:1060400039D0030073630200EDD4030073630200D0
:10605000736302007363020045D30300736302009D
:106060007363020073630200F18B04007363020028
:1060700073630200B5D5030073630200736302000B
:1060800073630200A12C0500B519040073630200BC
:106090008D2D050073630200D1D7030073630200E6
:1060A0007363020073630200736302007363020090
:1060B0007363020073630200000000000000000030
:1060C0007363020073630200736302007363020070
:1060D0007363020073630200736302007363020060
:1060E0007363020073630200736302000000000028
:1060F00000000000736302000000000073630200F0
:10610000000000000000000000000000000000008F
:10611000000000000000000000000000000000007F
:10612000000000000000000000000000000000006F
:10613000000000000000000000000000000000005F
:10614000000000000000000000000000000000004F
:10615000000000000000000000000000000000003F
:10616000000000000000000000000000000000002F
:10617000000000000000000000000000000000001F
:10618000000000000000000000000000000000000F
:1061900000000000000000000000000000000000FF
:1061A00000000000000000000000000000000000EF
:1061B00000000000000000000000000000000000DF
:1061C00000000000000000000000000000000000CF
:1061D00000000000000000000000000000000000BF
:1061E00000000000000000000000000000000000AF
:1061F000000000000000000000000000000000009F
:10620000364937480A1A02D0072291438D4635494C
:1062100035480A1A06D00722914381F309880222E1
:1062200082F3148831483249324A00F045F8324846
:106230003249334A00F040F832483349334A00F0DB
:106240003BF833483349344A00F036F83348344990
:10625000344A00F031F834483449354A00F02CF81B
:1062600034483549354A00F027F835483549002289
:1062700000F02DF834483549002200F028F8344861
:106280003449091A082903DB002202600430016046
:10629000314A90471F482049884205D0026804309F
:1062A00003B4904703BCF7E700208646EC46002085
:1062B00000212A4A9047FEE7884207D0521A05D0AB
:1062C000037801300B700131013AF9D170478842EF
:1062D00002D002700130FAE77047000000F00020A1
:1062E00000E8002000F0002000F000205099050098
:1062F000B42D0020342F0020D8630200D8630200A0
:10630000583B050050990500B42D0020B42D002005
:10631000343D0500343D0500343D0500343D0500A5
:10632000343D0500343D0500343D0500343D050095
:1063300050990500D09A0500342F0020342F0020FA
:10634000342F0020C4C60020C4C60020C4C60020CC
:10635000C4C60020C4CA0020A163020035E00300C7
:10636000FEE7FEE7FEE7FEE7FEE7FEE7FEE7FEE705
:10637000FEE7FEE7704700BF1048804710484FF027
:106380000701884385460F4880470F48016841F45C
:1063900070010160BFF34F8FBFF36F8FFFF730BF06
:1063A0000A480B490B4A884207D0521A05D0037895
:1063B00001300B700131013AF9D170477563020069
:1063C00000F000209D07040088ED00E0683C050017
:0863D000A02D0020B42D0020D7
:1063D800704770474FF48C7200212DF033BB20B109
:1063E80000F58C730022984200D17047027001308A
:1063F800F9E70000C02AF0B54DD0B2F5807F4CD047
:10640800802A40F0FB800A2300F1080503604560FC
:1064180052090024944201F1040140D103680C2B75
:106428004FD00E2B00F08D800A2B32D1754E764D51
:106438001830002450F8041C56F8242050F8103C5A
:106448005340C1F307220134AA5C53400A0E0A2CB8
:10645800AA5C83EA0243CAB200F11000AA5C83EA8C
:106468000263C1F30742AA5C83EA022350F81C2C9A
:1064780040F8103C83EA020350F8182C40F80C3C12
:1064880083EA020340F8083C83EA010340F8043C2D
:10649800D0D10020F0BD0C23B6E70E23B4E711F8E5
:1064A800023C11F8036C1B0443EA062311F8046C40
:1064B800334311F8016C43EA066345F8243001348C
:1064C800A8E7504E504D2030002450F8041C56F8D0
:1064D800242050F8183C5340C1F307220134AA5C29
:1064E80053400A0E082CAA5C83EA0243CAB200F1A0
:1064F8001800AA5C83EA0263C1F30742AA5C83EA34
:10650800022350F82C2C40F8183C83EA020350F878
:10651800282C40F8143C83EA020350F8242C40F855
:10652800103C83EA020350F8202C40F80C3C83EA24
:10653800020340F8083C83EA010340F8043CC4D154
:10654800A7E7304D304A2830002450F8041C50F892
:10655800206C55F8243050F8107C7340C1F307269E
:106568000134965D73400E0E072C965D83EA064350
:10657800CEB200F12000965D83EA0663C1F30746B8
:10658800965D83EA062350F83C6C40F8203C83EA89
:10659800060350F8386C40F81C3C83EA060350F8B0
:1065A800346C40F8183C83EA0603DEB240F8143C29
:1065B800965D86EA07064FEA1367D75D86EA07669F
:1065C800C3F30727C3F30743D75DD35C86EA0726DF
:1065D80086EA034350F82C6C40F8103C83EA060323
:1065E80050F8286C40F80C3C83EA060381EA030162
:1065F80040F8083C40F8041CA7D14AE76FF01F0098
:10660800F0BD00BF344E0500343D05002DE9F04FC4
:10661800C9B0044602A80D461646FFF7DBFE04F192
:10662800080363603246294602A8FFF7E3FE804666
:1066380000284CD10299039821600A0183188258D6
:10664800A2605A68E2609A682261D868234DDFF830
:106658009490DFF894A0DFF894B0606104F1180218
:106668000139103B00292ADD1E1FA2F1040E03F197
:106678000C0C56F8040FC4B2B4452F5D4FEA1064F1
:106688002C5D0194164C54F82770019C59F824404D
:1066980087EA0407C0F30724C0F307402C5D285C91
:1066A8005AF8244084EA07045BF8207084EA070457
:1066B8004EF8044FDDD110320139103BD2E719688A
:1066C80011605968516099689160DB68D36002A8CD
:1066D800FFF785FE404649B0BDE8F08F343D050020
:1066E8005C4F05005C5B05005C5305005C570500CA
:1066F8002DE9F74F45684E680C68D1F808C0CF6897
:10670800E9682B68DFF878E34F400168DA484910F8
:1067180001395C406B68019129467340AE6851F8B5
:10672800109FD64D8CEA060C019E002E88465FFA13
:1067380084FA01F120014FEA176B00F3D08050F87A
:106748002B6055F82A10DFF840E3714081EA090907
:10675800C3F30721CA4E5EF8211089EA0109CCF378
:1067680007414FEA146A56F8211050F82AA089EA1E
:106778000109D9B24FEA136B55F8211050F82BB024
:1067880081EA0A0AD8F804108AEA010ACCF3072138
:10679800C3F307435EF8211056F823308AEA010A4A
:1067A800C7F3074156F821108AEA010A5FFA8CF10B
:1067B8004FEA1C6C55F8211050F82C0081EA0B0B9D
:1067C800D8F808108BEA0101C7F3072BFFB25EF86F
:1067D8002BB055F8275081EA0B01C4F3074BC4F3DB
:1067E80007244540D8F80C005EF8244056F82BB032
:1067F8006840604058405FFA89F4A24B1E5DD8F8A3
:1068080010406640040E81EA0B011C5D86EA0466AE
:10681800CAF307241C5D86EA0426C1F307441C5DFD
:1068280086EA04465FFA8AF41D5DD8F814406C4085
:106838004FEA19655D5D84EA0564C1F307255D5D6E
:1068480084EA0524C0F307455D5D84EA0544CDB2BA
:10685800090E5F5DD8F818507D404FEA1A67CAF3F1
:10686800074ADF5D85EA0765C0F30727C0B2DF5D29
:10687800185C595C85EA0725C9F30747C9F3072956
:10688800DF5D85EA0745D8F81C701670784080EA05
:10689800016013F8091013F80A30147180EA012016
:1068A800310A5170310C9170210A5171210C91718A
:1068B800290A80EA03435172290C9172190A360E8B
:1068C800240E157213732D0E5173190C1B0ED670EE
:1068D800D471D5729173D37303B0BDE8F08F50F8BB
:1068E8002B8055F82AA051F8206C8AEA080A8AEA0F
:1068F800060AC3F30728644E56F8288051F81C6C22
:106908008AEA080ACCF307485FFA83F95EF8288018
:1069180055F829B08AEA080A4FEA14685FFA8CF930
:1069280050F8288055F829908BEA080B8BEA060B5B
:10693800CCF30728544E56F8288051F8186C8BEA87
:10694800080BC7F307484FEA1C6C5EF828808BEAEF
:10695800080B4FEA1368C3F3074350F8288089EA05
:10696800080888EA0608C7F30729474E56F8299009
:1069780088EA0908C4F30749FFB25EF8299055F878
:10698800277088EA090850F82C90C4F3072487EA8E
:10699800090951F8147C89EA070956F8247089EA2C
:1069A80007095EF8237089EA07095FFA8AF44FEA53
:1069B800196355F8244050F823305C4051F8103CD6
:1069C8005C40CBF307235FFA8BF756F8233055F872
:1069D80027705C40C8F307435FFA88FC5EF82330F1
:1069E80055F82CC05C404FEA1A6350F823305F40DA
:1069F80051F80C3C7B40C8F307274FEA186856F853
:106A080027707B40C9F307475EF827707B404FEA41
:106A18001B67CBF3074B50F827708CEA070C51F82B
:106A2800087C50F828808CEA070CC9F307275FFA1E
:106A380089F956F827708CEA070CCAF30747CAF396
:106A4800072A5EF827708CEA070C55F82970D1F8E8
:106A5800009087EA080851F8047C88EA070756F886
:106A68002A80019E87EA08075EF82B80013E87EAA4
:106A78000807019658E600BF344A0500343E050071
:106A880034460500343D0500344205002DE9F74F32
:106A98004568D1F800C04C688E68CF68E9682B68F3
:106AA800DFF874E34F400168D948491001398CEA8E
:106AB800030C6B68019129465C40AB6851F8109F44
:106AC800D44D7340019E002E88465FFA8CFB01F17D
:106AD80020014FEA146A00F3CF8050F82A6055F875
:106AE8002B10DFF83CE3714081EA0909C7F307215D
:106AF800C94E5EF8211089EA0109C3F307414FEA3C
:106B0800136A56F8211050F82AA089EA0109E1B25F
:106B18004FEA176B55F8211050F82BB081EA0A0A92
:106B2800D8F804108AEA010ACCF307215EF821108C
:106B38008AEA010AC7F30741FFB256F821108AEA28
:106B4800010AD9B2C3F3072355F8211055F8275085
:106B58005EF8233081EA0B0BD8F808108BEA0101A4
:106B6800C4F3072BC4F307445EF82BB081EA0B018A
:106B7800CCF3074B4FEA1C6C56F82BB050F82C009E
:106B88004540D8F80C006840584056F824305FFA61
:106B980089F45840A14B1E5DD8F8104066404FEA72
:106BA8001A6481EA0B011C5D86EA0466C0F30724B7
:106BB8001C5D86EA0426C1F307441C5D86EA044688
:106BC8005FFA8AF41D5DD8F814406C400D0E5D5DC7
:106BD80084EA0564C9F307255D5D84EA0524C0F3EA
:106BE80007455D5D84EA0544CDB2C1F307215F5DC9
:106BF800D8F818507D40070EC0B2DF5D85EA0765FA
:106C0800CAF30727CAF3074ADF5D185C595C85EAAF
:106C18000725C9F307474FEA1969DF5D85EA074584
:106C2800D8F81C701670784013F8097013F80A30F9
:106C3800147180EA076080EA0120310A5170310C32
:106C48009170210A5171210C9171290A80EA03433C
:106C58005172290C9172190A360E240E157213738B
:106C68002D0E5173190C1B0ED670D471D5729173F9
:106C7800D37303B0BDE8F08F50F82A8055F82B90F5
:106C880051F8206C89EA080989EA0609C7F3072838
:106C9800634E56F8288051F81C6C89EA0809C3F33A
:106CA80007485FFA84FA5EF8288055F82AA089EA2E
:106CB80008094FEA13685FFA83FB50F8288055F8F3
:106CC8002BB08AEA080A8AEA060ACCF30728544E47
:106CD80056F8288051F8186C8AEA080AC7F307485A
:106CE800C3F307235EF828808AEA080A4FEA176880
:106CF800FFB250F8288055F827708BEA080888EA10
:106D08000608C4F3072B464E56F82BB056F8233026
:106D180088EA0B08CCF3074B4FEA1C6CC4F3074412
:106D280050F82CC05EF82BB087EA0C0C51F8147C94
:106D38008CEA07075F405EF824304FEA1A645F4028
:106D48005FFA89F350F8244055F8233083EA040C9D
:106D580051F8103C8CEA030CC7F3072388EA0B08A8
:106D680056F823308CEA030CC8F307435FFA8AF419
:106D78005EF8233055F824408CEA030C4FEA186378
:106D88005FFA88FB50F8233055F82BB05C4051F877
:106D98000C3C5C40C9F30723C8F3072856F8233096
:106DA8005C40C7F307435EF823305C403B0EFFB2FC
:106DB80050F823308BEA030B51F8083C55F827703C
:106DC80056F828808BEA0303CAF3072BCAF3074A4D
:106DD80056F82BB0019E83EA0B03C9F3074B4FEA21
:106DE80019695EF82BB050F8299087EA090951F81B
:106DF800047C89EA070787EA08075EF82A80D1F841
:106E08000090013E83EA0B0387EA0807019659E6DA
:106E18005C5B05005C4F05005C5705005C4E050097
:106E28005C53050010B50129144621461A4603D1C2
:106E3800FFF75EFC002010BDFFF728FEFAE72DE9FA
:106E4800F04385B09846130781460D4617460C9CBB
:106E58000D9E49D139B935467B1BDE4223D100202E
:106E680005B0BDE8F083013C002FF8D008F1FF31F0
:106E7800721E04F1100014F8013F11F801EF84426A
:106E880083EA0E0302F8013FF5D13346324629461C
:106E98004846FFF7C7FF3146102240462CF0A8FDB0
:106EA8001036103FE0E71022214668462CF0A0FD7E
:106EB8002B46002122464846FFF7B4FF6B1E08F117
:106EC800FF3105F10F005A7811F801EF82EA0E023E
:106ED80003F8012F8342F6D11022694640462CF070
:106EE80087FD10341035B7E76FF02100B8E7036865
:106EF80030B5CD1A002D02DC6FF05F0030BD1C7874
:106F080014F0800F0AD15C1C04601B7813600368BE
:106F1800C91A13688B42EFD8002030BD04F07F04F3
:106F2800013C032C2ED8DFE804F00209121E012DC3
:106F3800E2D05C78146002330360E8E7022DDBDD01
:106F48005D789C7844EA052414600333F4E7032D44
:106F5800D2DD9C785D78240244EA0544DD782C4330
:106F680014600433E8E7042DC6DD9C785D782404BA
:106F780044EA05641D792C43DD7844EA052414604D
:106F88000533D9E76FF0630030BD70B404680E1B99
:106F9800002E07DD26789E4208D10134046070BCBB
:106FA800FFF7A5BF6FF05F0070BC70476FF061001E
:106FB800FAE737B50123154601AA0446FFF7E5FFAE
:106FC80050B9019B012B09D1236813F8012B00321A
:106FD80018BF01222A60236003B030BD6FF0630040
:106FE800FAE737B50223154601AA0446FFF7CDFF95
:106FF80068B9019B013B032B14D8236893F900302F
:10700800002B0FDB2860019B5A1E01920BB903B0BD
:1070180030BD2368296813F8012B42EA01222A604F
:107028002360F0E76FF06300F1E737B502231546F8
:1070380001AA0446FFF7A9FF40B9019A216828462A
:1070480000F07AFD2368019A1344236003B030BD31
:1070580070B5032304460E461546FFF796FFC8B9D8
:10706800136893B1013B1360226812782A71072ACA
:107078000ED8226801322260AA60226813449E4218
:10708800236018BF6FF0650070BD6FF05F0070BDC2
:107098006FF0630070BD38B5032304461546FFF74B
:1070A80074FF58B913685A1E012B2A6004D9236843
:1070B8005A1C22601B780BB16FF0670038BD0000C6
:1070C8002DE9F3471446984601AA302305460F4692
:1070D800FFF75BFF064630B92B68019A13449F42BD
:1070E80021D06FF06506304602B0BDE8F0871B7806
:1070F80023604A46434639462846FFF746FFF0B91B
:107108002B68A3602B68626813449F422B600ED9DA
:10711800DAF80030102101209847E060044620B9D1
:107128006FF06906DFE7DFF81CA004F104092B689B
:107138009F42DCD84FF00003E360D4D0D1E7064685
:10714800D1E700BFB82D00202DE9F74390461D4632
:1071580001AA302304468946FFF717FF064608BBF5
:107168002768A9EB0709B9F1000F38DD42463B78DB
:1071780042F8043B019B1F44394606232046FFF78B
:1071880004FF064670B92368C8F808302168D8F8A3
:1071980004208B189F4223600BD105F10C03024693
:1071A8009D4203D1304603B0BDE8F0832A70013513
:1071B800F6E7895C2A46013342F8041B204623601F
:1071C8003946FFF794FE68B92368AB6023686A689C
:1071D80013449F42236018BF6FF06506E2E76FF023
:1071E8005F06DFE70646DDE703687F2AA3EB0101B8
:1071F80007D8002969DD591E016003F8012C012018
:107208007047FF2A0DD801295FDD591E016003F878
:10721800012C03685A1E0260812203F8012C022007
:107228007047B2F5803F13D202294EDD591E016026
:1072380003F8012C0368120A591E016003F8012C97
:1072480003685A1E0260822203F8012C032070474B
:10725800B2F1807F19D2032937DD591E016003F886
:10726800012C0368591E0160110A03F8011C036808
:10727800120C591E016003F8012C03685A1E0260A3
:10728800832203F8012C0420704704291DDD591EB0
:10729800016003F8012C0368591E0160110A03F804
:1072A800011C0368591E0160110C03F8011C0368D6
:1072B800120E591E016003F8012C03685A1E026061
:1072C800842203F8012C052070476FF06B0070478B
:1072D8000368591A0029C1BF03F1FF310160012079
:1072E80003F8012CD8BF6FF06B007047F8B505465E
:1072F80010460E46174600F019FC2968B1420446AC
:1073080002D26FF06B00F8BD8B1B9842F9D8091AAE
:1073180002462960384600F042FCF8B93B68012B68
:107328000CD12B6893F90020002A07DA9A1B002A4F
:10733800E7DD5A1E2A60013403F8010C2246314663
:107348002846FFF751FF002808DB04440222314693
:107358002846FFF7BDFF0028A8BF0019F8BD0000A8
:107368002DE9F043DDF81CE0DFF8188100273C46E2
:107378003D4675452DD24FF0000C5E5D202E23D082
:10738800AEEB0509B9F1010F05D90D2E03D15E1930
:1073980076780A2E16D05E5D0A2E13D0BCF1000F47
:1073A8006CD13D2E02D10137022F67D816F0800F1D
:1073B80064D118F806607F2E60D03F2E01D8002FC8
:1073C8005CD101340135D4E70135AE450CF1010C2F
:1073D800D3D11CB914600020BDE8F08304F0070E77
:1073E8000626E40806FB0EFE74430EF1070EE41BA6
:1073F80004EBDE0478B18C420DD80027DFF884C096
:10740800DFF884801D44014603263C46AB4207D181
:10741800091A1160DFE714606FF02900BDE8F083F6
:1074280013F8019BA9F10A0E5FFA8EFEBEF1160F42
:1074380004D828FA0EFE1EF0010FE7D11CF809E067
:107448000134BEF1400F08BF013E0EF03F0E042C80
:107458004EEA8717DAD17EB13C0C012E0C7002D1AE
:1074680001310024D2E7022E4FEA17244C7016BFD0
:107478008F7002310331F4E73446C7E76FF02B0011
:10748800BDE8F0835C5F0500090040000023F0B50B
:1074980016461C46844203D102EB8402BBB9F0BDF8
:1074A800D6F800E0AEEB0305356051F82470BD4214
:1074B8002CBF4FF0000C4FF0010CED1B734594BF2F
:1074C80063460CF1010346F8045B0134E2E71168F6
:1074D800C81A8B4242F8040B94BF00230123DDE74E
:1074E8002DE9F0474FF0000C0D4614468646BEF1D4
:1074F8000F0F05F1400504F1400400F287804FEAC0
:10750800101EA0EB0E1007284FEA8E1E01EB0E0589
:1075180002EB0E0466D951F80E60A3FB067852F808
:107528000E601CEB070C2CBF012100211CEB06068A
:1075380042F80E606E6841EB0801A3FB06786668A6
:10754800CA192CBF0121002192196260AE6841EB73
:107558000801A3FB0678A668C9192CBF01220022DE
:107568008919A160EE6842EB0802A3FB0678E66879
:10757800D2192CBF012100219219E2602E6941EB3A
:107588000801A3FB06782669C9192CBF012200222D
:10759800891921616E6942EB0802A3FB06786669C6
:1075A800D2192CBF0121002192196261AE6941EB09
:1075B8000801A3FB0678A669C9192CBF012200227D
:1075C8008919A161EE69E169A3FB066742EB08022C
:1075D80092192CBF4FF0010C4FF0000C52184CEBD5
:1075E800070CE261C20851010C44A0EBC2000D4433
:1075F80004EB8000844240F02C81036863449C457E
:1076080040F8043B00F23A81BDE8F08755F8406C39
:10761800A3FB069A54F8406C1CEB090C2CBF4FF0E6
:1076280001084FF000081CEB060644F8406C55F8BA
:107638003C6C48EB0A08A3FB069A54F83C6C18EB20
:1076480009082CBF4FF0010C4FF0000C18EB060690
:1076580044F83C6C55F8386C4CEB0A07A3FB0689D8
:1076680054F8386C17EB08072CBF4FF0010C4FF09B
:10767800000CBE1944F8386C55F8347C54F8346C56
:107688004CEB090CA3FB07891CEB080C2CBF01274A
:1076980000271CEB060644F8346C55F8306C47EBB1
:1076A8000907A3FB068954F8306C17EB08072CBFB1
:1076B8004FF0010C4FF0000CBE1944F8306C55F82F
:1076C8002C7C54F82C6C4CEB090CA3FB07891CEBA5
:1076D800080C2CBF012700271CEB060644F82C6C6D
:1076E80055F8286C47EB0907A3FB068954F8286C62
:1076F80017EB08072CBF4FF0010C4FF0000CBE1918
:1077080044F8286C55F8247C54F8246C4CEB090C8C
:10771800A3FB07891CEB080C2CBF012700271CEBD7
:10772800060644F8246C55F8206C47EB0907A3FBC0
:10773800068954F8206C17EB08072CBF4FF0010C92
:107748004FF0000CBE1944F8206C55F81C7C54F816
:107758001C6C4CEB090CA3FB07891CEB080C2CBF19
:10776800012700271CEB060644F81C6C55F8186C1A
:1077780047EB0907A3FB068954F8186C17EB0807B1
:107788002CBF4FF0010C4FF0000CBE1944F8186CD8
:1077980055F8147C54F8146C4CEB090CA3FB0789BE
:1077A8001CEB080C2CBF012700271CEB060644F82D
:1077B800146C55F8106C47EB0907A3FB068954F8BD
:1077C800106C17EB08072CBF4FF0010C4FF0000CA2
:1077D800BE1944F8106C55F80C7C54F80C6C4CEB42
:1077E800090CA3FB07891CEB080C2CBF01270027F9
:1077F8001CEB060644F80C6C55F8086C47EB0907B7
:10780800A3FB068954F8086C17EB08072CBF4FF048
:10781800010C4FF0000CBE1944F8086C55F8046CC4
:107828004CEB090CA3FB06781CEB070C2CBF0126BC
:10783800002608EB060754F8048C0CEB080644F8FD
:10784800046CAEF1100EB04594BFBC4607F1010CB4
:107858004DE655F8046BA3FB06671CEB060C26687F
:107868002CBF012100210CEB0602394444F8042BFB
:10787800964294BF8C4601F1010CBBE64FF0010C17
:10788800BBE620B101230360002343608360704797
:1078980010B5044678B1806840B16368024600219B
:1078A80013F1FF3308D2064B1B6898470123236066
:1078B80000236360A36010BD11600432F0E700BFCD
:1078C800BC2D002042F21073994270B504460D4653
:1078D80002D96FF00F0070BD4368994219D90F4B58
:1078E80004211B682846984706460028F1D0A1685D
:1078F80069B1626892002CF07BF8A0686368024660
:10790800002113F1FF3306D2054B1B6898476560C9
:10791800A660002070BD11600432F2E7B82D002087
:10792800BC2D002043688B4270B504460D4603D831
:10793800BDE87040FFF7C6BF5A1E03F18043013B04
:107948009B00EAB901329542144B38BF15461B68B3
:107958000421284698470646E0B1A16861B1AA000B
:107968002CF046F8A06863680246002113F1FF3343
:107978000DD20B4B1B6898476560A660002070BD50
:10798800A168C958043B0029DCD1013AD9E7116044
:107998000432EBE76FF00F0070BD00BFB82D002078
:1079A800BC2D00208842F8B506460F4622D08D68C7
:1079B8001DB9FFF76DFF2846F8BD4A68013A1AB1AC
:1079C80055F82230002BF9D0541C3B68336021460F
:1079D8003046FFF777FF05460028ECD1726801466C
:1079E8009200B0682CF02EF8A200B968B0682BF0AD
:1079F800FFFFE0E70025DEE7F8B50E4649680546D3
:107A08001446FFF75FFFA8B96242224331682B682A
:107A1800C2F3C012C2F10104514303FB04132B60EB
:107A2800034671688B424FEA830104D30A466968AA
:107A38008B420ED3F8BDD5F808E0B1685EF8237024
:107A480051F82310674301FB02714EF823100133EC
:107A5800E7E7AE68B1586143B15001330432E6E755
:107A680070B50E4601210446FFF72CFF054688B97C
:107A7800626801469200A0682BF0E4FFA36886EADA
:107A8800E672002EA2EBE6721A60B4BF4FF0FF3325
:107A980001232360284670BD4368B1EB431F3FBFF5
:107AA80083684A0901F01F0153F822003ABFC84011
:107AB80000F001000020704770B5002345681946A2
:107AC800A9420ED0826852F82140002224FA02F618
:107AD800F60707D40132202A03F10103F6D1013158
:107AE800EEE70023184670BD436810B5E3B15A1E8F
:107AF80003F18043013B9B0081687AB951F8221059
:107B080000204FF00043194204D1013020284FEAE9
:107B18005303F8D1C0EB4210203010BDCC58043BC1
:107B2800002CEBD1013AE7E7184610BD08B5FFF77E
:107B3800DBFF0730C00808BDF8B506460F461546F6
:107B48000024AC4201D03B5DB3B1291B11F0030303
:107B580018BF012303EB91013046FFF7B3FE50B97C
:107B680001463046FFF77CFF28B907EB050C0346B2
:107B7800EA1A944202D3F8BD0134E2E723F0030E77
:107B88001CF8012DB168DF0007F0180702FA07F7A3
:107B980051F80E203A4341F80E200133E8E7F8B5D2
:107BA800174605460C46FFF7C1FFB842064616D8E9
:107BB80020463A4600212BF045FF3C440023B342BF
:107BC80001D10020F8BD23F00300AF68DA0002F00D
:107BD80018013A58CA4004F8012D0133EFE76FF055
:107BE8000700F8BDF8B506460C464D0901F01F0719
:107BF800FFF77AFF73682044B0EB431F03D875B9C9
:107C08004FBB0020F8BD10F01F0118BF012101EB88
:107C180050113046FFF756FE0028F0D0F8BD7368C3
:107C280003F18042013A6FF0030192006943AB42CD
:107C38000AD803F18043013B9B000022191DDFD0C5
:107C4800B168CA50043BF9E7B0688418013B64582E
:107C58008450043AEBE7AB000021C7F1200E7268AC
:107C68009542CED2B468E05800FA07F20A43E250CF
:107C78000135043320FA0EF1F1E743684A099A42C4
:107C8800F0B501F01F0102D806D1002934D0002137
:107C9800BDE8F040FFF7E4BE4AB100234468A41AE7
:107CA800A34207D39A0000254468A3420AD371B9B6
:107CB8000020F0BD84689D1854F8255044F82350DE
:107CC8000133EBE784680133A5500432ECE74268DE
:107CD80002F18043013B9B000025C1F1200E002AE0
:107CE800E6D08768FE5826FA01F42C43FC50013A86
:107CF800043B06FA0EF5F2E7002AD9D00B46D1E785
:107D0800436870B503F18042013A92004BB94C6860
:107D180004F18042013A920054B9181C18BF01209E
:107D280070BD8468A458043A002CF0D1013BEDE7FB
:107D38008D68AE58043A0EB9013CEDE79C4211D368
:107D480012D803F18042013A92000BB9184670BD6F
:107D580081688C58A9588C4204D8A2F1040203D334
:107D6800013BF2E7012070BD4FF0FF3070BD2DE9F7
:107D7800F04F85B0174603930E9B5A687B68013312
:107D88009A4206468B4654D30E9B9868002850D0DA
:107D9800920000212BF056FE0E9BD7F804A09B689A
:107DA8000093DBF80430009D534528BF53460AF181
:107DB800010801934FEA8808002454451BD1009B11
:107DC800B068A8F104010B44424619462BF010FE96
:107DD80039463046FFF794FF0028B3BF0E9BB268C0
:107DE800B9689A68B8BFB1682046FFF74FFB002012
:107DF80005B0BDE8F08FB368DBF8081053F824909D
:107E08002A680B68019803FB0923039A53430293DA
:107E18002A464B46FFF764FB029BB9682A46504640
:107E2800FFF75EFB45F8049B002345F80830013452
:107E3800C3E76FF00300DBE7436870B503F18042E6
:107E4800013A92003BB94C6804F18042013A920031
:107E580044B97BB923E08468A458043A002CF2D1D1
:107E6800013BEFE78D68AE58043A0EB9013CEFE7E5
:107E78009C4202D20268104670BD096801D94A4284
:107E8800F9E70268002A01DD002916DB002901DD77
:107E9800002A14DB03F18041013989000BB91A4625
:107EA800E9E7846866586C58A642E4D8A1F1040151
:107EB80001D25242DFE7013BF0E70122DBE74FF056
:107EC800FF32D8E71FB581EAE173A3EBE17300291C
:107ED8000093B4BF4FF0FF330123019301A901239D
:107EE8000293CDF80CD0FFF7A7FF05B05DF804FBAF
:107EF80090422DE9F04105460C46174602D08842CB
:107F080030D13C46676801232B6007F18043013B71
:107F18009B007FBB39462846FFF7D4FC064630BB9A
:107F2800AB68D4F808C01A4604460146B94228D1BD
:107F38008F003B44DCB16A68914201F1010806D325
:107F480041462846FFF7BEFC58BBAB683B441A685D
:107F58002244944243F8042B94BF00240124414650
:107F68000437E7E7FFF71EFD06460028C9D030466C
:107F7800BDE8F081A268D258043B002ACAD1013F6B
:107F8800C7E710685CF821E0241874442CBF01206E
:107F9800002042F8044B0131A64594BF0446441C16
:107FA800C4E70646E3E7F0B50F4685B00646114636
:107FB80038461446FFF7A4FE002832DB012301935C
:107FC800B4424FF000030293039306D1214601A85F
:107FD800FFF7E8FC0546B8B901ACB7420DD16068B7
:107FE8000123336000F18043013B9B0090B9B268E4
:107FF800A168FFF74BFA002506E039463046FFF73F
:10800800D1FC05460028EAD001A8FFF741FC284624
:1080180005B0F0BDA268D258043B002AE7D1013868
:10802800E4E76FF00905F2E7F8B50C6813686343F5
:1080380005460F46164616D511463846FFF760FE28
:10804800002806DB324639462846FFF7ACFF40B128
:10805800F8BD3A4631462846FFF7A5FF0028F7D174
:1080680064422C60F4E7FFF743FFF0E7F8B50C68CB
:1080780013686343002B05460F46164616DD114666
:108088003846FFF73DFE002806DB324639462846CB
:10809800FFF789FF40B1F8BD3A4631462846FFF759
:1080A80082FF0028F7D164422C60F4E7FFF720FF35
:1080B800F0E71FB582EAE273A3EBE273002A0093AC
:1080C800B4BF4FF0FF330123019301AA01230293A8
:1080D800CDF80CD0FFF7CAFF05B05DF804FB2DE919
:1080E800F04786B00023154688424FF001028146CA
:1080F8000E468DE80C00029303920493059305D174
:108108006846FFF74FFC044688BB6E46A94506D172
:10811800494603A8FFF746FC044640BB03ADD6F822
:1081280004A00AF18043013B9B00BAF1000F28D15B
:108138006F6807F18043013B9B0057BB0AEB0701BF
:108148004846FFF7BFFB044688B901464846FFF793
:1081580087FC044658B907F1804808F1FF384FEA10
:108168008808EFB932682B685343C9F8003003A870
:10817800FFF78EFB6846FFF78BFB204606B0BDE88D
:10818800F087B268D258043B002AD1D10AF1FF3AED
:10819800CBE7AA68D258043B002ACFD1013FCCE7ED
:1081A800AB68D9F8082053F80830B1684244504603
:1081B800FFF796F9013FA8F10408D2E71FB501239C
:1081C800009201AA01930293CDF80CD0FFF787FF24
:1081D80005B05DF804FB2DE9F04F9BB00F46019008
:1081E8000021184690460393FFF76CFE002800F024
:1081F800A3810024012603990B9640460C940D9404
:108208000E960F9410941196129413941496159434
:108218001694179618941994FFF772FDA04226DA5F
:10822800019B2BB9DFB9002420461BB0BDE8F08FB5
:1082380021460198FFF714FC04460028F2D00BA849
:10824800FFF726FB0EA8FFF723FB11A8FFF720FB7B
:1082580014A8FFF71DFB17A8FFF71AFBE4E7414630
:108268003846FFF79FFB04460028E8D1DBE7414684
:108278000BA8FFF797FB04460028E0D10EAD039941
:108288002846FFF78FFB04460028D8D1D8F80410F9
:108298000E96023111A80B96FFF714FB044600282E
:1082A800CDD1014611A8FFF7DBFB04460028C6D153
:1082B800022114A8FFF706FB04460028BFD10321BA
:1082C80017A8FFF7FFFA04460028B8D12846FFF799
:1082D8000BFC00F01F001F2878D0C0F11F031946BF
:1082E8000BA80293FFF77EFC04460028A7D1029949
:1082F8002846FFF777FC04460028A0D10C9EDDF83D
:108308003CA006F1FF390AF1FF33A9EB030B0093F8
:108318004FEA4B13194628460693FFF763FC0446B9
:1083280000288CD14FEA8B0B29460BA8FFF784FD58
:1083380000284DDA06992846FFF79FFC04460028D6
:108348007FF47DAF009B9B000693043B06F18045BC
:10835800089306F10063013D013B06F18046A5EB59
:108368000A05023EA3EB0A0AAD004FEA4A1AB60014
:10837800009B99453BD8019B5BB111A91846FFF7B3
:1083880011FB08BB039BD8F800201B685343019AD4
:108398001360002F3FF453AF02990BA8FFF76DFC51
:1083A80090B9D8F800300B930BA93846FFF7FAFAC2
:1083B8000146002840F0BE803846FFF783FD0028BC
:1083C8007FF43DAF01233B60044638E7029495E70C
:1083D800139951F80B20013241F80B200BA92A46BA
:1083E8000846FFF743FE044600289DD027E7331DC3
:1083F80006980D99109A09931258CB5813989342DE
:1084080079D34FF0FF334351139A535901335351E2
:10841800331F9B46139A5359013B5351002114A80B
:10842800FFF71EFB0028CFD10099169B109A002950
:108438007ED0089951581960069952585A60139B72
:1084480014A908465A59FFF7B9FE0146002871D108
:1084580017A8FFF705FB0028B6D1B9F1010F0D9A4F
:10846800199B1CBF59465058186091595960099971
:1084780052589A6017A914A8FFF7DEFC0028C9DC37
:10848800139B0EA95A5914A8FFF798FE00289BD1F0
:10849800514614A8FFF7A6FB002895D10BA908465A
:1084A80014AAFFF7E3FD0146002843D10BA8FFF704
:1084B80009FD002818DA0EA914A8FFF773FA002896
:1084C80082D1514614A8FFF78DFB00287FF47CAFBA
:1084D8000BA914AA0846FFF7A7FD00287FF474AF7C
:1084E800139A5359013B535109F1FF39043DAAF13D
:1084F800200A043E3CE7284407908859AAB105930E
:1085080000230493DDE904BC4BEA000B584661469E
:108518002BF07AF800234FF0FF328B4208BF8242DB
:1085280000D21046079B18606EE74FF0FF30F9E75E
:10853800009980E70C4682E66FF00B0474E670B58C
:1085480004460D46104600211646FFF7BBFC0028DE
:1085580024DB2A46334621460020FFF73CFE054629
:1085680038B1284670BD324621462046FFF75CFDEB
:1085780090B900212046FFF7A5FC0028F3DB31461F
:108588002046FFF759FC0028EBDB324621462046FF
:10859800FFF76CFD0028F2D00546E2E76FF0090509
:1085A800DFE72DE9F04FADF2546D06460F46184649
:1085B800002103921D46FFF785FC0028C0F21182B6
:1085C800AB68D3F8008018F0010F00F00A82002190
:1085D8000398FFF777FC0028C0F2038208F1020431
:1085E800640004F008044444032104FB08F3C3F1C5
:1085F8000203013903FB04F4F7D101234FF4C062ED
:1086080014A8089309910A910B930C910D910E935C
:108618000F9110912BF016FA0398FFF765FAB0F551
:10862800287F80F0D280EF2800F2D2804F2800F215
:10863800D28017288CBF4FF0030B4FF0010B6B68EB
:1086480003F1010841463046FFF73CF9034600288C
:1086580040F04F81414617A8FFF734F90346002838
:1086680040F047814FEA48010BA8FFF72BF9034672
:10867800002840F03E813B68049301330AD1394613
:108688000EA8FFF78FF90346002840F03281012336
:108698000E930EAFDDF878361BB19B68002B40F0C7
:1086A8009D80012108A8FFF7DBF90346002840F068
:1086B8002081696808A88901FFF794FA0346002811
:1086C80040F0178108A92A460846FFF738FF0346F5
:1086D800002840F00E81DDF8783623B10C2208A975
:1086E80018462BF085F929463846FFF7A5FB0028E0
:1086F80079DB2A46394617A8FFF721FF03460028E9
:1087080040F0F78064420DF12C092346CDF8009023
:108718002A4608A917A8FFF72AFB0346002840F0B5
:10872800E88008A93046FFF73DF90346002840F0E5
:10873800E08007AB01271393CDF8009023462A4623
:1087480011A93046079711971297FFF710FB0346B8
:10875800002840F0CE80BB454AD1039B4FF000096A
:108768005B680293C846CA464F46BAF1000F40F00C
:10877800A180029B002B40F098804FF0010A0AFA72
:108788000BFA0DF12C09029B434540F003810123AC
:1087980007AA07931193129313922346CDF80090DA
:1087A8002A4611A93046FFF7E2FA0346002840F0AE
:1087B800A080049A511C40F09C80326029463246C1
:1087C8003046FFF731FC034693E04FF0060B36E7DF
:1087D8004FF0050B33E74FF0040B30E70C22DDF8C0
:1087E800781608A87DE7394617A8FFF7DBF885E76C
:1087F8000BF1FF33029307FA03F30593029B6968B1
:108808000C279F4014AB03EB070801314046FFF7E4
:1088180059F8034600286CD117A94046FFF7C2F85B
:108828000346002865D182462346CDF800902A46A3
:1088380041464046FFF79BFA0346002859D1029B60
:108848000AF1010A5345EFD8059B03F101090DF51B
:10885800CA634FF001081F4408FA0BF8A7F2F4574F
:108868000DF12C0AC145BFF478AF6968384601316B
:10887800FFF728F8034600283BD1A7F10C0138463A
:10888800FFF790F80346A0BB23463846CDF800A072
:108898002A4617A9FFF76BFA0C37034648BB09F1BC
:1088A8000109DFE74FF002095FE7029B013B0293F2
:1088B8004FF0200A039B029A9B6853F822300AF172
:1088C800FF3A23FA0AF313F0010336D1B9F1000F86
:1088D8003FF44BAFB9F1010F2FD10BAB00932A46F0
:1088E800234631463046FFF742FA034600283FF454
:1088F8003CAF01220BF1FF3402FA04F402FA0BF543
:108908000C26AC42029364D317A8FEF7C1FF0BA84C
:10891800FEF7BEFF0EA8FEF7BBFFDDF87826029B28
:108928000AB1926822B908A80293FEF7B1FF029B28
:1089380018460DF2546DBDE8F08F08F10108ABEB55
:1089480008029340C34547EA0307ABD14FF000083C
:108958000BAB00932A46234631463046FFF707FA09
:1089680003460028C5D108F10108C345F0D80BAB70
:1089780014A80C21009301FB070123462A46304620
:10898800FFF7F5F903460028B3D14FF00109074670
:108998008046EAE62346CDF800902A46314630461E
:1089A800FFF7E5F903460028A3D17F0017EA0A0F6D
:1089B80003D1029B01330293E5E62346CDF80090EC
:1089C8002A4617A93046FFF7D2F903460028F0D007
:1089D8008FE714AB06FB0430FEF75AFF0134029B05
:1089E8008FE76FF00303A3E7F0B58BB000230126F0
:1089F800074604A815460196029303930496059327
:108A08000693079608930993FEF7CCFF04460028BF
:108A180057D1294607A8FEF7C5FF0446002850D1BC
:108A280004A8FFF749F8054607A8FFF745F8854267
:108A380028BF0546294604A8FFF71FF90446002861
:108A48003FD1294607A8FFF718F90446002838D16E
:108A580007960496002104A8FFF734FA58B9294666
:108A680007A8FFF7BFF8044658BB07A93846FEF722
:108A780099FF044625E004A8FFF71EF8014604A85C
:108A8800FFF7FBF80446E0B907A8FFF715F8014619
:108A980007A8FFF7F2F8044698B907A904A8FFF752
:108AA800CBF9002819DB04A907AA0846FFF77BFAC7
:108AB800044630B9012104A8FFF7DFF8044600286E
:108AC800C8D001A8FEF7E4FE04A8FEF7E1FE07A857
:108AD800FEF7DEFE20460BB0F0BD07A904AA084643
:108AE800FFF761FA04460028EBD1012107A8E3E764
:108AF80070B5B1F5806FADF5806D05460C4616462C
:108B08000CD80A4618466946B04720B92246694635
:108B18002846FFF711F80DF5806D70BD6FF0030062
:108B2800F9E72DE9F04180469CB00F461046002138
:108B38001646FFF7C7F9002840F3438100230125B3
:108B48003246394601A8049505930693079508937C
:108B580009930A950B930C930D950E930F9301951A
:108B680002930393109511931293139514931593ED
:108B780016951793189319951A931B93FFF734FFBB
:108B88000446002854D1294601A8FFF79BF900287C
:108B980040F014813246394604A8FFF7D0FC044659
:108BA800002845D104A907A8FEF7FCFE04460028C2
:108BB8003ED1314610A8FEF7F5FE0446002837D10D
:108BC800314613A8FEF7EEFE0446002830D12946A8
:108BD8000AA8FEF745FF044650BB01460DA8FEF75C
:108BE8003FFF044620BB014616A8FEF739FF04469E
:108BF800F0B9294619A8FEF733FF0446C0B9099B06
:108C08001B68D80766D4012107A8FFF736F8044681
:108C180070B90C9B1B68DD0729D40F9B1B68DC0708
:108C280025D401210AA8FFF728F8044600282FD0E8
:108C380004A8FEF72DFE07A8FEF72AFE0AA8FEF7ED
:108C480027FE0DA8FEF724FE01A8FEF721FE10A8B6
:108C5800FEF71EFE13A8FEF71BFE16A8FEF718FE69
:108C680019A8FEF715FE20461CB0BDE8F0810AA938
:108C780010AA0846FFF7D8F904460028D8D10DA94C
:108C880004AA0846FFF7F2F904460028C9D0CFE73E
:108C980001210DA8FEF7F1FFAFE7012113A8FEF7A8
:108CA800ECFF04460028C3D1189B1B68D9074CD495
:108CB8001B9B1B68DA0748D4012116A8FEF7DDFFC5
:108CC80004460028B4D1012119A8FEF7D6FF0446AE
:108CD8000028ADD1159B1B68DB07DED513A907A8B3
:108CE800FFF7AAF8002842DB07A913AA0846FFF7EE
:108CF800BDF9044600289BD10AA916AA0846FFF721
:108D0800B5F90446002893D119AA0DA90846FFF71A
:108D1800ADF9044600288BD1002107A8FFF7D2F847
:108D280000287FF46CAF002116A8FFF7CBF80028C5
:108D380032DB314616A8FFF77FF8002835DA16A986
:108D48004046FEF72FFE044672E716A910AA084609
:108D5800FFF76AF9044600287FF46AAF19A904AA44
:108D68000846FFF783F904460028A5D060E713A951
:108D780007AA0846FFF77AF9044600287FF458AF97
:108D880016A90AAA0846FFF771F9044600287FF4D5
:108D98004FAF0DAA19A9B9E716A932460846FFF739
:108DA80043F904460028BED042E716A932460846D1
:108DB800FFF75CF904460028BBD039E76FF00D04D3
:108DC80036E76FF003044EE710B1006800B1406960
:108DD8007047802330B58354891A012300249942AF
:108DE80000D830BDC5180133AC54DBB2F7E770B515
:108DF80001238D1A00269D4203D8084400F8015C1F
:108E080070BDC4181444013304F8016CDBB2F2E7F6
:108E180070B5F8B1F2B14D1E445DB4FA84F30E1B7F
:108E28005B09A1422CBF194643F0010116600023DB
:108E3800AB4204D30029084808BF002070BDB342E4
:108E4800C25C34BF0024012412FB04F21143C9B2EE
:108E58000133EDE7014870BD009EFFFF009FFFFF53
:108E680010B502440024131A994200D810BD02F824
:108E7800014BF8E718B112B11160002070470148A2
:108E8800704700BF009FFFFFF0B528B322B300234F
:108E980013600844FF2621B9002E104808BF00209F
:108EA800F0BD10F8014C002C0CBF1C4643F0010427
:108EB80083EA0405013901FB05F715683D43156090
:108EC80010F8015D85F08005A34214BF2B4645F0DC
:108ED80001031E402346DEE70148F0BD009EFFFF68
:108EE800009FFFFF30B5B8B1B2B100231360014451
:108EF8008142A1EB000501D1002030BD11F8014DE0
:108F0800002C0CBF1C4643F0010463406B431568FA
:108F18002B4313602346EBE7004830BD009FFFFF5B
:108F2800054B53F8042C22B1083313F8101C814266
:108F3800F7D11046704700BFA86005004022002105
:108F48002AF080BD10B5044650B1C06B18B1236833
:108F58009B699B69984704F1400300229C4200D119
:108F680010BD22700134F9E730B4C8B10468BCB14F
:108F78002569AD0702D46568954211D1012B42607D
:108F8800037204D06578032D01D0052D04D1A3699F
:108F9800DB68C06B30BC184713B9A3691B69F8E7D5
:108FA800014830BC704700BF009FFFFF38B514462A
:108FB8000546A8B103689BB191B1102A0ED81A6969
:108FC800D20703D4DB689C420AD31C46224605F12B
:108FD80028002AF00DFDAC63002038BD014838BDDB
:108FE800014838BD809FFFFF009FFFFF28B103683D
:108FF8001BB100234362184670470148704700BF01
:10900800009FFFFF2DE9F74FDDF830800F4615462A
:109018009946044618B9524803B0BDE8F08F036872
:10902800002BF8D0B8F1000FF5D00022C8F80020C6
:10903800FFF7CAFE5A78012A064610D1A84240F026
:1090480088809B69C8F800005D68E06B0A4694F95F
:1090580008104B46AC4603B0BDE8F04F6047002807
:1090680079D0494508D1636A002BD4D1B5FBF0F318
:1090780000FB1353002BCED1022A6ED194F908308D
:10908800606A6BB9331A9D420FD814302A463946A4
:1090980020442AF0ADFC636A1D4465620020BBE7EA
:1090A800012B02D1331A9D42EFD310B3A6EB000A6D
:1090B80014305246394620442AF09AFC234694F943
:1090C800081053F8142B92698DE8080204F128035C
:1090D800D2F808B0E06B3246D84700289CD1D8F8BF
:1090E80000303344C8F80030B14460625744A5EBFF
:1090F8000A05002DD2D0B5FBF6FA06FB1A5ABAF1CA
:10910800000F04D194F90830002B08BFB246A5EB34
:109118000A055246791904F114002AF069FC636AB9
:1091280053446362002DB9D0236894F908109B69F1
:109138008DE880022A469E68E06B04F12803B04758
:1091480000287FF469AFD8F800301D44C8F80050F3
:1091580062E7044860E704485EE704485CE700BF4C
:10916800009FFFFF809DFFFF809CFFFF809FFFFF08
:10917800F7B50E4615460446002855D00768002F57
:1091880052D0002A50D0002313607A78032A09D0DD
:10919800511F022906D9012A07D1636A002B244BE3
:1091A80008BF0023184603B0F0BD022A3ED190F94B
:1091B8000830012B2AD1C368002BEED0A16B1430E4
:1091C80001B9F968626A98472046FFF7FDFD234612
:1091D80094F9081053F8142B92698DE8480004F1AB
:1091E800280397680246E06BB84703460028D9D1A0
:1091F80094F9082020469AB9FFF7E6FD236901464D
:109208002A46304603B0BDE8F0401847FFF7DCFDBA
:10921800636A9842D8D0E268002ABFD0044BC1E7FD
:10922800FFF7D2FD2860BDE7024BBBE7024BB9E769
:10923800809DFFFF009FFFFF809FFFFFE8B103684D
:109248005B78022B19D10139032918D8DFE801F01E
:1092580002080C100B4BC3600B4B036100207047D6
:109268000A4BC3600A4BF8E70A4BC3600A4BF4E7A2
:1092780000230A4AC3600261F0E7094870470948B9
:10928800704700BFDB8D0200918E0200F78D02004F
:10929800198E0200698E0200ED8E02007D8E02009A
:1092A800009FFFFF809FFFFF38B504460D4681B140
:1092B80078B1402200212AF0C5FBAB695B69984769
:1092C800E06340B1256004212046FFF7B7FF002086
:1092D80038BD024838BD024838BD00BF009FFFFFB7
:1092E800809EFFFFF0B585B005461F460B9E0C9C7F
:1092F800FFF75CFEB0B92846FFF778FE90B90094F6
:1093080033460A9A39462846FFF77CFE50B9216849
:1093180003AA31442846FFF72BFF18B92368039A9C
:109328001344236005B0F0BD10B50446FDF757F8A7
:10933800024B20461B68BDE810401847BC2D002092
:10934800064B10B51B684FF48C71012098470446F2
:1093580008B1FDF73FF8204610BD00BFB82D00202A
:10936800FDF754B9FDF746B810B45DF8044BFDF7A6
:1093780066BDFDF757BD00002DE9F0418CB01646DB
:10938800054603A80F46984600F076FF3146284662
:1093980001F05EFD0446A0B9139B0193129B009354
:1093A8004246334603A9284601F028FE044640B940
:1093B80003A801F067FC58B903A93846FEF7F2FA8A
:1093C800044603A800F07EFF20460CB0BDE8F081FB
:1093D800004CF6E780B0FFFF4FF49A7200212AF0A4
:1093E80031BB10B50446F8B100F07CFF04F18800E9
:1093F80000F068FF04F1AC0000F064FF04F1E00045
:1094080000F060FF04F5827000F05CFF04F17C005E
:10941800FEF73EFA04F1D000FEF73AFA04F594702C
:10942800BDE81040FEF734BA10BD70B516460A689C
:10943800B21A05460C4601F0E7FC48B923682246F3
:10944800F31A05F1AC012846BDE8704001F0ACBC48
:1094580070BD00002DE9F341174698460E46089B5B
:10946800099A0446B8B1816DA9B100F18805009246
:1094780000F17C012A4601F0A7FE68B9CDF82480E6
:109488000897D4F8DC2033462946204602B0BDE8C8
:10949800F04101F0A1BC024802B0BDE8F08100BF74
:1094A80080B0FFFF2DE9F341164698460F46089B0A
:1094B800099A044618B9124802B0BDE8F08100F1D3
:1094C800D0050192009300F1AC0200F17C0329461B
:1094D800FFF752FF0028EFD12846FEF727FB40454B
:1094E800E9D8A36D13F0070218BF012202EBD302DB
:1094F800314628463A6002B0BDE8F041FEF74FBB5E
:1095080080B0FFFFF8B5C46D0734E4089C420E46EE
:1095180028BF1C461146054622463046FEF70CFB7E
:10952800074650B9E96DE4008C4208D84C35294605
:109538003046FEF781FC002809DA3846F8BD611A82
:109548003046FEF79AFB0028F0D00746F5E72A4692
:1095580031463046BDE8F840FEF788BD2DE9F04FAA
:109568009B46436D97B0054689461446002B00F08C
:10957800AD800DA800F080FE04A8FEF782F907A8C8
:10958800FEF77FF90AA8FEF77CF94FF00C0805F101
:109598004C070C26239B00930DAA229B04A928465E
:1095A80001F012FE034600287CD13A460DA9484630
:1095B800FEF7C5FF0346002874D1013E00F0848001
:1095C80001464846FEF77EFC0028E3D0219B209AFE
:1095D80007A92846FFF796FF0346002862D14FF0F7
:1095E8001F0AEE6D239B229A0736F1080AA8FFF797
:1095F8007FFA0346002855D1E96D26F00706711A4F
:109608000AA8FEF73AFB034600284BD1BAF1010A33
:109618005ED001210AA8FEF755FC0028E1DB394697
:109628000AA8FEF709FC0028DBDA5A464946204614
:10963800FEF755FD0346A8BB07A922460846FEF7D4
:10964800F3FC034670BB07A90AAA0846FEF747FDC4
:10965800034638BB04A90AAA0846FEF740FD03469C
:1096680000BB3A4604A92046FFF75BFA0346C8B98F
:1096780007AA21462046FEF732FD034690B93A462E
:1096880021462046FEF75BFF034658B9B8F10108AA
:109698001AD0014603902046FEF714FC039B0028CD
:1096A8003FF477AF0DA8039300F00CFE04A8FEF773
:1096B800EFF807A8FEF7ECF80AA8FEF7E9F8039B0D
:1096C800184617B0BDE8F08F024BEBE7024BF7E7FF
:1096D800004BF5E700B3FFFF80B0FFFF2DE9F04333
:1096E80099B006460FA898460F46914600F0C4FD6B
:1096F80003A8FEF7C6F806A8FEF7C3F809A8FEF700
:10970800C0F80CA8FEF7BDF8736D002B7ED00121C0
:109718002098FEF7D7FB002864DB06F14C052946A4
:109728002098FEF789FB00285CDA01212198FEF7D2
:10973800C9FB002856DB29462198FEF77DFB002847
:1097480050DA4146304601F083FB044600284AD1EE
:109758004B463A4603A93046FFF7D4FE0446002894
:1097680041D12A46219906A8FFF7DBF904460028CB
:1097780039D106AA03A909A8FEF7B1FC044690BB93
:1097880009A92A460846FEF7DAFE044658BB0CAF7C
:1097980006AA20993846FEF7A2FC044618BB2A46BA
:1097A80039463846FEF7CBFE0446E0B98DE880011D
:1097B80006F1280309AA0FA9304601F087FC0446E0
:1097C80088B90FA801F05EFA60B90FA92A460846C1
:1097D800FEF7B5FE044630B920990FA8FEF72CFB1A
:1097E800044600B10A4C0FA800F06CFD03A8FEF770
:1097F8004FF806A8FEF74CF809A8FEF749F80CA898
:10980800FEF746F8204619B0BDE8F083014CF9E7A9
:1098180000B2FFFF80B0FFFFF0B5B1B0044606A864
:1098280015461E46FEF72DF809A8FEF72AF8399BBB
:109838000393389B02938DE8600004F17C0309AA26
:1098480006A92046FFF78AFE074668BB30AD0DF132
:10985800BD0345F8AC3D09AA0CA92846FDF746FD0D
:10986800041E20DB06AA0CA92846FDF73FFD0028A8
:1098780023DB261832460CA92846FDF7B5FC041E42
:1098880011DB30220DEB02012846FDF721FD0028EF
:1098980013DB344404442246059936982AF0A8F884
:1098A800379B1C603C46274606A8FDF7F1FF09A830
:1098B800FDF7EEFF384631B0F0BD0446F3E700008F
:1098C8002DE9F0438BB004AF129D0293044607AE16
:1098D80038461D4488469146FDF7D3FF3046FDF7CC
:1098E800D0FF302303AA294602A8FDF74EFB58B142
:1098F800A0F59F443846FDF7CBFF3046FDF7C8FF7B
:1099080020460BB0BDE8F083039A029B13449D42A6
:109918001FD13A46294602A8FDF787FB0028E7D160
:109928003246294602A8FDF780FB0028E0D104F161
:1099380088032046019600974A464146FFF7CEFE27
:1099480004460028D6D1044B029A954218BF1C46FB
:10995800D0E7024CCEE700BF00B4FFFF1AB0FFFF0C
:1099680070B505460E4600F019FD044678B906F1B3
:109978007C0105F17C00FEF715F8044638B906F1BC
:10998800880105F1880000F0F3FC044610B1284670
:1099980000F0DEFC204670BD00F084BC00F0D8BCAE
:1099A800036B2BB1C36B002B0CBF02200120704747
:1099B800184670477FB50C4605460C3401A8164674
:1099C800FDF75FFF291D224601A8FEF74FFB05465C
:1099D80068B901462046FEF775FA01A900280CBFB0
:1099E800002206F001022046FEF706F8054601A807
:1099F800FDF74EFF284604B070BD00004B6E70B5F1
:109A080004460D462BB90A1DBDE870400146FEF715
:109A180096BD0368002B09DB2046FEF765F8AB6DA1
:109A2800B0EB430F08D9174E304670BD0021FEF742
:109A380049FA0028F0D0F6E76B6E204698470646AC
:109A48000028F1D104352368002B04DA00212046D0
:109A5800FEF738FA68B929462046FEF7EDF90028DE
:109A6800E2DB2A4621462046FEF79DFA0028F2D07E
:109A780006E02A4621462046FEF7D6FA0028E2D01C
:109A88000646D1E780B0FFFF2DE9F04F8DB00646BE
:109A980003AD684689469046FDF7F3FE2846FDF774
:109AA800F0FE06A8FDF7EDFE09A8FDF7EAFEB3698A
:109AB800002B40F05E8108F1180211462846FEF797
:109AC8000EFB0446002840F0318131462846FFF756
:109AD80095FF0446002840F029812A46414606A8F9
:109AE800FEF7A2FA0446002840F02081371D3946C7
:109AF80006A8FEF7A1F9002880F20F812A46414600
:109B080009A8FEF7B3FA0446002840F00F81099B24
:109B1800002BC0F21B8109AA06A92846FEF7DFFA26
:109B28000446002840F0028131462846FFF766FFC8
:109B38000446002840F0FA80032229466846FEF7CA
:109B48003DFB0446002840F0F18039466846FEF7A0
:109B580073F9002880F2078108F10C0A5246514631
:109B680006A8FEF7BCFA0446002840F0DF8031461C
:109B780006A8FFF743FF0446002840F0D7800121DC
:109B880006A8FEF72FF80446002840F0CF80371DBE
:109B9800394606A8FEF750F9002880F25E8106AA29
:109BA80041462846FEF79BFA0446002840F0BE804E
:109BB80031462846FFF722FF0446002840F0B680C9
:109BC80001212846FEF70EF80446002840F0AE8032
:109BD80039462846FEF730F9002880F2488106AA5F
:109BE800114609A8FEF77BFA0446002840F09E803B
:109BF800314609A8FFF702FF0446002840F0968086
:109C0800012109A8FDF7EEFF0446002840F08E80E8
:109C1800394609A8FEF710F9002880F22E816A4615
:109C2800694606A8FEF75BFA044600287ED131464D
:109C380006A8FFF7E3FE0446002877D106A92A46BE
:109C48000846FEF713FA044600286FD1069B002B3E
:109C5800C0F2198106A92A460846FEF707FA044603
:109C6800002863D1069B002BC0F21A8106AA294658
:109C78002846FEF7FBF90446002857D1039B002B22
:109C8800C0F21B816A4629462846FEF728FA044690
:109C980000284BD131462846FFF7B0FE044600287D
:109CA80044D109AA29462846FEF7E0F904460028C7
:109CB8003CD1AB46039B002BC0F20C8108F1180283
:109CC800514609A8FEF70BFA044678BB314609A8A5
:109CD800FFF794FE044648BB012109A8FDF782FF5F
:109CE800044618BB394609A8FEF7A6F8002880F2F2
:109CF800028106A94846FDF755FE0446B0B903A9F6
:109D080009F10C00FDF74EFE044678B909A909F1DE
:109D18001800FDF747FE044608E006A93A4608463B
:109D2800FEF741F9044600283FF4E1AE6846FDF726
:109D3800AFFD2846FDF7ACFD06A8FDF7A9FD09A86B
:109D4800FDF7A6FD20460DB0BDE8F08F002109A85B
:109D5800FEF7B8F800283FF4DEAE09A93A460846EF
:109D6800FEF762F9CFE63A4669466846FEF71BF900
:109D7800E7E6424641462846FEF7B1F90446002880
:109D8800D4D131462846FFF739FE04460028CDD104
:109D9800032229466846FEF711FA04460028C5D171
:109DA800371D39466846FEF747F800284CDA06F1B1
:109DB800100A00215046FEF785F800283FF4CCAE83
:109DC80008F1180211462846FEF789F904460028CA
:109DD800ACD131462846FFF711FE04460028A5D12C
:109DE8002A46294606A8FEF77AF9044600289DD196
:109DF800314606A8FFF702FE0446002896D15246CF
:109E080006A92846FEF76BF9044600288ED131468C
:109E18002846FFF7F3FD0446002887D12A466946FD
:109E28006846FEF701F9044600287FF47FAF3946FB
:109E38006846FEF701F80028FFF68EAE3A466946F6
:109E48006846FEF7B0F8EEE73A4669466846FEF718
:109E5800AAF804460028A4D068E706A93A460846A6
:109E6800FEF7A1F8044600283FF492AE5EE73A46B2
:109E780029462846FEF797F8A6E609A93A4608466D
:109E8800FEF791F8C0E6002106A8FEF71BF80028A7
:109E98003FF4E0AE06A93A460846FEF7C5F8D2E612
:109EA800002106A8FEF70EF800283FF4DFAE06A949
:109EB8003A460846FEF7B8F8D1E600212846FEF7EC
:109EC80001F800283FF4DEAE3A4629462846FEF758
:109ED800ABF8D0E600215846FDF7F4FF00283FF420
:109EE800EDAE3A4659465846FEF79EF80446002815
:109EF8003FF4E0AE1AE709A93A460846FEF753F8D8
:109F0800EEE6F0B501F1180787B006460D4638466B
:109F18000021FDF7D7FF044600284CD06846FDF71E
:109F2800B0FC03A8FDF7ADFC321D39466846FEF7C4
:109F3800F8FD0446C8BB6A46694603A8FEF7CFF891
:109F4800044690BB314603A8FFF758FD044660BBA2
:109F580003AA29462846FEF7C2F8044628BB31461C
:109F68002846FFF74BFD0446F8B90C3503AA2946E5
:109F78002846FEF7B4F80446B8B931462846FFF734
:109F88003DFD044688B96A4629462846FEF7A7F8E3
:109F9800044650B931462846FFF730FD044620B93B
:109FA80001213846FDF75CFD04466846FDF770FC64
:109FB80003A8FDF76DFC204607B0F0BD2DE9F0477A
:109FC800012A8AB007460D46924607D80968FFF766
:109FD80098FF044620460AB0BDE8F087754B0C216F
:109FE8001B68104698478046002800F0E08001A8CA
:109FF800FDF747FC04A8FDF744FC07A8FDF741FC62
:10A00800296840461831FDF7CDFC044600283AD1AE
:10A0180008F10C064FF0010955F82920A6F10C01AA
:10A0280018323046FEF75BF8044660BB39463046C6
:10A03800FFF7E4FC044630BB09F101039A4506F139
:10A048000C0637D10C2606FB0AF6A6F10C013A1DC0
:10A05800414401A8FEF765FD0446A0B9183E05EB8A
:10A068008A054644B9F1000F26D101A904A8FDF7D5
:10A0780099FC044638B904AA114607A8FEF72FF838
:10A088000446002836D001A8FDF702FC04A8FDF715
:10A09800FFFB07A8FDF7FCFB00250C2606FB058047
:10A0A8000135FDF7F5FBAA45F8D1434B40461B683F
:10A0B80098478FE79946AFE7324601A904A8FEF70B
:10A0C8000EF804460028DED1394604A8FFF796FCAE
:10A0D80004460028D7D155F8042C01A9183208469F
:10A0E800FDF7FDFF04460028CDD1394601A8FFF74A
:10A0F80085FCBEE7394607A8FFF780FC0446002820
:10A10800C1D155F8041C07AA0846FDF7E8FF044624
:10A118000028B8D1394655F8040CFFF76FFC0446FF
:10A128000028B0D155F8041C0C3107AA0846FDF7E1
:10A13800D6FF04460028A6D155F8040C39460C3041
:10A14800FFF75CFC044600289DD155F8041C0C312F
:10A1580004AA0846FDF7C3FF0446002893D155F822
:10A16800040C39460C30FFF749FC044600288AD114
:10A17800B96855F8040CFDF7D5FB0446002882D1D0
:10A1880055F8040CB9680C30FDF7CCFB04460028E0
:10A198007FF479AF55F8040D1830FDF779FB0C3EC4
:10A1A800B9F1000F3FF46FAF09F1FF395AE7034CDB
:10A1B80010E700BFB82D0020BC2D002080B2FFFFA3
:10A1C8002DE9F74F9DF8307080460E469946C7F343
:10A1D800450A02F10C05002401F10C0B4C4507D18E
:10A1E800FA093146404603B0BDE8F04FFFF7E2BB3D
:10A1F800E3B2A3EB0A02534253411A46A5F10C01FC
:10A2080030460193FDF7F8FB48B9019B29461A46E9
:10A218005846FDF7F1FB013424350028DED003B0A1
:10A22800BDE8F08F054B196829B9054A032010705D
:10A23800517001221A600248704700BF382F002071
:10A24800342F0020044B1A7812B913461846704769
:10A258008242FBD00C33F6E720610500054B1A78E3
:10A2680012B91346184670475A888242FAD00C33FE
:10A27800F5E700BF2061050010B5044658B1FDF7A9
:10A2880000FB04F10C00FDF7FCFA04F11800BDE82E
:10A298001040FDF7F6BA10BD18B17C22002129F054
:10A2A800D1BB704710B5044658B1FFF7F5FF04F16C
:10A2B8007C00FDF7E6FA04F18800BDE81040FFF7DE
:10A2C800DBBF10BD10B5044658B1FDF7E1FA04F143
:10A2D8000C00FDF7DDFA04F11800BDE81040FDF7A9
:10A2E800D7BA10BD70B5044628B3036E012B12D03F
:10A2F8000430FDF7CDFA04F11000FDF7C9FA04F1B6
:10A308001C00FDF7C5FA04F12800FFF7DBFF04F194
:10A318004C00FDF7BDFA636F43B100252426A36FF7
:10A328009D4209D3094B606F1B68984704F17C0371
:10A338000022A34207D170BD606F06FB0500FFF73E
:10A34800C1FF0135EBE722700134F2E7BC2D002094
:10A3580010B5044658B1FFF7C5FF04F17C00FDF7BE
:10A3680097FA04F18800BDE81040FFF7ABBF10BDB5
:10A3780038B504460D46FDF715FB70B905F10C011B
:10A3880004F10C00FDF70EFB38B905F1180104F1D2
:10A398001800BDE83840FDF705BB38BD097801F065
:10A3A800F1B910B501210446FDF75AFB60B9012146
:10A3B80004F10C00FDF754FB30B9014604F1180014
:10A3C800BDE81040FDF74CBB10BD00002DE9F0477B
:10A3D80002F1180996B005460E46484600219046F7
:10A3E8001F46FDF76FFD40B939463046FFF7C0FFFD
:10A3F8000446204616B0BDE8F0873B6A3BB1002111
:10A4080007F11800FDF75EFD08B94146EDE73B6A24
:10A41800002B40F0458101A8FDF733FA04A8FDF7A9
:10A4280030FA07A8FDF72DFA0AA8FDF72AFA0DA8B1
:10A43800FDF727FA10A8FDF724FA13A8FDF721FA6B
:10A448004A46494601A8FDF74AFE0446002840F05E
:10A458004181294601A8FFF7D1FA0446002840F0B7
:10A4680039814A4601A904A8FDF739FE04460028A7
:10A4780040F03081294604A8FFF7C0FA04460028B6
:10A4880040F0288101A93A460846FDF728FE04460F
:10A49800002840F01F81294601A8FFF7AFFA0446BB
:10A4A800002840F0178104A907F10C020846FDF7BF
:10A4B80016FE0446002840F00D81294604A8FFF73F
:10A4C8009DFA0446002840F0058101A94246084645
:10A4D800FDF7CCFD0446002840F0FC802F1D019BB1
:10A4E800002BC0F2E78004A908F10C0A524608467E
:10A4F800FDF7BCFD0446002840F0EC802F1D049BAE
:10A50800002BC0F2FD80002101A8FDF7DBFC01460D
:10A51800002800F0068101AA494613A8FDF7DFFDCF
:10A528000446002840F0D680294613A8FFF766FAAB
:10A538000446002840F0CE8001AA114607A8FDF77E
:10A54800CEFD0446002840F0C580294607A8FFF73D
:10A5580055FA0446002840F0BD8001AA07A90AA8B8
:10A56800FDF7BDFD0446002840F0B48029460AA83E
:10A57800FFF744FA0446002840F0AC8007A9424699
:10A588000846FDF7ACFD0446002840F0A3802946A4
:10A5980007A8FFF733FA0446002840F09B80022200
:10A5A80007A901A8FDF70AFE0446002840F092809A
:10A5B8002F1D394601A8FDF73FFC002880F2C08016
:10A5C80004AA11460DA8FDF78AFD0446002840F0AC
:10A5D800818029460DA8FFF711FA0446002879D191
:10A5E8000DA901AA0846FDF741FD0446002871D1CE
:10A5F8000D9B002BC0F2AE800DA90AAA0846FDF7F4
:10A6080035FD0446002865D10D9B002BC0F2AF80B4
:10A6180007A90DAA0846FDF729FD0446002859D1C7
:10A62800079B002BC0F2B08007A904AA0846FDF7D3
:10A6380056FD044600284DD1294607A8FFF7DEF944
:10A648000446002846D10AA952460846FDF747FDA8
:10A65800044600283ED129460AA8FFF7CFF9044648
:10A66800002837D10AAA07A910A8FDF7FFFC04465D
:10A6780080BB109B002BC0F294800DA93046FDF7DB
:10A6880091F9044630BB10A906F10C00FDF78AF9D0
:10A698000446F8B913A906F11800FDF783F949E053
:10A6A800012107F11800FDF70DFC00283FF4B3AEB7
:10A6B800424C9EE6002101A8FDF704FC00283FF467
:10A6C80012AF01A93A460846FDF7AEFC0446002839
:10A6D8003FF405AF01A8FDF7DBF804A8FDF7D8F8AB
:10A6E80007A8FDF7D5F80AA8FDF7D2F80DA8FDF7D9
:10A6F800CFF810A8FDF7CCF813A8FDF7C9F878E64D
:10A70800002104A8FDF7DEFB00283FF4FCAE04A9F5
:10A718003A460846FDF788FC044600283FF4EFAEA9
:10A72800D8E704A8FDF7CEFB30B9424631462846A3
:10A73800FFF7AAF90446CDE73046FFF732FEF9E7FE
:10A7480001A93A460846FDF72EFC044600283FF4C6
:10A7580030AFBFE700210DA8FDF7B4FB00283FF498
:10A768004BAF0DA93A460846FDF75EFC3DE70021D0
:10A778000DA8FDF7A7FB00283FF44AAF0DA93A46FC
:10A788000846FDF751FC3CE7002107A8FDF79AFBB6
:10A7980000283FF449AF07A93A460846FDF744FCAC
:10A7A8003BE7002110A8FDF78DFB00283FF465AFBB
:10A7B80010A93A460846FDF737FC58E780B0FFFF76
:10A7C8002DE9F04FE9B0054611A80E460A921C463D
:10A7D800FDF757F814A8FDF754F805F14C030021CC
:10A7E80018460B93FDF758F90128074640F03382C5
:10A7F800EB6DB3F5C07F34BF0423052305F13401A5
:10A8080004F10C000393FDF717FB049000285ED1B8
:10A8180005F128012046FDF70FFB18B9039B0497A3
:10A8280001330393EB6D039A9A4228BF02220392E5
:10A83800013A0692069901228A4007929DF81C2047
:10A848000892039A013B1344B3FBF2F30593049B6C
:10A858002BB1D5F874B0BBF1000F40F09680BB4B1C
:10A8680007981B68242198478346002800F0F18147
:10A878002146FFF77DFD0446002840F0F08181461F
:10A888000127069B37FA03F324D00DF198085FFAE5
:10A8980089F241462846FFF791FB0446002840F01C
:10A8A800DE8109900127CDF83C80069B37FA03F931
:10A8B8005CD107EBC7030BEB83030D9348226FF0C2
:10A8C800230312FB07387B43D8440E9342E000234E
:10A8D8000493A7E707EBC70879080BEB880801EB97
:10A8E800C1010BEB81014046FFF742FD04460028F9
:10A8F80040F0B5818246059B534509D15FFA89F33B
:10A9080026AA7F0042F82380FFB209F10109B8E7BF
:10A91800424641462846FFF7B7F80446002840F06B
:10A928009E810AF1010AE6E70E9A0D9BCDF8308068
:10A93800424441462846FFF749FD09F10109A8F1BB
:10A9480024080446002840F08A810F9B1A460C9B75
:10A9580042F82A30099BB94503EB090A5FFA8AFADB
:10A96800E2D17F00FFB2CDF824A09EE7099A26A97C
:10A978002846FFF723FB0446002840F07081049B1B
:10A988001BB1079BC5F874B0AB6700210A98FDF7A7
:10A9980083F80DF1440807460A994046FDF702F886
:10A9A8000446002840F05B810A9A0B9914A8FDF729
:10A9B8005DFB0446002840F0528117F1FF3318BFB1
:10A9C80001231A4614A940460693FDF715F80446D4
:10A9D800002840F04481059B0DF1980901465A1C56
:10A9E800484629F02FF82746059BBB4240F099803E
:10A9F80026AA4FF000084FF0010C674580F0A880A8
:10AA08001DA8FFF739FC26AB5A46DB5D009331469B
:10AA1800089B2846FFF7D4FB0446002840F0EA804C
:10AA280006F1180901214846FDF71AF804460028DE
:10AA380040F0E080729B002B00F0D380AB6D0DF1ED
:10AA48005C080733DB0840460393FCF71AFF1AA893
:10AA5800FCF717FF2B1D4FF00C0A0593739B729A96
:10AA680003994046FEF744F805994046FDF7E4F996
:10AA7800002880F28A80BAF1010A00F0EE800121F4
:10AA88004046FDF71FFA0028E8DD42464946484699
:10AA9800FDF725FB034600287FD129464846FEF7E7
:10AAA800ADFF0346002878D1424641461AA8FDF773
:10AAB80016FB0346002870D129461AA8FEF79EFF08
:10AAC8000346002869D11AAA31463046FDF707FB2C
:10AAD8000346002861D129463046FEF78FFF03461A
:10AAE80000285AD11AA942460846FDF7F8FA034643
:10AAF800002852D129461AA8FEF780FF03460028ED
:10AB08004BD106F10C091AAA49464846FDF7E7FA5F
:10AB18000346002841D129464846FEF76FFF034601
:10AB28003BE0BA46002451464046FCF7B5FF17F80B
:10AB38000930A0401843059B07F809009A44039B75
:10AB48000134A342EFD801374EE700BFB82D0020EB
:10AB580092F801E011788EEA0803D84300F001006A
:10AB680010FB01F45BB264B203EA04090EEA080EB2
:10AB780049EA0E08634041EAC01153705FFA88F849
:10AB880002F8011B0CF1010C37E701214046FDF7E3
:10AB980074F8034600283FF467AF40460393FCF778
:10ABA80077FE1AA8FCF774FE039BD3B11C4621E07C
:10ABB800324631462846FEF767FF80B917F8013953
:10ABC80000935A46089B1DA92846FFF7F9FA30B9A1
:10ABD8001DAB324631462846FFF7F8FB40B1044624
:10ABE80008E068AB1F446FF484731F440DF19708A5
:10ABF8004745DDD11DA8FFF765FB84BB069A3146A2
:10AC08002846FEF7D7FE044648BB31462846FFF7DC
:10AC180078F9049B044673B90025242707FB05B07F
:10AC2800FFF750FB0135089AEBB29A42F6D8114B60
:10AC380058461B68984711A8FCF72AFE14A8FCF789
:10AC480027FE14B13046FFF73DFB204669B0BDE84A
:10AC5800F08F094CEFE7094CF7E7094CCAE7049B6A
:10AC6800002BD9D011A8FCF713FE14A8FCF710FE8E
:10AC7800E8E700BFBC2D002080B2FFFF80B0FFFFD7
:10AC880000B3FFFF08B500211830FDF71BF9B0FA33
:10AC980080F0400908BD00002DE9F843012A054667
:10ACA8000E4691469846089C099F3FD8002106F118
:10ACB8001800FDF707F948B917B91E48BDE8F88329
:10ACC80020700123C8F80030BDE8F883281DFCF780
:10ACD8002DFF0546B9F1000F17D142000132974206
:10ACE800C8F80020E9D321460423024601F8013BB5
:10ACF8003046FCF754FFD0B9691C2A46214406F1B6
:10AD08000C00BDE8F843FCF74ABF431C9F42C8F853
:10AD18000030D2D3002106F10C00FCF7BDFE21461D
:10AD2800023001F8010B2A463046EAE70248BDE83E
:10AD3800F88300BF00B1FFFF80B0FFFFF8B50C46F5
:10AD480015461F460BB91648F8BD137833B9012FBD
:10AD5800F9D10846BDE8F840FFF723BB0430FCF7FB
:10AD6800E5FE2B78042B064618D1420001329742A3
:10AD7800E9D10246691C2046FCF7DEFE78B9711C51
:10AD88003246294404F10C00FCF7D6FE38B904F128
:10AD980018000121BDE8F840FCF762BE0148F8BD83
:10ADA80080B0FFFF80B1FFFF012B30B415460DD9ED
:10ADB8001468621C2A60247844B1013B9C4205D87F
:10ADC80013192B60234630BCFFF7B8BF014830BCCD
:10ADD800704700BF80B0FFFF73B5079C069E1D46F5
:10ADE8006CB1013C0194741C0094FFF755FF20B925
:10ADF8002B6833702B6801332B6002B070BD01489B
:10AE0800FBE700BF80B0FFFF022A10B5044601D857
:10AE18000D4810BD0B685A1C0A601A78032AF7D12E
:10AE28009A1C0A60DA1C58780A609B7843EA00206A
:10AE3800FFF714FA28B101782046BDE8104000F069
:10AE4800A1BC024810BD00BF80B0FFFF80B1FFFF6A
:10AE5800F0B50F4687B00546012107F11800FDF748
:10AE680031F8064658B92846FEF79AFD012840F001
:10AE7800A08031463846FDF725F8002801DA4E4C07
:10AE88006DE007F10C0431462046FDF71BF8002859
:10AE9800F5DB2E1D31463846FCF7CEFF0028EEDAEA
:10AEA80031462046FCF7C8FF0028E8DA6846FCF778
:10AEB800E8FC03A8FCF7E5FC224621466846FDF7B6
:10AEC8000EF90446002844D129466846FEF796FD47
:10AED800044600283DD13A46394603A8FDF7FFF855
:10AEE8000446002835D1294603A8FEF787FD044605
:10AEF80078BBAB69002B41D103A903220846FDF7B3
:10AF0800D8F8044628BB039B002B2BDB03A93A4641
:10AF18000846FDF7E4F80446D8B9294603A8FEF721
:10AF28006DFD0446A8B903A905F11C020846FDF702
:10AF38007BF8044668B9314603A8FCF77DFF002872
:10AF480031DA03A96846FCF777FF1B4C002808BFD5
:10AF580000246846FCF79CFC03A8FCF799FC2046F3
:10AF680007B0F0BD002103A8FCF7ACFF0028CDD046
:10AF780003A932460846FDF757F8C2E703A905F1C9
:10AF880010020846FDF750F804460028E1D1314682
:10AF980003A8FCF751FF0028B8DB03A9324608468E
:10AFA800FDF701F8F0E703A932460846FCF7FBFF76
:10AFB800BFE7024CD3E700BF80B3FFFF80B0FFFFBD
:10AFC80038B50C460546FEF7EBFC012801460DD1C5
:10AFD8002046FCF777FF002806DB05F14C012046E8
:10AFE800FCF72AFF002803DB024838BD024838BDB9
:10AFF800002038BD80B3FFFF80B0FFFF2DE9F04788
:10B0080004460F4603F11800012116461D46DDF8D7
:10B018002080DDF82490FCF755FF10B10F48BDE8FB
:10B02800F08731462046FFF7CBFFA8B929462046CE
:10B03800FFF70EFF80B92046FEF7B2FC0128EDD1DC
:10B04800CDF82490CDF820802B463246394620464C
:10B05800BDE8F047FFF7B4BBBDE8F08780B0FFFF5D
:10B06800F7B507460C461046012115461E46FCF763
:10B0780029FF30B93146204603B0BDE8F040FFF75C
:10B0880077B94FF0FF312846FCF71CFF90B93146DD
:10B098002046FFF76DF9B0B90C3401462046FCF79D
:10B0A80011FF80B12246391D204603B0BDE8F040AB
:10B0B800FCF7DCBF0023019300932A463346214660
:10B0C8003846FFF79BFF03B0F0BD0000F0B58BB02A
:10B0D80005460E4614461F46FEF762FC012825D198
:10B0E80001A8FFF7C9F822463B4601A92846FFF701
:10B0F800B7FF0446A0B9119B109A31462846FFF7BE
:10B10800AFFF044660B9334601AA31462846FFF727
:10B118005DF9044620B931462846FEF7F2FE04469A
:10B1280001A8FFF7CFF820460BB0F0BD004CFAE7B6
:10B1380080B1FFFF2DE9F04F95B0C46DDDF87C803C
:10B1480006468B4615469A46FEF72AFC0734012820
:10B158004FEAD40933D11F2724F007044A4603A92C
:10B1680040461E9B984778B94A4603A92846FCF7EB
:10B17800E3FC48B9F16D2846611AFCF77EFD18B961
:10B18800013F04D1A0F59A4015B0BDE8F08F012128
:10B198002846FCF797FE0028E0DB06F14C0128461C
:10B1A800FCF74AFE0028D9DA1E9B0093CDF80480EC
:10B1B8005B462A4651463046FFF720FFE4E7014840
:10B1C800E2E700BF80B0FFFF13B5049C8DE81800CC
:10B1D80013460A4600F12801FFF7ACFF02B010BD84
:10B1E8002DE9F0410378AAB005460C4623B9284C4E
:10B1F80020462AB0BDE8F0810A789A42F7D101F1D9
:10B20800880841468830FCF717FE0028EFD104F182
:10B218009407394605F19400FCF70EFE0028E6D1A4
:10B2280004F1A00605F1A0003146FCF705FE05462D
:10B238000028DCD102A8FFF71FF80BA8FFF72CF8AD
:10B2480021460BA8FFF7AAF804F1280304F17C02B1
:10B258000195009502A90BA8FFF7D0FE044680B916
:10B26800414602A8FCF7E8FD50B9394605A8FCF7A5
:10B27800E3FD28B9314608A8FCF7DEFD044600B115
:10B28800034C02A8FFF71EF80BA8FFF72BF8AFE74F
:10B2980080B0FFFF03680B4403601078994294BFA5
:10B2A8000346431C13707047036810B514788B422B
:10B2B80038BF013C147003685B1A036010BD30B5D9
:10B2C8008FB0012300210446029305A809232422F4
:10B2D8008DF803100393049028F0B4FB1021204646
:10B2E800FCF7F0FA0546002840F02882A3681A689F
:10B2F800196A019201A80DF10302FFF7CBFFA368B9
:10B308000DF10302596A01A8FFF7C4FFA3680DF104
:10B318000302D96A01A8FFF7C7FFA3680DF103026A
:10B32800196B01A8FFF7C0FFA3680DF10302596B61
:10B3380001A8FFF7B9FFA3680DF10302996B01A8F3
:10B34800FFF7B2FFA368019A1A609DF903105B68C2
:10B35800019300298DF803500DF1030280F2F18169
:10B36800494201A8FFF7A0FFA3680DF10302596A3B
:10B3780001A8FFF78FFFA3680DF10302996A01A8DE
:10B38800FFF788FFA3680DF10302196B01A8FFF707
:10B398008BFFA3680DF10302596B01A8FFF784FF27
:10B3A800A3680DF10302996B01A8FFF77DFFA3685D
:10B3B8000DF10302D96B01A8FFF776FFA368019A84
:10B3C8005A609DF903109B680193002399428DF8F8
:10B3D80003300DF1030280F2B881494201A8FFF75A
:10B3E80063FFA3680DF10302996A01A8FFF752FFF2
:10B3F800A3680DF10302D96A01A8FFF74BFFA36800
:10B408000DF10302596B01A8FFF74EFFA3680DF178
:10B418000302996B01A8FFF747FFA3680DF1030228
:10B42800D96B01A8FFF740FFA368019A9A609DF9BC
:10B438000310DB680193002399428DF803300DF166
:10B44800030280F28681494201A8FFF72DFFA36815
:10B458000DF10302D96A01A8FFF71CFFA3680DF1DB
:10B468000302D96A01A8FFF715FFA3680DF10302CB
:10B47800196B01A8FFF70EFFA3680DF10302196B02
:10B4880001A8FFF707FFA3680DF10302596B01A894
:10B49800FFF700FFA3680DF10302D96B01A8FFF7BE
:10B4A80003FFA3680DF10302196A01A8FFF7FCFE68
:10B4B800A3680DF10302596A01A8FFF7F5FEA36816
:10B4C800019ADA609DF903101B69019300239942E0
:10B4D8008DF803300DF1030280F23F81494201A843
:10B4E800FFF7E2FEA3680DF10302196B01A8FFF74D
:10B4F800D1FEA3680DF10302196B01A8FFF7CAFE7C
:10B50800A3680DF10302596B01A8FFF7C3FEA368F6
:10B518000DF10302596B01A8FFF7BCFEA3680DF1FA
:10B528000302996B01A8FFF7B5FEA3680DF10302AA
:10B53800596A01A8FFF7B8FEA3680DF10302996ADA
:10B5480001A8FFF7B1FEA368019A1A619DF90310DB
:10B558005B690193002399428DF803300DF10302D2
:10B5680080F2FF80494201A8FFF79EFEA3680DF113
:10B578000302596B01A8FFF78DFEA3680DF10302C2
:10B58800596B01A8FFF786FEA3680DF10302996BBA
:10B5980001A8FFF77FFEA3680DF10302996B01A8CC
:10B5A800FFF778FEA3680DF10302D96B01A8FFF736
:10B5B80071FEA3680DF10302996A01A8FFF774FEF2
:10B5C800A3680DF10302D96A01A8FFF76DFEA3680D
:10B5D800019A5A619DF903109B69019300239942CE
:10B5E8008DF803300DF1030280F2BF80494201A8B3
:10B5F800FFF75AFEA3680DF10302996B01A8FFF744
:10B6080049FEA3680DF10302996B01A8FFF742FEFA
:10B61800A3680DF10302D96B01A8FFF73BFEA368ED
:10B628000DF10302D96B01A8FFF734FEA3680DF1F1
:10B638000302996B01A8FFF72DFEA3680DF1030221
:10B64800596B01A8FFF726FEA3680DF10302196ADA
:10B6580001A8FFF729FEA3680DF10302596A01A8A2
:10B66800FFF722FEA368019A9A619DF90310DB692E
:10B678000193002399428DF803300DF1030278DA23
:10B68800494201A8FFF710FEA3680DF10302D96B28
:10B6980001A8FFF7FFFDA3680DF10302D96B01A80C
:10B6A800FFF7F8FDA3680DF10302D96B01A8FFF7B6
:10B6B800F1FDA3680DF10302196A01A8FFF7EAFD7D
:10B6C800A3680DF10302996A01A8FFF7EDFDA368CD
:10B6D8000DF10302D96A01A8FFF7E6FDA3680DF191
:10B6E8000302196B01A8FFF7DFFDA3680DF1030240
:10B6F800596B01A8FFF7D8FDA1689DF90320019BAC
:10B70800CB6122EAE2730B6200230193082360688D
:10B718000133834231D3002A10DA039B049903F1E1
:10B728008043013B524241F823202046224602A989
:10B73800FCF739FC10B94FF0FF33236028460FB0EF
:10B7480030BD01A8FFF7A6FD0EE601A8FFF7A2FD90
:10B7580047E601A8FFF79EFD79E601A8FFF79AFDE5
:10B76800C0E601A8FFF796FD00E701A8FFF792FDE4
:10B7780040E701A8FFF78EFD86E7019841F823000E
:10B78800C5E7000038B50D460446FEF7ABFD032DAE
:10B79800257027D1164B174A6366E2600823164ABC
:10B7A800A360236262622365E362A363134A144BB6
:10B7B80062650125134AE363134B2263A364656042
:10B7C800E561E564A562656325646564201DFCF791
:10B7D8008BF9A06504F14C00FCF786F92566E06555
:10B7E800002038BD2046FEF77DFD084838BD00BF63
:10B7F800C7B20200C461050044610500A4610500E8
:10B808008461050064610500B42D002080B1FFFF4C
:10B818000338C0B205289ABF024B53F82000002015
:10B82800704700BFE46105000C22002128F00AB926
:10B8380010B50446B8B10368ABB1406808B15B6A9B
:10B848009847A36853B12268D268002103EB4202EB
:10B85800934209D1074BA0681B68984704F10C0371
:10B8680000229C4203D110BD19700133F0E7227009
:10B878000134F6E7BC2D002070B5044616460D4687
:10B88800A1B198B10B6A9847606050B15EB1084B9E
:10B89800E9681B6802209847A06020B96B6A606855
:10B8A8009847044870BD2560002070BD024870BDEF
:10B8B800B82D002080AEFFFF00AFFFFF08B530B104
:10B8C800036823B11B6940689847002008BD0148F8
:10B8D80008BD00BF00AFFFFF08B530B1036823B152
:10B8E8005B6940689847002008BD014808BD00BF53
:10B8F80000AFFFFF08B530B1036823B19B6940680A
:10B908009847002008BD014808BD00BF00AFFFFFF1
:10B9180038B50D46114628B1C4691A462846A047CD
:10B92800002038BD004838BD00AFFFFF2DE9F041C9
:10B938000D4690B016460446002852D00368002BE6
:10B948004FD08268002A4CD0DA68B24210D21B6904
:10B9580040689847236860685B693246294698477B
:10B96800236860689B696946984723689E686D46A6
:10B978002368D4F80880DA683621404608EB0207C5
:10B9880028F060F823685C21DA68384628F05AF80D
:10B99800013D4346781E4644B34214D1002319465C
:10B9A8000DEB03020133412B19D1236860681B6931
:10B9B8009847236860685D69DA684146A8470020AF
:10B9C80010B0BDE8F08169781A784A4003F8012B75
:10B9D800427815F8011F4A4000F8012FDCE7117082
:10B9E800DEE70148ECE700BF00AFFFFF10B540B14C
:10B9F800036833B1846824B15B69406898470020C4
:10BA080010BD014810BD00BF00AFFFFFF0B50E46E6
:10BA180091B0044608B30268FAB18368EBB1D568FF
:10BA280040681D44694693699847236860681B69A4
:10BA3800984723686068DA685F692946B8472368C9
:10BA480060689A685D696946A847236860689B6969
:10BA580031469847002011B0F0BD0148FBE700BF10
:10BA680000AFFFFF70B5044670B1036863B1856825
:10BA780055B11B6940689847236860685E69DA6851
:10BA88002946B047002070BD004870BD00AFFFFFD9
:10BA980008B530B1036823B1DB6A406898470020D5
:10BAA80008BD014808BD00BF00AFFFFF00B18068B6
:10BAB800C0B270475822002127F0C4BF20B100F15E
:10BAC80058030022984200D1704702700130F9E70C
