:020000022000DC
:1060000000F003206D630200556302005763020035
:10601000596302005B6302005D6302000000000040
:106020000000000000000000000000005F630200AC
:106030006163020000000000636302006563020008
:106040006763020067630200B1C203006763020076
:1060500067630200676302007577020067630200EE
:106060006763020067630200257D03006763020027
:1060700067630200676302006763020067630200F0
:10608000676302000D200400EDC302006763020095
:10609000712004006763020005AD0300676302001E
:1060A00067630200676302006763020067630200C0
:1060B0006763020067630200000000000000000048
:1060C00067630200676302006763020067630200A0
:1060D0006763020067630200676302006763020090
:1060E000676302006763020067630200000000004C
:1060F0000000000067630200000000006763020008
:10610000000000000000000000000000000000008F
:10611000000000000000000000000000000000007F
:10612000000000000000000000000000000000006F
:10613000000000000000000000000000000000005F
:10614000000000000000000000000000000000004F
:10615000000000000000000000000000000000003F
:10616000000000000000000000000000000000002F
:10617000000000000000000000000000000000001F
:10618000000000000000000000000000000000000F
:1061900000000000000000000000000000000000FF
:1061A00000000000000000000000000000000000EF
:1061B00000000000000000000000000000000000DF
:1061C00000000000000000000000000000000000CF
:1061D00000000000000000000000000000000000BF
:1061E00000000000000000000000000000000000AF
:1061F000000000000000000000000000000000009F
:10620000344935480A1A02D0072291438D46334952
:1062100033480A1A06D00722914381F309880222E3
:1062200082F314882F483049304A00F042F8304851
:106230003049314A00F03DF830483149314A00F0E8
:1062400038F831483149324A00F033F831483249A0
:10625000324A00F02EF832483249334A00F029F829
:1062600032483349334A00F024F833483349002296
:1062700000F02AF832483349002200F025F832486D
:106280003249091A082902DB0022026041601F48D6
:106290001F49884205D00268043003B4904703BC0C
:1062A000F7E700208646EC4600200021284A904768
:1062B000FEE7884207D0521A05D0037801300B70F0
:1062C0000131013AF9D17047884202D002700130A1
:1062D000FAE7704700F0032000E8032000F00320F5
:1062E00000F00320504B0400A02D0020CC2E0020F5
:1062F000A4630200A4630200302D0400504B04008C
:10630000A02D0020A02D00203C2E04003C2E0400D7
:106310003C2E04003C2E04003C2E04003C2E0400C5
:106320003C2E04003C2E0400504B04007C4C040026
:10633000CC2E0020CC2E0020CC2E0020B45C0020DF
:10634000B45C0020B45C0020B45C0020B460002089
:106350007D720200FEE7FEE7FEE7FEE7FEE7FEE7EE
:10636000FEE7FEE7FEE7FEE7704700BF094880470B
:1063700009484FF007018843854608488047084888
:10638000016841F470010160BFF34F8FBFF36F8F5D
:10639000FFF736BF6963020000F0032001B103007C
:0463A00088ED00E0A4
:1063A40041DF70470C4B1B6813F4804F03D00B4B39
:1063B4001B68012B00DC704700B583B0084BD3F891
:1063C4000435084A0092A3220749022007F00EF878
:1063D40003B05DF804FB00BF1C2E0020182E002023
:1063E40000100140DC2E0400D22E040000B583B05E
:1063F400012A1FD053B24BB1022A35D0244ABE2100
:10640400032014F073FF03B05DF804FB214B1B68F9
:1064140013F4804FF7D0204B1B68032BF3DD1F4B85
:10642400D3F804351E4A0092B1221E49042006F016
:10643400DDFFE8E70622322142F2010001F0F6F81E
:10644400144B1B6813F4804FDDD0134B1B68032BD4
:10645400D9DD124BD3F80435134A0092B622114900
:10646400042006F0C3FFCEE70A4B1B6813F4804FE9
:10647400C9D0094B1B68032BC5DD084BD3F8043581
:106484000A4A0092BA220749042006F0AFFFBAE78D
:106494006C2E04001C2E0020182E00200010014039
:1064A400FC2E0400D22E04001C2F04003C2F0400F8
:1064B400037803B1704770B5C6B0374C2078374DB8
:1064C400284415F027F822780132D2B22270531EE4
:1064D400EB5C0A2B01D00D2B5BD1012A56D9304B32
:1064E4001B6813F4804F03D02E4B1B68032B0FDC67
:1064F4002B4B1B6813F4804F40D02A4B1B68032B93
:106504003CDD254B1E78802E28BF802600231EE00C
:10651400254BD3F80435214902910192234A009274
:106524004FF4F0722249042006F060FFE0E71B4AB2
:10653400D25C20490C6810095900255C05A800F8B4
:10654400135002F00F020131A25C42540133B342F2
:10655400EDD305AA002302F8163003F1804303F5B6
:106564008833D3F804350292134A0192134A0092F5
:1065740040F2E1120E49042006F038FF064B1B7866
:10658400013B0F4A13700F4B01221A70024B002279
:106594001A7046B070BD00BFCC2E00205C2F0020C6
:1065A4001C2E0020182E002000100140803404000E
:1065B400D22E0400202E0020A4340400B0340400A1
:1065C4005D3000205C30002070B590B00A230A933F
:1065D40007A80FF0EDFD444B1B6813F4804F03D064
:1065E400424B1B68032B10DC0AA90BA80FF074FFA5
:1065F40000286CD03C4B1B6813F4804F03D03B4BFA
:106604001B68032B65DC10B070BD394BD3F804351F
:10661400BDF81C200192374A0092EB22364904202F
:1066240006F0E4FEE0E7354B2DE02F4B1B6813F436
:10663400804F03D02D4B1B68032B37DC01340A9B9E
:106644009C42E0D208A910AB03EB440333F8140CCA
:106654000FF09CFE0528E8D0234B1B6813F4804FF1
:10666400ECD0224B1B68032BE8DD214BD3F80455F7
:1066740010AB03EB440333F8146C08A810F076FE57
:106684000028D0D01E4B9DF82020BDF82210099878
:10669400059004910392029301961A4B00932B46A2
:1066A400F4221549042006F0A1FEC7E7104BD3F8E5
:1066B400043510AA02EB440232F8142C0192124A57
:1066C4000092F8220C49042006F090FEB6E700245C
:1066D400B5E7074BD3F804350C4A0092FE2206496D
:1066E400042006F083FE8EE71C2E0020182E0020C6
:1066F4000010014088320400D22E04006C320400E1
:1067040078320400A0320400E83204000C330400A0
:1067140030B587B00446584B1B6813F4804F03D040
:10672400564B1B68032B05DC032C13D8DFE804F05D
:106734000F2B0F2B524BD3F804350190514A009282
:1067440040F221125049042006F050FEECE70123E8
:106754008DF814304D4A1378591C11708DF815308A
:106764003223049364230393434B1B6813F4804F35
:1067740003D0424B1B68032B09DC032C4ED8DFE803
:1067840004F01515313100238DF81430E2E73C4B49
:10679400D3F804359DF8142001923D4A00924FF439
:1067A4009E723949042006F021FEE6E7394D288817
:1067B4000EF086F903AA05A928461BF085F80546BC
:1067C4009DF814100D2000F017FF112D4BD8DFE8B1
:1067D40005F0254A4A4A164A4A34164A4A4A4A4A57
:1067E4004A4A4A16022303AA05A92B481BF0AAF811
:1067F40005469DF81410202000F0FEFEE5E71E4B30
:106804001B6813F4804F03D01C4B1B68032B07DC5D
:106814000622322142F2010000F008FF07B030BD29
:10682400174BD3F8043501941C4A00924FF4AD720F
:106834001549042006F0DAFDEAE70F4B1B6813F450
:10684400804FEBD00D4B1B68032BE7DD0C4BD3F8CB
:1068540004350194124A00924FF4B3720A49042099
:1068640006F0C4FDDAE7002DD8D00E4A4FF4B57116
:10687400284614F03BFDD1E71C2E0020182E0020E2
:106884000010014000300400D22E040060310020CA
:1068940014300400F02E0020242F00203030040097
:1068A400483004006C2E04003038032800D97047A7
:1068B40008B5FFF72DFF08BD00B58BB020220021DD
:1068C40001A81BF03BFE01238DF8043007238DF84B
:1068D400073006238DF80C30084B0593084B0993B9
:1068E400084901A809F000FF10B90BB05DF804FBDA
:1068F400054A40F2911114F0F9FCF6E7916A02009E
:10690400AD690200582F00206C2E040000B583B03E
:106914001D4A042146F2010006F04CFD1B4B1B6886
:1069240013F4804F03D01A4B1B68032B13DC1BF0AA
:10693400A1FBE0B900F0C2FE164800F0EDFEE0B99C
:1069440001F0BCF801F0D6F801F002F9FFF7B4FF4A
:1069540003B05DF804FB104BD3F804350F4A0092E2
:1069640040F297120E49042006F040FDDFE70D4A7D
:1069740040F2991114F0BAFCDCE70A4A40F29D1186
:1069840014F0B4FCDCE700BF8DD302001C2E002001
:10699400182E00201567020000100140A4330400E3
:1069A400D22E04006C2E040010B582B0194B1B6863
:1069B40013F4804F03D0184B1B68032B01DC002415
:1069C40011E0164BD3F80435154A00924FF4BD720A
:1069D4001449042006F00AFDF1E7134A40F283113A
:1069E40014F084FC0134012C12D8104B342000FB29
:1069F40004300F4B03630023836280F82C3080F84B
:106A04002D30611CC9B21AF025FF0028EAD0E4E752
:106A140002B010BD1C2E0020182E002000100140D2
:106A2400D8330400D22E04006C2E0400F02E002073
:106A34007430040000B583B00F4B1B6813F4804F0F
:106A440003D00E4B1B68032B0ADC0322C82142F23D
:106A5400010000F0EBFD09F091FE03B05DF804FBCA
:106A6400074BD3F80435074A0092DC220649042078
:106A740006F0BCFCE9E700BF1C2E0020182E002005
:106A840000100140F8330400D22E040010B586B083
:106A94000446414B1B6813F4804F03D03F4B1B68E3
:106AA400032B0DDC23780A2B18D023780B2B31D041
:106AB4002378022B4AD023781C2B69D006B010BD52
:106AC400374BD3F8043502780192364A009240F2EB
:106AD40005123549042006F089FCE3E72E4B1B68B8
:106AE40013F4804F03D02D4B1B68032B02DCFFF7FC
:106AF4006BFDDAE72A4BD3F80435A288E1880291CA
:106B040001922A4A009240F209122749042006F011
:106B14006DFCECE7204B1B6813F4804F03D01F4B34
:106B24001B68032B02DCFFF74FFDC1E71C4BD3F8B6
:106B34000435A288E188029101921D4A00924FF423
:106B440087721949042006F051FCECE70DF1160197
:106B5400A0880CF0EFFE104B1B6813F4804F03D099
:106B64000E4B1B68032B02DCFFF72EFDA3E70C4B37
:106B7400D3F80435A288BDF81610029101920D4A8B
:106B8400009240F215120849042006F02FFCEBE7AE
:106B9400FFF750FF92E700BF1C2E0020182E0020A4
:106BA4000010014078310400D22E04009C3104000E
:106BB400E43104002C32040030B587B06421244849
:106BC40000F0BAFC234B1B78D3B14FF0A043D3F8A9
:106BD400103513F0007F26D001F0D8F800F0FEFD48
:106BE40009F0BEFD70BB002142F2010000F013FD6C
:106BF4000222C82142F2010000F018FD07B030BDA6
:106C04006C46154D0FCD0FC495E8030084E80300CE
:106C1400684600F027FC0028DED0104A4FF4DD71EE
:106C240014F064FBD8E709F048FD4FF4FA744FF40C
:106C34007A400B4B43F001039847013CF7D1FFF72F
:106C4400F9FEC9E7054A40F2C91114F04FFBCAE73F
:106C5400AD680200582F00203C2E04006C2E040066
:106C64003033040010B50446002142F2010000F064
:106C7400D2FC04EB840462003221002000F0D6FC34
:106C840010BD08B500F00CFD08BD000000B585B0CE
:106C9400204B1B6813F4804F03D01F4B1B68032B3E
:106CA4001FDC00F027FF00F053FF03A80FF080FA69
:106CB400184B1B6813F4804F03D0174B1B68032B2E
:106CC4001ADC00F0EDFC002142F2010000F0A3FC0C
:106CD4000422C82142F2010000F0A8FC05B05DF8CE
:106CE40004FB0E4BD3F804350D4A00928E220D4955
:106CF400042006F07BFBD4E7084BD3F80435BDF839
:106D04000C200192084A009299220649042006F0B8
:106D14006DFBD6E71C2E0020182E00200010014029
:106D240014340400D22E04008832040008B50A4A40
:106D340001210A481BF0D6F938B900224FF4A47196
:106D440007481BF0E5F918B908BD14F0C1FAF4E7D7
:106D540014F0BEFAF8E700BF35720200D433040021
:106D6400D02E002070B582B006461BF01AFCC5B2C6
:106D7400002401E00134E4B2AC4219D2305D14F0D5
:106D8400FBFB0028F6D00B4B1B6813F4804FF1D0AB
:106D9400094B1B68032BEDDD084BD3F80435019038
:106DA400074A00927B220749042006F01FFBE1E713
:106DB40002B070BD1C2E0020182E002000100140CF
:106DC40030340400D22E040070B596B00D4614463B
:106DD4005268002A2AD0214B1B6813F4804F03D039
:106DE4001F4B1B68032B0FDC4022002106A81BF05D
:106DF400A5FB23786A881B4906A81BF040FB06A85C
:106E0400FFF7B0FF16B070BD174BD3F804354988AF
:106E1400207866780492039602900191134A0092B6
:106E2400CD221349042006F0E1FADDE70B4B1B6881
:106E340013F4804FD8D00A4B1B68032BD4DD0A4BC4
:106E4400D3F804354A88217802910192094A0092C4
:106E5400D2220749042006F0C9FAC5E71C2E0020F7
:106E6400182E0020E02F040000100140602F0400C1
:106E7400D22E0400B42F040070B58AB0064604ACC8
:106E84000D4D0FCD0FC495E8030084E803000B4BB0
:106E940000934FF480730193094A029203930723EA
:106EA4003246694604A814F0BFFA08B90AB070BDA6
:106EB40014F00EFAFAE700BF542E040060300020EC
:106EC4006431002030B591B004460D466B4B1B680D
:106ED40013F4804F03D06A4B1B68032B63DC0A2333
:106EE400ADF81E300DF11E0208A9664B988E0CF009
:106EF400ADFF40B1614B1B6813F4804F03D0604B6E
:106F04001B68032B5DDC4FF6FF73ADF81C3007A93B
:106F14005C4B988E0CF00EFD00285FD007A920462C
:106F24000FF054F9BDF81C10564B988E0CF0D2FC9F
:106F340040B1524B1B6813F4804F03D0504B1B6875
:106F4400032B6CDC00200FF07BFB04464FF6FF7331
:106F5400984271D021464B4B988E0CF0B9FF40B14A
:106F6400464B1B6813F4804F03D0454B1B68032B1F
:106F740077DCFFF729FB8DF83C50434A1378591C02
:106F840011708DF83D3032230E9364230D933D4CE4
:106F940034F8340F0DF094FD0DAA0FA920461AF011
:106FA40093FC11B030BD394BD3F8043502910190F4
:106FB400374A00924FF408723649042006F016FA54
:106FC4008DE7324BD3F804350190334A009240F2F6
:106FD40029223049042006F009FA94E705A9BDF8EE
:106FE4001C000FF0D3F9A8B99DF81430022B03D07C
:106FF400BDF81630A34295D0BDF81C000FF038F947
:1070040020B907A920460FF0E1F88BE7784600F095
:107014007FFEF6E707A920460FF0D8F882E71B4B5E
:10702400D3F8043501901D4A009240F24F221949C9
:10703400042006F0DBF985E7104B1B6813F4804F3E
:1070440088D00F4B1B68032B84DD104BD3F8043519
:10705400134A009240F256220E49042006F0C6F963
:1070640078E70A4BD3F8043501900E4A009240F2B7
:107074005B220849042006F0B9F97AE71C2E0020A7
:10708400182E0020F02E0020613100200010014055
:1070940080300400D22E0400B4300400E030040038
:1070A400183104004431040030B40024234608E0BD
:1070B400A5F14102D2B2052A0FD805EB0414373CDE
:1070C4000133994212DDC55CA5F16102D2B2052AF1
:1070D400EED805EB0414573CF2E7A5F13002D2B226
:1070E400092AEDD805EB0414303CE9E7204630BC0E
:1070F40070470000002A00F083802DE9F04389B036
:107104009046002B7ED01F460446434B1B6813F465
:10711400804F03D0414B1B68032B0ADC3A212046E5
:107124001BF0C2F9441C2C2120461BF0BDF9451E5E
:1071340010E03B4BD3F8043502910190394A009298
:1071440040F283223849042006F050F9E6E7AC42C5
:1071540009D2013421782029F9D02229F7D002E07C
:10716400AC4205D2013D29782029F9D02229F7D053
:10717400AC4249D03A2128461BF096F9461C7D21A1
:1071840030461BF091F9814602E04E4505D20136A6
:1071940031782029F9D02229F7D04E4536D0291B41
:1071A4000131C9B22046FFF77FFFA8F80000012192
:1071B4003046FFF779FF003018BF01203870164BB6
:1071C4001B6813F4804F23D0144B1B68032B01DC82
:1071D40001201EE0124BD3F80435B8F800200690C5
:1071E4000592CDF810900396029501940F4A0092EF
:1071F40040F2A3220C49042006F0F8F8012008E02C
:1072040000207047002004E0002002E0002000E09D
:10721400012009B0BDE8F0831C2E0020182E0020A8
:107224000010014038330400D22E0400503304000F
:107234000E4B1B7803B9704700B583B00B4B00228B
:107244001A700DF105030DF1060209490978094880
:10725400FFF750FF10B903B05DF804FB9DF805106B
:10726400BDF80600FFF72EFEF5E700BF5C300020F6
:107274005D3000205C2F002008B5FFF747FBFFF7C7
:107284009BFC0448FFF7F8FDFFF750FDFFF788F873
:10729400FCE700BFB56402002B4B1B78002B52D0D7
:1072A40000B585B0012804D0032845D005B05DF8A9
:1072B40004FB0023029302A9012013F0CFFB40BB7F
:1072C40002A813F01DFC38BB0123039303A90DF19D
:1072D40006000FF0D9FC10BBBDF806000FF070F9E2
:1072E4000DF105010FF0C6FAE0B90AF0E1FC9DF8D2
:1072F400051000200AF018FEB8B903F04FFEC0B91B
:10730400114B00221A70114B1B68002BCED09847EA
:10731400CCE713F0DDFFD3E713F0DAFFD4E713F083
:10732400D7FFD9E713F0D4FFDFE7784600F0F0FC8D
:10733400E3E713F0CDFFE3E713F058FC0028B5D0E2
:1073440013F0C6FFB2E770476632002068320020AF
:1073540008B5064B01221A70054803F089FE03F0B4
:1073640069FE00B908BD13F0B3FFFBE766320020E5
:10737400A02D002008B503781B2B00D008BD074BB7
:107384001B78002BFAD013F075FC18B9044803F0ED
:1073940073FEF3E713F09CFFF8E700BF66320020AA
:1073A400A02D002008B503230022034909690348DE
:1073B40015F026FC08BD00BF68320020B834002058
:1073C40008B50378023B082B3FD8DFE803F01C051F
:1073D400113E3E2C3E3E36001E4B5B68002B34D0E3
:1073E400007A002831D01C4A0121117098472CE002
:1073F400184B9B684BB3184A127832B3164A0021D3
:107404001170984721E0154B1B784BB9114BDB6881
:107414001BB1114A002111709847FFF7C3FF14E014
:10742400FFF796FF11E010220A4B59690C4815F03A
:1074340077FC50B113F04CFF07E08168C06809F095
:1074440001F918B9054B01221A7008BD13F040FF69
:10745400F8E700BF68320020643200206532002063
:10746400B834002070B586B00446234A03AB07CA7B
:1074740003C323F8022B120C1A70204E35460FCC8E
:107484000FC594E8030085E803007369002B31D02D
:107494001B491C4815F098FB034610B1184606B06A
:1074A40070BD194B009303AB154A1649174815F0E4
:1074B40047FB03460028F1D1154816F0DDFF0146CD
:1074C400124815F069FB03460028E7D1114817F06C
:1074D40095F903460028E1D10E4817F0C5F9014695
:1074E4000A4815F059FB03460028D7D1FFF75AFF85
:1074F4000346D3E70723D1E7B834040068320020F9
:1075040080320020EC350020C5730200B83400201E
:10751400A03200206834002008B5064B1B683BB13C
:1075240011F034FD002803DB024B1B689847F7E792
:1075340008BD00BF2C36002010B50C46144B186053
:10754400144A012114481AF0CDFD78B9610CE00306
:1075540041F26F7200238B4208BF82420BD24FF478
:107564007A7200231AF00EFE014605E00B4A4A2106
:1075740013F0BCFEEAE70521002209481AF0C8FD11
:1075840000B910BD054A4B2113F0B0FEF9E700BF66
:107594002C3600201D750200C4340400C8340400D5
:1075A4003036002008B5104B1B6873B14FF0A04271
:1075B400D2F804350D4909684B40C2F804350A4A2B
:1075C4001368013B136023B108BD002013F080FE53
:1075D400ECE707481AF0BAFD064B1A684FF0A043CF
:1075E400C3F80425F0E700BF5036002054360020CD
:1075F400583600208036002031B1012383404FF0FB
:10760400A042C2F80C357047012383404FF0A042DA
:10761400C2F80835704721B14FF0A043C3F80C05F8
:1076240070474FF0A043C3F80805704772B338B5EC
:107634001346132900D838BD154A10605B00013B7E
:10764400144A13604FF0A043D3F80425124B1A6078
:1076540000254C0CC8034FF47A72002310F5FA701D
:1076640044EB05011AF08EFD2A4601460B481AF038
:107674004FFD0028DFD14FF0A042D2F80435044971
:10768400096823EA0103C2F80435D4E7704700BF50
:107694005436002050360020803600205836002012
:1076A40008B504481AF052FD0021034B1868FFF78F
:1076B400B2FF08BD583600205436002010B582B001
:1076C400124B1B88ADF804300023022B13D802AAF6
:1076D400D01810F8042C4FF0A04102F5E0720324F6
:1076E40041F8224010F8040C01228240C1F8082518
:1076F4000133DBB2E9E7064A012106481AF0F2FC3D
:1077040008B902B010BD13F0E3FDFAE73035040008
:10771400A975020034350400F0B1104A106000234A
:1077240009E00F4AD25C02F5E0724FF0A0410D4827
:1077340041F822000133012BF3D90B4B4FF00042E7
:10774400C3F804230020C3F87C01084BC02283F84B
:10775400062340221A6070470E20704778360020B6
:10776400383504000C0003000060004000E100E034
:1077740010B50024144BC3F87C4103E0D11A14E083
:107784000134E4B2012C1ED84FF0A043D3F81025E5
:107794000E4B195D01238B409343F1D00C4B1B68B6
:1077A4000C4AD2F80425991AE8D443F233339942A7
:1077B400E6D9084BD3F80425054B1A60064B1B6821
:1077C40020469847DCE710BD0060004038350400CF
:1077D4007C3600200010014078360020002869D053
:1077E4002DE9F043CFB00646334B1B6813F4804FAA
:1077F40003D0324B1B68032B0BDC2F4B1B6813F499
:10780400804F03D02D4B1B68032B2ADC4FB0BDE8FF
:10781400F08300230F2B0FD8F25C29490D6810095F
:107824005900285C0DAC04F8130002F00F0201317A
:10783400AA5C62540133EDE70DAA00238DF854309D
:1078440003F1804303F58833D3F8043502921D4ACB
:1078540001921D4A009241221C49042005F0C6FDF4
:10786400CBE71B4BD3F80435B288F188307A747AAD
:10787400B57AF77A96F80CC096F80DE096F80E8073
:1078840096F80F90CDF82C90CDF82880CDF824E010
:10789400CDF820C0079706950594049003910292B1
:1078A400326801920B4A009246220849042005F0EE
:1078B4009DFDABE7704700BF1C2E0020182E002052
:1078C400202E0020A8350400B034040095350400AF
:1078D40000100140BC35040072DF704773DF70474D
:1078E40074DF70472DE9F047A2B0074688469146F9
:1078F400314C0026C4F80660E68130490B78C3EBAE
:1079040043102F4D054425602E4A0244A2601F22D5
:10791400A280A281013303F001030B704FF03C0AF3
:107924005246314613A81AF009FE06238DF84F304B
:10793400ADF8487001238DF84A30ADF85C3012AAD6
:107944001892ADF83C70ADF84090CDF844800DEB42
:107954000A021D928DF878305246314668461AF074
:10796400EDFD02238DF80030221D294613A812F0E4
:1079740069FF90B9104B03F10C029968684612F044
:1079840061FF68B9104A0C491048FFF7A5FF0828A1
:1079940009D070B922B0BDE8F08713F099FCE9E78B
:1079A40013F096FCEEE7002203490848FFF794FF22
:1079B400EFE713F08DFCEDE7C83600208436002095
:1079C40088360020D8360020B02D0020AC2D0020B1
:1079D40088B1B0F5202F06D2094AA2FB0023DB08A8
:1079E40003D1012302E04FF6FF739BB2054A938152
:1079F400044B99607047034B00229A81F8E700BF5B
:107A0400CDCCCCCCB02D002008B50121054B187885
:107A1400FFF764FF18B9002004F0EEF908BD13F075
:107A240057FCF8E7AC2D002008B5044B1878FFF795
:107A340057FF00B908BD13F04BFCFBE7AC2D002049
:107A440076DF70477ADF70477CDF704708B513F044
:107A54003FFC08BD08B503F013FB08BD00B583B0B7
:107A6400037823B1012B0BD003B05DF804FB3B2159
:107A74004088FFF7E5FF0028F6D013F029FCF3E770
:107A8400094B1B6813F4804FEED0084B1B68032B83
:107A9400EADD074BD3F80435064A0092682206490A
:107AA400042005F0A3FCDFE71C2E0020182E002084
:107AB40000100140843604006936040000B583B028
:107AC40013F094F868B90023019301A9012012F07E
:107AD400C5FF48B901A813F013F840B903B05DF825
:107AE40004FB13F0F5FBEEE713F0F2FBF2E713F0FF
:107AF400EFFBF3E700B585B09DF80C30012262F38B
:107B0400030362F307138DF80C3011220F4903A805
:107B1400FFF79AFF98B90023ADF808307823ADF841
:107B24000430C823ADF806304FF4C873ADF80A30FA
:107B340001A8FFF787FF28B905B05DF804FB13F02F
:107B4400C7FBE8E713F0C4FBF6E700BFFC3504000D
:107B540000B58BB00023ADF808307822ADF80420CE
:107B6400C822ADF806204FF4C872ADF80A20069377
:107B7400079301AB039340F6CD4304934FF4803352
:107B8400059303238DF81830064B0893064B09938D
:107B940003A813F011FA10B90BB05DF804FB13F04D
:107BA40097FBF9E7617A0200517A020006207047D8
:107BB40000B587B041F2010398424CD020D944F279
:107BC400010398425DD044F20203984274D1464BBB
:107BD4001B6813F4804F1ED0444B1B68002B1ADD26
:107BE400434BD3F8043510880390526802920191F4
:107BF400404A00926C224049012005F0F7FB0AE05C
:107C0400012859D1384B1B6813F4804F03D0374BEC
:107C14001B68002B12DC4FF0A04342F20102C3F8B0
:107C24001825C3F80C25EFF3108372B64DF6AD6C2E
:107C3400324B1B78002B54D030BFF9E72C4BD3F8D0
:107C44000435029201912E4A009260222A490120B1
:107C540005F0CCFBDFE7244B1B6813F4804FDAD02C
:107C6400224B1B68002BD6DD214BD3F8043502923E
:107C74000191244A009263221F49012005F0B6FBBA
:107C8400C9E7194B1B6813F4804FC4D0174B1B680A
:107C9400002BC0DD164BD3F80435106804905068EF
:107CA4000390029192680192174A00927722124936
:107CB400012005F09BFBAEE70B4B1B6813F4804FD0
:107CC400A9D00A4B1B68002BA5DD094BD3F804355A
:107CD40001910E4A00927B220749012005F086FBA0
:107CE40099E707B05DF804FB1C2E0020182E002035
:107CF400001001405C37040009370400C82D00203F
:107D04001C370400383704007C370400A037040013
:107D140000B583B00023ADF80030054B01936A46EB
:107D2400014644F20200FFF743FF03B05DF804FB91
:107D34009C37040010B40346044C006859689A68E0
:107D4400DB680FC45DF8044B704700BF1837002090
:107D54000B4B0C4A92E8030083E8030003F108028A
:107D6400094903C982E80300DA79042161F307129F
:107D7400DA711A7A022161F387121A72704700BF0E
:107D84001837002060000010A4000010004870475D
:107D94001837002000231F2B09D8074901EBC30023
:107DA40000224280426001F833200133F3E7034BA1
:107DB40000221A60704700BF2837002028380020AE
:107DC40030B405460F4B1B6800240AE01F230E4AFB
:107DD40012F83300A0B102EBC3025288AA4207D0C2
:107DE40001341F2C0BD85A1E002BEFD01346EEE79C
:107DF400054A02EBC30252688A42F1D100E0002036
:107E040030BC7047283800202837002030B40A4A94
:107E140013680A4C04EBC30568806960012104F807
:107E240033100B441360202B01D030BC7047134631
:107E340000221A60F9E700BF283800202837002004
:107E4400C0F30C038B4204D2C91A0144A1F50050BB
:107E54007047C91A08447047C37D002B42D0837809
:107E64000A7802F0800203F07F0313430B70027858
:107E74000B7803F07F0343EAC2130B700378002BE3
:107E840041D030B44378082B14BF002201224B7830
:107E940003F07F0343EAC2134B70858803F0800329
:107EA400C5F3861423434B708A7802F0030242EA36
:107EB4008502D2B28A70857902F0FC02C5F3C1044E
:107EC40022438A70CB7803F01F0343EA4513DBB2E5
:107ED400CB70C27903F0E00302F01F021343CB70AE
:107EE40030BC704783780A7802F0BF029B0103F02C
:107EF400400313430B70C27803F0C00302F03F0247
:107F040013430B70B3E770470023032B22D810B43C
:107F140002E00133032B19D8C3EBC30214010E4A48
:107F2400224492F84820012AF3D10B4A2244948A2D
:107F3400C2899442EDD1C3EBC3021401064A224420
:107F440092888A42E5D10448204400E000205DF88C
:107F5400044B70470020704798380020002300E04D
:107F64000133032B14D8C3EBC3021101094A0A4499
:107F740092F84820022AF3D1064A0A44918A828A56
:107F84009142EDD1C3EBC3031A0102481044704778
:107F9400002070479838002008B904207047082052
:107FA4007047000038B505460C46CB695B78C37052
:107FB400CB691B7883F001038370CB694362087B30
:107FC400022814D0FFF7E8FF6870E27A32B9A18A78
:107FD400C0F10F03994201DC082833D0A18A03467B
:107FE400C0F10F00814207DC52B3012205E0164BB9
:107FF400987DFFF7D1FFE7E701222A7062B1A28AD8
:1080040013440B33114A82FB0312DB17C3EB6203E5
:10801400013BEB710023AB710023EB7505F10C02FE
:1080240094E8030082E80300A2692A622289AA82F2
:10803400A27AAA75226AAA6285F82C30184638BD3D
:108044000022DAE70720FAE780380020ABAAAA2A40
:1080540030B403460C460978817000214162A1685E
:108064000B2903D8217B09B3012100E001211970F8
:108074000020587029B1A1680731C9080139D971A4
:1080840098710121D97503F10C0504F1100103C99C
:1080940085E80300E1899982A1691962217F9975B4
:1080A400617F83F82C109A6230BC70470021DEE7B0
:1080B4000021174B1B688B4227D90023154A02EB7A
:1080C400C10252689A421ED910B40FE060685DF88C
:1080D400044B704701310E4B1B688B4211D90023AE
:1080E4000C4A02EBC10252689A42F3D9094A52F887
:1080F400312002EBC30412F833208242E6D001336C
:10810400EEE70020E3E70131D3E70020704700BF2A
:108114002C3800203038002070B58CB006460D464F
:1081240014462C22002101A81AF008FA0F238DF816
:108134000430ADF808604FF0000365F300038DF8D8
:108144000A308DF80B4001A801F0E6F80CB070BDC0
:1081540030B58DB005460C462C22002101A81AF03A
:10816400EDF910238DF8043002958DF80C4001A828
:1081740001F0D2F80DB030BD00B58DB010B913F1D7
:10818400020F06D1074B186804F05EF80DB05DF8D5
:1081940004FB01228DF80420029301A801F0BCF82D
:1081A400F0E700BF383800202DE9F0410546884645
:1081B4000378BBB10D4B1C68621C1A6004F0070401
:1081C400AB8A0B4F07EBC4067380A988A869FFF735
:1081D40037FE7060EB6903F00103737007F83480B5
:1081E400BDE8F0817846FFF793FDE3E77C38002093
:1081F4003C38002070B5064603784BB1B58A347F0D
:1082040004F00104B188B069FFF71AFE002304E00A
:108214007846FFF77DFDF1E70133072B15D80C4AAB
:1082240002EBC30252688242F6D1094A02EBC3024E
:108234005288AA42F0D1064A02EBC3025278A24203
:10824400EAD1034800EBC30000E0002070BD00BF8A
:108254003C380020F8B515461C460E684A68D1F82B
:1082640008C0CF68E6602261C4F814C0A7610E6933
:108274004A69E66122620378DB092370E27D2AB34E
:10828400027802F07F02A270002262709BB14378F0
:108294009B0103F4FE53827843EA9203A38083781C
:1082A400DB0003F01803C27843EA5213A371C378C6
:1082B40003F01F03E371002363622B78052B1AD8A4
:1082C4002B780F4AD35C84F82C30F8BD0278C2F3C3
:1082D4008012A270027802F03F02E27043B190F97A
:1082E4000120002A02DB04226270CFE70822FBE7A8
:1082F40004226270CAE77846FFF70AFDE0E700BF90
:10830400BC37040070B50C461E460378B3B104258F
:108314002A44A26000F10C032360836A636090F82E
:108324002C30237300236373204604F0F1FA0346D0
:1083340010B9226915443560184670BD0125E7E778
:108344002DE9F0418EB00D4616461C4680460028A5
:108354002DD0002D2FD0002C31D0636A0233059329
:1083640004F10C00A378002B2DD00121627801AF19
:108374003B46082A14BF0022012204F0AAF80697FB
:10838400CDF81C80B2B2ADF820200B9515440C95A5
:1083940063788DF83430237B022B16D00023ADF89C
:1083A400283005A804F08DF80EB0BDE8F0817846B9
:1083B400FFF7AEFCCDE77846FFF7AAFCCBE778469B
:1083C400FFF7A6FCC9E70221D0E723692BB1236993
:1083D40009931023ADF82830E3E77846FFF798FCBB
:1083E400F5E72DE9F04186B004460D46C37D002B28
:1083F4003CD0082605FB06F8E379AB4238D0A571DA
:108404006B46324601A92046FFF77CFF074648BB6E
:108414004DB994F8533033B9A369C3F30C03A38063
:10842400012384F85330E37D7BB994F8523063B967
:108434001DBBB4F84A10627823468A1AE16E0846D6
:10844400FFF77EFF012384F8523005992046FFF799
:1084540003FDE16E3246414400981AF046F801A843
:1084640004F075FA384606B0BDE8F0810C26C1E781
:10847400B4F84A60A6EB0806C1E77846FFF748FC63
:10848400D7E770B505460E4609B100230B6095F891
:108494005040002104E0631C85F850300134E4B2FC
:1084A400EB79A34210D3EA6C0123A3401A42F5D11D
:1084B40021462846FFF795FF014628B9002EEAD049
:1084C400336801333360E6E7084670BDF0B587B022
:1084D40045781544C37D7BB10B239D4224D81646B1
:1084E4000F4604466B462A4601A9FFF70BFF0546D3
:1084F40020B1284607B0F0BD0F23EEE705992046CA
:10850400FFF7AAFCE37D43B132463946009819F0DF
:10851400ECFF01A804F01BFAEBE72346324600996E
:108524003846FFF70DFFF4E70925E2E710B50446E6
:1085340090F84830012B0CD103F07AF8237B012BFF
:108544000BD0094BD968014404F1300003F038F82A
:1085540010BD7846FFF7DCFBEEE7A37D024AD16845
:10856400126902FB0311EEE78038002030B583B0B6
:10857400002403E02846FFF7D9FF0134032C19D85F
:10858400C4EBC4031A010C4B134493F84830012B79
:10859400F3D100230193C4EBC4021301064D1D441F
:1085A40001A92846FFF76DFF0428E3D0019B002BA7
:1085B400E3D0DFE703B030BD9838002038B5044677
:1085C40090F84830022B09D1064B1D6803F030F8AF
:1085D400411904F1300002F0F3FF38BD7846FFF78B
:1085E40097FBF1E78038002038B5044690F848300E
:1085F400022B10D10A4B5D7D5A689B6803FB05254D
:1086040003F016F8411904F1500002F0D9FF0123D8
:1086140084F8683038BD7846FFF77AFBEAE700BF94
:108624008038002038B50446C06E07F0FAFF04F124
:108634003005284602F0E1FF70B994F84830022B67
:108644000ED070220021204619F078FF002084F813
:10865400480002F02DF838BD284602F099FFECE7F7
:1086640004F15005284602F0C8FF0028E9D0284646
:1086740002F08EFFE5E710B504460121FFF794FDF3
:108684002046FFF7CFFF10BD10B58CB0044690F81C
:108694004830012B0CD101238DF80430636D029313
:1086A40001A800F039FE2046FFF7BCFF0CB010BD56
:1086B4007846FFF72DFBEEE730B585B00D4604464E
:1086C400A8B100212046FFF76FFD2946606DFFF732
:1086D4003FFD2046FFF7A6FF0F4B1B6813F0040F66
:1086E40003D00E4B1B68032B05DC05B030BD784668
:1086F400FFF70EFBE5E70A4BD3F8043594F848205E
:1087040002950192074A009240F2EF1206490420B2
:1087140004F06CFEE9E700BF1C2E0020182E002098
:1087240000100140243804001738040008B5084636
:108734000021FFF7C1FF08BD08B5037B012B02D060
:10874400FFF7A2FF08BD0121FFF7B6FFFAE700001B
:1087540008B590F8513053B1013B80F851300023F3
:1087640080F85030034B186803F06EFD08BDFFF726
:10877400E3FFFBE73838002010B50C4691F8483089
:10878400012B03D12046FFF7E3FF10BD7846FFF726
:10879400BFFAF7E7062951D170B582B003460178D4
:1087A400890101F4FE5140789D78DC78240444EA80
:1087B40005641D7944EA05245B791C4341EA900170
:1087C4001046FFF7A1FB0546B8B1C66C2643C66444
:1087D40044B3037853B3EB795A1C01239340013B10
:1087E4009E4227D0002185F850102846FFF749FE05
:1087F4002846FFF79BFE02B070BD114B1B6813F0B7
:10880400040FF8D00F4B1B68012BF4DD0E4BD3F88B
:1088140004350E4A009240F2A7520D49022004F09A
:10882400E5FDE8E70321FFF747FFE4E77846FFF7B4
:108834006FFAD0E72846FFF727FFDCE7704700BF51
:108844001C2E0020182E002000100140483804007F
:10885400173804002DE9F04389B080460F461446CA
:108864001E46957825B9FFF795FF09B0BDE8F0835A
:108874002846FFF71DFC81460028F6D08DF80050ED
:10888400236A0693A38AADF80E3004AB04F10C02FC
:1088940092E8030083E80300A37D8DF81C30CDF833
:1088A4000480029723788DF80C3094F82C308DF8DE
:1088B4001D3031466846C847D7E700002DE9F04728
:1088C40006460F4690464B1EDBB2012B0FD8B8F577
:1088D400C07F10D80024032C1AD8C4EBC4031A0197
:1088E400314B134493F848304BB10134F3E77846E5
:1088F400FFF70EFAEBE77846FFF70AFAEAE7DFF844
:10890400A8A015465544404607F087FEE86600E0F7
:10891400002585B3EB6E002B44D033462A4606F17E
:10892400300ED3F800C05C689868D968C2F800C0FB
:1089340054609060D160103310327345F1D100233C
:10894400EB64A5F84A80B188B069FFF779FAA861A9
:10895400012F13D06FF00103AB62002385F8683058
:10896400124BAB652D66124BAB632D64012001F0F5
:108974009FFE85F848702846BDE8F0870D4B1B7DA7
:1089840085F85130002385F8523085F8533085F846
:108994005030B36A6B656FF00103AB62064BAB6397
:1089A4002D64E3E70025E6E7983800206192020091
:1089B40031870200803800207D870200F0B5C7B0FF
:1089C40046781644C37D2BB14FF48073B3427ED3F3
:1089D400002303E04FF4C073F8E70133032B19D8E5
:1089E400C3EBC30425013C4C2C4494F84840012CAF
:1089F400F3D1394C2C44A58A848AA542EDD1C3EB2A
:108A0400C3042501344C2C44E589C489A542E4D12E
:108A1400082455E014460F4632460121FFF74EFF65
:108A24000546002855D022463946C06E19F05DFD32
:108A34000023459345A92846FFF723FD044608B1C2
:108A4400042840D1459B7BB9244B1B6813F0040FC9
:108A540035D0234B1B68032B31DDB5F84A70802FCA
:108A640028BF8027002313E02846FFF75FFDEBE7CC
:108A7400EA6ED25C1B490C6810095900265C04A8F4
:108A840000F8136002F00F020131A25C425401337A
:108A9400BB42EDD304AA002302F8173003F180434C
:108AA40003F58833D3F8043502920F4A01920F4A32
:108AB400009240F2D1420E49042004F097FC0024B5
:108AC400204647B0F0BD2846FFF7ACFDF8E709247F
:108AD400F6E70424F4E700BF983800201C2E002099
:108AE400182E0020202E002078380400B034040012
:108AF4001738040000B585B000238DF80F3098B105
:108B04000346084602330B600DF10F0103F0DDFC50
:108B14009DF80F3043B10D4B1B6813F0040F03D0C5
:108B24000B4B1B68032B04DC9DF80F0005B05DF8AC
:108B340004FB084BD3F80435074A009240F2A632EE
:108B44000649042004F052FCEEE700BF1C2E00206E
:108B5400182E002000100140883804001738040043
:108B64002DE9F0438FB004460E4615461F46D0F853
:108B74001890037823B181884846FFF761F9A06112
:108B840004F10C00A378002B3AD0012162780DF196
:108B940028084346082A14BF0022012203F099FC46
:108BA400C4F81890CDF8088003966378EA1A92B254
:108BB400ADF810203244089207978DF82430002332
:108BC400ADF81830237B022B1CD0A3786BB3237B26
:108BD400022B1BD02546002345F8243F2A46E17882
:108BE400206A0EF0F9FA606A98B101A9FFF782FFD2
:108BF40000283AD12A46E178206A0EF0EDFAF2E72D
:108C04000221C3E71023ADF81830DEE7236905938A
:108C1400E0E7237B022B2CD104F10C01E0890EF058
:108C240089FB0028D3D1052020E000236362237B45
:108C3400012B0DD02146002341F8243FA08A0EF0D9
:108C4400E8FA01A9606AFFF755FFA0B905200DE015
:108C540004F12401E0890EF0DCFA01A9606AFFF74F
:108C640049FF0028E6D0002000E000200FB0BDE856
:108C7400F0830520FAE70020F8E7000070B5F0B0B3
:108C84000D4614461E4610AB0A4601462046FFF721
:108C940067FFA0B11F4B1B6813F0040F37D01E4BA6
:108CA4001B68052B33DD1D4BD3F804351C4A009299
:108CB40040F219621B49062004F098FB27E003AB3D
:108CC40001228DF80C20A28AADF80E200022049215
:108CD4008DF8142010AA06926278AD1AADF81C50D3
:108CE40008AA93E8030082E803000AAB04F10C022B
:108CF40092E8030083E80300A37D8DF83830236AEB
:108D04000C93636A0D930F9605A800F005FB70B0F1
:108D140070BD00BF1C2E0020182E00200010014042
:108D2400C03804001738040010B5D47D14B1FFF71F
:108D340091FD10BDFFF7A2FFFBE770B504460D4699
:108D44001646808A01F0D4FF01281AD1237BD3B1BF
:108D5400022B0BD094F91630002B16DB237853B179
:108D6400324629462046FFF729FE0BE02369002BF3
:108D7400F0D1102006E0324629462046FFF7A6FB34
:108D840000E0102070BD1020FCE70720FAE7000087
:108D940010B54FF4E0720021134819F0CFFB05F031
:108DA40085FD0024114B1C6040222146104819F017
:108DB400C5FB104B104A1A60104A5A604CF25032EC
:108DC4009A600F49D9601A6104221A759C750822A9
:108DD4005A750C4803F018FA0B4B18600B4B1C60C7
:108DE4000B4805F067FE10BD983800207C38002041
:108DF4003C3800208038002080969800F04902001A
:108E040020A10700B58F0200383800202C3800203C
:108E14007D81020008B505F0C1FC08BDC0B110B5E4
:108E24008CB004460369B3B1C369B3B18369B3B108
:108E340001466846FFF7B6F8034610B118460CB071
:108E440010BDA28A21696846FFF777FF0346F5E75C
:108E54000E23184670470E23F0E70E23EEE70E2389
:108E6400ECE7D0B110B58CB004464268BAB182695F
:108E7400BAB1027C022A16D0BAB190F90020002AB5
:108E840015DB0A4601466846FFF7E2F8A268616806
:108E94006846FFF752FF0CB010BD0E2070470E203D
:108EA400F9E70E20F7E71020F5E71020F3E7072095
:108EB400F1E70000037B012B01D00020704730B59F
:108EC4008DB001AC00230293CDF80B308288C2F33D
:108ED40086158DF8045092008DF805200A0E8DF841
:108EE40006200A0C8DF807200A0A8DF808208DF850
:108EF40009100622069201228DF82020828AADF8FC
:108F0400222009938DF810300594026A0A928DF894
:108F14001C30C389ADF81E3090F82C308DF82D30FC
:108F2400837D43B98DF82C306FF0010104A8FFF75D
:108F340098FF0DB030BD024B5B7D8DF82C30F3E70C
:108F44008038002038B590F84830022B00D038BD66
:108F540090F86830022BFAD10446C16CFFF7AAFFDF
:108F64000028F4D1002384F86830E56C237853B1E9
:108F7400E3795A1C01239340013B9D42E7D12046EB
:108F8400FFF779FBE3E77846FEF7C2FEF0E700005F
:108F940010B5002407E0C4EBC402130103481844CD
:108FA400FFF7D0FF0134032CF5D910BD9838002009
:108FB40008B5FFF7DBFAFFF7EBFF012008BD00005F
:108FC4002DE9F04182B007460E46144698461046F5
:108FD400FEF7C4FF054620B1A28883889A4210D3C5
:108FE40012D82046FFF706F9B8B103784BB12378BD
:108FF4007BB1E1794B1C0121994001392046FFF7EF
:1090040059FF02B0BDE8F0810521FFF755FB0025AB
:10901400E7E77846FEF77CFEEBE7002D56D05F4B82
:109024001B6813F0040F04D05D4B1B68032B00F383
:1090340085802846FFF7C2FA2B7B012B00F08C8039
:10904400EA6CA17901238B401A42DAD11343EB6411
:10905400A279EB799A4200F08880E37D002B00F03E
:109064008F800823B34240F08D80EB6EA079E27DBF
:10907400002A00F08C8008243246394604FB003074
:1090840019F033FAEC6C2B78002B00F08280EB792A
:109094005A1C01239340013B9C42B2D1022385F820
:1090A4006830E96C2846FFF705FF044643462A4624
:1090B400B5F84A10E86EFFF737FE002CA1D1002363
:1090C40085F868302846FFF7D6FA9AE7E279531C08
:1090D400E17DE9B1082202FB03F2D9B14FF48073B8
:1090E40093421AD22D4B1B6813F0040F89D02C4BDA
:1090F4001B68002B85DD2B4BD3F8043501922A4ADB
:10910400009240F236322949012004F06FF978E7E1
:109114000C22E0E74FF4C073E2E702212046FFF798
:10912400CDFB054600287FF47AAF00212046FFF7E7
:10913400C1FE02210020FFF70BF862E7194BD3F8B8
:109144000435A27901921A4A009240F25132174929
:10915400042004F04BF96CE795F86830002B7FF499
:109164006FAF2846FFF740FA6AE79BB2E27D2AB167
:10917400082203FB0263A5F84A3076E70C22F8E7DD
:109184000C236FE704212846FFF796FA39E70C24ED
:1091940072E77846FEF7BCFD79E700BF1C2E00207D
:1091A400182E0020001001409C38040017380400D9
:1091B400B03804002DE9F0418EB000284AD00546AD
:1091C400002A49D0984614460E4600220C920D926D
:1091D4000CA960880EF0AEF820B9002738460EB00E
:1091E400BDE8F0812269E168208905F00BFB08B134
:1091F4000027F3E72269E168208905F0D7FA0746DA
:10920400C8B96B46424621462846FFF723F803AB0C
:109214000EAA12E9030083E8030002F07DFF9DF823
:10922400003083B143466A46311F281DFFF7C8FE4C
:1092340002F0B6FFD2E72169002201F00101208982
:10924400FEF76AFFCAE743466A46711E681CFFF7C9
:109254006BFDEDE70E27C1E70E27BFE710B50C46FF
:1092640091F84830022B0BD1022384F86830E16C6A
:109274002046FFF71FFE10B9002384F8683010BDA4
:109284007846FEF745FDEFE7F8B500B30546164B03
:109294001F68F7B90E463C46B4420ED205EBC40330
:1092A4005B68CBB115F8340010F0800F16D1B8B15B
:1092B400FEF7FEFEB0B90134EEE70C4B43F837502D
:1092C40003EBC7035E607B1C074A136002E00E27B2
:1092D40000E004273846F8BD0E27FBE70B27F9E723
:1092E4000F27F7E70F27F5E72C3800203038002048
:1092F400084B196861B110B504E0064803F0DFFFBC
:10930400214624B10C680B79002BF9D0F5E710BD88
:10931400704700BF5C3A002038B5054630B1104BA9
:109324001C68ACB10F4B01221A7004E07846FEF7BA
:10933400EFFCF4E724683CB12379002BFAD154F80C
:10934400043C28469847F5E7064B1B78022B00D0CF
:1093540038BDFFF7CDFF034B00221A70F8E700BFBA
:109364005C3A0020583A002010B5044630B100237E
:109374002372211D034803F077FF10BD7846FEF7E2
:10938400C7FCF4E75C3A002010B5044658B10A4B18
:109394001B78013BDBB2012B09D8074B02221A7060
:1093A4000123237210BD7846FEF7B2FCEFE7211DBE
:1093B400024803F084FFF5E7583A00205C3A0020A5
:1093C4000A8883689B5A07339BB223F00303134430
:1093D4009BB20288043A934200D900230B80704761
:1093E40010B582B004468368C91AADF806100DF1B1
:1093F4000601FFF7E5FFBDF80630A068184402B087
:1094040010BD0088043880B2704743888268D01841
:10941400D152012383707047826800239370438084
:1094240083807047073189B221F0030189B24288F1
:1094340083889A4204D29B1A99421EDC002070470A
:1094440010B59A420FD90488A41AA14217D98B42A5
:1094540017D3032C03D98368134404229A7000237E
:109464004380184604E0826813449B780BB10420BF
:1094740010BDFFF7D1FF0020FAE704207047002059
:10948400F6E70420F4E738B504460D46836882887D
:1094940013448B4202D07846FEF73AFC0023AB70AB
:1094A400211D2046FFF78CFFA288A36813449B78F4
:1094B400042B00D038BD0023A380FBE710B50C4675
:1094C4008368428813448B4202D07846FEF720FC1E
:1094D4000023A37010BD70B5064615460C4600293E
:1094E40044D0002E46D0B4F1005F08D94FF0805329
:1094F400D3F80C3103F50023B4EB832F0ED3B4F56A
:10950400000F08D94FF08053D3F80C3103F5005302
:10951400B4EB832F02D37846FEF7FAFB6B1E234489
:10952400B3F1005F08D94FF08052D2F80C2102F554
:109534000022B3EB822F0ED3B3F5000F08D94FF0FE
:109544008052D2F80C2102F50052B3EB822F02D3E1
:109554007846FEF7DDFB042D10D935800023738097
:10956400B380B460043D2580A37070BD7846FEF7D7
:10957400CFFBB6E77846FEF7CBFBB4E77846FEF7B9
:10958400C7FBEAE738B50446A0B16288A368134470
:109594009B78012B12D0EFF3108572B6A388A168D3
:1095A40019448B78032B0DD02046FFF735FF05B9FE
:1095B40062B638BD7846FEF7ABFBE6E77846FEF7C1
:1095C400A7FBE8E72046FFF70BFFA368C31A6380F5
:1095D40000238370EBE72DE9F0410E46154604465F
:1095E400D0B1EEB16288A36813449B78012B1BD0E1
:1095F40025B32046FFF705FFA84221D3EFF31088D7
:1096040072B629462046FFF70DFF074680B1B8F130
:10961400000F16D162B614E07846FEF779FBE0E756
:109624007846FEF775FBDDE77846FEF771FBDFE76A
:1096340029462046FFF7E9FE3060E8E7092700E005
:1096440009273846BDE8F081F8B50C4616460546AC
:10965400E0B1FCB1A378012B20D12388B34221D3FC
:1096640026B3EFF3108772B626800223A370E9189D
:109674002846FFF7A5FE6B88AA88934203D0AA6800
:10968400134400229A7007B962B6F8BD7846FEF713
:109694003FFBDEE77846FEF73BFBDBE77846FEF769
:1096A40037FBDAE77846FEF733FBD9E77846FEF76F
:1096B4002FFBD6E770B50D46044690B1ADB1EFF37C
:1096C400108672B6A288A36813449A78042A10D02C
:1096D4009A78022A15D0032A18D0052006B962B652
:1096E40070BD7846FEF714FBE8E77846FEF710FBFA
:1096F400E5E7211D2046FFF763FEA288A368134413
:10970400E6E703229A702B600020E7E77846FEF72D
:10971400FFFA0020E2E738B5044680B1EFF3108584
:1097240072B6A088A16801448B78042B0BD088788A
:10973400022814BF0020012005B962B638BD78465E
:10974400FEF7E6FAEAE72046FFF74AFE0146EEE7AF
:1097540038B5044678B1EFF3108572B6A088A168D5
:1097640001448878C31EDBB2012B08D82046FFF7DA
:1097740037FE0146F5E77846FEF7CAFAEBE702281A
:1097840014BF0020012005B962B638BD70B50C467F
:10979400064678B194B1EFF3108572B6A378012B25
:1097A40010D0032B13D121463046FFF76CFE05B9C8
:1097B40062B670BD7846FEF7ABFAEBE77846FEF783
:1097C400A7FAE8E721463046FFF778FEEFE7784648
:1097D400FEF79EFAEBE710B5EFF3108472B68388B8
:1097E400816819448B78042B06D08878B0FA80F00D
:1097F400400904B962B610BDFFF7F2FD0146F4E773
:1098040008B5064B986800221A605A609A60DA60BC
:109814001A615A619A6104F0D1FD08BD603A0020D2
:1098240000B585B00A4BDB6802228DF80020019355
:109834004FF480530293074A6946012001F06EF900
:1098440018B9012005B05DF804FB0020FAE700BF59
:10985400603A00207C3A002000B585B00A4B1B68B2
:1098640002228DF8002001934FF480530293074A9B
:109874006946012001F052F918B9012005B05DF8DC
:1098840004FB0020FAE700BF803A00207C3A002065
:10989400164BDA68137951795B1A03F57F2303F6C3
:1098A400FF7302EB03339A4205D002F580520F4B4B
:1098B400DA600320704700B585B00D4B1B680120AA
:1098C4008DF8000001930B4B0393042302930A4A7F
:1098D400694601F023F918B1002005B05DF804FBD6
:1098E400024B01221A760220F7E700BF603A0020FB
:1098F400803A0020843A00207C3A002000B585B0EC
:109904000C4BDA680C4B1B68043301208DF8000003
:109914000192039340F6FC730293084A694601F0EE
:10992400FDF818B90120034B187600E0002005B0BB
:109934005DF804FB603A0020803A00207C3A002065
:1099440000B585B00A4B1B6801208DF80000019317
:10995400084B039304230293074A694601F0DEF897
:1099640018B9012005B05DF804FB0020FAE700BF38
:10997400803A00206C3A00207C3A002010B584B074
:10998400104BDA681478104B1B68043301208DF8EF
:1099940000000193039202940C4A694601F0BEF858
:1099A40068B9094B1B6804F0FC041C440434054BDF
:1099B4005C61D9680A780A441A61012000E0002039
:1099C40004B010BD603A0020803A00207C3A0020A8
:1099D40008B50023092B09D8064A52F823208242ED
:1099E40001D00133F6E7044A536002E07846FEF7FB
:1099F4008FF908BDEC380400603A002010B5214B03
:109A0400DB6853B11F4B1B7E5BB91E4B5B68092B94
:109A140026D97846FEF77CF922E07846FEF778F9F5
:109A2400F0E77846FEF774F9EFE7164A5368013316
:109A34005360092B21D97846FEF76AF91DE0114BD2
:109A440000225A6019E00F4B1B7E1BB10D4B022202
:109A54001A7012E0FFF7D4FE0FE00A4B1B7E83B9A5
:109A6400084B5A68084B53F822309847044602289A
:109A7400E9D00328E3D00128D7D0012CEDD0032C62
:109A8400EBD010BD603A0020EC380400104B1B688A
:109A94001B685A1E12F1030F18D8C3F30B020AB144
:109AA4000020704710B50B4AD36000231376537619
:109AB4000124147093600848FFF78AFF0749204681
:109AC40001F01AF8FFF79AFF204610BD00207047F6
:109AD400803A0020603A002025980200E59A0200AE
:109AE40008B50B78032B06D00B4B1B78012B06D043
:109AF400022B0BD008BD084B00221A76F4E7064B64
:109B04001B7E002BF6D1FFF779FFF3E70B78032BCD
:109B1400F0D1FFF775FEEDE7603A002000B585B09F
:109B2400174BDB6818784FF6FF7203F58051184421
:109B340004F076FFF0B10246114BD9680B780B4460
:109B4400984219D00E4B5B7E93B10E4B01208DF8D9
:109B5400000001920393042302930B4A694600F028
:109B6400DDFF58B90120064B187605B05DF804FBFB
:109B7400064BEBE70120F8E70120F6E70020F4E7C5
:109B8400603A0020603B04007C3A00205C3B040007
:109B940008B5104BDB681878002203F5805118448F
:109BA40004F03EFF08B1012008BD0A4BDA681379BE
:109BB40051795B1A03F57F2303F6FF7302EB03333A
:109BC4009A4205D002F58052024BDA600320EBE79B
:109BD4000220E9E7603A0020F0B585B0514BDD681A
:109BE4006A792B79591E8A4214D005F580510C7874
:109BF4000C444D490968081D0E7906449B1A05EB6F
:109C040003356388013B9BB247F6FE62934260D9F9
:109C140027461BE00120434B58767EE07846FEF74A
:109C240077F816E027F47F6323F00F0303F58053DE
:109C34001A7813449D4247D99C4247D25A88013A24
:109C440092B21F4647F6FE618A4210D93B88002B28
:109C5400E4D03B8807EB830323F47F6222F00F02F6
:109C64009342DFD07A88B2F5FE4FE3D1DAE71C469F
:109C74002FE07846FEF74CF816E027F47F6323F0D4
:109C84000F0303F580531A7813449D4220D99C4254
:109C94003BD25A88013A92B21F4647F6FE618A4285
:109CA40010D93B88002BE4D03B8807EB830323F4D3
:109CB4007F6222F00F029342DFD07A88B2F5FE4F22
:109CC400E3D1DAE71C4604E0002402E0002400E0CB
:109CD4000024E4B1144B1968628801F580513046C0
:109CE40004F09EFE064690B101200E4B18768DF8C6
:109CF400000001940D4B0393042302930C4A69461C
:109D040000F00CFF58B92746CBE70024E1E7B4FA8A
:109D140084F46409034B5C76012005B0F0BD002097
:109D2400FBE700BF603A0020803A0020583B040063
:109D34007C3A00202DE9F04186B0644B1B6923B1C5
:109D4400624B5B692BB1002748E07846FDF7E0FFE2
:109D5400F6E77846FDF7DCFFF5E77846FDF7D8FF30
:109D640017E028F47F6323F00F0303F580531A7878
:109D740013449E421FD99C4221D25A88013A92B27E
:109D8400984647F6FE618A4213D9B8F80030002B92
:109D9400E3D0B8F8003008EB830323F47F6222F0A9
:109DA4000F029342DDD0B8F80220B2F5FE4FE0D1A5
:109DB400D7E71C4600E000241CB1009438E00024DE
:109DC400FAE700230093019B002B5AD10127002CB2
:109DD40076D0628847F6FF739A4271D0002F73D110
:109DE4003A4B5A6922F47F6525F00F05AD1A05F543
:109DF40080551C69DE68337972799B1A06EB033649
:109E0400002301936388013B9BB247F6FE629342B1
:109E1400D3D9A046B9E77846FDF77AFF23E024F4C6
:109E24007F6424F00F0404F58054237823441C46F3
:109E3400A642C8D92388019A02EB83029542C2D96B
:109E4400009B634023F47F6323F00F03002BBAD1FC
:109E54006388013B9BB247F6FE618B42B3D8019203
:109E64002388002BD7D0238804EB830323F47F6259
:109E740022F00F029342D2D06288B2F5FE4FD6D1BF
:109E8400CDE7124A526901208DF808000392009A26
:109E9400059204930E4A02A900F040FE70B90B49E2
:109EA400019B23F003024B6913444B6114B1074B2C
:109EB4001C618CE77846FDF72BFFF8E7002000E0F3
:109EC400012006B0BDE8F0810120FAE7603A0020E5
:109ED4007C3A002008B54FF010235B69B3F1FF3FD3
:109EE40009D04FF010235B692BB14FF010235B694D
:109EF400A3F5805305E04FF080525169136903FBC9
:109F040001F3A3F58053024A1360FFF7BFFD08BDB8
:109F1400803A002010B50446B0B1104B1B78BBB199
:109F24000E4BD968E3685879A3EB0032914211D300
:109F34001A79121A02F57F2202F6FF7203EB02333A
:109F4400994209D8012004E07846FDF7E1FEE4E7F0
:109F5400002010BD0020FCE70020FAE7603A002052
:109F6400024B1878003018BF01207047603A002077
:109F740010B504460E4B1B7893B92378032B13D1E9
:109F84000B4B9C60E268DA6000225A601A7601206A
:109F940018705A76074900F0AFFDFFF72FFD10BD8A
:109FA4007846FDF7B5FEE8E77846FDF7B1FEE7E74A
:109FB400603A0020E59A0200014B1868704700BF20
:109FC400803A002010B5044680B163681BB1236851
:109FD4000BB1A36813B97846FDF79AFEA3685A1E1D
:109FE400134207D10023E360236110BD7846FDF7D7
:109FF4008FFEEAE77846FDF78BFEF3E770B5F0B124
:10A0040004468368EBB1EFF3108572B60369C06848
:10A01400834210D0084621686268A668013E334036
:10A0240003FB021108B118F060FA236901332361BC
:10A034004DB962B608E005B962B6052504E00E25FF
:10A0440002E0092500E00025284670BDC0F30B039B
:10A054003BBB41B301F6FF71090B144B0222C3F859
:10A064000425124BD3F80034002BFAD0002202E06E
:10A0740000F5805001328A4208D20C4BC3F808051F
:10A084000A4BD3F80034002BFAD0F1E7074B002237
:10A09400C3F80425054BD3F80034002BFAD0002074
:10A0A4007047102070470920704700BF00E001404E
:10A0B40010F0030F2FD111F0030F2FD182B312F040
:10A0C400030F2FD110B49208174B0124C3F8044591
:10A0D400154BD3F80034002BFAD002E004300431DD
:10A0E4002246541E52B10B68B3F1FF3FF6D0036011
:10A0F4000D4BD3F80034002BFAD0EFE70A4B0021C4
:10A10400C3F80415084BD3F80034002BFAD01046DA
:10A114005DF8044B70471022104670471022FBE78D
:10A124000922F9E70922F7E700E001404388012BFF
:10A1340005D0022B01D1043008600120704704309F
:10A144004860FAE708B508220221084803F0A7FF8F
:10A1540038B1074A91684160127B027203F0D8FF5C
:10A1640008BD044804F002F9FAE700BF903A002061
:10A17400DC3A0020DC2D00200E4B1B78CBB910B547
:10A184000D4B5C6804F50054B4F1807F00D910BD18
:10A1940004220121094803F082FF30B14460054ADA
:10A1A4000121117003F0B4FFF1E7054804F0DEF873
:10A1B400EDE77047F03A0020DC3A0020903A0020A6
:10A1C400CC2D002010B5044608B1A04710BD784638
:10A1D400FDF79EFDF9E7000008B501210C4803F0E6
:10A1E400BFFF20B902210A4803F0BAFF28B1094889
:10A1F40004F0BCF8FFF7C0FF08BD074A0023136052
:10A2040053609360D3601361044A1370F2E700BF94
:10A21400903A0020FC2D0020DC3A0020B43A0020C3
:10A2240000B58DB00B4B1B7B012B0ED0094A9268F5
:10A2340004928DF80830039002238DF8043001A8AD
:10A24400FFF76AF80DB05DF804FB024A9268013A20
:10A254000492EEE7DC3A002010B58CB00C4682B9CB
:10A264004B88012B20D1134B1B7833B16268124BFE
:10A274005A60104B00221A7016E07846FDF748FD2C
:10A28400F4E7032A12D12C22002101A818F056F970
:10A2940011238DF804300394084BDA6805921B6986
:10A2A400069301A8FFF738F80CB010BD7846FDF707
:10A2B4002FFDE8E7F03A0020DC3A0020903A002035
:10A2C40000B583B001F028FF0021009101916B4695
:10A2D400134A144803F0D8FD009B63B1019A52B1AC
:10A2E4001868114988601879087393420BD950B9DA
:10A2F40000220A600AE00C4B00221A609A601A736A
:10A30400FFF720FF02E01268074B1A60064B1A6839
:10A314005A60FFF731FF01F043FF03B05DF804FB1F
:10A3240031A10200903A0020DC3A002008B504F084
:10A3340071F8A0F5805008BD00B587B000230093E4
:10A3440001930293039304930593FFF7EFFF0090A7
:10A3540001230193064B03936946064803F0B7FFB4
:10A3640010B907B05DF804FB034803F0FFFFF8E7FA
:10A374005DA20200903A0020EC2D002010B50B4B9A
:10A3840000241C605C609C60DC601C6101F050F97E
:10A39400074B5860074A9A60074ADA601C615C619F
:10A3A400064B1C70FFF7C8FF10BD00BFDC3A00204D
:10A3B400B83A0020F1A4020000879303F13A002088
:10A3C40008B5084B1B7803B108BD0748074B036069
:10A3D40000F04EFE064801F0B5F8024B01221A7057
:10A3E400F2E700BF8C3A0020D03A002019A6020000
:10A3F400B83A002010B501F08FFE164B1B7B0BBB47
:10A40400144B9B7B1BBB134B1A8A41F282639A4207
:10A4140004D8114B1B782BB1012300E001231BB995
:10A42400082410E00023FAE70A4B01221A730024DF
:10A434001C829A6801329A60FFF784FE2046FFF777
:10A44400EFFE00E0082401F0ABFE204610BD082416
:10A45400F9E700BFDC3A0020F13A002010B501F022
:10A464005BFE204B5B7B9BB11E4B9B7BF3B91D4B6F
:10A474001A8A41F282639A4204D81B4B1B782BB18F
:10A48400012300E001239BB1012302E00023FAE74A
:10A4940000231C460BB3134B00225A731B7B4BB196
:10A4A400012B0ED07846FDF733FC16E00023F0E7CD
:10A4B4000023EEE7FFF79EFF78B17846FDF728FC0E
:10A4C4000BE0084B00201860586018731882FFF7DF
:10A4D400A7FEFFF737FEFFF74FFE01F061FE2046AF
:10A4E40010BD00BFDC3A0020F13A002008B5214B32
:10A4F4001B7B7BB1012B20D07846FDF709FC1D4A5C
:10A50400138A013313821B4B5B8A13B1013B194A33
:10A51400538208BD174B1A8A41F282639A4204D8C7
:10A52400154B1B783BB1012300E00123002BE6D03F
:10A53400FFF794FFE7E70023F8E70E4B1B8A41F28D
:10A544008262934204D80C4A127872B1012200E06C
:10A554000122002AD3D042F2B012934207D9054B0C
:10A5640001225A73FFF77AFFCDE70022F1E7FFF7E4
:10A5740075FFC4E7DC3A0020F13A002010B5244B03
:10A584001B7B002B35D10446214B5B8A2BBB1AB9AC
:10A594001F4B9B688B4205D3FAB11D4B9B6801335B
:10A5A4008B421AD21A4B9B682A338B4223D3184B03
:10A5B4009B7B03BB164B996000221A605A601A8277
:10A5C40042F6065159825A731A73FFF7BBFDFFF71F
:10A5D400D3FD2046FFF724FE0DE062B10C4B9B68CF
:10A5E40001338B4207D10A4B01225A73FFF736FF1E
:10A5F40001E0012B00D010BD002AFCD1044B9B6864
:10A604008B42F8D1024B01225A73FFF727FFF2E77E
:10A61400DC3A00200378042B00D0704743681B7891
:10A62400002BFAD010B58468027E437E012A14BF41
:10A6340000220122416904F11000FFF79FFF10BDC1
:10A6440010B5184B1A685B689A4226D20446154B1B
:10A654001B7B012B14D0144B9A4213D2114B1A6852
:10A664005B68403B9A4215D2EFF3108172B60D4AF3
:10A674001368581C1060236001B962B6002010BD35
:10A684000A4BE9E7074B01225A73FFF7E7FE00285C
:10A69400EAD1E3E7FFF770FDE6E7FFF76DFD0F2072
:10A6A400EDE700BFDC3A0020FFFF7F0000E0FF0081
:10A6B40008B538B10D4B01229A730D4A1368013362
:10A6C400136008BD0A4B1B685BB1094A1368013B60
:10A6D4001360002BF5D1054B00229A73FFF7BEFEE1
:10A6E400EFE77846FDF714FBEFE700BFDC3A002004
:10A6F400883A002000B58DB0ADF808008DF8102020
:10A70400039103238DF8043001A8FEF705FE0DB074
:10A714005DF804FB014B9868704700BFDC3A0020E9
:10A72400054B1B7B012B02D0034B98687047024BEF
:10A7340098680138704700BFDC3A0020044B9B68DE
:10A74400584010F0010F00D0013B1846704700BF7D
:10A75400DC3A0020014B187B704700BFDC3A002034
:10A7640038B50B4B1B780BB1082038BD084B0122C0
:10A774001A70084DA8602973FFF7E4FC0020FFF766
:10A784004FFD00242C606C60FFF7F6FC2046ECE7DC
:10A79400B43A0020DC3A00202DE9F041002722E001
:10A7A4002449BC2303FB04F3CA5A0132CA520221CE
:10A7B400404602F0CAFB01360221404602F095FBF6
:10A7C40070B11C4ABC2303FB04239D68002DE7D011
:10A7D400BC2303FB04F3D25A01463846A847DFE7FB
:10A7E40096B90137FFB2022F20D83C46BC2303FBA5
:10A7F40007F308330F4D1D4405F1040802214046B8
:10A8040002F073FB0026DBE70021404602F005FC62
:10A814000828E6D1074BBC2202FB0434A368002BB2
:10A82400DFD00022044938469847DAE70120BDE822
:10A83400F08100BFFC3A00201439040008B5082355
:10A8440083731023437300F11C03436103230373D5
:10A8540000F1180303610C3002F0B1FB08BD0000E5
:10A8640008B50378012B06D0022B06D07846FDF7F5
:10A874004FFA002002E0292000E0014808BD00BF93
:10A88400084C010008B50278012A07D0022A13D027
:10A894007846FDF73DFA4FF4FA7308E083685B1AD3
:10A8A4009B0803EB830003EBC00303F5FA7307482B
:10A8B400984228BF184608BD83685B1A180B044BDE
:10A8C40003FB00F303F5FA73F1E700BF60850100B1
:10A8D400084C010038B5044601210C3002F005FB98
:10A8E400054678B1084BC4F89C300023C4F8A03066
:10A8F4006168FFF7C7FFC4F8A800C4F8AC4001239F
:10A9040084F8B830284638BD2DAA020010B5044694
:10A91400FFF7E0FF20B104F19C000DF0A5FA00B9A7
:10A9240010BD7846FDF7F4F9FAE70000F8B50646DD
:10A934000C46174615680378012B18D11249A1FB60
:10A94400043149098900B468641B8C4200D30C4665
:10A954008CB1706825F00305F16822462944284427
:10A96400FFF7A6FB58B93B681C443C60F8BD784629
:10A97400FDF7CEF9E2E77846FDF7CAF9E9E778464C
:10A98400FDF7C6F9EFE700BF7D0CCEC7F8B5074663
:10A994000C46164615680378022B16D1114BA3FBFF
:10A9A40004231B0C1B03BC68641B9C4200D31C4681
:10A9B4007CB1786825F0030521462844FFF746FB5F
:10A9C40058B933681C443460F8BD7846FDF7A0F9E3
:10A9D400E4E77846FDF79CF9EBE77846FDF798F94C
:10A9E400EFE700BFEB0661C538B505460C461146D6
:10A9F4002378012B06D0022B0FD07846FDF788F977
:10AA0400002304E0021D2046FFF790FFA368686856
:10AA1400984214BF0020012038BD021D2046FFF7D4
:10AA2400B5FFA368F3E700002DE9F8438846D1F8A1
:10AA3400A860234B1B7863B90546A6F5FA7601F1A5
:10AA44000C090121484602F050FA074640B100249F
:10AA540024E00DF045FA002388F8B830BDE8F88307
:10AA64007846FDF755F9F2E70DF03AFA0121484628
:10AA740002F06BFA0023C8F8043088F8B830114BA0
:10AA8400186801F0E1FB4046FFF740FFE6E72C1AA7
:10AA94003846FFF7E5FE2044B0420BD8321B394656
:10AAA4004046FFF7A1FF0028DED101F00DFA441B58
:10AAB400EED5ECE70DF014FA4046FFF727FFCDE79B
:10AAC400F83A0020F43A002010B5084801F09CFB45
:10AAD400074B18600024022C07D8064BBC2000FB4F
:10AAE4000430FFF7ABFE0134F5E710BD9DA702006B
:10AAF400F43A0020FC3A002038B504460D460228FA
:10AB040005D8054BBC2202FB0434A56038BD784649
:10AB1400FDF7FEF8F5E700BFFC3A00202DE9F84305
:10AB240006460C461746022816D8CCB12378012BCA
:10AB34001AD0022B3ED16368C3F30B03002B31D12F
:10AB4400A368C3F30B03002B30D1A368002B34D1CB
:10AB54007846FDF7DDF830E07846FDF7D9F8E4E70C
:10AB64007846FDF7D5F8E1E7636813F0030F0DD1DC
:10AB7400E36813F0030F0DD1A36813F0030F0DD195
:10AB8400A368D3B97846FDF7C3F816E07846FDF715
:10AB9400BFF8EDE77846FDF7BBF8EDE77846FDF73B
:10ABA400B7F8EDE77846FDF7B3F8C9E77846FDF75F
:10ABB400AFF8CAE77846FDF7ABF8EFF3108872B642
:10ABC400BC2505FB06F505F108032A4D1D44043593
:10ABD4000021284602F089F9814678B300212846ED
:10ABE40002F0B3F920686168A268E368C9F800005C
:10ABF400C9F80410C9F80820C9F80C302FB11D4A4F
:10AC0400BC2303FB06235B883B801A4ABC2303FB5B
:10AC140006235A8801325A8093F8B83083B9164B08
:10AC24001B7813B10024A1460CE0124BBC2000FB9E
:10AC34000630FFF74FFE8146002403E0042401E0C0
:10AC44000024A146B8F1000F00D162B6B9F1000F9B
:10AC540009D0BC2000FB06F6983606483044043080
:10AC64000DF002F910B92046BDE8F8837846FDF7E7
:10AC74004FF8F8E7FC3A0020F83A002038B50446CB
:10AC8400EFF3108572B610B9164B1B6873B18CB113
:10AC9400144A136801331360124B1B68003318BF46
:10ACA4000123114A137005B962B638BD7846FDF721
:10ACB4002FF8ECE70B4B1C68013C1C6034B1EBE74C
:10ACC400BC2000FB0420FFF721FE0134022CE3D852
:10ACD400064ABC2303FB042393F8B830002BF4D1B9
:10ACE400EEE700BF303D0020F83A0020FC3A002097
:10ACF40018B1830B024AD05C70470020704700BF34
:10AD04002439040012DF704700B583B01378A3B16F
:10AD1400042B14D0002110F8013C163B152B31D81C
:10AD2400DFE803F0593030303030303030303030FC
:10AD3400303030303030302E0F3A517DEBE7072180
:10AD4400E9E7022901D007291CD110F8021C0139B6
:10AD540001F066FEB0B1264B1B6813F0400F11D012
:10AD6400244B1B68012B0DDD234BD3F804350190D4
:10AD7400224A009291222249022002F037FB01E08C
:10AD8400022902D003B05DF804FB10F8021C01395B
:10AD9400C9B213F093FBF5E70229F3D110F8021CB2
:10ADA4000139C9B203F0BAFD0028EBD0104B1B687F
:10ADB40013F0400FE6D00F4B1B68012BE2DD0E4B66
:10ADC400D3F8043501900F4A0092A4220C490220C2
:10ADD40002F00CFBD6E701884FF6E4639942D1D127
:10ADE40010F8021C03390230FCF7E0FECAE700BF8A
:10ADF4001C2E0020182E002000100140B039040041
:10AE0400A3390400DC39040070B58AB00DF0ACFD40
:10AE140048B3064600238DF8103005AC05460FCD27
:10AE24000FC42B682360727D052A04D9337D03F097
:10AE34000F03072B1ED1174B1A688AB104AB039377
:10AE4400337DC3F303038DF80430737D062B1BD9C4
:10AE5400063B8DF8053006F11D03029301A89047C7
:10AE640030460DF061FD0DF099FD80F00100C0B297
:10AE74000AB070BD307D04AB063A06F11D0100F046
:10AE84000F000CF0F9FAD6E700238DF80530029391
:10AE9400E4E700BF383D00200B4B1B78032B00D0A8
:10AEA400704700B58DB0084B04221A702C22002183
:10AEB40001A817F043FB1B238DF8043001A8FEF70B
:10AEC4002BFA0DB05DF804FB343D002070B582B060
:10AED4002E4B1B78002B4FD1002851D0067A0F2E11
:10AEE40001D0062E4ED1044605F096FBE06870B101
:10AEF400FCF720FF0DF10700FFF704FF05460028CB
:10AF04003BD19DF80730012B04D0022535E0FCF736
:10AF14001FFFEFE7FCF73EFF00F000FB304601F0B7
:10AF2400A9F8E07800F024F900F0A0FE0CF026FF68
:10AF340017480DF0CFFD0CF03FFCFFF7C5FD04F002
:10AF440055FD00F0F3FC05F027FB204601F0C8FC9A
:10AF54002046FDF71DFF04F0CBF8FCF727FE08B1EF
:10AF6400062811D10B480CF069FA0B4B00221A6029
:10AF7400064B01221A7000E00825284602B070BD75
:10AF84000E25FAE70725F8E70546F6E7343D0020E5
:10AF94000DAE02000C2E0020383D002010B582B00A
:10AFA4001E4B1B78012B0DD05AB282B3033BDBB28C
:10AFB400012B2ED80CF048FF044658BB174B022235
:10AFC4001A7027E00DF08EFC01F09CFCFDF722FFC7
:10AFD400FCF7ECFD0446B8B1062815D0104B1B68ED
:10AFE40013F4804F16D00F4B1B68012B12DD0E4B50
:10AFF400D3F8043501900D4A009240F297120C499F
:10B00400022002F0F3F905E001F060F8D2E7082429
:10B0140000E00824204602B010BD00BF343D0020EB
:10B024001C2E0020182E0020001001402839040096
:10B03400A339040008B50A4B1B78022B02D008235D
:10B04400184608BD064B03221A7006480CF0B8FED9
:10B0540003460028F4D07846FCF75AFE0023EFE7B5
:10B06400343D00209DAE020008B5FDF7D7FE08BDB3
:10B0740008B5FEF779F908BD08B5FEF785F908BDEE
:10B0840008B500F0B9FD002008BD08B506F072FE51
:10B0940008BD0000064A136801331360B3F1704F12
:10B0A40002D0034B18687047134601221A60F8E770
:10B0B4003C3D002010B5044618B1002323606360B2
:10B0C40010BD7846FCF724FEF7E738B50C46054674
:10B0D40068B184B100236360EFF3108372B62A6809
:10B0E4006AB16A6854606C6003B962B638BD784668
:10B0F400FCF70EFEEDE77846FCF70AFEEAE72C6063
:10B10400F1E710B5044658B1EFF3108372B6206826
:10B1140008B142682260226832B103B962B610BD38
:10B124007846FCF7F5FDEFE76260F6E710B50446F4
:10B1340008B1206810BD7846FCF7EAFDF9E735DF71
:10B144007047000008B54FF0FF30FFF7F8FFBFF37A
:10B154004F8F0549CA6802F4E062044B1343CB6085
:10B16400BFF34F8F00BFFDE700ED00E00400FA05D8
:10B17400072814D8DFE800F0080C1504110F0A069C
:10B184006420704714207047FA2070471E207047CF
:10B194004FF4FA707047322070474B207047FA2002
:10B1A4007047962070470000024B5868103840B230
:10B1B400704700BF00ED00E0034600280FDB5B1181
:10B1C400084A52F82330424200F01F0002F01F02E6
:10B1D40058BF504223FA00F000F00100704700F11C
:10B1E4001F03ECE700E100E046DF7047F8B50446D2
:10B1F4000D464B1EDBB2012B09D80022226162618D
:10B20400A261E2612046FFF7EFFF01200AE07846E1
:10B21400FCF77EFDF1E7CB7B5B00CB73002F14DBE7
:10B224000130C0B2A84217D8214611F9207F00236B
:10B234000E2BF0D8CA5CCE185200D2B2767842EA0D
:10B24400D612CA5401339BB2F2E794F82F3083F03C
:10B25400870384F82F30E3E7F8BD2DE9F04190B07F
:10B2640084460C4696461F4602F10F0636111FFA15
:10B2740086F804AD0068DCF80410DCF80820DCF87B
:10B284000C300FC50EF00F05B8F1000F02D07DB1E0
:10B29400002300E00023984663B1012104A8FFF7CE
:10B2A400A5FFB8F1000F1AD0701E000110230EE0A4
:10B2B4000123F0E70221F1E7013B9BB22218D25CA3
:10B2C40010A9194411F8101C4A400DF80320002B52
:10B2D400F2D100250C950D950E950F9526E0711E63
:10B2E400ADB22A4604EB0111684617F0FEF880233C
:10B2F4000DF805306B1C03E000220DF80320013328
:10B304000F2BF9DD10230AE0013B9BB21DF803204B
:10B3140010A9194411F8101C4A400DF80320002B01
:10B32400F2D1D6E704A8FFF75FFF0135731EAB42E5
:10B334000FDD28011023002BF4D0013B9BB210AA8F
:10B344001A4412F8102C2118C95C4A4008A9CA549E
:10B35400F1E710230AE0013B9BB210AAD11811F8BF
:10B36400402C11F8101C4A4008A9CA54002BF2D1F1
:10B3740004A8FFF739FF0CAC0FCC38607960BA60D1
:10B38400FB6010B0BDE8F08110B50446134B1B6898
:10B394004BB14068114B1B685B68C31A002B02DB7E
:10B3A4000E4B19680DE00D4B1A6862611C600B4A64
:10B3B400938801339BB2938063B10123237010BD42
:10B3C40019464B691BB15A68121A002AF8DB6361EB
:10B3D4004C61ECE77846FCF79BFCEEE7443D00202B
:10B3E40038B505461CE07846FCF792FC6369204AB0
:10B3F40013600023636193889BB2591E89B29180C4
:10B40400F3B1A36803B302232370A3682169284618
:10B41400984700F00DF905462378DBB2022B17D0CC
:10B42400134B1B681BB3124B1B685B685B1B642BC1
:10B434001DD50F4B1C682378DBB2012BD6D0D2E785
:10B444007846FCF765FCDCE77846FCF761FCDAE754
:10B45400E26812B900232370E2E76368134463606F
:10B464005B1B642BF9D42046FFF78EFFD8E738BD69
:10B47400443D002010B50446144B1B68834207D09A
:10B48400124B1B68D3B15A69A2420ED01346F9E796
:10B4940043690E4A136093889BB2591E89B2918006
:10B4A40063B97846FCF734FC08E062695A610749DD
:10B4B4008B889BB25A1E92B28A8013B100232370E8
:10B4C40010BD7846FCF724FCF8E700BF443D00209B
:10B4D40008B5064B1B6833B1044B1B680449586814
:10B4E40000F054F908BD00F0AFF9FBE7443D00203B
:10B4F40011B5020008B500F09BF8FFF771FF00F0EA
:10B5040097F8FFF7E5FF012008BD000008B5024BDE
:10B51400186800F099FE08BD403D002008B5064BB0
:10B5240000221A605A60054800F06EFE044B186051
:10B5340000F071F808BD00BF443D0020F9B40200DA
:10B54400403D002010B5044600F052FF80B19CB18C
:10B55400A368ABB12378DBB2012B15D00023636160
:10B564002046FFF711FF00F063F8FFF7B1FF10BDAD
:10B574007846FCF7CDFBEAE77846FCF7C9FBE7E73A
:10B584007846FCF7C5FBE5E77846FCF7C1FBE5E741
:10B5940010B5044600F02CFF50B16CB12046FFF703
:10B5A40069FF0023636100F043F8FFF791FF10BDCA
:10B5B4007846FCF7ADFBF0E77846FCF7A9FBEDE72E
:10B5C40038B504460D4600F013FF70B18CB1204627
:10B5D400FFF750FF0023636165602046FFF7D4FE48
:10B5E40000F026F8FFF774FF38BD7846FCF790FBAF
:10B5F400ECE77846FCF78CFBE9E70378DBB2012B38
:10B6040007D00378DBB2022B01D000207047012061
:10B6140070470120704708B516F0AEFD00B108BDB3
:10B6240016F028FD0028FAD07846FCF771FBF6E7FF
:10B6340070B4EFF3108172B6184B1A68184BD3F834
:10B644000455D3F80431012B22D001B962B645EA7E
:10B65400026500266B01EA0E5B1B62EB06025102D7
:10B6640041EAD3515802431941EB0600810141EAF2
:10B6740093619A01D31A61EB00005B1946EB000059
:10B6840013F580437041DB0B43EA404070BC7047C4
:10B69400034BD3F804550132D7E700BF4C3D0020DB
:10B6A4000010014010B50A4B4FF40032C3F8482390
:10B6B400C3F80823074B1B682BB1064B1C68FFF724
:10B6C400B7FFA04710BD7846FCF722FBF5E700BFA3
:10B6D40000100140583D0020EFF3108172B6264B54
:10B6E4000022C3F80421254A13680133136001B909
:10B6F40062B6234B1B68002B3DD0214B1A68013ADC
:10B704001A601B68002B36D103F1804303F588339C
:10B71400D3F804251B4B1B689A421ED2EFF3108208
:10B7240072B6154BD3F804350133164909688B42B8
:10B7340010D3114BD3F8043502330F49C1F8443503
:10B7440002B962B60C4B4FF40032C3F84423C3F879
:10B75400042370470B4B1B68EFE710B50A4B1B68BB
:10B764002BB1094B1C68FFF763FFA04710BD784657
:10B77400FCF7CEFAF5E77047001001404C3D00207D
:10B78400503D0020543D0020583D002030B583B08A
:10B794000446002301930D46002936D0244B1D6036
:10B7A400FFF746FF031B002B33DB0023590CD803A0
:10B7B400204C214A002300194FF0000444EB0101FE
:10B7C40016F0E0FCEFF31083019372B61B4BD3F831
:10B7D4000435022838BF0220C3F1FF1202F57F426C
:10B7E400824218D30344154AC2F844354FF4003357
:10B7F400C2F84433C2F80433114A1460114A146085
:10B80400019B03B962B603B030BD7846FCF780FAF9
:10B81400C4E7231ACAE7034403F17F4301331A0E32
:10B82400013207490A6023F07F43064A1360E7E7C1
:10B83400583D002020A1070040420F0000100140A5
:10B84400503D0020543D0020074B4FF40032C3F814
:10B854004823C3F808230023044A1360044A1360EE
:10B86400044A1360704700BF00100140503D00209F
:10B87400543D0020583D002030DF704731DF7047D1
:10B8840010B402684368A2EB7312846883EAF43349
:10B894000360C1680C444460114481601344C36074
:10B8A40018465DF8044B704770B582B00D460646E5
:10B8B40008B100240BE07846FCF72AFAF9E79DF872
:10B8C40007103019FFF7DAFF9DF807301C44A54232
:10B8D4000DD90DF10700FFF7CFFF9DF80730002BBE
:10B8E400F7D02A1B9342EAD98DF80720E7E702B084
:10B8F40070BD000030B583B00546002401940421D6
:10B904000DEB0100FFF7D0FF074B2B60019B6B6031
:10B91400AB60EB6003E02846FFF7B2FF0134132C61
:10B92400F9D903B030BD00BFED5EEAF1704748DFDE
:10B93400704749DF70474ADF70470000044B01221B
:10B944005A7143F2B0629A6043F69822DA60704703
:10B95400A83D0020094B03221A74094A5A611A6847
:10B9640040F6D8639A4204D9054B43F2B0629A6018
:10B974007047034B40F6D8629A607047883D0020B8
:10B98400A83D002008B50F4B1B78022B12D0032BC7
:10B9940008D0012B03D07846FCF7BAF90EE0022355
:10B9A40003740BE0084B00225A7108499960084956
:10B9B400D960827103230374034B4361014B00225A
:10B9C4001A7008BDB93D0020A83D0020A0860100E2
:10B9D400FF1FA10738B504460025057401234371F0
:10B9E4000E4A13680133136000F0CCFA0CF0EAFA43
:10B9F40023680B4A1168283101FB03F1094AA2FBB1
:10BA04000121A3EB9141084A7839284600F036FA1F
:10BA140000B938BD7846FCF77BF9FAE7BC3D002055
:10BA2400A43D002083DE1B4359B9020010B504462F
:10BA340000238360C36003680D4A926802608179C1
:10BA440091B10121017403B90A4B991A6161B1F5ED
:10BA54007A7F01D39A4202D94FF47A736361FFF774
:10BA64006DFF0123A37110BDFFF7B4FFF7E700BF1B
:10BA7400A83D00208096980010B50C4631B1C368EB
:10BA84000133C3604269036813440360836801336C
:10BA9400836001220274426952084261012B0DD075
:10BAA400022B19D042690368134417498B4222D8E8
:10BAB40040F6D7639A4221D800231DE0B2F5FA7FFD
:10BAC40005D040F6D8639A42ECD84361EAE7002CEB
