:020000022000DC
:1060000000F000206D630200556302005763020038
:10601000596302005B6302005D6302000000000040
:106020000000000000000000000000005F630200AC
:106030006163020000000000636302006563020008
:106040006763020067630200676302006763020020
:1060500067630200676302007175020067630200F4
:1060600067630200676302006D79030067630200E3
:1060700067630200676302006763020067630200F0
:10608000676302000D10040039C20200676302005A
:1060900071100400676302005DA9030067630200DA
:1060A00067630200676302006763020067630200C0
:1060B0006763020067630200000000000000000048
:1060C00067630200676302006763020067630200A0
:1060D000676302006763020067630200000000005C
:1060E00000000000000000000000000000000000B0
:1060F00000000000000000000000000000000000A0
:10610000000000000000000000000000000000008F
:10611000000000000000000000000000000000007F
:10612000000000000000000000000000000000006F
:10613000000000000000000000000000000000005F
:10614000000000000000000000000000000000004F
:10615000000000000000000000000000000000003F
:10616000000000000000000000000000000000002F
:10617000000000000000000000000000000000001F
:10618000000000000000000000000000000000000F
:1061900000000000000000000000000000000000FF
:1061A00000000000000000000000000000000000EF
:1061B00000000000000000000000000000000000DF
:1061C00000000000000000000000000000000000CF
:1061D00000000000000000000000000000000000BF
:1061E00000000000000000000000000000000000AF
:1061F000000000000000000000000000000000009F
:10620000344935480A1A02D0072291438D46334952
:1062100033480A1A06D00722914381F309880222E3
:1062200082F314882F483049304A00F042F8304851
:106230003049314A00F03DF830483149314A00F0E8
:1062400038F831483149324A00F033F831483249A0
:10625000324A00F02EF832483249334A00F029F829
:1062600032483349334A00F024F833483349002296
:1062700000F02AF832483349002200F025F832486D
:106280003249091A082902DB0022026041601F48D6
:106290001F49884205D00268043003B4904703BC0C
:1062A000F7E700208646EC4600200021284A904768
:1062B000FEE7884207D0521A05D0037801300B70F0
:1062C0000131013AF9D17047884202D002700130A1
:1062D000FAE7704700F0002000E8002000F00020FE
:1062E00000F00020D03A0400A02D0020082F00204C
:1062F000A4630200A4630200581D0400D03A040005
:10630000A02D0020A02D0020641E0400641E0400A7
:10631000641E0400641E0400641E0400641E040065
:10632000641E0400641E0400D03A0400383C0400DB
:10633000082F0020082F0020082F00207057002071
:10634000705700207057002070570020705B0020AD
:10635000116D0200FEE7FEE7FEE7FEE7FEE7FEE75F
:10636000FEE7FEE7FEE7FEE7704700BF094880470B
:1063700009484FF007018843854608488047084888
:10638000016841F470010160BFF34F8FBFF36F8F5D
:10639000FFF736BF6963020000F0002091AF0300F1
:0463A00088ED00E0A4
:1063A40041DF704710B50C46082001F013F8207047
:1063B40010BD000010B582B00C460D4B1B6813F4E1
:1063C400804F03D00B4B1B68032B05DC21460820B0
:1063D40001F00CF802B010BD074BD3F8043501915D
:1063E400064A00926A220649042006F02FFFEDE7D0
:1063F4006C2E0020682E002000100140081F0400AD
:10640400FE1E040008B5024800F0F6FD08BD00BFFA
:10641400A02D00200F4B1B78DBB100B583B00E4BD1
:106424001B6813F4804F03D00C4B1B68032B04DC54
:10643400FFF7E8FF03B05DF804FB094BD3F804351C
:10644400084A009240F2A5120749042006F0FEFE15
:10645400EEE77047082F00206C2E0020682E0020E5
:106464000010014058220400FE1E040000B583B051
:106474000E4B1B6813F4804F03D00D4B1B68032B8A
:1064840009DC0322C8210B4800F0CCFF0AF0D8F83D
:1064940003B05DF804FB084BD3F80435074A0092B7
:1064A40082220749042006F0D1FEEAE76C2E002080
:1064B400682E002000010400001001402022040086
:1064C400FE1E040010B582B004462D4B1B6813F465
:1064D400804F03D02B4B1B68032B04DC7CB1032CB3
:1064E4002ED002B010BD284BD3F804350190274AB2
:1064F4000092EF222649042006F0A8FEEEE7204B86
:106504001B6813F4804F03D01E4B1B68032B0CDC59
:10651400082000F05FFF80F00101C9B2082000F0FC
:1065240065FF1C4800F068FDDBE7174BD3F8043522
:10653400194A0092F7221649042006F087FEE7E77D
:106544000AF02BF8A0B90E4B1B6813F4804FC8D087
:106554000C4B1B68032BC4DD0B4BD3F804350F4ADB
:10656400009240F20B120A49042006F06FFEB8E7CD
:106574000BF024FC0AF007F8FFF778FFB1E700BF3F
:106584006C2E0020682E002000100140201F040003
:10659400FE1E0400A02D0020341F0400441F04002C
:1065A4003038042800D9704708B5FFF78BFF08BDC1
:1065B40000B58BB02022002101A81AF0D4FF0123DA
:1065C4008DF8043007238DF8073006238DF80C303E
:1065D400084B0593084B0993084901A809F0EAFF01
:1065E40010B90BB05DF804FB054A4FF4A87114F020
:1065F400F7FDF6E72D6A02000D670200082F002060
:10660400981E040000B583B01D4A042146F201001F
:1066140006F000FE1B4B1B6813F4804F03D01A4B8B
:106624001B68032B13DC1AF025FDE0B900F040FFD2
:10663400164800F06FFFE0B901F03EF901F05AF995
:1066440001F084F9FFF7B4FF03B05DF804FB104BCD
:10665400D3F804350F4A00924FF4AB720E4904206C
:1066640006F0F4FDDFE70D4A4FF4AC7114F0B8FD09
:10667400DCE70A4A4FF4AE7114F0B2FDDCE700BF68
:10668400EDD102006C2E0020682E0020C9640200A7
:1066940000100140C8210400FE1E0400981E0400DE
:1066A40000B583B00021114800F0C8FC58B9104B64
:1066B4001B6813F4804F03D00E4B1B68032B07DCBD
:1066C40003B05DF804FB0C4A7A2114F089FDEEE76F
:1066D4000A4BD3F80435054A12880192084A0092FD
:1066E4007B220849042006F0B1FDE9E7A02D002033
:1066F4006C2E0020682E0020981E0400001001401B
:106704007C1E0400FE1E040000B583B00C4B1B6805
:1067140013F4804F03D00B4B1B68032B04DCFFF7EF
:10672400BFFF03B05DF804FB074BD3F80435074AF9
:1067340000924FF4A1720649042006F087FDEEE7AB
:106744006C2E0020682E002000100140002204005E
:10675400FE1E04002DE9F04399B00A230A93402257
:1067640000219E481AF0FFFE002310931193129308
:10677400ADF84C30149315931693ADF85C3007A81C
:106784000FF01CFB964B1B6813F4804F03D0954B02
:106794001B68032B21DC082000F01CFE0746904BED
:1067A4001B6813F4804F03D08E4B1B68032B22DC31
:1067B4000AA90BA80FF0B4FC002800F0A480884BB1
:1067C4001B6813F4804F00F0AF80864B1B68032BCB
:1067D40000F39D8000252E46A8E0834BD3F80435B2
:1067E400BDF81C200192814A00929A22804904201B
:1067F40006F02CFDCFE77C4BD3F8043501907D4A9D
:1068040000929D227A49042006F020FDD0E7764BC1
:10681400D3F8048518AB03EB440333F8349C08A87D
:1068240010F0CCFBA0B1744B9DF82020BDF82210D1
:1068340009980590049103920293CDF804906F4B4C
:1068440000934346A6226A49042006F0FFFC21E097
:106854006B4BE9E7BDF822206A4914AB58191AF0CA
:1068640018FE0435EDB201340A9B9C425ED208A99D
:1068740018AB03EB440333F8340C0FF09FFB0528EB
:1068840027D0574B1B6813F4804F03D0554B1B681C
:10689400032BBCDC08A810F091FB40B1002DD9D02B
:1068A400594B1A8814AB5A530135EDB2D2E74EB99D
:1068B400BDF82220534910AB98191AF0EAFD0436AA
:1068C400F6B2D0E7504B1A8810AB9A530136F6B2A1
:1068D400EEE7434B1B6813F4804FC4D0414B1B6855
:1068E400032BC0DD404BD3F8043518AA02EB440255
:1068F40032F8342C0192454A0092BE223C490420CD
:1069040006F0A4FCAFE7002425462646ACE7364B48
:10691400D3F804353E4A0092C4223549042006F0D7
:1069240095FC00252E4601E000252E462C4B1B68C5
:1069340013F4804F03D02B4B1B68032B31DC274C03
:106944003B46BDF81C20334920461AF0A2FD2A46D6
:1069540014A920461AF0B2FD20461AF037FE054667
:1069640022182D4B03CB605151601B881381324692
:1069740010A920461AF0A2FD20461AF027FE22187C
:10698400264B19889B7821529370154B1B6813F47E
:10699400804F03D0134B1B68032B13DC19B0BDE8E5
:1069A400F083114BD3F8043510AA0492039614AA69
:1069B400029201951A4A0092C7220D49042006F05A
:1069C40045FCBCE7084BD3F804350194154A009202
:1069D400CE220749042006F039FCDFE70C2F002003
:1069E4006C2E0020682E0020001001408C20040032
:1069F400FE1E0400A42004007C200400B82004002F
:106A04007020040004210400002104000821040073
:106A14002C21040064210400902104009C21040022
:106A240048210400A021040010B586B004463F4B61
:106A34001B6813F4804F03D03D4B1B68032B0DDC04
:106A440023780A2B17D023780B2B2FD02378022BF3
:106A540047D023781C2B65D006B010BD354BD3F836
:106A6400043502780192344A0092D3223349042037
:106A740006F0ECFBE4E72D4B1B6813F4804F03D0C6
:106A84002B4B1B68032B02DCFFF764FEDBE7294B6F
:106A9400D3F80435A288E18802910192284A009231
:106AA400D7222649042006F0D1FBEDE71F4B1B68D3
:106AB40013F4804F03D01E4B1B68032B02DCFFF73B
:106AC40049FEC3E71B4BD3F80435A288E188029141
:106AD40001921C4A0092DC221849042006F0B6FBFD
:106AE400EDE70DF11601A0880CF062FE0F4B1B6858
:106AF40013F4804F03D00E4B1B68032B02DCFFF70B
:106B040029FEA6E70B4BD3F80435A288BDF816106E
:106B1400029101920C4A0092E3220849042006F0F3
:106B240095FBECE7FFF7A2FC96E700BF6C2E002074
:106B3400682E0020001001407C1F0400FE1E04008B
:106B4400A01F0400E81F04003020040030B587B003
:106B54006421244800F0DEFB234B1B78CBB14FF0BB
:106B6400A043D3F8103513F4803F25D001F00CF87E
:106B740000F032FD09F056FD68BB1C4C0021204694
:106B840000F045FC0222C821204600F04BFC07B06F
:106B940030BD6C46164D0FCD0FC495E8030084E854
:106BA4000300684600F052FB0028DFD0114A40F28F
:106BB400791114F015FBD9E709F0E5FC4FF4FA74E8
:106BC4004FF47A400C4B43F001039847013CF7D152
:106BD400FFF74CFCCAE7074A4FF4C47114F000FBFA
:106BE400CBE700BFA5650200082F002000010400C8
:106BF400641E0400981E0400C021040010B504465D
:106C04000021054800F003FC04EB840462003221F7
:106C1400002000F007FC10BD0001040008B500F0DE
:106C240039FC08BD10B584B0224B1B6813F4804FA7
:106C340003D0214B1B68032B20DC00F05BFE00F02B
:106C440085FE03A80FF0BAF81A4B1B6813F4804FA3
:106C540003D0194B1B68032B1CDC00F01BFC174CE6
:106C64000021204600F0D3FB0422C821204600F076
:106C7400D9FB134B01221A7004B010BD114BD3F889
:106C84000435114A009240F22D121049042006F0F6
:106C9400DDFAD2E70B4BD3F80435BDF80C20019292
:106CA4000B4A00924FF49C720849042006F0CEFA75
:106CB400D3E700BF6C2E0020682E002000010400E2
:106CC400082F0020001001403C220400FE1E040096
:106CD4008C20040008B50A4A01210A481AF002FA75
:106CE40038B900224FF4F02107481AF011FA18B904
:106CF40008BD14F067FAF4E714F064FAF8E700BF8B
:106D040019640200FC2104006C2F002008B5FFF771
:106D140079FCFFF71BFFFFF7DDFFFFF741FBFCE703
:106D240030B583B0044615461C4B1B6813F4804FE2
:106D340003D01B4B1B68032B11DCA36B04F13C0138
:106D44002046984794F83C302B7094F83D306B7093
:106D5400236C0BB1626C6AB16B6003B030BD114B34
:106D6400D3F80435104A0092AA221049042006F0F0
:106D74006DFAE2E71AF000FAA16C1AF003FA4FF484
:106D84007A7303FB00F0C00B236C984203D810B154
:106D9400181A6860E1E700236B60DEE76C2E0020C0
:106DA400682E00200010014004230400F522040092
:106DB40010B588B00446436CA3B9036C13B190F8C2
:106DC4003D207AB194F83D2084F83C208DF81820B9
:106DD4008DF81920079306A9204619F0ABFD94F805
:106DE4004C3053B1144B1B6813F4804F03D0134B36
:106DF4001B68042B0ADC08B010BD636B94F83C10CC
:106E040020469847012384F84C30EBE70C4BD3F829
:106E1400043594F83C2094F83D10206C0490606C88
:106E2400039002910192074A0092852206490520A7
:106E340006F00CFADFE700BF6C2E0020682E00205D
:106E44000010014048230400F522040030B583B04B
:106E54000446036B18681AF079F9636C8BBB256CD4
:106E6400CDB1690CE8034FF47A72002310F5FA707F
:106E740041F100011AF090F9B0F1807F35D2042875
:106E84003CD9236B2246014618681AF041F905469D
:106E94001AF072F9A06495B11C4B1B6813F4804F6F
:106EA4000DD01B4B1B68002B09DD1A4BD3F804359E
:106EB400194A009268221949012006F0C7F903B063
:106EC40030BD226B1568590CD8034FF47A72002335
:106ED40010F5FA7041F100011AF05EF922460146FC
:106EE40028461AF015F90546D5E7236B22466FF0BC
:106EF4007F4118681AF00CF90546C9E7236B22464E
:106F0400052118681AF004F90546C1E76C2E002023
:106F1400682E00200010014028230400F5220400FC
:106F2400F0B583B0044617461E46089D1A4B1B68ED
:106F340013F4804F03D0194B1B68032B1BDC002375
:106F440084F84C303B7884F83D300EB37368636446
:106F5400336823642046FFF72BFF2046FFF776FFB4
:106F64003DB194F83C302B7094F83D306B70236C39
:106F74006B6003B0F0BD0A4BD3F80435127801926C
:106F8400084A0092CC220849042006F05FF9D6E7AB
:106F9400002363642364DDE76C2E0020682E002048
:106FA4000010014010230400F522040038B5044603
:106FB400436CB3B9056C85B1690CE8034FF47A727C
:106FC400002310F5FA7041F100011AF0E5F8B0F170
:106FD400807F0BD3A5F2FF1525642046FFF736FF0B
:106FE40038BD00234364FFF7E3FEF6E70023236480
:106FF4002046FFF7DDFEF0E710B582B00446836B50
:1070040000F13C01984794F83C3084F83D3000236B
:1070140063642364236B18681AF098F894F83C307E
:107024008DF8003094F83D308DF80130236C0193D5
:107034006946204619F07EFC02B010BD90B110B52F
:1070440004460C4AC262426B7AB1826B7AB119F07F
:107054003BFC034660B9084A0021206B1AF042F851
:10706400034605E00E23184670470E2300E00E2366
:10707400184610BD20230400B16F02002C4B1B786E
:10708400002B54D000B585B0012804D0032847D084
:1070940005B05DF804FB04A9002341F8083D012074
:1070A40013F0FEFA48BB02A813F04CFB40BB04A942
:1070B400012341F8043D0DF106000FF00BFC10BB59
:1070C400BDF806000FF0A2F80DF105010FF0EEF97E
:1070D400E0B90AF04DFD9DF8051000200AF086FE87
:1070E400B8B903F063FEC0B90022114B1A70114BFA
:1070F4001B68002BCCD09847CAE714F063F8D2E79A
:1071040014F060F8D3E714F05DF8D9E714F05AF8F6
:10711400DFE7784600F0FAFCE3E714F053F8E3E71E
:1071240013F08EFB0028B3D014F04CF8B0E770478E
:107134008E2F0020902F002008B50122054B1A70D5
:10714400054803F099FE03F079FE00B908BD14F078
:1071540039F8FBE78E2F0020F02D002008B50378C6
:107164001B2B00D008BD074B1B78002BFAD013F063
:10717400ABFB18B9044803F083FEF3E714F022F8DC
:10718400F8E700BF8E2F0020F02D002008B5032360
:10719400002203490969034814F0AAFC08BD00BF92
:1071A400902F0020E031002008B50378023B082B23
:1071B4003FD8DFE803F01C05113E3E2C3E3E36006E
:1071C4001E4B5B68002B34D0007A002831D001219B
:1071D4001B4A1170984708BD184B9B684BB3184A5B
:1071E400127832B30021164A1170984708BD154B26
:1071F4001B784BB9114BDB681BB10021104A11708D
:107204009847FFF7C3FF08BDFFF796FF08BD10229C
:107214000A4B59690C4814F0FBFC50B113F0D2FF2F
:1072240008BD8168C06809F073F918B90122054BDB
:107234001A7008BD13F0C6FFF8E700BF902F0020B6
:107244008C2F00208D2F0020E031002070B586B0F7
:107254000446204A03AB07CA03C323F8022B120CCB
:107264001A701D4E35460FCC0FC594E8030085E80F
:107274000300736953B31949194814F01DFC0346FC
:1072840028BB184B009303AB144A1549164814F055
:10729400CFFB0346D8B9154816F06EF801461248DC
:1072A40014F0F2FB034690B9114816F025FA034690
:1072B40068B90F4816F056FA01460B4814F0E4FB7F
:1072C400034620B9FFF762FF034600E00723184690
:1072D40006B070BD88230400902F0020A82F002042
:1072E40014330020AD710200E0310020C82F0020CB
:1072F4009031002008B5064B1B683BB111F064FCCB
:10730400002803DB024B1B689847F7E708BD00BF62
:107314005433002010B50C46144B1860144A012154
:10732400144819F0DFFEA0B9610CE00341F26F725A
:1073340000238B4208BF824210D24FF47A7200239A
:1073440019F02AFF014600220B4819F0E1FE38B972
:1073540010BD0A4A4A2113F043FFE5E70521F2E78D
:10736400064A4B2113F03CFFF2E700BF54330020E0
:10737400F972020094230400583300209823040077
:1073840008B5104B1B6873B14FF0A042D2F8043516
:107394000D4909684B40C2F804350A4A1368013B99
:1073A400136023B108BD002013F00CFFECE707487D
:1073B40019F0CCFE064B1A684FF0A043C3F804251D
:1073C400F0E700BF783300207C33002080330020B6
:1073D400A83300204FF0A043D3F80425012303FA77
:1073E40000F002420CBF18460020704739B901234F
:1073F40003FA00F04FF0A043C3F8080570470123D7
:1074040003FA00F04FF0A043C3F80C05704721B90C
:107414004FF0A043C3F8080570474FF0A043C3F8EA
:107424000C05704712B11346132900D8704770B584
:10743400144A10605B00013B134A13604FF0A043F1
:10744400D3F80425114B1A6000264D0CCC034FF4DD
:107454007A72002314F5FA7045F1000119F09CFECC
:10746400324601460A4819F053FE48B94FF0A0428B
:10747400D2F804350349096823EA0103C2F8043544
:1074840070BD00BF7C33002078330020A833002077
:107494008033002008B5044819F058FE0021034B3E
:1074A4001868FFF7B4FF08BD803300207C33002048
:1074B40010B582B0144B1B68ADF804301B0C8DF86A
:1074C4000630002312E002AAD01810F8042C4FF062
:1074D400A04102F5E072032441F8224010F8040CA4
:1074E40001228240C1F808250133DBB2032BEAD91B
:1074F400064A0121064819F0F5FD08B902B010BD8D
:1075040013F060FEFAE700BF002404008573020054
:1075140004240400F0B1104A1060002309E00F4A6B
:10752400D25C02F5E0720E484FF0A04141F822000F
:107534000133012BF3D90B4B4FF00042C3F8042362
:107544000020C3F87C01084BC02283F806234022A4
:107554001A6070470E207047A033002008240400EE
:107564000C0003000060004000E100E010B50024BE
:10757400144BC3F87C4103E0D11A14E00134E4B2A3
:10758400012C1ED84FF0A043D3F810250E4B195DE3
:1075940001238B409343F1D00C4B1B680C4AD2F867
:1075A4000425991AE8D443F233339942E6D9084BB7
:1075B400D3F80425054B1A60064B1B6820469847F0
:1075C400DCE710BD0060004008240400A433002060
:1075D40000100140A0330020002869D02DE9F043B9
:1075E400CFB00646334B1B6813F4804F03D0324BA5
:1075F4001B68032B31DC2F4B1B6813F4804F03D023
:107604002D4B1B68032B2ADC4FB0BDE8F083F25CE2
:1076140059002A4805681009285C0DAC04F81300C9
:10762400013102F00F02AA5C625401330F2BEED930
:107634000DAA00238DF8543003F1804303F58833F9
:10764400D3F8043502921E4A01921E4A0092412246
:107654001D49042005F0FAFDCDE70023E6E71B4BA6
:10766400D3F80435B288F188307A747AB57AF77A27
:1076740096F80CE096F80DC096F80E8096F80F90E8
:10768400CDF82C90CDF82880CDF824C0CDF820E09A
:10769400079706950594049003910292326801922B
:1076A4000B4A009246220849042005F0CFFDABE7BF
:1076B400704700BF6C2E0020682E0020702E002022
:1076C400782404008C240400652404000010014084
:1076D4009424040072DF704773DF704774DF7047CF
:1076E4002DE9F047A2B0074688469146314C002662
:1076F4006660E66030490B78C3EB43102F4D0544B8
:1077040025602F4A0244A2601F22A280A281013375
:1077140003F001030B704FF03C0A5246314613A8A4
:1077240019F021FF06238DF84F30ADF8487001237E
:107734008DF84A30ADF85C3012AA1892ADF83C705E
:10774400ADF84090CDF844800DEB0A021D928DF8FF
:10775400783052463146684619F005FF02238DF809
:107764000030221D294613A812F090FE90B9114B47
:1077740003F10C029968684612F088FE68B9114A50
:107784000C491148FFF7A6FF082809D070B922B0A8
:10779400BDE8F08713F016FDE9E713F013FDEEE7FB
:1077A400002204490848FFF795FFEFE713F00AFDAC
:1077B400EDE700BFF0330020AC330020B0330020ED
:1077C40000340020002E0020FC2D002090B1B0F5E4
:1077D400202F0AD2094AA2FB0023DB0843B19BB243
:1077E400074A9381064B996070474FF6FF73F5E79C
:1077F4000123F5E70022024B9A81F3E7CDCCCCCCF0
:10780400002E002008B50121054B1878FFF764FF0E
:1078140018B9002004F002FA08BD13F0D3FCF8E70D
:10782400FC2D002008B5044B1878FFF757FF00B96A
:1078340008BD13F0C7FCFBE7FC2D002076DF704782
:107844007ADF70477CDF704708B513F0BBFC08BDD6
:1078540008B503F019FB08BD00B583B0037823B164
:10786400012B0BD003B05DF804FB3B214088FFF7EC
:10787400E5FF0028F6D013F0A5FCF3E7094B1B68DD
:1078840013F4804FEED0084B1B68032BEADD074B43
:10789400D3F80435064A009268220649042005F00C
:1078A400D5FCDFE76C2E0020682E0020001001407C
:1078B4005C2504004125040000B583B012F0C0FF2C
:1078C40070B902A9002341F8043D012012F0E8FE3A
:1078D40048B901A812F036FF40B903B05DF804FBC3
:1078E40013F070FCEDE713F06DFCF2E713F06AFCA3
:1078F400F3E7000000B585B09DF80C30012262F377
:10790400030362F3071304A800F8043D10220E4990
:10791400FFF798FF90B9002302937823ADF8043061
:10792400C823ADF806304FF4C873ADF80A3001A887
:10793400FFF786FF28B905B05DF804FB13F042FC9D
:10794400E9E713F03FFCF6E7D424040000B58BB05C
:1079540001AA002302937821ADF80410C821ADF8E0
:1079640006104FF4C871ADF80A10069307930392FA
:1079740040F6CD4304934FF48033059303238DF8ED
:107984001830074B0893074B099303A813F044F9E5
:1079940010B90BB05DF804FB13F014FCF9E700BF59
:1079A4005D7802004D7802000620704700B587B06C
:1079B40041F20103984245D020D944F20103984290
:1079C40056D044F2020398426DD1454B1B6813F420
:1079D400804F2AD0434B1B68002B26DD424BD3F843
:1079E4000435108803905268029201913F4A009234
:1079F4006C223F49012005F029FC16E0012852D1F0
:107A0400374B1B6813F4804F0FD0364B1B68002B89
:107A14000BDD354BD3F8043502920191354A0092BF
:107A240060223349012005F011FC4FF0A043324A93
:107A3400C3F81825C3F80C25EFF3108372B64DF67E
:107A4400AD6C46E0264B1B6813F4804FEDD0254BFC
:107A54001B68002BE9DD244BD3F804350292019115
:107A6400264A009263222249012005F0EFFBDCE75D
:107A74001B4B1B6813F4804FD7D01A4B1B68002B89
:107A8400D3DD194BD3F80435106804905068039083
:107A94000291926801921A4A0092772214490120B5
:107AA40005F0D4FBC1E70E4B1B6813F4804FBCD028
:107AB4000C4B1B68002BB8DD0B4BD3F8043501913C
:107AC400104A00927B220A49012005F0BFFBACE773
:107AD40030BF0D4B1B78002BFAD107B05DF804FBC7
:107AE4006C2E0020682E0020001001403426040073
:107AF400E1250400F425040000010400102604001C
:107B04005426040078260400182E002000B583B003
:107B14000023ADF80030054B01936A46014644F258
:107B24000200FFF743FF03B05DF804FBB420040038
:107B340010B40346044C006859689A68DB680FC4A3
:107B44005DF8044B704700BF403400200B4B0C4AD7
:107B540092E8030083E8030003F10802094903C91A
:107B640082E80300DA79042161F30712DA711A7AE0
:107B7400022161F387121A72704700BF403400205B
:107B840060000010A400001000487047403400203A
:107B9400002308E0074901EBC30000224280426051
:107BA40001F8332001331F2BF4D90022024B1A6051
:107BB400704700BF503400205035002030B40546D3
:107BC4000F4B1B6800240AE01F230E4A12F83300EF
:107BD400A0B102EBC3025288AA4207D001341F2C81
:107BE4000BD85A1E002BEFD01346EEE7054A02EBE2
:107BF400C30252688A42F1D100E0002030BC7047D1
:107C0400503500205034002030B40A4A13680A4C1E
:107C140004EBC30568806960012104F833100B4448
:107C24001360202B01D030BC70470022014B1A6036
:107C3400F9E700BF5035002050340020C0F30C0396
:107C44008B4202D3C91A08447047C91A0844A0F5E4
:107C540000507047C37D002B41D083780A7802F02E
:107C6400800203F07F0313430B7002780B7803F058
:107C74007F0343EAC2130B7003787BB330B44378B9
:107C8400082B14BF002201224B7803F07F0343EA40
:107C9400C2134B70858803F08003C5F38614234315
:107CA4004B708A7802F0030242EA8502D2B28A70EB
:107CB400857902F0FC02C5F3C10422438A70CB78B3
:107CC40003F01F0343EA4513DBB2CB70C27903F020
:107CD400E00302F01F021343CB7030BC704783787B
:107CE4000A7802F0BF029B0103F0400313430B70B8
:107CF400C27803F0C00302F03F0213430B70B4E7F1
:107D04000023032B22D810B402E00133032B19D82B
:107D1400C3EBC30214010E4A224492F84820012AFC
:107D2400F3D10B4A2244948AC2899442EDD1C3EB25
:107D3400C3021401064A224492888A42E5D10448C7
:107D4400204400E000205DF8044B70470020704799
:107D5400C0350020002300E00133032B14D8C3EB0B
:107D6400C3021101094A0A4492F84820022AF3D1B5
:107D7400064A0A44918A828A9142EDD1C3EBC30335
:107D84001A0102481044704700207047C035002093
:107D940008B10820704704207047000038B5054634
:107DA4000C46CB695B78C370CB691B7883F0010305
:107DB4008370CB694362087B022814D0FFF7E8FF85
:107DC4006870E27A32B9A18AC0F10F03994201DCEA
:107DD400082833D0A18A0346C0F10F00814207DC92
:107DE40052B3012205E0164B987DFFF7D1FFE7E778
:107DF40001222A7062B1A28A13440B33114A82FB16
:107E04000312DB17C3EB6203013BEB710023AB717D
:107E14000023EB7505F10C0294E8030082E80300EB
:107E2400A2692A622289AA82A27AAA75226AAA620D
:107E340085F82C30184638BD0022DAE7072038BD13
:107E4400A8350020ABAAAA2A30B403460C46097808
:107E5400817000214162A1680B2903D8217B09B3F9
:107E6400012100E0012119700020587029B1A16896
:107E74000731C9080139D97198710121D97503F104
:107E84000C0504F1100103C985E80300E189998216
:107E9400A1691962217F9975617F83F82C109A6218
:107EA40030BC70470021DEE70021164B1B68994265
:107EB40026D20023144A02EBC102526893421DD217
:107EC40010B4114A52F8312002EBC30412F83320E3
:107ED40082420DD001330C4A02EBC1025268934234
:107EE400EFD30131074B1B68994205D20023F2E717
:107EF40060685DF8044B70470020FAE70131D4E76D
:107F040000207047543500205835002070B58CB0DF
:107F140006460D4614462C22002101A819F023FB25
:107F24000F238DF80430ADF808604FF0000365F3BB
:107F340000038DF80A308DF80B4001A801F0E4F835
:107F44000CB070BD30B58DB005460C462C22002116
:107F540001A819F008FB10238DF8043002958DF860
:107F64000C4001A801F0D0F80DB030BD00B58DB0C3
:107F740048B913F1020F06D001228DF804200293B0
:107F840001A801F0C1F8034B186804F083F80DB0A0
:107F94005DF804FB603500202DE9F0410546884674
:107FA4000378BBB10D4B1C68621C1A6004F0070413
:107FB400AB8A0B4F07EBC4067380A988A869FFF747
:107FC4003DFE7060EB6903F00103737007F83480C1
:107FD400BDE8F0817846FFF799FDE3E7A43500207A
:107FE4006435002070B5064603784BB1B58A347FFA
:107FF40004F00104B188B069FFF720FE002304E017
:108004007846FFF783FDF1E70133072B15D80C4AB7
:1080140002EBC30252689042F6D1094A02EBC30252
:1080240052889542F0D1064A02EBC3025278944238
:10803400EAD1034800EBC30070BD002070BD00BF4F
:1080440064350020F8B515461C460E684A68D1F818
:1080540008E0CF68E6602261C4F814E0A7610E6905
:108064004A69E66122620378DB092370E27D32B358
:10807400037803F07F03A3700023637023789BB11C
:1080840043789B0103F4FE53827843EA9203A3806E
:108094008378DB0003F01803C27843EA5213A37118
:1080A400C37803F01F03E371002363622B78052B6D
:1080B4001AD82B780E4AD35C84F82C30F8BD027899
:1080C400C2F38012A270027802F03F02E27043B160
:1080D400437813F0800F02D008236370CEE70423A3
:1080E400FBE704236370C9E77846FFF70FFDE0E779
:1080F4009426040070B50C461E460378B3B10425DB
:108104002A44A26000F10C032360836A636090F840
:108114002C30237300236373204604F025FB0246AE
:1081240010B923691D443560104670BD0125E7E789
:108134002DE9F0418EB00D4616461C4680460028B7
:108144002DD0002D2FD0002C31D0636A023305933B
:1081540004F10C00A378002B2DD00121627801AF2B
:108164003B46082A14BF0022012204F0D8F80697DF
:10817400CDF81C80B2B2ADF820200B9515440C95B7
:1081840063788DF83430237B022B16D00023ADF8AE
:10819400283005A804F0BBF80EB0BDE8F08178469D
:1081A400FFF7B4FCCDE77846FFF7B0FCCBE77846A1
:1081B400FFF7ACFCC9E70221D0E723692BB123699F
:1081C40009931023ADF82830E3E77846FFF79EFCC7
:1081D400F5E72DE9F04186B004460D46C37D002B3A
:1081E4003CD0082605FB06F8E3799D4238D0A571FA
:1081F4006B46324601A92046FFF77CFF074648BB81
:108204004DB994F8533033B9A369C3F30C03A38075
:10821400012384F85330E37D7BB994F8523063B979
:108224001DBBB4F84A10627823468A1AE16E0846E8
:10823400FFF77EFF012384F8523005992046FFF7AB
:1082440009FDE16E32464144009819F063F901A832
:1082540004F0A8FA384606B0BDE8F0810C26C1E760
:10826400B4F84A60A6EB0806C1E77846FFF74EFC6F
:10827400D7E770B505460E4609B100230B6095F8A3
:108284005040002104E0631C85F850300134E4B20E
:10829400EB799C4210D8EA6C0123A3401A42F5D131
:1082A40021462846FFF795FF014628B9002EEAD05B
:1082B400336801333360E6E7084670BDF0B587B034
:1082C40044781444C37D33B10B23A34205D209245B
:1082D400204607B0F0BD0F23F7E716460F460546C4
:1082E4006B46224601A9FFF705FF04460028EFD19B
:1082F40005992846FFF7AEFCEB7D43B1324639467B
:10830400009819F007F901A804F04CFAE0E72B46AD
:10831400324600993846FFF70BFFF4E710B50446E0
:1083240090F84830012B02D07846FFF7EFFB03F0BA
:108334008FF8237B012B07D0074BD968014404F144
:10834400300003F04DF810BDA37D034AD1681269D3
:1083540002FB0311F2E700BFA835002030B583B05B
:10836400002403E02846FFF7D9FF0134032C1AD870
:10837400C4EBC4031A010D4B134493F84830012B8A
:10838400F3D102A9002341F8043DC4EBC402130154
:10839400064D1D442846FFF76CFF0428E2D0019BDC
:1083A400002BE2D0DEE703B030BD00BFC0350020B3
:1083B40038B5044690F84830022B02D07846FFF7CF
:1083C400A5FB054B1D6803F043F8291804F13000A0
:1083D40003F006F838BD00BFA835002038B50446C0
:1083E40090F84830022B02D07846FFF78FFB084BF9
:1083F4005D7D5A689B6803FB052503F029F8411944
:1084040004F1500002F0ECFF012384F8683038BD19
:10841400A835002038B50446C06E08F068F804F1A9
:108424003005284602F0F9FF70B994F84830022B61
:108434000ED070220021204619F095F8002084F80F
:10844400480002F039F838BD284602F0B1FFECE7E5
:1084540004F15005284602F0E0FF0028E9D0284640
:1084640002F0A6FFE5E710B504460121FFF794FDED
:108474002046FFF7CFFF10BD10B58CB0044690F82E
:108484004830012B02D07846FFF740FB01238DF8DA
:108494000430636D029301A800F036FE2046FFF716
:1084A400B9FF0CB010BD000030B585B00D460446D0
:1084B400A8B100212046FFF76FFD2946606DFFF744
:1084C40041FD2046FFF7A6FF0F4B1B6813F0040F76
:1084D40003D00E4B1B68032B05DC05B030BD78467A
:1084E400FFF714FBE5E70A4BD3F8043594F848206A
:1084F40002950192074A009240F2EF1206490420C5
:1085040004F0A4FEE9E700BF6C2E0020682E0020D2
:1085140000100140FC260400EF26040008B50846BC
:108524000021FFF7C1FF08BD08B5037B012B02D072
:10853400FFF7A2FF08BD0121FFF7B6FF08BD000049
:1085440008B590F8513013B9FFF7EEFF08BD013BB1
:1085540080F85130002380F85030024B186803F043
:1085640099FD08BD6035002010B50C4691F84830DF
:10857400012B02D07846FFF7C9FA2046FFF7E0FF47
:1085840010BD0000062900D0704770B582B00346C4
:108594000178890101F4FE5140789D78DC78240447
:1085A40044EA05641D7944EA05245B791C4341EAE5
:1085B40090011046FFF7A4FB0546B8B1C66C2643EC
:1085C400C66444B3037853B3EB795A1C0123934034
:1085D400013B9E4227D0002185F850102846FFF722
:1085E40048FE2846FFF79AFE02B070BD104B1B6888
:1085F40013F0040FF8D00F4B1B68012BF4DD0E4B66
:10860400D3F804350D4A009240F2A7520C490220D7
:1086140004F01CFEE8E70321FFF746FFE4E7784691
:10862400FFF774FAD0E72846FFF726FFDCE700BF20
:108634006C2E0020682E002000100140202704002A
:10864400EF2604002DE9F04389B080460F46144616
:108654001E4695782DB32846FFF726FC8146E8B1DF
:108664008DF80050236A0693A38AADF80E3004AB4C
:1086740004F10C0292E8030083E80300A37D8DF863
:108684001C30CDF80480029723788DF80C3094F8D0
:108694002C308DF81D3031466846C84709B0BDE816
:1086A400F083FFF76FFFF9E72DE9F04706460F4621
:1086B40090464B1EDBB2012B02D97846FFF726FA0F
:1086C400B8F5C07F0CD80024032C16D8C4EBC4031F
:1086D4001A01314B134493F848302BB10134F3E7BA
:1086E4007846FFF713FAEEE7DFF8ACA015465544D9
:1086F400404607F0F8FEE86600E00025002D32D081
:10870400EB6E002B46D033462A4606F13001D3F8EF
:1087140000C0D3F804E09C68D868C2F800C0C2F86E
:1087240004E09460D060103310328B42EFD1002308
:10873400EB64A5F84A80B188B069FFF77FFAA861B5
:10874400012F13D06FF00103AB62002385F868306A
:10875400124BAB652D66124BAB632D64012001F007
:10876400ABFE85F848702846BDE8F0870D4B1B7DAD
:1087740085F85130002385F8523085F8533085F858
:108784005030B36A6B656FF00103AB62064BAB63A9
:108794002D64E3E70025E6E7C03500205190020090
:1087A40021850200A83500206D850200F0B5C7B010
:1087B40045781544C37D3BB14FF48073AB4206D278
:1087C4000924204647B0F0BD4FF4C073F6E70023F8
:1087D40000E00133032B19D8C3EBC3042601394C41
:1087E400344494F84840012CF3D1364C3444A68ADE
:1087F400848AA642EDD1C3EBC3042601314C344430
:10880400E689C489A642E4D10824DAE714460E4670
:108814002A460121FFF748FF054600284ED022468C
:108824003146C06E18F076FE46A9002341F8043D97
:108834002846FFF71EFD044628B1042803D0284625
:10884400FFF7E8FDBDE7459B7BB91F4B1C6814F09F
:108854000404B6D01D4B1B68032B31DDB5F84A70F8
:10886400802F28BF8027002313E02846FFF756FDFA
:10887400EBE7EA6ED25C5900154804681009265CDF
:1088840004A800F81360013102F00F02A25C425404
:108894000133BB42EDD304AA002402F817400D4B68
:1088A400D3F8043502920C4A01920C4A009240F229
:1088B400D1420B49042004F0C9FC82E7042480E778
:1088C40000247EE7C03500206C2E0020682E002096
:1088D400702E002000100140502704008C24040056
:1088E400EF26040000B585B000238DF80F3098B151
:1088F4000346084602330B600DF10F0103F00BFD34
:108904009DF80F3043B10D4B1B6813F0040F03D0D7
:108914000B4B1B68032B04DC9DF80F0005B05DF8BE
:1089240004FB084BD3F80435074A009240F2A63200
:108934000649042004F08AFCEEE700BF6C2E0020F8
:10894400682E00200010014060270400EF26040078
:108954002DE9F0438FB004460E4615461F46D0F865
:108964001890037823B181884846FFF767F9A0611E
:1089740004F10C00A378002B3AD0012162780DF1A8
:1089840028084346082A14BF0022012203F0C7FC2A
:10899400C4F81890CDF8088003966378EA1A92B266
:1089A400ADF810203244089207978DF82430002344
:1089B400ADF81830237B022B1CD0A3786BB3237B38
:1089C400022B1BD02546002345F8243F2A46E17894
:1089D400206A0EF029FA606A98B101A9FFF782FFB4
:1089E40000283CD12A46E178206A0EF01DFAF2E70D
:1089F4000221C3E71023ADF81830DEE7236905939D
:108A0400E0E7237B022B2ED104F10C01E0890EF068
:108A1400B9FA0028D3D1052022E000236362237B26
:108A2400012B0DD02146002341F8243FA08A0EF0EB
:108A340018FA01A9606AFFF755FF70B905200FE025
:108A440004F12401E0890EF00CFA01A9606AFFF731
:108A540049FF0028E6D0002002E0002000E00020CA
:108A64000FB0BDE8F0830520FAE7000070B5F0B060
:108A74000D4614461E4610AB0A4601462046FFF733
:108A840067FF50B11F4B1B6813F0040F03D01E4B3C
:108A94001B68052B2ADC70B070BD03AB01228DF876
:108AA4000C20A28AADF80E20002204928DF8142026
:108AB40010AA06926278AD1AADF81C5008AA93E881
:108AC400030082E803000AAB04F10C0292E80300FD
:108AD40083E80300A37D8DF83830236A0C93636A1E
:108AE4000D930F9605A800F00FFBD4E7074BD3F8BE
:108AF4000435074A009240F219620649062004F040
:108B0400A5FBC8E76C2E0020682E00200010014051
:108B140098270400EF26040010B5D47D14B9FFF79C
:108B2400A5FF10BDFFF78EFD10BD70B504460D46C0
:108B34001646808A01F0E2FF012801D0102070BDA2
:108B4400237B0BB9102070BD022B0BD094F9163087
:108B5400002B12DB237853B9324629462046FFF70F
:108B6400ADFB70BD2369002BF0D1102070BD3246DF
:108B740029462046FFF71AFE70BD072070BD00008D
:108B840010B54FF4E0720021134818F0ECFC05F026
:108B9400F9FD0024114B1C6040222146104818F0B6
:108BA400E2FC104B104A1A60104A5A604CF25032E0
:108BB4009A600F49D9601A6104221A759C750822BB
:108BC4005A750C4803F046FA0B4B18600B4B1C60AB
:108BD4000B4805F0D3FE10BDC0350020A43500209D
:108BE40064350020A835002080969800F0490200E2
:108BF40020A10700A18D020060350020543500201B
:108C0400717F020008B505F033FD08BDA8B110B5A9
:108C14008CB0044603699BB1C369ABB18369ABB142
:108C240001466846FFF7BAF8034650B9A28A21699B
:108C34006846FFF77AFF034603E00E2318467047A1
:108C44000E2318460CB010BD0E23FAE70E23F8E7E6
:108C5400E8B110B58CB004464068D0B1A069D8B171
:108C6400227C022A1AD00AB9102013E094F90020B9
:108C7400002A01DA07200DE00A4621466846FFF77C
:108C8400E3F8A26861686846FFF74FFF02E00E2030
:108C940070470E200CB010BD0E20FBE71020F9E742
:108CA400037B012B01D00020704730B58DB001AC9F
:108CB40000230293CDF80B308288C2F386158DF819
:108CC400045092008DF805200A0E8DF806200A0C37
:108CD4008DF807200A0A8DF808208DF8091006225D
:108CE400069201228DF82020828AADF82220099371
:108CF4008DF810300594026A0A928DF81C30C389ED
:108D0400ADF81E3090F82C308DF82D30837D43B9AA
:108D14008DF82C306FF0010104A8FFF799FF0DB016
:108D240030BD024B5B7D8DF82C30F3E7A835002075
:108D340038B590F84830022B00D038BD90F8683030
:108D4400022BFAD10446C16CFFF7AAFF0028F4D124
:108D5400002384F86830E56C237853B1E3795A1C16
:108D640001239340013B9D42E7D12046FFF77BFB63
:108D7400E3E77846FEF7CAFEF0E7000010B50024EA
:108D840007E0C4EBC402130103481844FFF7D0FF03
:108D94000134032CF5D910BDC035002008B5FFF708
:108DA400DDFAFFF7EBFF012008BD00002DE9F041DB
:108DB40082B007460E46144698461046FEF7CAFF90
:108DC400054620B1A28883889A4210D312D820463F
:108DD400FFF708F9B8B103784BB123787BB1E17997
:108DE4004B1C0121994001392046FFF759FF02B07D
:108DF400BDE8F0810521FFF757FB0025E7E778463A
:108E0400FEF784FEEBE7002D57D05F4B1B6813F091
:108E1400040F04D05D4B1B68032B00F386802846A7
:108E2400FFF7C6FA2B7B012B00F08D80EA6CA17949
:108E340001238B401A42DAD11343EB64A279EB7914
:108E44009A4200F08980E37D002B00F09080082393
:108E5400B34240F08E80EB6E94F806E0E27D002A87
:108E640000F08C800820324639460EFB003018F0A2
:108E740051FBEC6C2B78002B00F08280EB795A1CB0
:108E840001239340013B9C42B1D1022385F8683011
:108E9400E96C2846FFF704FF044643462A46B5F822
:108EA4004A10E86EFFF738FE002CA0D1002385F8A5
:108EB40068302846FFF7D7FA99E7E2790132E37D73
:108EC400EBB1082102FB01F2DBB14FF48073934252
:108ED4001AD22D4B1B6813F0040F88D02B4B1B6840
:108EE400002B84DD2A4BD3F804350192294A0092E1
:108EF40040F236322849012004F0A8F977E70C2122
:108F0400E0E74FF4C073E2E702212046FFF7CCFB11
:108F1400054600287FF479AF00212046FFF7C0FE04
:108F240002210020FFF70EF861E7194BD3F804354E
:108F3400A2790192194A009240F251321649042052
:108F440004F084F96BE795F86830002B7FF46EAF7A
:108F54002846FFF743FA69E79BB2E27D2AB108226B
:108F640002FB0363A5F84A3075E70C22F8E70C23EB
:108F74006EE704212846FFF797FA38E70C2072E7DA
:108F84007846FEF7C3FD79E76C2E0020682E00209A
:108F94000010014074270400EF2604008827040011
:108FA4002DE9F0418EB0002849D08046002A48D0EF
:108FB4001F4614460E4600230C930D930CA95088AB
:108FC4000DF0E0FF08B900253CE02269E168208942
:108FD40005F082FB08B1002534E02269E1682089AC
:108FE40005F04EFB0546D0B96B463A46214640464D
:108FF400FFF728F803AB0EAA12E9030083E8030085
:1090040002F0B0FF9DF800308BB13B466A46311F39
:1090140008F10400FFF7CAFE02F0E8FF12E021693C
:10902400002201F001012089FEF770FF0AE03B46AF
:109034006A46711E08F10100FFF76EFDECE70E258C
:1090440000E00E2528460EB0BDE8F08110B50C46B0
:1090540091F84830022B02D07846FEF757FD0223E0
:1090640084F86830E16C2046FFF71AFE10B900233B
:1090740084F8683010BD0000F8B518B30546164BE7
:109084001F6817B104273846F8BD0E463C46B44263
:109094000ED205EBC4035B68B3B115F8340010F0CD
:1090A400800F13D1A0B1FEF7FFFE98B90134EEE7AB
:1090B4000A4B43F8375003EBC7035E607B1C064A38
:1090C4001360E0E70E27DEE70E27DCE70B27DAE77D
:1090D4000F27D8E70F27D6E754350020583500204E
:1090E400084B196861B110B501E021463CB10C6828
:1090F4000B79002BF9D0034804F00DF8F5E710BD07
:10910400704700BF8437002038B5054630B1104B96
:109114001C68ACB101220F4B1A7004E07846FEF7CC
:10912400F5FCF4E724683CB12379002BFAD154F818
:10913400043C28469847F5E7064B1B78022B00D0E1
:1091440038BDFFF7CDFF0022024B1A70F8E700BFCD
:10915400843700208037002010B5044630B1002346
:109164002372211D034803F0ABFF10BD7846FEF7C0
:10917400CDFCF4E78437002010B5044650B10A4B07
:109184001B78013BDBB2012B08D9211D074803F0F2
:10919400C2FF10BD7846FEF7B9FCF0E70222024B8D
:1091A4001A700123237210BD8037002084370020F9
:1091B4000A8883689B5A07339BB223F00303134442
:1091C4009BB20288043A934200D900230B80704773
:1091D40010B582B004468368CB1A02A921F8023D77
:1091E400FFF7E6FFBDF80630A068184402B010BDD2
:1091F4000088043880B2704743888268D018D152FE
:1092040001238370704782680023937043808380B6
:109214007047073189B221F0030189B242888388FB
:109224009A4206D29B1A994201DD0420704700201D
:10923400704710B59A4211D90488A41A8C4217D2E7
:10924400994201D9042010BD032C03D98368134427
:1092540004229A7000234380184610BD8268134488
:109264009B780BB1042010BDFFF7CDFF002010BD8B
:10927400002010BD38B504460D4683688288134427
:109284008B4202D07846FEF741FC0023AB70211DCF
:109294002046FFF78DFFA288A36813449B78042B14
:1092A40000D038BD0023A380FBE710B50C468368CB
:1092B400428813448B4202D07846FEF727FC0023F1
:1092C400A37010BD70B5064615460C46002944D05F
:1092D400002E46D0B4F1005F08D94FF08053D3F884
:1092E4000C3103F50023B4EB832F0ED3B4F5000F38
:1092F40008D94FF08053D3F80C3103F50053B4EB85
:10930400832F02D37846FEF701FC6B1E2344B3F18E
:10931400005F08D94FF08052D2F80C2102F50022E8
:10932400B3EB822F0ED3B3F5000F08D94FF0805260
:10933400D2F80C2102F50052B3EB822F02D3784607
:10934400FEF7E4FB042D10D9358000237380B3802D
:10935400B460043D2580A37070BD7846FEF7D6FB4B
:10936400B6E77846FEF7D2FBB4E77846FEF7CEFBC5
:10937400EAE738B50446A0B16288A36813449B7831
:10938400012B12D0EFF3108572B6A388A16819449B
:109394008B78032B0DD02046FFF735FF05B962B655
:1093A40038BD7846FEF7B2FBE6E77846FEF7AEFB3B
:1093B400E8E72046FFF70CFFA368C31A6380002385
:1093C4008370EBE72DE9F0410E461546044658B18B
:1093D40076B16288A36813449B78012B0CD07DB9C5
:1093E40009273846BDE8F0817846FEF78FFBEFE7A2
:1093F4007846FEF78BFBECE77846FEF787FBEEE753
:109404002046FFF7F5FE854201D90927E9E7EFF386
:10941400108872B629462046FFF7FBFE074620B1A6
:10942400B8F1000FDDD162B6DBE729462046FFF72D
:10943400E3FE3060F4E7F8B50C4616460546F8B18D
:1094440014B3A378012B02D07846FEF75FFB238880
:10945400B3421DD306B3EFF3108772B626800223FE
:10946400A370E9182846FFF7A3FE6A88AB889A42DE
:1094740003D0AB68134400229A7007B962B6F8BDF2
:109484007846FEF743FBDBE77846FEF73FFBD8E779
:109494007846FEF73BFBDDE77846FEF737FBDAE775
:1094A40070B50D46044680B19DB1EFF3108672B6D7
:1094B400A288A36813449A78042A0ED09A78022AC0
:1094C40013D0032A18D0052013E07846FEF71EFBBC
:1094D400EAE77846FEF71AFBE7E7211D2046FFF787
:1094E40067FEA288A3681344E8E703229A702B60FE
:1094F400002006B962B670BD7846FEF707FB00206F
:10950400F7E738B5044680B1EFF3108572B6A0884A
:10951400A16801448B78042B0BD08878022814BFEF
:109524000020012005B962B638BD7846FEF7EEFA90
:10953400EAE72046FFF74CFE0146EEE738B504465D
:1095440030B1EFF3108572B6A088A168014407E03A
:109554007846FEF7DBFAF4E72046FFF739FE0146CA
:109564008878C31EDBB2012BF6D9022814BF002071
:10957400012005B962B638BD70B50C46064678B10F
:1095840094B1EFF3108572B6A378012B10D0032B9E
:1095940013D121463046FFF76DFE05B962B670BDA2
:1095A4007846FEF7B3FAEBE77846FEF7AFFAE8E75A
:1095B40021463046FFF779FEEFE77846FEF7A6FA34
:1095C400EBE710B5EFF3108472B683888168194411
:1095D4008B78042B06D08878B0FA80F0400904B95F
:1095E40062B610BDFFF7F4FD0146F4E708B5064B7B
:1095F400986800221A605A609A60DA601A615A61A7
:109604009A6104F039FE08BD8837002000B585B0A2
:109614000A4BDB6802228DF8002001934FF480533B
:109624000293074A6946012001F07AF918B1002033
:1096340005B05DF804FB0120FAE700BF883700207D
:10964400A437002000B585B00A4B1B6802228DF8B0
:10965400002001934FF480530293074A6946012086
:1096640001F05EF918B1002005B05DF804FB01209B
:10967400FAE700BFA8370020A4370020154BDA68AA
:10968400137951795B1A03F57F2303F6FF731B03E8
:1096940005D002F580520F4BDA600320704700B505
:1096A40085B00D4B1B6801208DF8000001930B4B16
:1096B4000393042302930A4A694601F031F930B94D
:1096C4000122044B1A76022005B05DF804FB002049
:1096D400FAE700BF88370020A8370020AC37002005
:1096E400A437002000B585B00C4BDA680C4B1B681E
:1096F400043301208DF800000192039340F6FC73BB
:109704000293084A694601F00BF928B90120034B7A
:10971400187605B05DF804FB0020FAE788370020CE
:10972400A8370020A437002000B585B00A4B1B6879
:1097340001208DF800000193084B03930423029346
:10974400074A694601F0ECF818B1002005B05DF84D
:1097540004FB0120FAE700BFA8370020943700205B
:10976400A437002010B584B0104BDA681478104B7D
:109774001B68043301208DF80000019303920294C6
:109784000C4A694601F0CCF870B9094B1B6804F027
:10979400FC041C440434054B5C61D9680A780A440F
:1097A4001A61012004B010BD0020FBE788370020B7
:1097B400A8370020A437002008B50023092B09D8B6
:1097C400064A52F82320824201D00133F6E7044AC4
:1097D400536008BD7846FEF799F908BDC427040014
:1097E4008837002010B5214BDB6853B11F4B1B7E1B
:1097F4005BB91E4B5B68092B15D97846FEF786F9D1
:1098040011E07846FEF782F9F0E77846FEF77EF934
:10981400EFE70022154B5A60012C01D0032C23D111
:10982400124B1B7E03BB114B5A68114B53F8223069
:109834009847044602280DD00328EAD00128EBD12A
:109844000A4A536801335360092BE5D97846FEF779
:109854005DF9E1E7054B1B7E1BB10222034B1A7035
:10986400DAE7FFF7C3FED7E710BD00BF8837002053
:10987400C4270400104B1B681B685A1E12F1030F07
:1098840018D8C3F30B020AB10020704710B50B4A75
:10989400D360002313765376012414709360084830
:1098A400FFF78AFF0749204601F028F8FFF79AFFDF
:1098B400204610BD00207047A837002088370020BC
:1098C40011960200CD98020008B50B78032B06D040
:1098D4000B4B1B78012B06D0022B0BD008BD0022AA
:1098E400074B1A76F4E7064B1B7E002BF6D1FFF7E5
:1098F40079FF08BD0B78032BF0D1FFF777FEEDE776
:109904008837002000B585B0174BDB6818784FF610
:10991400FF7203F58051184404F0E6FFF0B10246EB
:10992400114BD9680B780B44984219D00E4B5B7ECF
:1099340093B10E4B01208DF8000001920393042390
:1099440002930B4A694600F0EBFF58B90120064B1D
:10995400187605B05DF804FB064BEBE70120F8E749
:109964000120F6E70020F4E788370020382A0400B5
:10997400A4370020342A040008B50F4BDB6818789C
:10998400002203F58051184404F0AEFF08B1012011
:1099940008BD094BDA68137951795B1A03F57F2303
:1099A40003F6FF731B0305D002F58052024BDA6005
:1099B400032008BD022008BD88370020F0B585B01B
:1099C400544BDD686A792B79591E8A421AD005F501
:1099D40080510C780C4450490968081D0E790644DE
:1099E4009B1A03F57F2303F6FF731B0303F58053D0
:1099F4001D446388013B9BB247F6FE62934260D9E3
:109A040027461FE00120434B58767EE0002458E0AF
:109A1400002456E07846FEF779F816E027F47F63D1
:109A240023F00F0303F580531A7813449D42EDD9B4
:109A34009C42EDD25A88013A92B21F4647F6FE6123
:109A44008A4210D93B88002BE4D03B8807EB830380
:109A540023F47F6222F00F029342DFD07A88B2F5BA
:109A6400FE4FE3D1DAE71C462BE07846FEF74EF8CA
:109A740016E027F47F6323F00F0303F580531A786D
:109A840013449D421CD99C4237D25A88013A92B25F
:109A94001F4647F6FE618A4210D93B88002BE4D06A
:109AA4003B8807EB830323F47F6222F00F02934287
:109AB400DFD07A88B2F5FE4FE3D1DAE71C4600E046
:109AC4000024E4B1144B1968628801F580513046D2
:109AD40004F00AFF064690B101200E4B18768DF86B
:109AE400000001940D4B0393042302930C4A69462E
:109AF40000F016FF58B92746CFE70024E1E7B4FA8F
:109B040084F46409034B5C76012005B0F0BD0020A9
:109B1400FBE700BF88370020A8370020302A040064
:109B2400A43700202DE9F04186B0674B1B6923B1AF
:109B3400654B5B692BB1002748E07846FDF7E6FFEB
:109B4400F6E77846FDF7E2FFF5E77846FDF7DEFF36
:109B540017E028F47F6323F00F0303F580531A788A
:109B640013449D421FD99C4221D25A88013A92B291
:109B7400984647F6FE618A4213D9B8F80030002BA4
:109B8400E3D0B8F8003008EB830323F47F6222F0BB
:109B94000F029342DDD0B8F80220B2F5FE4FE0D1B7
:109BA400D7E71C4600E000241CB100943EE00024EA
:109BB400FAE700230093019B002B60D10127002CBE
:109BC4007CD0628847F6FF739A4277D0002F79D110
:109BD4003D4B5A6922F47F6626F00F06B61A06F545
:109BE40080561C69DD682B796A799B1A03F57F23FB
:109BF40003F6FF731B0303F580531D4400230193F5
:109C04006388013B9BB247F6FE629342CDD9A046DE
:109C1400B3E77846FDF77AFF23E024F47F6424F069
:109C24000F0404F58054237823441C46A542C2D96A
:109C34002388019A02EB83029642BCD9009B6340BD
:109C440023F47F6323F00F03002BB4D16388013B1B
:109C54009BB247F6FE618B42ADD801922388002B5C
:109C6400D7D0238804EB830323F47F6222F00F020E
:109C74009342D2D06288B2F5FE4FD6D1CDE7124AD4
:109C8400526901208DF808000392009A059204930A
:109C94000E4A02A900F044FE70B90B49019B23F05F
:109CA40003024B6913444B6114B1074B1C6186E7F3
:109CB4007846FDF72BFFF8E7002000E0012006B00E
:109CC400BDE8F0810120FAE788370020A43700209E
:109CD40008B54FF010235B69B3F1FF3F03D04FF099
:109CE40010235B6963B94FF080525169136903FB18
:109CF40001F3A3F58053054A1360FFF7BBFD08BDCC
:109D04004FF010235B69A3F58053F2E7A8370020D6
:109D140010B50446B0B1104B1B78CBB10E4BD968CB
:109D2400E3685879A3EB0032914213D31A79121ADB
:109D340002F57F2202F6FF7203EB0233994205D942
:109D4400002010BD7846FDF7E1FEE4E7012010BDD8
:109D5400002010BD002010BD88370020024B187869
:109D6400003018BF012070478837002010B5044622
:109D74000E4B1B78ABB92378032B02D07846FDF742
:109D8400C5FE0A4B9C60E268DA6000225A601A76CB
:109D9400012018705A76064900F0B0FDFFF722FD45
:109DA40010BD7846FDF7B2FEE5E700BF8837002016
:109DB400CD980200014B1868704700BFA8370020F7
:109DC40010B5044680B163681BB123680BB1A36866
:109DD40013B97846FDF79AFEA3685A1E134207D1B9
:109DE4000023E360236110BD7846FDF78FFEEAE7A8
:109DF4007846FDF78BFEF3E770B508B30446826836
:109E040012B90925284670BDEFF3108572B60669AC
:109E1400C268964210D0084621686268A368013B74
:109E24001E4006FB021108B117F074FB23690133CD
:109E340023614DB962B6E5E725B962B60525E1E7C8
:109E44000E25DFE70525DDE70025DBE7C0F30B037F
:109E54000BB11020704709B90920704701F6FF7152
:109E6400090B0222104BC3F804250F4BD3F800341E
:109E7400002BFAD000220AE00B4BC3F808050A4B6A
:109E8400D3F80034002BFAD000F5805001328A4216
:109E9400F2D30022044BC3F80425034BD3F8003457
:109EA400002BFAD00020704700E0014010F0030FAF
:109EB40002D010231846704711F0030F01D010236D
:109EC400F8E70AB90923F5E712F0030F01D00923D3
:109ED400F0E710B493080124124AC2F80445114A69
:109EE400D2F80024002AFAD002E0043004311346E8
:109EF4005A1E53B10B68B3F1FF3FF6D00360094B10
:109F0400D3F80034002BFAD0EFE70021054AC2F859
:109F14000415044AD2F80024002AFAD018465DF841
:109F2400044B704700E001404388012B05D0022B0D
:109F340001D1043008600120704704304860FAE71A
:109F440008B508220221084804F003F838B1074A8A
:109F540091684160127B027204F034F808BD044831
:109F640004F062F908BD00BFB837002004380020AF
:109F74002C2E00200E4B1B78CBB910B50D4B5C6812
:109F840004F50054B4F1807F00D910BD04220121EE
:109F9400094803F0DEFF30B144600121044A117026
:109FA40004F010F8F1E7054804F03EF910BD7047DD
:109FB4001838002004380020B83700201C2E002058
:109FC40010B5044608B1A04710BD7846FDF79EFDC4
:109FD400F9E7000008B501210C4804F01BF820B98A
:109FE40002210A4804F016F828B1094804F01CF9C3
:109FF400FFF7C0FF08BD074A002313605360936056
:10A00400D3601361044A1370F2E700BFB83700202D
:10A014004C2E002004380020DC37002000B58DB021
:10A024000B4B1B7B012B0ED0094A926804928DF8CE
:10A03400083003900CA8022300F82C3DFFF764F8C5
:10A044000DB05DF804FB024A9268013A0492EEE70F
:10A054000438002010B58CB00C4682B94B88012B13
:10A0640023D1134B1B7833B16268124B5A60002220
:10A074000F4B1A7019E07846FDF748FDF4E7032A00
:10A0840002D07846FDF742FD2C22002101A817F0EA
:10A094006AFA11238DF804300394074BDA680592A9
:10A0A4001B69069301A8FFF72FF80CB010BD00BF81
:10A0B4001838002004380020B837002000B583B0D9
:10A0C40001F050FF0021009101916B46144A15489C
:10A0D40003F034FE009BBBB1019AAAB1186812497F
:10A0E400886018790873934201D91B79A3B1126867
:10A0F4000D4B1A600C4B1A685A60FFF73BFF01F0D6
:10A1040075FF03B05DF804FB074B00221A609A60E8
:10A114001A73FFF715FFEDE700220A60EAE700BFB4
:10A124002D9F0200B83700200438002008B504F041
:10A13400D5F8A0F5805008BD00B587B00023009382
:10A1440001930293039304930593FFF7EFFF0090A9
:10A1540001230193064B03936946064804F015F85E
:10A1640010B907B05DF804FB034804F05DF8F8E7A4
:10A1740059A00200B83700203C2E002010B50B4B2C
:10A1840000241C605C609C60DC601C6101F060F970
:10A19400074B5860074A9A60074ADA601C615C61A1
:10A1A400064B1C70FFF7C8FF10BD00BF0438002029
:10A1B400E0370020F1A20200008793031938002041
:10A1C40008B5084B1B7803B108BD0748074B03606B
:10A1D40000F052FE064801F0C5F80122014B1A7046
:10A1E400F2E700BFB4370020F837002021A40200B2
:10A1F400E037002010B501F0B5FE164B1B7B23B1F0
:10A20400082401F0F3FE204610BD124B9B7B0BB1DA
:10A214000824F6E70F4B1A8A41F282639A4204D863
:10A224000D4B1B782BB1012300E001231BB908243B
:10A23400E7E70023FAE7074B01221A7300241C8284
:10A244009A6801329A60FFF77BFE2046FFF7E6FE2C
:10A25400D7E700BF043800201938002010B501F0FA
:10A2640081FE204B5B7B9BB11E4B9B7BF3B91D4B4B
:10A274001A8A41F282639A4204D81B4B1B782BB191
:10A28400012300E001239BB1012302E00023FAE74C
:10A2940000231C460BB3134B00225A731B7B4BB198
:10A2A400012B0ED07846FDF731FC16E00023F0E7D1
:10A2B4000023EEE7FFF79EFF78B17846FDF726FC12
:10A2C4000BE0084B00201860586018731882FFF7E1
:10A2D400A5FEFFF735FEFFF74DFE01F087FE204691
:10A2E40010BD00BF043800201938002010B5234BDE
:10A2F4001B7B8BB1012B24D07846FDF707FC01248E
:10A304001CB11E4A138A013313821C4B5B8A13B19E
:10A31400013B1A4A538210BD184B1A8A41F28263D8
:10A324009A4204D8164B1B782BB1012300E0012379
:10A334001BB90124E4E70023FAE7FFF78FFF0024A9
:10A34400DEE70E4B1A8A41F282639A4204D80C4B20
:10A354001B787BB1012300E001231C4663B142F268
:10A36400B0139A4203D90122044B5A730024FFF715
:10A3740075FFC5E70023F0E70124C1E70438002096
:10A384001938002010B5244B1B7B002B35D1044613
:10A39400214B5B8A2BBB1AB91F4B9B688B4205D39D
:10A3A400FAB11D4B9B68013399421AD91A4B9B6829
:10A3B4002A33994223D8184B9B7B03BB164B9960D5
:10A3C40000221A605A601A8242F6065159825A7360
:10A3D4001A73FFF7B5FDFFF7CDFD2046FFF71EFE0C
:10A3E40010BD62B10C4B9B680133994207D1012225
:10A3F400094B5A73FFF732FF10BD012B00D010BD7B
:10A40400002AFCD1044B9B689942F8D10122024BEB
:10A414005A73FFF723FFF2E7043800200378042B74
:10A4240000D0704743681B78002BFAD010B58468BD
:10A43400027E437E012A14BF00220122416904F1F5
:10A444001000FFF79FFF10BD10B5184B1A685B682A
:10A454009A4225D20446154B1B7B012B15D0144B75
:10A46400934214D9002028B9104B1A685B68403B0A
:10A474009A4212D2EFF3108072B60C4A1368591C38
:10A484001160236080B962B610BD0A4BE8E701226F
:10A49400064B5A73FFF7E2FEE5E7FFF76BFDE9E7CA
:10A4A400FFF768FD0F2010BD002010BD0438002008
:10A4B400FFFF7F0000E0FF0008B540B90D4B1B68AB
:10A4C4006BB10C4A1368013B136063B108BD0122F0
:10A4D400094B9A73074A13680133136008BD784621
:10A4E400FDF714FBEDE70022034B9A73FFF7B6FE6A
:10A4F400ECE700BFB03700200438002000B58DB071
:10A50400ADF808008DF8102003910CA8032300F87F
:10A514002C3DFEF7F9FD0DB05DF804FB014B986886
:10A52400704700BF04380020054B1B7B012B02D071
:10A53400034B98687047024B98680138704700BF16
:10A5440004380020044B9B68584010F0010F00D0E1
:10A55400013B1846704700BF04380020014B187BAC
:10A56400704700BF0438002038B50B4B1B780BB183
:10A57400082038BD0122084B1A70084DA8602973C1
:10A58400FFF7DEFC0020FFF749FD00242C606C601F
:10A59400FFF7F0FC204638BDDC37002004380020EB
:10A5A4002DE9F041002722E02449BC2303FB04F3F6
:10A5B400CA5A0132CA520221404602F0F2FB013665
:10A5C4000221404602F0BDFB70B1BC231B4A03FBD1
:10A5D40004239D68002DE7D0BC2303FB04F3D25A67
:10A5E40001463846A847DFE796B90137FFB2022F84
:10A5F40020D83C46BC2303FB07F308330F4D1D440E
:10A6040005F104080221404602F09BFB0026DBE72B
:10A614000021404602F02DFC0828E6D1BC22074B5D
:10A6240002FB0434A368002BDFD00022044938461F
:10A634009847DAE70120BDE8F08100BF2438002004
:10A64400EC27040008B5082383731023437300F137
:10A654001C0343610323037300F1180303610C30EB
:10A6640002F0D9FB08BD000008B50378012B06D021
:10A67400022B07D07846FDF749FA002008BD4FF4B5
:10A68400A97008BD004808BD645E010008B50278E1
:10A69400012A07D0022A13D07846FDF737FA4FF47F
:10A6A400FA7308E083685B1A98084FF4A97303FBF4
:10A6B40000F303F5FA730748984228BF184608BD0B
:10A6C40083685B1A180B044B03FB00F303F5FA735E
:10A6D400F1E700BF60850100645E010038B50446FF
:10A6E40001210C3002F02DFB054678B1084BC4F86B
:10A6F4009C300023C4F8A0306168FFF7C7FFC4F89A
:10A70400A800C4F8AC40012384F8B830284638BD0A
:10A714002DA8020010B50446FFF7E0FF20B104F1B4
:10A724009C000DF0C5F900B910BD7846FDF7EEF9AF
:10A73400FAE70000F8B506460C4617461568037894
:10A74400012B02D07846FDF7E1F91049A1FB043151
:10A75400C9098900B468641BA14200D80C466CB1D5
:10A76400706825F00305F168224629442844FFF760
:10A774009DFB38B93B681C443C60F8BD7846FDF746
:10A78400C5F9EDE77846FDF7C1F9F3E7EB5DF26053
:10A79400F8B507460C46164615680378022B02D016
:10A7A4007846FDF7B3F90F4BA3FB04231B0C1B03E3
:10A7B400BC68641BA34200D81C465CB1786825F0D1
:10A7C400030521462844FFF741FB38B933681C448C
:10A7D4003460F8BD7846FDF799F9EFE77846FDF760
:10A7E40095F9F3E7B77609BB38B505460C4611462B
:10A7F4002378012B06D0022B0FD07846FDF786F97B
:10A80400002004E0021D2046FFF794FFA0686B6857
:10A81400984214BF0020012038BD021D2046FFF7D6
:10A82400B7FFA068F3E700002DE9F8438846D1F8A4
:10A83400A850244B1B7863B90646A5F5FA7501F1B7
:10A844000C090121484602F07CFA074640B1002475
:10A8540024E00DF069F9002388F8B830BDE8F883E6
:10A864007846FDF753F9F2E70DF05EF90121484609
:10A8740002F097FA0023C8F8043088F8B830124B75
:10A88400186801F007FC4046FFF744FFBDE8F88371
:10A894003846FFF7E9FE204485420CD32A1B39468B
:10A8A4004046FFF7A1FF0028DED101F01FFA841B08
:10A8B400EED5341AECE70DF037F94046FFF72AFFDE
:10A8C400BDE8F883203800201C38002010B5084863
:10A8D40001F0C0FB074B1860002406E0BC20064BC7
:10A8E40000FB0430FFF7AEFE0134022CF6D910BD94
:10A8F400A5A502001C3800202438002038B50446E1
:10A904000D46022805D8BC22044B02FB0434A56082
:10A9140038BD7846FDF7FAF8F5E700BF2438002083
:10A924002DE9F84306460C469046022847D8002CE9
:10A9340049D02378012B4AD0022B67D07846FDF703
:10A94400E5F8EFF3108772B6BC2505FB06F505F1B3
:10A9540008034B4D1D4404350021284602F0F1F94B
:10A964008146002872D00021284602F01AFA206895
:10A974006168A268E368C9F80000C9F80410C9F85E
:10A984000820C9F80C30B8F1000F06D0BC233C4AAB
:10A9940003FB06235B88A8F80030BC23384A03FB7A
:10A9A40006235A8801325A8093F8B830002B60D1BC
:10A9B400344B1B78002B40D00024A14647E0784656
:10A9C400FDF7A4F8B3E77846FDF7A0F8B1E76368AC
:10A9D40013F0030F0ED1E36813F0030F0ED1A36835
:10A9E40013F0030F0ED1A368002BAAD17846FDF70C
:10A9F4008DF8A6E77846FDF789F8ECE77846FDF789
:10AA040085F8ECE77846FDF781F8ECE76368C3F373
:10AA14000B0353B9A368C3F30B0353B9A368002B07
:10AA24008FD17846FDF772F88BE77846FDF76EF81C
:10AA3400F0E77846FDF76AF8F0E7BC20104B00FB1E
:10AA44000630FFF74BFE8146002400E0042407B9DA
:10AA540062B6B9F1000F09D0BC2000FB06F69836A7
:10AA64000748304404300DF023F828B92046BDE8E7
:10AA7400F8830024A146EAE77846FDF747F8F5E7AE
:10AA8400243800202038002038B50446EFF3108520
:10AA940072B610B9164B1B6873B18CB1144A1368A3
:10AAA40001331360124B1B68003318BF0123114A92
:10AAB400137005B962B638BD7846FDF727F8ECE7A0
:10AAC4000B4B1C68013C1C600CB1EBE70134022CFD
:10AAD400E8D8BC23084A03FB042393F8B830002BBE
:10AAE400F4D1BC2000FB0420FFF714FEEEE700BF06
:10AAF400583A0020203800202438002018B1830B55
:10AB0400024AD05C70470020704700BFFC27040055
:10AB140012DF704700B583B01378A3B1042B14D1AE
:10AB2400072110F8013C163B152B31D8DFE803F060
:10AB340059303030303030303030303030303030E8
:10AB44003030302E0F3A517DEBE70021E9E702293E
:10AB540001D007291CD110F8021C013901F08AFE2A
:10AB6400B0B1264B1B6813F0400F11D0244B1B6867
:10AB7400012B0DDD234BD3F804350190224A0092BA
:10AB840091222249022002F061FB01E0022902D055
:10AB940003B05DF804FB10F8021C0139C9B212F0CD
:10ABA4000DFCF5E70229F3D110F8021C0139C9B2F2
:10ABB40003F01CFE0028EBD0104B1B6813F0400F71
:10ABC400E6D00F4B1B68012BE2DD0E4BD3F80435A6
:10ABD40001900F4A0092A4220C49022002F036FB95
:10ABE400D6E701884FF6E4639942D1D110F8021CEC
:10ABF40003390230FCF7D8FECAE700BF6C2E0020F0
:10AC0400682E002000100140882804007B280400DE
:10AC1400B428040070B58AB00DF0CAFC002834D002
:10AC2400064600238DF8103005AC05460FCD0FC441
:10AC34002B682360727D052A0DD9337D03F00F0341
:10AC4400072B08D0307D04AB063A06F11D0100F055
:10AC54000F000CF03BFA134B1B689BB104AB03933E
:10AC6400337DC3F303038DF80430737D062B13D9AE
:10AC7400063B8DF8053006F11D030293094B1B6852
:10AC840001A8984730460DF073FC0DF0ABFC80F042
:10AC94000100C0B20AB070BD00238DF805300293E4
:10ACA400ECE700BF603A00200B4B1B78032B00D06D
:10ACB400704700B58DB00422074B1A702C22002176
:10ACC40001A816F050FC1B238DF8043001A8FEF7F0
:10ACD4001BFA0DB05DF804FB5C3A002070B582B03D
:10ACE4002E4B1B781BB10824204602B070BD0028EF
:10ACF40051D0067A0F2E03D0062E01D00724F3E795
:10AD0400054605F0EFFBE86870B1FCF711FF0DF1A3
:10AD14000700FFF7FDFE04460028E5D19DF8073043
:10AD2400012B04D00224DFE7FCF710FFEFE7FCF768
:10AD34002FFF00F003FB304601F0ACF8E87800F098
:10AD440023F900F0A5FE0CF03DFE15480DF0E6FCDD
:10AD54000CF056FBFFF7BAFD04F0B0FD00F0F6FC72
:10AD640005F082FB284601F0E7FC2846FDF708FFC2
:10AD740004F020F9FCF718FE18B1062801D00446A7
:10AD8400B2E708480CF084F90022074B1A6001224C
:10AD9400024B1A70A8E70E24A6E700BF5C3A002015
:10ADA40019AC02005C2E0020603A002010B582B07D
:10ADB4001C4B1B78012B0BD07BB3033B012B2CD8F2
:10ADC4000CF066FE044648BB0222164B1A7025E0BE
:10ADD4000DF0ACFB01F0C2FCFDF714FFFCF7E4FD41
:10ADE4000446B8B1062815D00F4B1B6813F4804FE6
:10ADF40014D00E4B1B68012B10DD0D4BD3F804351A
:10AE040001900C4A009240F297120B49022002F082
:10AE14001DFA03E001F076F8D2E70824204602B0D8
:10AE240010BD00BF5C3A00206C2E0020682E00206C
:10AE340000100140002804007B28040008B50A4BD8
:10AE44001B78022B02D00823184608BD0322064BA8
:10AE54001A7006480CF0D8FD03460028F4D0784652
:10AE6400FCF754FE0023EFE75C3A0020ADAC02008F
:10AE740008B5FDF7CBFE08BD08B5FEF76DF908BDB2
:10AE840008B5FEF779F908BD08B500F0C5FD002046
:10AE940008BD08B506F0D0FE08BD0000064A1368D8
:10AEA40001331360B3F1704F02D0034B186870473D
:10AEB4000122014B1A60F8E7643A002010B50446F9
:10AEC40018B100232360636010BD7846FCF71EFEB2
:10AED400F7E738B50C46054668B184B100236360D2
:10AEE400EFF3108372B62A686AB16A6854606C60C2
:10AEF40003B962B638BD7846FCF708FEEDE778463C
:10AF0400FCF704FEEAE72C60F1E710B5044658B1FB
:10AF1400EFF3108372B6206808B142682260226899
:10AF240032B103B962B610BD7846FCF7EFFDEFE726
:10AF34006260F6E710B5044608B1206810BD784693
:10AF4400FCF7E4FDF9E735DF70473CDF70470000AC
:10AF540010B504464FF0FF30FFF7F5FF4FF0FF3117
:10AF64002046FFF7F2FFBFF34F8F0549CA6802F48A
:10AF7400E062044B1343CB60BFF34F8F00BFFDE788
:10AF840000ED00E00400FA05072814D8DFE800F01B
:10AF9400080C1504110F0A0664207047142070472A
:10AFA400FA2070471E2070474FF4FA707047322021
:10AFB40070474B207047FA20704796207047000076
:10AFC400024B5868103840B2704700BF00ED00E0F3
:10AFD400034600280FDB5B11084A52F82330424233
:10AFE40000F01F0002F01F0258BF504223FA00F085
:10AFF40000F00100704700F11F03ECE700E100E0FE
:10B0040046DF7047F8B504460D464B1EDBB2012BF4
:10B0140002D97846FCF77AFD002222616261A261BE
:10B02400E2612046FFF7ECFF012612E0C818CA5C73
:10B034005200D2B2407842EAD012CA5401339BB2D1
:10B044000E2BF3DDCB7B5B00CB73002F08DB0136CB
:10B05400F6B2AE420BD8214611F9207F0023EFE768
:10B0640094F82F3083F0870384F82F30EFE7F8BD8E
:10B074002DE9F04190B086460C4694461F4602F1F5
:10B084000F0636111FFA86F804AD0068DEF80410C6
:10B09400DEF80820DEF80C300FC50CF00F05B8F10F
:10B0A400000F02D085B1002300E0002398466BB165
:10B0B400012104A8FFF7A6FFB8F1000F1BD0B0B21E
:10B0C4000138000110230EE00123EFE70221F0E72D
:10B0D400013B9BB22218D25C10A9194411F8101C30
:10B0E4004A400DF80320002BF2D100250C950D9554
:10B0F4000E950F9534E0B1B20139ADB22A4604EB96
:10B104000111684616F006FA80230DF805306B1C11
:10B1140003E000220DF8032001330F2BF9DD102387
:10B124000AE0013B9BB21DF8032010A9194411F851
:10B13400101C4A400DF80320002BF2D1D5E7013B47
:10B144009BB210AA1A4412F8102C2118C95C4A4068
:10B1540008A9CA54002BF2D104A8FFF751FF013506
:10B16400B3B2013B9D4202DA28011023F2E7102317
:10B174000AE0013B9BB210AAD11811F8402C11F837
:10B18400101C4A4008A9CA54002BF2D104A8FFF7A6
:10B1940037FF0CAC0FCC38607960BA60FB6010B03C
:10B1A400BDE8F08110B50446144B1B684BB14068F0
:10B1B400124B1B685B68C31A002B02DB0F4B196828
:10B1C40005E00E4B1A6862611C6008E019464B6981
:10B1D4001BB15A68121A002AF8DB63614C61074AF2
:10B1E40093889BB201339BB2938013B101232370E4
:10B1F40010BD7846FCF78AFCF8E700BF6C3A0020E3
:10B2040038B5054619E06369214A13600023636178
:10B2140093889BB2591E89B291800BB3A3681BB368
:10B2240002232370A36821692846984700F010F987
:10B2340005462378DBB2022B1AD0154B1B6833B3B7
:10B24400134B1B685B685B1B642B20D5104B1C687D
:10B254002378DBB2012BD6D07846FCF757FCD2E733
:10B264007846FCF753FCD9E77846FCF74FFCD7E760
:10B27400E26812B900232370DFE763681344636054
:10B284005B1B642BF9D42046FFF78CFFD5E738BD50
:10B294006C3A002010B50446144B1B68834207D057
:10B2A400124B1B68D3B15A6994420ED01346F9E786
:10B2B40043690E4A136093889BB2591E89B29180E8
:10B2C40063B97846FCF722FC08E062695A610749D1
:10B2D4008B889BB25A1E92B28A8013B100232370CA
:10B2E40010BD7846FCF712FCF8E700BF6C3A00206A
:10B2F40008B5064B1B6833B1044B1B6804495868F6
:10B3040000F054F908BD00F0AFF908BD6C3A002014
:10B3140031B3020008B500F09BF8FFF771FF00F0AD
:10B3240097F8FFF7E5FF012008BD000008B5024BC0
:10B33400186800F0AFFE08BD683A002008B5064B57
:10B3440000221A605A60054800F084FE044B18601D
:10B3540000F071F808BD00BF6C3A002019B3020078
:10B36400683A002010B5044600F068FF80B19CB133
:10B37400A368ABB12378DBB2012B15D00023636142
:10B384002046FFF70FFF00F063F8FFF7B1FF10BD91
:10B394007846FCF7BBFBEAE77846FCF7B7FBE7E740
:10B3A4007846FCF7B3FBE5E77846FCF7AFFBE5E747
:10B3B40010B5044600F042FF50B16CB12046FFF7CF
:10B3C40069FF0023636100F043F8FFF791FF10BDAC
:10B3D4007846FCF79BFBF0E77846FCF797FBEDE734
:10B3E40038B504460D4600F029FF70B18CB12046F3
:10B3F400FFF750FF0023636165602046FFF7D2FE2C
:10B4040000F026F8FFF774FF38BD7846FCF77EFBA2
:10B41400ECE77846FCF77AFBE9E70378DBB2012B2B
:10B4240007D00378DBB2022B01D000207047012043
:10B4340070470120704708B515F0A8FE00B108BD9B
:10B4440015F018FE0028FAD07846FCF75FFBF6E703
:10B4540030B4EFF3108172B6184B1A68184BD3F856
:10B464000445D3F80431012B23D001B962B644EA70
:10B474000264204600216201E30E121B63EB010308
:10B484005C0244EAD25455022A1844EB01039D019C
:10B4940045EA92659401A21A65EB030312184B4125
:10B4A40012F5804243F10003D00B40EA434030BC24
:10B4B4007047034BD3F804450132D6E7743A0020B1
:10B4C4000010014010B50A4B4FF40032C3F8482372
:10B4D400C3F80823074B1B682BB1064B1C68FFF706
:10B4E400B7FFA04710BD7846FCF710FBF5E700BF97
:10B4F40000100140803A0020EFF3108372B600215F
:10B50400254AC2F8041125490A6801320A6003B9C0
:10B5140062B6234B1B68002B3DD0214B1A68013ABD
:10B524001A601B68002B36D103F1804303F588337E
:10B53400D3F804251B4B1B689A421ED2EFF31082EA
:10B5440072B6154BD3F804350133164909688B429A
:10B5540010D3114BD3F8043502330F49C1F84435E5
:10B5640002B962B60C4B4FF40032C3F84423C3F85B
:10B57400042370470B4B1B68EFE710B50A4B1B689D
:10B584002BB1094B1C68FFF763FFA04710BD784639
:10B59400FCF7BCFAF5E7704700100140743A00204C
:10B5A400783A00207C3A0020803A002030B583B0FD
:10B5B4000446002301930D46002935D0244B1D6019
:10B5C400FFF746FF031B002B32DB0023590CD80383
:10B5D400204A0023204C00250019694115F0DCFDA8
:10B5E400EFF31083019372B61C4BD3F80435022891
:10B5F40038BF0220C3F1FF1202F57F42904219D8EE
:10B604000344164AC2F844354FF40033C2F84433B5
:10B61400C2F804330023124A1360124A1360019BD8
:10B6240003B962B603B030BD7846FCF76FFAC5E7DC
:10B63400231ACBE7034403F17F4301331A0E01328B
:10B6440007490A6023F07F43064A1360E7E700BF17
:10B65400803A002040420F0020A107000010014062
:10B66400783A00207C3A0020074B4FF40032C3F8AC
:10B674004823C3F808230023044A1360044A1360D0
:10B68400044A1360704700BF00100140783A00205C
:10B694007C3A0020803A002030DF704731DF704769
:10B6A40010B4034600685A68A0EB72109C6882EAE2
:10B6B400F4321A60D9680C445C6001449960104407
:10B6C400D8605DF8044B704770B582B00D460646ED
:10B6D40008B100240BE07846FCF718FAF9E79DF866
:10B6E40007103019FFF7DAFF9DF807301C44AC420D
:10B6F4000DD20DF10700FFF7CFFF9DF80730002BA7
:10B70400F7D02A1B9342EAD98DF80720E7E702B065
:10B7140070BD000030B583B00546002402A840F88F
:10B72400044D0421FFF7D0FF074B2B60019B6B6096
:10B73400AB60EB6003E02846FFF7B2FF0134132C43
:10B74400F9D903B030BD00BFED5EEAF1704748DFC0
:10B75400704749DF70474ADF70470000044B0122FD
:10B764005A7143F2B0629A6043F69822DA607047E5
:10B77400D03A0020094B03221A74094A5A611A6804
:10B7840040F6D8639A4204D840F6D862044B9A60D3
:10B79400704743F2B062024B9A607047B03A00209F
:10B7A400D03A002008B50F4B1B78022B12D0032B84
:10B7B40008D0012B03D07846FCF7A8F90EE0022349
:10B7C40003740BE0084B00225A7108499960084938
:10B7D400D960827103230374034B43610022014B3C
:10B7E4001A7008BDE13A0020D03A0020A08601007A
:10B7F400FF1FA10738B504460025057401234371D2
:10B804000E4A13680133136000F0CEFA0CF0FEF90F
:10B8140023680B4A1168283101FB03F1094AA2FB92
:10B824000121A3EB9141084A7839284600F038FAFF
:10B8340000B938BD7846FCF769F9FAE7E43A002024
:10B84400CC3A002083DE1B4379B7020010B50446CE
:10B8540000238360C36003680D4A926802608179A3
:10B8640091B10121017403B90A4B991A6161B1F5CF
:10B874007A7F01D3934202D24FF47A736361FFF764
:10B884006DFF0123A37110BDFFF7B4FFF7E700BFFD
:10B89400D03A00208096980010B50C4631B1C368A8
:10B8A4000133C3604269036813440360836801334E
:10B8B400836001220274426952084261012B0DD057
:10B8C400022B19D042690368134417498B4222D8CA
:10B8D40040F6D7639A4221D800231DE0B2F5FA7FDF
:10B8E40005D040F6D8639A42ECD84361EAE7002CCD
:10B8F400F7D100234361E5E7C368022B06D0012B8F
:10B90400E0D1002CDED100234361DBE70268064B63
:10B914009B1A4361D6E7002313B110BD0123FBE753
:10B92400FFF768FFF9E700BF8096980043791BB9D9
:10B9340000220D4B1A70704710B504460CF082F9C2
:10B9440020680A4B1B68283300FB03F3084AA2FB58
:10B954000323A0EB9340783800F056FA0023637178
:10B964000022014B1A7010BDE03A0020CC3A0020AE
:10B9740083DE1B4308B50122244B1A71244B1B7828
:10B9840013B1244B1B781BB30022204B1A740428D8
:10B994001AD8DFE800F00314110C07001B48FFF766
:10B9A40055FF1CE001211948FFF776FF17E000213D
:10B9B4001648FFF771FF12E00CF0DCF80FE000F01E
:10B9C400B5F90CF011F90AE07846FCF79FF806E0A7
:10B9D40000F08CF90D4B18601846FFF7E3FE0B4B93
:10B9E4001B7C023BDBB2012B08D9084B1B7C022BCE
:10B9F40008D0064800230371103008BD0348FFF740
:10BA040095FFF2E70122014B1A76F2E7B03A0020E3
:10BA1400E13A0020E03A002008B50438042808D8A8
:10BA2400DFE800F01A2816031000174B1B7E012BC9
:10BA340000D008BDFFF78DFE0028FAD07846FCF749
:10BA440065F808BD0022104B1A760CF01FF908BDEA
:10BA54007846FCF75BF808BDFFF780FE0B4840F61C
:10BA6400D8638360FFF777FE0028E2D07846FCF7BE
:10BA74004DF808BD0548FFF76EFE0028D9D078467A
:10BA8400FCF744F8D5E700BFB03A0020D03A0020D4
:10BA940010B40E4A0023137013710121517143F243
:10BAA400B064946043F69824D460094A1060094A4B
:10BAB4001370094A1370094A1360094A13715371C8
:10BAC4001360137691715DF8044B7047D03A0020EF
