:020000022000DC
:1060000000F0032071630200596302005B63020029
:106010005D6302005F630200616302000000000034
:1060200000000000000000000000000063630200A8
:1060300065630200000000006763020069630200FC
:106040006B6302006B6302006B6302006B63020010
:106050006B6302006B630200D57002006B63020089
:106060006B6302006B630200417403006B63020008
:106070006B6302006B6302006B6302006B630200E0
:106080006B6302004D0804008DBD02006B630200CB
:10609000B10804006B63020031A403006B630200CB
:1060A0006B6302006B6302006B6302006B630200B0
:1060B0006B6302006B630200000000000000000040
:1060C0006B6302006B6302006B6302006B63020090
:1060D0006B6302006B6302006B6302006B63020080
:1060E0006B6302006B6302006B6302000000000040
:1060F000000000006B630200000000006B63020000
:10610000000000000000000000000000000000008F
:10611000000000000000000000000000000000007F
:10612000000000000000000000000000000000006F
:10613000000000000000000000000000000000005F
:10614000000000000000000000000000000000004F
:10615000000000000000000000000000000000003F
:10616000000000000000000000000000000000002F
:10617000000000000000000000000000000000001F
:10618000000000000000000000000000000000000F
:1061900000000000000000000000000000000000FF
:1061A00000000000000000000000000000000000EF
:1061B00000000000000000000000000000000000DF
:1061C00000000000000000000000000000000000CF
:1061D00000000000000000000000000000000000BF
:1061E00000000000000000000000000000000000AF
:1061F000000000000000000000000000000000009F
:10620000354936480A1A02D0072291438D4634494F
:1062100034480A1A06D00722914381F309880222E2
:1062200082F3148830483149314A00F043F831484C
:106230003149324A00F03EF831483249324A00F0E2
:1062400039F832483249334A00F034F83248334999
:10625000334A00F02FF833483349344A00F02AF823
:1062600033483449344A00F025F834483449002290
:1062700000F02BF833483449002200F026F8334868
:106280003349091A082903DB002202600430016047
:106290001F482049884205D00268043003B4904763
:1062A00003BCF7E700208646EC4600200021294A7F
:1062B0009047FEE7884207D0521A05D00378013094
:1062C0000B700131013AF9D17047884202D0027057
:1062D0000130FAE77047000000F0032000E80320D7
:1062E00000F0032000F0032068280400A02D002007
:1062F000082F0020A8630200A8630200540D0400C8
:1063000068280400A02D0020A02D0020600E0400AD
:10631000600E0400600E0400600E0400600E0400B5
:10632000600E0400600E0400600E04006628040085
:10633000D0290400082F0020082F0020082F00205B
:106340000C5700200C5700200C5700200C57002041
:106350000C5B002081680200FEE7FEE7FEE7FEE737
:10636000FEE7FEE7FEE7FEE7FEE7FEE7704700BF59
:106370000948804709484FF0070188438546084887
:1063800080470848016841F470010160BFF34F8FF6
:10639000BFF36F8FFFF734BF6D63020000F003207F
:0863A00035A8030088ED00E0C0
:1063A80041DF704710B50C460D2000F0C7FD207086
:1063B80010BD000010B582B00C460D4B1B6813F4DD
:1063C800804F03D00B4B1B68032B05DC21460D20A7
:1063D80000F0C0FD02B010BD074BD3F804350191A1
:1063E800064A009261220649042006F0D7FCEDE730
:1063F8006C2E0020682E002000100140040F0400BD
:10640800FA0E040000B583B00F4B1B6813F4804FDD
:1064180003D00E4B1B68032B0ADC0322C82142F26F
:10642800010000F0B3FD09F0B3FE03B05DF804FB12
:10643800074BD3F80435074A00927922064904200D
:1064480006F0ACFCE9E700BF6C2E0020682E0020A7
:1064580000100140DC0F0400FA0E040010B582B0F1
:1064680004462C4B1B6813F4804F03D02A4B1B683F
:10647800032B04DC7CB1032C2ED002B010BD274BBB
:10648800D3F804350190264A009289222549042030
:1064980006F084FCEEE71F4B1B6813F4804F03D013
:1064A8001D4B1B68032B0CDC0D2000F047FD80F012
:1064B8000101C9B20D2000F04DFD1B4800F050FB52
:1064C800DBE7164BD3F80435184A00929122154998
:1064D800042006F063FCE7E709F007FE98B90D4BC6
:1064E8001B6813F4804FC8D00B4B1B68032BC4DD0B
:1064F8000A4BD3F804350E4A0092A5220949042014
:1065080006F04CFCB9E70BF001FA09F0E4FDFFF7DF
:1065180079FFB2E76C2E0020682E002000100140A1
:106528001C0F0400FA0E0400A02D0020300F0400F8
:10653800400F040008B5A0F13003042B00D908BDB2
:106548001846FFF78BFFFAE708B503781C2B00D035
:1065580008BDFFF757FFFBE700B58BB024220021E9
:1065680001A81AF08FFB01238DF8043007238DF85A
:10657800073006238DF80C30084B0593084B099318
:10658800084901A809F0BEFD10B90BB05DF804FB7D
:10659800054AE92114F042FAF7E700BF5165020005
:1065A800B1660200082F0020940E040000B583B0E5
:1065B8001B4A042146F2010006F0D4FB194B1B6864
:1065C80013F4804F03D0184B1B68032B13DC1AF00D
:1065D8006FF9D8B900F020FD144800F04BFDD0B990
:1065E80000F01AFF00F036FF00F060FFFFF7B4FF7D
:1065F80003B05DF804FB0E4BD3F804350D4A009246
:10660800EF220D49042006F0C9FBE0E70B4AF1210F
:1066180014F004FADEE7094AF52114F0FFF9DFE780
:1066280041CD02006C2E0020682E00206564020017
:1066380000100140880F0400FA0E0400940E0400B4
:1066480000B583B00021114800F0ACFA58B9104BDE
:106658001B6813F4804F03D00E4B1B68032B07DC19
:1066680003B05DF804FB0C4A712114F0D7F9EEE78A
:106678000A4BD3F80435054A12880192084A009259
:1066880072220849042006F089FBE9E7A02D0020C2
:106698006C2E0020682E0020940E0400001001408B
:1066A800780E0400FA0E040000B583B00C4B1B688A
:1066B80013F4804F03D00B4B1B68032B04DCFFF74C
:1066C800BFFF03B05DF804FB074BD3F80435074A56
:1066D8000092DB220649042006F060FBEFE700BFCA
:1066E8006C2E0020682E002000100140BC0F040012
:1066F800FA0E040030B587B06421244800F0BEFBD0
:10670800234B1B78D3B14FF0A043D3F8103513F0C7
:10671800007F26D000F0E8FF00F00EFD09F02AFD0A
:1067280070BB002142F2010000F025FC0222C821C2
:1067380042F2010000F02AFC07B030BD6C46154D4E
:106748000FCD0FC495E8030084E80300684600F005
:1067580031FB0028DED0104A4FF4897114F05EF93D
:10676800D8E709F0B8FC4FF4FA744FF47A400B4BB1
:1067780043F001039847013CF7D1FFF743FEC9E70F
:10678800054A40F2211114F049F9CAE73D650200B3
:10679800082F0020600E0400940E0400800F0400EF
:1067A80010B50446002142F2010000F0E4FB4FF46A
:1067B800FA7000FB04F0054A82FB0032C017C0EBF8
:1067C80022123221002000F0E1FB10BD1F85EB51A1
:1067D80008B500F013FC08BD00B585B0204B1B6858
:1067E80013F4804F03D01F4B1B68032B1FDC00F0F2
:1067F80031FE00F05BFE03A80FF08AF8184B1B6807
:1068080013F4804F03D0174B1B68032B1ADC00F0DE
:10681800F5FB002142F2010000F0ADFB0422C82183
:1068280042F2010000F0B2FB05B05DF804FB0E4B2C
:10683800D3F804350D4A0092C7220D49042006F00A
:10684800ADFAD4E7084BD3F80435BDF80C20019213
:10685800084A0092D2220649042006F09FFAD6E799
:106868006C2E0020682E002000100140F80F040054
:10687800FA0E04001410040008B5FFF797FEFFF79E
:1068880039FFFFF78DFDFCE730B583B004461546A8
:106898001C4B1B6813F4804F03D01B4B1B68032B46
:1068A80011DCA36B04F13C012046984794F83C3076
:1068B8002B7094F83D306B70236C0BB1626C6AB12D
:1068C8006B6003B030BD114BD3F80435104A009209
:1068D800AA221049042006F061FAE2E71AF06AF8E1
:1068E800A16C1AF06DF84FF47A7303FB00F0C00B3B
:1068F800236C984203D810B1181A6860E1E70023A6
:106908006B60DEE76C2E0020682E0020001001402E
:10691800C0100400B110040010B588B00446436CE0
:10692800A3B9036C13B190F83D207AB194F83D20D7
:1069380084F83C208DF818208DF81920079306A9B3
:10694800204619F015FC94F84C3053B1144B1B68D1
:1069580013F4804F03D0134B1B68042B0ADC08B0D8
:1069680010BD636B94F83C1020469847012384F8C7
:106978004C30EBE70C4BD3F8043594F83C2094F8F2
:106988003D10206C0490606C039002910192074ABC
:10699800009285220649052006F000FADFE700BFCD
:1069A8006C2E0020682E0020001001400411040005
:1069B800B110040030B583B00446036B186819F0B1
:1069C800E3FF636C8BBB256CCDB1690CE8034FF416
:1069D8007A72002310F5FA7041F1000119F0FAFFFC
:1069E800B0F1807F35D204283CD9236B224601467A
:1069F800186819F0ABFF054619F0DCFFA06495B1E3
:106A08001C4B1B6813F4804F0DD01B4B1B68002BCD
:106A180009DD1A4BD3F80435194A0092682219493E
:106A2800012006F0BBF903B030BD226B1568590C84
:106A3800D8034FF47A72002310F5FA7041F100017F
:106A480019F0C8FF22460146284619F07FFF05467F
:106A5800D5E7236B22466FF07F41186819F076FF5F
:106A68000546C9E7236B22460521186819F06EFF11
:106A78000546C1E76C2E0020682E0020001001405A
:106A8800E4100400B1100400F0B583B004461746C2
:106A98001E46089D1A4B1B6813F4804F03D0194BF0
:106AA8001B68032B1BDC002384F84C303B7884F8EC
:106AB8003D300EB373686364336823642046FFF780
:106AC8002BFF2046FFF776FF3DB194F83C302B7042
:106AD80094F83D306B70236C6B6003B0F0BD0A4BCB
:106AE800D3F8043512780192084A0092CC2208495A
:106AF800042006F053F9D6E7002363642364DDE736
:106B08006C2E0020682E002000100140CC100400DC
:106B1800B110040038B50446436CB3B9056C85B1AF
:106B2800690CE8034FF47A72002310F5FA7041F10A
:106B3800000119F04FFFB0F1807F0BD3A5F2FF15CC
:106B480025642046FFF736FF38BD00234364FFF76E
:106B5800E3FEF6E7002323642046FFF7DDFEF0E7B7
:106B680010B582B00446836B00F13C01984794F855
:106B78003C3084F83D30002363642364236B186839
:106B880019F002FF94F83C308DF8003094F83D304D
:106B98008DF80130236C01936946204619F0E8FA14
:106BA80002B010BD90B110B504460C4AC262426BE7
:106BB8007AB1826B7AB119F0A5FA034660B9084A2E
:106BC8000021206B19F0ACFE034605E00E231846A1
:106BD80070470E2300E00E23184610BDDC10040099
:106BE8001D6B02002C4B1B78002B54D000B585B0D0
:106BF800012804D0032847D005B05DF804FB04A998
:106C0800002341F8083D012013F0B2FA48BB02A85E
:106C180013F000FB40BB04A9012341F8043D0DF12A
:106C280006000FF0BFFB10BBBDF806000FF056F8CA
:106C38000DF105010FF0A2F9E0B90AF041FD9DF848
:106C4800051000200AF07AFEB8B903F05FFEC0B95B
:106C58000022114B1A70114B1B68002BCCD098479F
:106C6800CAE713F0CDFED2E713F0CAFED3E713F05C
:106C7800C7FED9E713F0C4FEDFE7784600F0F6FC5C
:106C8800E3E713F0BDFEE3E713F042FB0028B3D0BF
:106C980013F0B6FEB0E770472E2F0020302F0020EB
:106CA80008B50122054B1A70054803F095FE03F05C
:106CB80075FE00B908BD13F0A3FEFBE72E2F0020D8
:106CC800F02D002008B503781B2B00D008BD074B1A
:106CD8001B78002BFAD013F05FFB18B9044803F0B7
:106CE8007FFEF3E713F08CFEF8E700BF2E2F00209D
:106CF800F02D002008B50323002203490969034841
:106D080014F014FB08BD00BF302F00208031002094
:106D180008B50378023B082B3FD8DFE803F01C05D1
:106D2800113E3E2C3E3E36001E4B5B68002B34D095
:106D3800007A002831D001211B4A1170984708BDFC
:106D4800184B9B684BB3184A127832B30021164A85
:106D58001170984708BD154B1B784BB9114BDB6870
:106D68001BB10021104A11709847FFF7C3FF08BDF7
:106D7800FFF796FF08BD10220A4B59690C4814F01A
:106D880065FB50B113F03CFE08BD8168C06809F08E
:106D980067F918B90122054B1A7008BD13F030FEC7
:106DA800F8E700BF302F00202C2F00202D2F0020C7
:106DB8008031002070B586B00446204A03AB07CA6C
:106DC80003C323F8022B120C1A701D4E35460FCC44
:106DD8000FC594E8030085E80300736953B31949A4
:106DE800194814F087FA034628BB184B009303ABE5
:106DF800144A1549164814F039FA0346D8B9154803
:106E080015F0D8FE0146124814F05CFA034690B912
:106E1800114816F08FF8034668B90F4816F0C0F805
:106E280001460B4814F04EFA034620B9FFF762FFFB
:106E3800034600E00723184606B070BD441104005D
:106E4800302F0020482F0020B4320020196D020096
:106E580080310020682F00203031002008B5064B13
:106E68001B683BB111F018FC002803DB024B1B68C0
:106E78009847F7E708BD00BFF432002010B50C466C
:106E8800144B1860144A0121144819F049FDA0B99F
:106E9800610CE00341F26F7200238B4208BF82420B
:106EA80010D24FF47A72002319F094FD01460022A3
:106EB8000B4819F04BFD38B910BD0A4A4A2113F0A6
:106EC800ADFDE5E70521F2E7064A4B2113F0A6FDE3
:106ED800F2E700BFF4320020656E02005011040092
:106EE800F83200205411040008B5104B1B6873B128
:106EF8004FF0A042D2F804350D4909684B40C2F85A
:106F080004350A4A1368013B136023B108BD002009
:106F180013F076FDECE7074819F036FD064B1A68C2
:106F28004FF0A043C3F80425F0E700BF1833002052
:106F38001C33002020330020483300204FF0A043AA
:106F4800D3F80425012303FA00F002420CBF1846C7
:106F58000020704739B9012303FA00F04FF0A0432D
:106F6800C3F808057047012303FA00F04FF0A04367
:106F7800C3F80C05704721B94FF0A043C3F80805C2
:106F880070474FF0A043C3F80C05704712B1134681
:106F9800132900D8704770B5144A10605B00013B94
:106FA800134A13604FF0A043D3F80425114B1A601D
:106FB80000264D0CCC034FF47A72002314F5FA70B6
:106FC80045F1000119F006FD324601460A4819F05C
:106FD800BDFC48B94FF0A042D2F80435034909680E
:106FE80023EA0103C2F8043570BD00BF1C3300203A
:106FF80018330020483300202033002008B5044807
:1070080019F0C2FC0021034B1868FFF7B4FF08BD54
:10701800203300201C33002010B582B0124B1B888F
:10702800ADF80430002312E002AAD01810F8042C9E
:107038004FF0A04102F5E072032441F8224010F815
:10704800040C01228240C1F808250133DBB2022B6F
:10705800EAD9064A0121064819F062FC08B902B0CB
:1070680010BD13F0CDFCFAE7BC110400F16E02006C
:10707800C0110400F0B1104A1060002309E00F4A63
:10708800D25C02F5E0720E484FF0A04141F82200B0
:107098000133012BF3D90B4B4FF00042C3F8042303
:1070A8000020C3F87C01084BC02283F80623402245
:1070B8001A6070470E20704740330020C411040046
:1070C8000C0003000060004000E100E010B500245F
:1070D800144BC3F87C4103E0D11A14E00134E4B244
:1070E800012C1ED84FF0A043D3F810250E4B195D84
:1070F80001238B409343F1D00C4B1B680C4AD2F808
:107108000425991AE8D443F233339942E6D9084B57
:10711800D3F80425054B1A60064B1B682046984790
:10712800DCE710BD00600040C411040044330020B7
:107138000010014040330020002869D02DE9F043B9
:10714800CFB00646334B1B6813F4804F03D0324B45
:107158001B68032B31DC2F4B1B6813F4804F03D0C3
:107168002D4B1B68032B2ADC4FB0BDE8F083F25C83
:1071780059002A4805681009285C0DAC04F813006A
:10718800013102F00F02AA5C625401330F2BEED9D1
:107198000DAA00238DF8543003F1804303F588339A
:1071A800D3F8043502921E4A01921E4A00924122E7
:1071B8001D49042005F0F2FDCDE70023E6E71B4B4F
:1071C800D3F80435B288F188307A747AB57AF77AC8
:1071D80096F80CE096F80DC096F80E8096F80F9089
:1071E800CDF82C90CDF82880CDF824C0CDF820E03B
:1071F80007970695059404900391029232680192CC
:107208000B4A009246220849042005F0C7FDABE767
:10721800704700BF6C2E0020682E0020702E0020C2
:107228003412040048120400211204000010014026
:107238005012040072DF704773DF704774DF7047C5
:107248002DE9F047A2B0074688469146314C002602
:107258006660E66030490B78C3EB43102F4D054458
:1072680025602F4A0244A2601F22A280A281013316
:1072780003F001030B704FF03C0A5246314613A845
:1072880019F000FD06238DF84F30ADF84870012342
:107298008DF84A30ADF85C3012AA1892ADF83C70FF
:1072A800ADF84090CDF844800DEB0A021D928DF8A0
:1072B800783052463146684619F0E4FC02238DF8CE
:1072C8000030221D294613A812F048FE90B9114B30
:1072D80003F10C029968684612F040FE68B9114A39
:1072E8000C491148FFF7A6FF082809D070B922B049
:1072F800BDE8F08713F084FBE9E713F081FBEEE7C4
:10730800002204490848FFF795FFEFE713F078FBE0
:10731800EDE700BF903300204C33002050330020AD
:10732800A0330020002E0020FC2D002090B1B0F5E5
:10733800202F0AD2094AA2FB0023DB0843B19BB2E3
:10734800074A9381064B996070474FF6FF73F5E73C
:107358000123F5E70022024B9A81F3E7CDCCCCCC90
:10736800002E002008B50121054B1878FFF764FFAF
:1073780018B9002004F0FAF908BD13F041FBF8E74A
:10738800FC2D002008B5044B1878FFF757FF00B90B
:1073980008BD13F035FBFBE7FC2D002076DF7047B6
:1073A8007ADF70477CDF704708B513F029FB08BD0A
:1073B80008B503F019FB08BD00B583B0037823B105
:1073C800012B0BD003B05DF804FB3B214088FFF78D
:1073D800E5FF0028F6D013F013FBF3E7094B1B6811
:1073E80013F4804FEED0084B1B68032BEADD074BE4
:1073F800D3F80435064A009268220649042005F0AD
:10740800CDFCDFE76C2E0020682E00200010014024
:1074180018130400FD12040000B583B012F078FFC1
:1074280070B902A9002341F8043D012012F0A0FE22
:1074380048B901A812F0EEFE40B903B05DF804FBAC
:1074480013F0DEFAEDE713F0DBFAF2E713F0D8FAFF
:10745800F3E7000000B585B09DF80C30012262F317
:10746800030362F3071304A800F8043D10220E4931
:10747800FFF798FF90B9002302937823ADF8043002
:10748800C823ADF806304FF4C873ADF80A3001A828
:10749800FFF786FF28B905B05DF804FB13F0B0FAD2
:1074A800E9E713F0ADFAF6E79012040000B58BB0E7
:1074B80001AA002302937821ADF80410C821ADF881
:1074C80006104FF4C871ADF80A100693079303929B
:1074D80040F6CD4304934FF48033059303238DF88E
:1074E8001830074B0893074B099303A813F0FCF8CF
:1074F80010B90BB05DF804FB13F082FAF9E700BF8E
:10750800C1730200B17302000620704700B587B04E
:1075180041F20103984246D020D944F2010398422F
:1075280057D044F2020398426ED1464B1B6813F4BD
:10753800804F2AD0444B1B68002B26DD434BD3F8E1
:10754800043510880390526802920191404A0092D3
:107558006C224049012005F021FC16E0012853D196
:10756800384B1B6813F4804F0FD0374B1B68002B28
:107578000BDD364BD3F8043502920191364A00925E
:1075880060223449012005F009FC4FF0A04342F283
:107598000102C3F81825C3F80C25EFF3108372B65F
:1075A8004DF6AD6C46E0274B1B6813F4804FECD0CA
:1075B800254B1B68002BE8DD244BD3F804350292D9
:1075C8000191264A009263222249012005F0E6FB38
:1075D800DBE71C4B1B6813F4804FD6D01A4B1B6893
:1075E800002BD2DD194BD3F804351068049050688D
:1075F8000390029192680192194A009277221549E4
:10760800012005F0CBFBC0E70E4B1B6813F4804F3D
:10761800BBD00D4B1B68002BB7DD0C4BD3F80435E2
:107628000191104A00927B220A49012005F0B6FB1D
:10763800ABE730BF0C4B1B78002BFAD107B05DF8D5
:1076480004FB00BF6C2E0020682E002000100140B3
:10765800F01304009D130400B0130400CC130400BD
:107668001014040034140400182E002000B583B050
:107678000023ADF80030054B01936A46014644F2F9
:107688000200FFF743FF03B05DF804FB3014040069
:1076980010B40346044C006859689A68DB680FC444
:1076A8005DF8044B704700BFE03300200B4B0C4AD9
:1076B80092E8030083E8030003F10802094903C9BB
:1076C80082E80300DA79042161F30712DA711A7A81
:1076D800022161F387121A72704700BFE03300205D
:1076E80060000010A400001000487047E03300203C
:1076F800002308E0074901EBC300002242804260F2
:1077080001F8332001331F2BF4D90022024B1A60F1
:10771800704700BFF0330020F034002030B4054635
:107728000F4B1B6800240AE01F230E4A12F833008F
:10773800A0B102EBC3025288AA4207D001341F2C21
:107748000BD85A1E002BEFD01346EEE7054A02EB82
:10775800C30252688A42F1D100E0002030BC704771
:10776800F0340020F033002030B40A4A13680A4C81
:1077780004EBC30568806960012104F833100B44E9
:107788001360202B01D030BC70470022014B1A60D7
:10779800F9E700BFF0340020F0330020C0F30C03F9
:1077A8008B4202D3C91A08447047C91A0844A0F585
:1077B80000507047C37D002B41D083780A7802F0CF
:1077C800800203F07F0313430B7002780B7803F0F9
:1077D8007F0343EAC2130B7003787BB330B443785A
:1077E800082B14BF002201224B7803F07F0343EAE1
:1077F800C2134B70858803F08003C5F386142343B6
:107808004B708A7802F0030242EA8502D2B28A708B
:10781800857902F0FC02C5F3C10422438A70CB7853
:1078280003F01F0343EA4513DBB2CB70C27903F0C0
:10783800E00302F01F021343CB7030BC704783781B
:107848000A7802F0BF029B0103F0400313430B7058
:10785800C27803F0C00302F03F0213430B70B4E791
:107868000023032B22D810B402E00133032B19D8CC
:10787800C3EBC30214010E4A224492F84820012A9D
:10788800F3D10B4A2244948AC2899442EDD1C3EBC6
:10789800C3021401064A224492888A42E5D1044868
:1078A800204400E000205DF8044B7047002070473A
:1078B80060350020002300E00133032B14D8C3EB0C
:1078C800C3021101094A0A4492F84820022AF3D156
:1078D800064A0A44918A828A9142EDD1C3EBC303D6
:1078E8001A01024810447047002070476035002094
:1078F80008B10820704704207047000038B50546D5
:107908000C46CB695B78C370CB691B7883F00103A5
:107918008370CB694362087B022814D0FFF7E8FF25
:107928006870E27A32B9A18AC0F10F03994201DC8A
:10793800082833D0A18A0346C0F10F00814207DC32
:1079480052B3012205E0164B987DFFF7D1FFE7E718
:1079580001222A7062B1A28A13440B33114A82FBB6
:107968000312DB17C3EB6203013BEB710023AB711E
:107978000023EB7505F10C0294E8030082E803008C
:10798800A2692A622289AA82A27AAA75226AAA62AE
:1079980085F82C30184638BD0022DAE7072038BDB4
:1079A80048350020ABAAAA2A30B403460C46097809
:1079B800817000214162A1680B2903D8217B09B39A
:1079C800012100E0012119700020587029B1A16837
:1079D8000731C9080139D97198710121D97503F1A5
:1079E8000C0504F1100103C985E80300E1899982B7
:1079F800A1691962217F9975617F83F82C109A62B9
:107A080030BC70470021DEE70021164B1B68994205
:107A180026D20023144A02EBC102526893421DD2B7
:107A280010B4114A52F8312002EBC30412F8332083
:107A380082420DD001330C4A02EBC10252689342D4
:107A4800EFD30131074B1B68994205D20023F2E7B7
:107A580060685DF8044B70470020FAE70131D4E70D
:107A680000207047F4340020F834002070B58CB042
:107A780006460D4614462C22002101A819F002F9E9
:107A88000F238DF80430ADF808604FF0000365F35C
:107A980000038DF80A308DF80B4001A801F0E4F8D6
:107AA8000CB070BD30B58DB005460C462C220021B7
:107AB80001A819F0E7F810238DF8043002958DF825
:107AC8000C4001A801F0D0F80DB030BD00B58DB064
:107AD80048B913F1020F06D001228DF80420029351
:107AE80001A801F0C1F8034B186804F07BF80DB049
:107AF8005DF804FB003500202DE9F0410546884675
:107B08000378BBB10D4B1C68621C1A6004F00704B3
:107B1800AB8A0B4F07EBC4067380A988A869FFF7E7
:107B28003DFE7060EB6903F00103737007F8348061
:107B3800BDE8F0817846FFF799FDE3E7443500207A
:107B48000435002070B5064603784BB1B58A347FFA
:107B580004F00104B188B069FFF720FE002304E0B7
:107B68007846FFF783FDF1E70133072B15D80C4A58
:107B780002EBC30252689042F6D1094A02EBC302F3
:107B880052889542F0D1064A02EBC30252789442D9
:107B9800EAD1034800EBC30070BD002070BD00BFF0
:107BA80004350020F8B515461C460E684A68D1F819
:107BB80008E0CF68E6602261C4F814E0A7610E69A6
:107BC8004A69E66122620378DB092370E27D32B3F9
:107BD800037803F07F03A3700023637023789BB1BD
:107BE80043789B0103F4FE53827843EA9203A3800F
:107BF8008378DB0003F01803C27843EA5213A371B9
:107C0800C37803F01F03E371002363622B78052B0D
:107C18001AD82B780E4AD35C84F82C30F8BD027839
:107C2800C2F38012A270027802F03F02E27043B100
:107C3800437813F0800F02D008236370CEE7042343
:107C4800FBE704236370C9E77846FFF70FFDE0E719
:107C58005014040070B50C461E460378B3B10425D1
:107C68002A44A26000F10C032360836A636090F8E1
:107C78002C30237300236373204604F01DFB024657
:107C880010B923691D443560104670BD0125E7E72A
:107C98002DE9F0418EB00D4616461C468046002858
:107CA8002DD0002D2FD0002C31D0636A02330593DC
:107CB80004F10C00A378002B2DD00121627801AFCC
:107CC8003B46082A14BF0022012204F0D0F8069788
:107CD800CDF81C80B2B2ADF820200B9515440C9558
:107CE80063788DF83430237B022B16D00023ADF84F
:107CF800283005A804F0B3F80EB0BDE8F081784646
:107D0800FFF7B4FCCDE77846FFF7B0FCCBE7784641
:107D1800FFF7ACFCC9E70221D0E723692BB123693F
:107D280009931023ADF82830E3E77846FFF79EFC67
:107D3800F5E72DE9F04186B004460D46C37D002BDA
:107D48003CD0082605FB06F8E3799D4238D0A5719A
:107D58006B46324601A92046FFF77CFF074648BB21
:107D68004DB994F8533033B9A369C3F30C03A38016
:107D7800012384F85330E37D7BB994F8523063B91A
:107D88001DBBB4F84A10627823468A1AE16E084689
:107D9800FFF77EFF012384F8523005992046FFF74C
:107DA80009FDE16E32464144009818F041FF01A8F0
:107DB80004F0A0FA384606B0BDE8F0810C26C1E709
:107DC800B4F84A60A6EB0806C1E77846FFF74EFC10
:107DD800D7E770B505460E4609B100230B6095F844
:107DE8005040002104E0631C85F850300134E4B2AF
:107DF800EB799C4210D8EA6C0123A3401A42F5D1D2
:107E080021462846FFF795FF014628B9002EEAD0FB
:107E1800336801333360E6E7084670BDF0B587B0D4
:107E280044781444C37D33B10B23A34205D20924FB
:107E3800204607B0F0BD0F23F7E716460F46054664
:107E48006B46224601A9FFF705FF04460028EFD13B
:107E580005992846FFF7AEFCEB7D43B1324639461B
:107E6800009818F0E5FE01A804F044FAE0E72B4674
:107E7800324600993846FFF70BFFF4E710B5044681
:107E880090F84830012B02D07846FFF7EFFB03F05B
:107E980087F8237B012B07D0074BD968014404F1ED
:107EA800300003F045F810BDA37D034AD16812697C
:107EB80002FB0311F2E700BF4835002030B583B05C
:107EC800002403E02846FFF7D9FF0134032C1AD811
:107ED800C4EBC4031A010D4B134493F84830012B2B
:107EE800F3D102A9002341F8043DC4EBC4021301F5
:107EF800064D1D442846FFF76CFF0428E2D0019B7D
:107F0800002BE2D0DEE703B030BD00BF60350020B3
:107F180038B5044690F84830022B02D07846FFF76F
:107F2800A5FB054B1D6803F03BF8291804F1300048
:107F380002F0FEFF38BD00BF4835002038B50446C2
:107F480090F84830022B02D07846FFF78FFB084B99
:107F58005D7D5A689B6803FB052503F021F84119EC
:107F680004F1500002F0E4FF012384F8683038BDC2
:107F78004835002038B50446C06E08F060F804F1B2
:107F88003005284602F0F1FF70B994F84830022B0A
:107F98000ED070220021204618F074FE002084F8CC
:107FA800480002F039F838BD284602F0A9FFECE78E
:107FB80004F15005284602F0D8FF0028E9D02846E9
:107FC80002F09EFFE5E710B504460121FFF794FD96
:107FD8002046FFF7CFFF10BD10B58CB0044690F8CF
:107FE8004830012B02D07846FFF740FB01238DF87B
:107FF8000430636D029301A800F036FE2046FFF7B7
:10800800B9FF0CB010BD000030B585B00D46044670
:10801800A8B100212046FFF76FFD2946606DFFF7E4
:1080280041FD2046FFF7A6FF0F4B1B6813F0040F16
:1080380003D00E4B1B68032B05DC05B030BD78461A
:10804800FFF714FBE5E70A4BD3F8043594F848200A
:1080580002950192074A009240F2EF120649042065
:1080680004F09CFEE9E700BF6C2E0020682E00207B
:1080780000100140B8140400AB14040008B5084609
:108088000021FFF7C1FF08BD08B5037B012B02D013
:10809800FFF7A2FF08BD0121FFF7B6FF08BD0000EA
:1080A80008B590F8513013B9FFF7EEFF08BD013B52
:1080B80080F85130002380F85030024B186803F0E4
:1080C80091FD08BD0035002010B50C4691F84830E8
:1080D800012B02D07846FFF7C9FA2046FFF7E0FFE8
:1080E80010BD0000062900D0704770B582B0034665
:1080F8000178890101F4FE5140789D78DC782404E8
:1081080044EA05641D7944EA05245B791C4341EA85
:1081180090011046FFF7A4FB0546B8B1C66C26438C
:10812800C66444B3037853B3EB795A1C01239340D4
:10813800013B9E4227D0002185F850102846FFF7C2
:1081480048FE2846FFF79AFE02B070BD104B1B6828
:1081580013F0040FF8D00F4B1B68012BF4DD0E4B06
:10816800D3F804350D4A009240F2A7520C49022078
:1081780004F014FEE8E70321FFF746FFE4E778463A
:10818800FFF774FAD0E72846FFF726FFDCE700BFC1
:108198006C2E0020682E002000100140DC14040022
:1081A800AB1404002DE9F04389B080460F4614460D
:1081B8001E4695782DB32846FFF726FC8146E8B180
:1081C8008DF80050236A0693A38AADF80E3004ABED
:1081D80004F10C0292E8030083E80300A37D8DF804
:1081E8001C30CDF80480029723788DF80C3094F871
:1081F8002C308DF81D3031466846C84709B0BDE8B7
:10820800F083FFF76FFFF9E72DE9F04706460F46C1
:1082180090464B1EDBB2012B02D97846FFF726FAAF
:10822800B8F5C07F0CD80024032C16D8C4EBC403BF
:108238001A01314B134493F848302BB10134F3E75A
:108248007846FFF713FAEEE7DFF8ACA01546554479
:10825800404607F0F0FEE86600E00025002D32D029
:10826800EB6E002B46D033462A4606F13001D3F890
:1082780000C0D3F804E09C68D868C2F800C0C2F80F
:1082880004E09460D060103310328B42EFD10023A9
:10829800EB64A5F84A80B188B069FFF77FFAA86156
:1082A800012F13D06FF00103AB62002385F868300B
:1082B800124BAB652D66124BAB632D64012001F0A8
:1082C800ABFE85F848702846BDE8F0870D4B1B7D4E
:1082D80085F85130002385F8523085F8533085F8F9
:1082E8005030B36A6B656FF00103AB62064BAB634A
:1082F8002D64E3E70025E6E760350020B58B020032
:108308008580020048350020D1800200F0B5C7B052
:1083180045781544C37D3BB14FF48073AB4206D218
:108328000924204647B0F0BD4FF4C073F6E7002398
:1083380000E00133032B19D8C3EBC3042601394CE1
:10834800344494F84840012CF3D1364C3444A68A7E
:10835800848AA642EDD1C3EBC3042601314C3444D0
:10836800E689C489A642E4D10824DAE714460E4611
:108378002A460121FFF748FF054600284ED022462D
:108388003146C06E18F054FC46A9002341F8043D5C
:108398002846FFF71EFD044628B1042803D02846C6
:1083A800FFF7E8FDBDE7459B7BB91F4B1C6814F040
:1083B8000404B6D01D4B1B68032B31DDB5F84A7099
:1083C800802F28BF8027002313E02846FFF756FD9B
:1083D800EBE7EA6ED25C5900154804681009265C80
:1083E80004A800F81360013102F00F02A25C4254A5
:1083F8000133BB42EDD304AA002402F817400D4B09
:10840800D3F8043502920C4A01920C4A009240F2C9
:10841800D1420B49042004F0C1FC82E7042480E720
:1084280000247EE7603500206C2E0020682E002096
:10843800702E0020001001400C15040048120400A2
:10844800AB14040000B585B000238DF80F3098B147
:108458000346084602330B600DF10F0103F003FDDC
:108468009DF80F3043B10D4B1B6813F0040F03D078
:108478000B4B1B68032B04DC9DF80F0005B05DF85F
:1084880004FB084BD3F80435074A009240F2A632A1
:108498000649042004F082FCEEE700BF6C2E0020A1
:1084A800682E0020001001401C150400AB140400C5
:1084B8002DE9F0438FB004460E4615461F46D0F806
:1084C8001890037823B181884846FFF767F9A061BF
:1084D80004F10C00A378002B3AD0012162780DF149
:1084E80028084346082A14BF0022012203F0BFFCD3
:1084F800C4F81890CDF8088003966378EA1A92B207
:10850800ADF810203244089207978DF824300023E4
:10851800ADF81830237B022B1CD0A3786BB3237BD8
:10852800022B1BD02546002345F8243F2A46E17834
:10853800206A0EF0E1F9606A98B101A9FFF782FF9D
:1085480000283CD12A46E178206A0EF0D5F9F2E7F6
:108558000221C3E71023ADF81830DEE7236905933D
:10856800E0E7237B022B2ED104F10C01E0890EF009
:1085780071FA0028D3D1052022E000236362237B0F
:10858800012B0DD02146002341F8243FA08A0EF08C
:10859800D0F901A9606AFFF755FF70B905200FE00F
:1085A80004F12401E0890EF0C4F901A9606AFFF71B
:1085B80049FF0028E6D0002002E0002000E000206B
:1085C8000FB0BDE8F0830520FAE7000070B5F0B001
:1085D8000D4614461E4610AB0A4601462046FFF7D4
:1085E80067FF50B11F4B1B6813F0040F03D01E4BDD
:1085F8001B68052B2ADC70B070BD03AB01228DF817
:108608000C20A28AADF80E20002204928DF81420C6
:1086180010AA06926278AD1AADF81C5008AA93E821
:10862800030082E803000AAB04F10C0292E803009D
:1086380083E80300A37D8DF83830236A0C93636ABE
:108648000D930F9605A800F00FFBD4E7074BD3F85E
:108658000435074A009240F219620649062004F0E0
:108668009DFBC8E76C2E0020682E002000100140FA
:1086780054150400AB14040010B5D47D14B9FFF7E9
:10868800A5FF10BDFFF78EFD10BD70B504460D4661
:108698001646808A01F0E2FF012801D0102070BD43
:1086A800237B0BB9102070BD022B0BD094F9163028
:1086B800002B12DB237853B9324629462046FFF7B0
:1086C800ADFB70BD2369002BF0D1102070BD324680
:1086D80029462046FFF71AFE70BD072070BD00002E
:1086E80010B54FF4E0720021134818F0CBFA05F0EA
:1086F800F1FD0024114B1C6040222146104818F05F
:10870800C1FA104B104A1A60104A5A604CF25032A3
:108718009A600F49D9601A6104221A759C7508225B
:108728005A750C4803F03EFA0B4B18600B4B1C6053
:108738000B4805F0CBFE10BD603500204435002005
:10874800043500204835002080969800F049020042
:1087580020A107000589020000350020F43400201C
:10876800D57A020008B505F02BFD08BDA8B110B5F3
:108778008CB0044603699BB1C369ABB18369ABB1E3
:1087880001466846FFF7BAF8034650B9A28A21693C
:108798006846FFF77AFF034603E00E231846704742
:1087A8000E2318460CB010BD0E23FAE70E23F8E787
:1087B800E8B110B58CB004464068D0B1A069D8B112
:1087C800227C022A1AD00AB9102013E094F900205A
:1087D800002A01DA07200DE00A4621466846FFF71D
:1087E800E3F8A26861686846FFF74FFF02E00E20D1
:1087F80070470E200CB010BD0E20FBE71020F9E7E3
:10880800037B012B01D00020704730B58DB001AC3F
:1088180000230293CDF80B308288C2F386158DF8B9
:10882800045092008DF805200A0E8DF806200A0CD7
:108838008DF807200A0A8DF808208DF809100622FD
:10884800069201228DF82020828AADF82220099311
:108858008DF810300594026A0A928DF81C30C3898D
:10886800ADF81E3090F82C308DF82D30837D43B94B
:108878008DF82C306FF0010104A8FFF799FF0DB0B7
:1088880030BD024B5B7D8DF82C30F3E74835002076
:1088980038B590F84830022B00D038BD90F86830D1
:1088A800022BFAD10446C16CFFF7AAFF0028F4D1C5
:1088B800002384F86830E56C237853B1E3795A1CB7
:1088C80001239340013B9D42E7D12046FFF77BFB04
:1088D800E3E77846FEF7CAFEF0E7000010B500248B
:1088E80007E0C4EBC402130103481844FFF7D0FFA4
:1088F8000134032CF5D910BD6035002008B5FFF709
:10890800DDFAFFF7EBFF012008BD00002DE9F0417B
:1089180082B007460E46144698461046FEF7CAFF30
:10892800054620B1A28883889A4210D312D82046DF
:10893800FFF708F9B8B103784BB123787BB1E17937
:108948004B1C0121994001392046FFF759FF02B01D
:10895800BDE8F0810521FFF757FB0025E7E77846DA
:10896800FEF784FEEBE7002D57D05F4B1B6813F032
:10897800040F04D05D4B1B68032B00F38680284648
:10898800FFF7C6FA2B7B012B00F08D80EA6CA179EA
:1089980001238B401A42DAD11343EB64A279EB79B5
:1089A8009A4200F08980E37D002B00F09080082334
:1089B800B34240F08E80EB6E94F806E0E27D002A28
:1089C80000F08C800820324639460EFB003018F043
:1089D8002FF9EC6C2B78002B00F08280EB795A1C75
:1089E80001239340013B9C42B1D1022385F86830B2
:1089F800E96C2846FFF704FF044643462A46B5F8C3
:108A08004A10E86EFFF738FE002CA0D1002385F845
:108A180068302846FFF7D7FA99E7E2790132E37D13
:108A2800EBB1082102FB01F2DBB14FF480739342F2
:108A38001AD22D4B1B6813F0040F88D02B4B1B68E0
:108A4800002B84DD2A4BD3F804350192294A009281
:108A580040F236322849012004F0A0F977E70C21CA
:108A6800E0E74FF4C073E2E702212046FFF7CCFBB2
:108A7800054600287FF479AF00212046FFF7C0FEA5
:108A880002210020FFF70EF861E7194BD3F80435EF
:108A9800A2790192194A009240F2513216490420F3
:108AA80004F07CF96BE795F86830002B7FF46EAF23
:108AB8002846FFF743FA69E79BB2E27D2AB108220C
:108AC80002FB0363A5F84A3075E70C22F8E70C238C
:108AD8006EE704212846FFF797FA38E70C2072E77B
:108AE8007846FEF7C3FD79E76C2E0020682E00203B
:108AF8000010014030150400AB14040044150400B4
:108B08002DE9F0418EB0002849D08046002A48D08F
:108B18001F4614460E4600230C930D930CA950884B
:108B28000DF098FF08B900253CE02269E16820892A
:108B380005F07AFB08B1002534E02269E168208954
:108B480005F046FB0546D0B96B463A4621464046F5
:108B5800FFF728F803AB0EAA12E9030083E8030025
:108B680002F0A8FF9DF800308BB13B466A46311FE2
:108B780008F10400FFF7CAFE02F0E0FF12E02169E5
:108B8800002201F001012089FEF770FF0AE03B4650
:108B98006A46711E08F10100FFF76EFDECE70E252D
:108BA80000E00E2528460EB0BDE8F08110B50C4651
:108BB80091F84830022B02D07846FEF757FD022381
:108BC80084F86830E16C2046FFF71AFE10B90023DC
:108BD80084F8683010BD0000F8B518B30546164B88
:108BE8001F6817B104273846F8BD0E463C46B44204
:108BF8000ED205EBC4035B68B3B115F8340010F06E
:108C0800800F13D1A0B1FEF7FFFE98B90134EEE74B
:108C18000A4B43F8375003EBC7035E607B1C064AD8
:108C28001360E0E70E27DEE70E27DCE70B27DAE71D
:108C38000F27D8E70F27D6E7F4340020F8340020B0
:108C4800084B196861B110B501E021463CB10C68C8
:108C58000B79002BF9D0034804F005F8F5E710BDAF
:108C6800704700BF2437002038B5054630B1104B97
:108C78001C68ACB101220F4B1A7004E07846FEF76D
:108C8800F5FCF4E724683CB12379002BFAD154F8B9
:108C9800043C28469847F5E7064B1B78022B00D082
:108CA80038BDFFF7CDFF0022024B1A70F8E700BF6E
:108CB800243700202037002010B5044630B10023A7
:108CC8002372211D034803F0A3FF10BD7846FEF769
:108CD800CDFCF4E72437002010B5044650B10A4B08
:108CE8001B78013BDBB2012B08D9211D074803F093
:108CF800BAFF10BD7846FEF7B9FCF0E70222024B36
:108D08001A700123237210BD203700202437002059
:108D18000A8883689B5A07339BB223F003031344E2
:108D28009BB20288043A934200D900230B80704713
:108D380010B582B004468368CB1A02A921F8023D17
:108D4800FFF7E6FFBDF80630A068184402B010BD72
:108D58000088043880B2704743888268D018D1529E
:108D68000123837070478268002393704380838057
:108D78007047073189B221F0030189B2428883889C
:108D88009A4206D29B1A994201DD042070470020BE
:108D9800704710B59A4211D90488A41A8C4217D288
:108DA800994201D9042010BD032C03D983681344C8
:108DB80004229A7000234380184610BD8268134429
:108DC8009B780BB1042010BDFFF7CDFF002010BD2C
:108DD800002010BD38B504460D46836882881344C8
:108DE8008B4202D07846FEF741FC0023AB70211D70
:108DF8002046FFF78DFFA288A36813449B78042BB5
:108E080000D038BD0023A380FBE710B50C4683686B
:108E1800428813448B4202D07846FEF727FC002391
:108E2800A37010BD70B5064615460C46002944D0FF
:108E3800002E46D0B4F1005F08D94FF08053D3F824
:108E48000C3103F50023B4EB832F0ED3B4F5000FD8
:108E580008D94FF08053D3F80C3103F50053B4EB25
:108E6800832F02D37846FEF701FC6B1E2344B3F12F
:108E7800005F08D94FF08052D2F80C2102F5002289
:108E8800B3EB822F0ED3B3F5000F08D94FF0805201
:108E9800D2F80C2102F50052B3EB822F02D37846A8
:108EA800FEF7E4FB042D10D9358000237380B380CE
:108EB800B460043D2580A37070BD7846FEF7D6FBEC
:108EC800B6E77846FEF7D2FBB4E77846FEF7CEFB66
:108ED800EAE738B50446A0B16288A36813449B78D2
:108EE800012B12D0EFF3108572B6A388A16819443C
:108EF8008B78032B0DD02046FFF735FF05B962B6F6
:108F080038BD7846FEF7B2FBE6E77846FEF7AEFBDB
:108F1800E8E72046FFF70CFFA368C31A6380002325
:108F28008370EBE72DE9F0410E461546044658B12B
:108F380076B16288A36813449B78012B0CD07DB965
:108F480009273846BDE8F0817846FEF78FFBEFE742
:108F58007846FEF78BFBECE77846FEF787FBEEE7F3
:108F68002046FFF7F5FE854201D90927E9E7EFF327
:108F7800108872B629462046FFF7FBFE074620B147
:108F8800B8F1000FDDD162B6DBE729462046FFF7CE
:108F9800E3FE3060F4E7F8B50C4616460546F8B12E
:108FA80014B3A378012B02D07846FEF75FFB238821
:108FB800B3421DD306B3EFF3108772B6268002239F
:108FC800A370E9182846FFF7A3FE6A88AB889A427F
:108FD80003D0AB68134400229A7007B962B6F8BD93
:108FE8007846FEF743FBDBE77846FEF73FFBD8E71A
:108FF8007846FEF73BFBDDE77846FEF737FBDAE716
:1090080070B50D46044680B19DB1EFF3108672B677
:10901800A288A36813449A78042A0ED09A78022A60
:1090280013D0032A18D0052013E07846FEF71EFB5C
:10903800EAE77846FEF71AFBE7E7211D2046FFF727
:1090480067FEA288A3681344E8E703229A702B609E
:10905800002006B962B670BD7846FEF707FB00200F
:10906800F7E738B5044680B1EFF3108572B6A088EB
:10907800A16801448B78042B0BD08878022814BF90
:109088000020012005B962B638BD7846FEF7EEFA31
:10909800EAE72046FFF74CFE0146EEE738B50446FE
:1090A80030B1EFF3108572B6A088A168014407E0DB
:1090B8007846FEF7DBFAF4E72046FFF739FE01466B
:1090C8008878C31EDBB2012BF6D9022814BF002012
:1090D800012005B962B638BD70B50C46064678B1B0
:1090E80094B1EFF3108572B6A378012B10D0032B3F
:1090F80013D121463046FFF76DFE05B962B670BD43
:109108007846FEF7B3FAEBE77846FEF7AFFAE8E7FA
:1091180021463046FFF779FEEFE77846FEF7A6FAD4
:10912800EBE710B5EFF3108472B6838881681944B1
:109138008B78042B06D08878B0FA80F0400904B9FF
:1091480062B610BDFFF7F4FD0146F4E708B5064B1B
:10915800986800221A605A609A60DA601A615A6147
:109168009A6104F031FE08BD2837002000B585B0AB
:109178000A4BDB6802228DF8002001934FF48053DC
:109188000293074A6946012001F07AF918B10020D4
:1091980005B05DF804FB0120FAE700BF283700207E
:1091A8004437002000B585B00A4B1B6802228DF8B1
:1091B800002001934FF480530293074A6946012027
:1091C80001F05EF918B1002005B05DF804FB01203C
:1091D800FAE700BF4837002044370020154BDA680B
:1091E800137951795B1A03F57F2303F6FF731B0389
:1091F80005D002F580520F4BDA600320704700B5A6
:1092080085B00D4B1B6801208DF8000001930B4BB6
:109218000393042302930A4A694601F031F930B9ED
:109228000122044B1A76022005B05DF804FB0020E9
:10923800FAE700BF28370020483700204C370020C5
:109248004437002000B585B00C4BDA680C4B1B681E
:10925800043301208DF800000192039340F6FC735B
:109268000293084A694601F00BF928B90120034B1B
:10927800187605B05DF804FB0020FAE728370020CF
:10928800483700204437002000B585B00A4B1B68DA
:1092980001208DF800000193084B039304230293E7
:1092A800074A694601F0ECF818B1002005B05DF8EE
:1092B80004FB0120FAE700BF4837002034370020BC
:1092C8004437002010B584B0104BDA681478104B7E
:1092D8001B68043301208DF8000001930392029467
:1092E8000C4A694601F0CCF870B9094B1B6804F0C8
:1092F800FC041C440434054B5C61D9680A780A44B0
:109308001A61012004B010BD0020FBE728370020B7
:10931800483700204437002008B50023092B09D816
:10932800064A52F82320824201D00133F6E7044A64
:10933800536008BD7846FEF799F908BD801504000A
:109348002837002010B5214BDB6853B11F4B1B7E1B
:109358005BB91E4B5B68092B15D97846FEF786F971
:1093680011E07846FEF782F9F0E77846FEF77EF9D5
:10937800EFE70022154B5A60012C01D0032C23D1B2
:10938800124B1B7E03BB114B5A68114B53F822300A
:109398009847044602280DD00328EAD00128EBD1CB
:1093A8000A4A536801335360092BE5D97846FEF71A
:1093B8005DF9E1E7054B1B7E1BB10222034B1A70D6
:1093C800DAE7FFF7C3FED7E710BD00BF2837002054
:1093D80080150400104B1B681B685A1E12F1030FFE
:1093E80018D8C3F30B020AB10020704710B50B4A16
:1093F800D3600023137653760124147093600848D1
:10940800FFF78AFF0749204601F028F8FFF79AFF7F
:10941800204610BD0020704748370020283700201C
:10942800759102003194020008B50B78032B06D021
:109438000B4B1B78012B06D0022B0BD008BD00224A
:10944800074B1A76F4E7064B1B7E002BF6D1FFF785
:1094580079FF08BD0B78032BF0D1FFF777FEEDE716
:109468002837002000B585B0174BDB6818784FF611
:10947800FF7203F58051184404F0DEFFF0B1024694
:10948800114BD9680B780B44984219D00E4B5B7E70
:1094980093B10E4B01208DF8000001920393042331
:1094A80002930B4A694600F0EBFF58B90120064BBE
:1094B800187605B05DF804FB064BEBE70120F8E7EA
:1094C8000120F6E70020F4E728370020F41704000D
:1094D80044370020F017040008B50F4BDB681878F4
:1094E800002203F58051184404F0A6FF08B10120BA
:1094F80008BD094BDA68137951795B1A03F57F23A4
:1095080003F6FF731B0305D002F58052024BDA60A5
:10951800032008BD022008BD28370020F0B585B01B
:10952800544BDD686A792B79591E8A421AD005F5A1
:1095380080510C780C4450490968081D0E7906447E
:109548009B1A03F57F2303F6FF731B0303F5805370
:109558001D446388013B9BB247F6FE62934260D983
:1095680027461FE00120434B58767EE0002458E050
:10957800002456E07846FEF779F816E027F47F6372
:1095880023F00F0303F580531A7813449D42EDD955
:109598009C42EDD25A88013A92B21F4647F6FE61C4
:1095A8008A4210D93B88002BE4D03B8807EB830321
:1095B80023F47F6222F00F029342DFD07A88B2F55B
:1095C800FE4FE3D1DAE71C462BE07846FEF74EF86B
:1095D80016E027F47F6323F00F0303F580531A780E
:1095E80013449D421CD99C4237D25A88013A92B200
:1095F8001F4647F6FE618A4210D93B88002BE4D00B
:109608003B8807EB830323F47F6222F00F02934227
:10961800DFD07A88B2F5FE4FE3D1DAE71C4600E0E6
:109628000024E4B1144B1968628801F58051304672
:1096380004F002FF064690B101200E4B18768DF813
:10964800000001940D4B0393042302930C4A6946CE
:1096580000F016FF58B92746CFE70024E1E7B4FA2F
:1096680084F46409034B5C76012005B0F0BD00204A
:10967800FBE700BF2837002048370020EC1704001C
:10968800443700202DE9F04186B0674B1B6923B1B0
:10969800654B5B692BB1002748E07846FDF7E6FF8C
:1096A800F6E77846FDF7E2FFF5E77846FDF7DEFFD7
:1096B80017E028F47F6323F00F0303F580531A782B
:1096C80013449D421FD99C4221D25A88013A92B232
:1096D800984647F6FE618A4213D9B8F80030002B45
:1096E800E3D0B8F8003008EB830323F47F6222F05C
:1096F8000F029342DDD0B8F80220B2F5FE4FE0D158
:10970800D7E71C4600E000241CB100943EE000248A
:10971800FAE700230093019B002B60D10127002C5E
:109728007CD0628847F6FF739A4277D0002F79D1B0
:109738003D4B5A6922F47F6626F00F06B61A06F5E5
:1097480080561C69DD682B796A799B1A03F57F239B
:1097580003F6FF731B0303F580531D440023019395
:109768006388013B9BB247F6FE629342CDD9A0467F
:10977800B3E77846FDF77AFF23E024F47F6424F00A
:109788000F0404F58054237823441C46A542C2D90B
:109798002388019A02EB83029642BCD9009B63405E
:1097A80023F47F6323F00F03002BB4D16388013BBC
:1097B8009BB247F6FE618B42ADD801922388002BFD
:1097C800D7D0238804EB830323F47F6222F00F02AF
:1097D8009342D2D06288B2F5FE4FD6D1CDE7124A75
:1097E800526901208DF808000392009A05920493AB
:1097F8000E4A02A900F044FE70B90B49019B23F000
:1098080003024B6913444B6114B1074B1C6186E793
:109818007846FDF72BFFF8E7002000E0012006B0AE
:10982800BDE8F0810120FAE72837002044370020FE
:1098380008B54FF010235B69B3F1FF3F03D04FF039
:1098480010235B6963B94FF080525169136903FBB8
:1098580001F3A3F58053054A1360FFF7BBFD08BD6C
:109868004FF010235B69A3F58053F2E748370020D7
:1098780010B50446B0B1104B1B78CBB10E4BD9686C
:10988800E3685879A3EB0032914213D31A79121A7C
:1098980002F57F2202F6FF7203EB0233994205D9E3
:1098A800002010BD7846FDF7E1FEE4E7012010BD79
:1098B800002010BD002010BD28370020024B18786A
:1098C800003018BF012070472837002010B5044623
:1098D8000E4B1B78ABB92378032B02D07846FDF7E3
:1098E800C5FE0A4B9C60E268DA6000225A601A766C
:1098F800012018705A76064900F0B0FDFFF722FDE6
:1099080010BD7846FDF7B2FEE5E700BF2837002016
:1099180031940200014B1868704700BF4837002097
:1099280010B5044680B163681BB123680BB1A36806
:1099380013B97846FDF79AFEA3685A1E134207D159
:109948000023E360236110BD7846FDF78FFEEAE748
:109958007846FDF78BFEF3E770B508B304468268D6
:1099680012B90925284670BDEFF3108572B606694D
:10997800C268964210D0084621686268A368013B15
:109988001E4006FB021108B117F052F92369013392
:1099980023614DB962B6E5E725B962B60525E1E769
:1099A8000E25DFE70525DDE70025DBE7C0F30B0320
:1099B8000BB11020704709B90920704701F6FF71F3
:1099C800090B0222104BC3F804250F4BD3F80034BF
:1099D800002BFAD000220AE00B4BC3F808050A4B0B
:1099E800D3F80034002BFAD000F5805001328A42B7
:1099F800F2D30022044BC3F80425034BD3F80034F8
:109A0800002BFAD00020704700E0014010F0030F4F
:109A180002D010231846704711F0030F01D010230D
:109A2800F8E70AB90923F5E712F0030F01D0092373
:109A3800F0E710B493080124124AC2F80445114A09
:109A4800D2F80024002AFAD002E004300431134688
:109A58005A1E53B10B68B3F1FF3FF6D00360094BB0
:109A6800D3F80034002BFAD0EFE70021054AC2F8FA
:109A78000415044AD2F80024002AFAD018465DF8E2
:109A8800044B704700E001404388012B05D0022BAE
:109A980001D1043008600120704704304860FAE7BB
:109AA80008B508220221084803F0FBFF38B1074A2D
:109AB80091684160127B027204F02CF808BD0448DA
:109AC80004F05AF908BD00BF58370020A437002019
:109AD8002C2E00200E4B1B78CBB910B50D4B5C68B3
:109AE80004F50054B4F1807F00D910BD042201218F
:109AF800094803F0D6FF30B144600121044A1170CF
:109B080004F008F8F1E7054804F036F910BD70478D
:109B1800B8370020A4370020583700201C2E00201A
:109B280010B5044608B1A04710BD7846FDF79EFD64
:109B3800F9E7000008B501210C4804F013F820B932
:109B480002210A4804F00EF828B1094804F014F973
:109B5800FFF7C0FF08BD074A0023136053609360F6
:109B6800D3601361044A1370F2E700BF583700202E
:109B78004C2E0020A43700207C37002000B58DB083
:109B88000B4B1B7B012B0ED0094A926804928DF86F
:109B9800083003900CA8022300F82C3DFFF764F866
:109BA8000DB05DF804FB024A9268013A0492EEE7B0
:109BB800A437002010B58CB00C4682B94B88012B15
:109BC80023D1134B1B7833B16268124B5A600022C1
:109BD8000F4B1A7019E07846FDF748FDF4E7032AA1
:109BE80002D07846FDF742FD2C22002101A817F08B
:109BF80049F811238DF804300394074BDA6805926D
:109C08001B69069301A8FFF72FF80CB010BD00BF21
:109C1800B8370020A43700205837002000B583B09B
:109C280001F048FF0021009101916B46144A154844
:109C380003F02CFE009BBBB1019AAAB11868124927
:109C4800886018790873934201D91B79A3B1126807
:109C58000D4B1A600C4B1A685A60FFF73BFF01F076
:109C68006DFF03B05DF804FB074B00221A609A6091
:109C78001A73FFF715FFEDE700220A60EAE700BF55
:109C8800919A020058370020A437002008B504F044
:109C9800CDF8A0F5805008BD00B587B0002300932B
:109CA80001930293039304930593FFF7EFFF00904A
:109CB80001230193064B03936946064804F00DF807
:109CC80010B907B05DF804FB034804F055F8F8E74D
:109CD800BD9B0200583700203C2E002010B50B4BCE
:109CE80000241C605C609C60DC601C6101F058F919
:109CF800074B5860074A9A60074ADA601C615C6142
:109D0800064B1C70FFF7C8FF10BD00BFA43700202A
:109D180080370020559E020000879303B937002042
:109D280008B5084B1B7803B108BD0748074B03600B
:109D380000F052FE064801F0BDF80122014B1A70EE
:109D4800F2E700BF5437002098370020859F0200B3
:109D58008037002010B501F0ADFE164B1B7B23B1F8
:109D6800082401F0EBFE204610BD124B9B7B0BB183
:109D78000824F6E70F4B1A8A41F282639A4204D804
:109D88000D4B1B782BB1012300E001231BB90824DC
:109D9800E7E70023FAE7074B01221A7300241C8225
:109DA8009A6801329A60FFF77BFE2046FFF7E6FECD
:109DB800D7E700BFA4370020B937002010B501F05D
:109DC80079FE204B5B7B9BB11E4B9B7BF3B91D4BF4
:109DD8001A8A41F282639A4204D81B4B1B782BB132
:109DE800012300E001239BB1012302E00023FAE7ED
:109DF80000231C460BB3134B00225A731B7B4BB139
:109E0800012B0ED07846FDF731FC16E00023F0E771
:109E18000023EEE7FFF79EFF78B17846FDF726FCB2
:109E28000BE0084B00201860586018731882FFF781
:109E3800A5FEFFF735FEFFF74DFE01F07FFE204639
:109E480010BD00BFA4370020B937002010B5234B40
:109E58001B7B8BB1012B24D07846FDF707FC01242E
:109E68001CB11E4A138A013313821C4B5B8A13B13F
:109E7800013B1A4A538210BD184B1A8A41F2826379
:109E88009A4204D8164B1B782BB1012300E001231A
:109E98001BB90124E4E70023FAE7FFF78FFF00244A
:109EA800DEE70E4B1A8A41F282639A4204D80C4BC1
:109EB8001B787BB1012300E001231C4663B142F209
:109EC800B0139A4203D90122044B5A730024FFF7B6
:109ED80075FFC5E70023F0E70124C1E7A437002098
:109EE800B937002010B5244B1B7B002B35D1044615
:109EF800214B5B8A2BBB1AB91F4B9B688B4205D33E
:109F0800FAB11D4B9B68013399421AD91A4B9B68C9
:109F18002A33994223D8184B9B7B03BB164B996075
:109F280000221A605A601A8242F6065159825A7300
:109F38001A73FFF7B5FDFFF7CDFD2046FFF71EFEAC
:109F480010BD62B10C4B9B680133994207D10122C5
:109F5800094B5A73FFF732FF10BD012B00D010BD1B
:109F6800002AFCD1044B9B689942F8D10122024B8C
:109F78005A73FFF723FFF2E7A43700200378042B76
:109F880000D0704743681B78002BFAD010B584685E
:109F9800027E437E012A14BF00220122416904F196
:109FA8001000FFF79FFF10BD10B5184B1A685B68CB
:109FB8009A4225D20446154B1B7B012B15D0144B16
:109FC800934214D9002028B9104B1A685B68403BAB
:109FD8009A4212D2EFF3108072B60C4A1368591CD9
:109FE8001160236080B962B610BD0A4BE8E7012210
:109FF800064B5A73FFF7E2FEE5E7FFF76BFDE9E76B
:10A00800FFF768FD0F2010BD002010BDA437002009
:10A01800FFFF7F0000E0FF0008B540B90D4B1B684B
:10A028006BB10C4A1368013B136063B108BD012290
:10A03800094B9A73074A13680133136008BD7846C1
:10A04800FDF714FBEDE70022034B9A73FFF7B6FE0A
:10A05800ECE700BF50370020A437002000B58DB0D2
:10A06800ADF808008DF8102003910CA8032300F820
:10A078002C3DFEF7F9FD0DB05DF804FB014B986827
:10A08800704700BFA4370020054B1B7B012B02D073
:10A09800034B98687047024B98680138704700BFB7
:10A0A800A4370020044B9B68584010F0010F00D0E3
:10A0B800013B1846704700BFA4370020014B187BAE
:10A0C800704700BFA437002038B50B4B1B780BB185
:10A0D800082038BD0122084B1A70084DA860297362
:10A0E800FFF7DEFC0020FFF749FD00242C606C60C0
:10A0F800FFF7F0FC204638BD7C370020A43700204D
:10A108002DE9F041002722E02449BC2303FB04F396
:10A11800CA5A0132CA520221404602F0EAFB01360D
:10A128000221404602F0B5FB70B1BC231B4A03FB79
:10A1380004239D68002DE7D0BC2303FB04F3D25A07
:10A1480001463846A847DFE796B90137FFB2022F24
:10A1580020D83C46BC2303FB07F308330F4D1D44AE
:10A1680005F104080221404602F093FB0026DBE7D4
:10A178000021404602F025FC0828E6D1BC22074B06
:10A1880002FB0434A368002BDFD0002204493846C0
:10A198009847DAE70120BDE8F08100BFC437002006
:10A1A800A815040008B5082383731023437300F12E
:10A1B8001C0343610323037300F1180303610C308C
:10A1C80002F0D1FB08BD000008B50378012B06D0CA
:10A1D800022B06D07846FDF749FA002008BD292051
:10A1E80008BD014808BD00BF084C010008B5027849
:10A1F800012A07D0022A13D07846FDF737FA4FF420
:10A20800FA7308E083685B1A9B0803EB830003EB8F
:10A21800C00303F5FA730748984228BF184608BDDB
:10A2280083685B1A180B044B03FB00F303F5FA73FE
:10A23800F1E700BF60850100084C010038B504460D
:10A2480001210C3002F025FB054678B1084BC4F813
:10A258009C300023C4F8A0306168FFF7C7FFC4F83A
:10A26800A800C4F8AC40012384F8B830284638BDAB
:10A2780091A3020010B50446FFF7E0FF20B104F1F6
:10A288009C000DF07DF900B910BD7846FDF7EEF998
:10A29800FAE70000F8B506460C4617461568037835
:10A2A800012B02D07846FDF7E1F91049A1FB0431F2
:10A2B80049098900B468641BA14200D80C466CB1F6
:10A2C800706825F00305F168224629442844FFF701
:10A2D8009DFB38B93B681C443C60F8BD7846FDF7E7
:10A2E800C5F9EDE77846FDF7C1F9F3E77D0CCEC770
:10A2F800F8B507460C46164615680378022B02D0B7
:10A308007846FDF7B3F90F4BA3FB04231B0C1B0383
:10A31800BC68641BA34200D81C465CB1786825F071
:10A32800030521462844FFF741FB38B933681C442C
:10A338003460F8BD7846FDF799F9EFE77846FDF700
:10A3480095F9F3E7EB0661C538B505460C461146A5
:10A358002378012B06D0022B0FD07846FDF786F91B
:10A36800002004E0021D2046FFF794FFA0686B68F8
:10A37800984214BF0020012038BD021D2046FFF777
:10A38800B7FFA068F3E700002DE9F8438846D1F845
:10A39800A850244B1B7863B90646A5F5FA7501F158
:10A3A8000C090121484602F074FA074640B100241E
:10A3B80024E00DF021F9002388F8B830BDE8F883CF
:10A3C8007846FDF753F9F2E70DF016F901214846F2
:10A3D80002F08FFA0023C8F8043088F8B830124B1E
:10A3E800186801F0FFFB4046FFF744FFBDE8F8831B
:10A3F8003846FFF7E9FE204485420CD32A1B39462C
:10A408004046FFF7A1FF0028DED101F017FA841BB0
:10A41800EED5341AECE70DF0EFF84046FFF72AFFC7
:10A42800BDE8F883C0370020BC37002010B50848C5
:10A4380001F0B8FB074B1860002406E0BC20064B6F
:10A4480000FB0430FFF7AEFE0134022CF6D910BD34
:10A4580009A10200BC370020C437002038B50446E3
:10A468000D46022805D8BC22044B02FB0434A56023
:10A4780038BD7846FDF7FAF8F5E700BFC437002085
:10A488002DE9F84306460C469046022847D8002C8A
:10A4980049D02378012B4AD0022B67D07846FDF7A4
:10A4A800E5F8EFF3108772B6BC2505FB06F505F154
:10A4B80008034B4D1D4404350021284602F0E9F9F4
:10A4C8008146002872D00021284602F012FA20683E
:10A4D8006168A268E368C9F80000C9F80410C9F8FF
:10A4E8000820C9F80C30B8F1000F06D0BC233C4A4C
:10A4F80003FB06235B88A8F80030BC23384A03FB1B
:10A5080006235A8801325A8093F8B830002B60D15C
:10A51800344B1B78002B40D00024A14647E07846F6
:10A52800FDF7A4F8B3E77846FDF7A0F8B1E763684C
:10A5380013F0030F0ED1E36813F0030F0ED1A368D5
:10A5480013F0030F0ED1A368002BAAD17846FDF7AC
:10A558008DF8A6E77846FDF789F8ECE77846FDF729
:10A5680085F8ECE77846FDF781F8ECE76368C3F314
:10A578000B0353B9A368C3F30B0353B9A368002BA8
:10A588008FD17846FDF772F88BE77846FDF76EF8BD
:10A59800F0E77846FDF76AF8F0E7BC20104B00FBBF
:10A5A8000630FFF74BFE8146002400E0042407B97B
:10A5B80062B6B9F1000F09D0BC2000FB06F6983648
:10A5C8000748304404300CF0DBFF28B92046BDE8CA
:10A5D800F8830024A146EAE77846FDF747F8F5E74F
:10A5E800C4370020C037002038B50446EFF3108583
:10A5F80072B610B9164B1B6873B18CB1144A136844
:10A6080001331360124B1B68003318BF0123114A32
:10A61800137005B962B638BD7846FDF727F8ECE740
:10A628000B4B1C68013C1C600CB1EBE70134022C9D
:10A63800E8D8BC23084A03FB042393F8B830002B5E
:10A64800F4D1BC2000FB0420FFF714FEEEE700BFA6
:10A65800F8390020C0370020C437002018B1830B18
:10A66800024AD05C70470020704700BFB81504004C
:10A6780012DF704700B583B01378A3B1042B14D14F
:10A68800072110F8013C163B152B31D8DFE803F001
:10A698005930303030303030303030303030303089
:10A6A8003030302E0F3A517DEBE70021E9E70229DF
:10A6B80001D007291CD110F8021C013901F082FED3
:10A6C800B0B1264B1B6813F0400F11D0244B1B6808
:10A6D800012B0DDD234BD3F804350190224A00925B
:10A6E80091222249022002F059FB01E0022902D0FE
:10A6F80003B05DF804FB10F8021C0139C9B212F06E
:10A708007BFAF5E70229F3D110F8021C0139C9B226
:10A7180003F014FE0028EBD0104B1B6813F0400F19
:10A72800E6D00F4B1B68012BE2DD0E4BD3F8043546
:10A7380001900F4A0092A4220C49022002F02EFB3D
:10A74800D6E701884FF6E4639942D1D110F8021C8C
:10A7580003390230FCF7D8FECAE700BF6C2E002090
:10A76800682E00200010014044160400371604002B
:10A778007016040070B58AB00DF082FC002834D041
:10A78800064600238DF8103005AC05460FCD0FC4E2
:10A798002B682360727D052A0DD9337D03F00F03E2
:10A7A800072B08D0307D04AB063A06F11D0100F0F6
:10A7B8000F000CF0F3F9134B1B689BB104AB039328
:10A7C800337DC3F303038DF80430737D062B13D94F
:10A7D800063B8DF8053006F11D030293094B1B68F3
:10A7E80001A8984730460DF02BFC0DF063FC80F073
:10A7F8000100C0B20AB070BD00238DF80530029385
:10A80800ECE700BF003A00200B4B1B78032B00D06D
:10A81800704700B58DB00422074B1A702C22002116
:10A8280001A816F02FFA1B238DF8043001A8FEF7B3
:10A838001BFA0DB05DF804FBFC39002070B582B03E
:10A848002E4B1B781BB10824204602B070BD00288F
:10A8580051D0067A0F2E03D0062E01D00724F3E735
:10A86800054605F0E7FBE86870B1FCF711FF0DF14C
:10A878000700FFF7FDFE04460028E5D19DF80730E4
:10A88800012B04D00224DFE7FCF710FFEFE7FCF709
:10A898002FFF00F0FBFA304601F0A4F8E87800F04A
:10A8A8001BF900F09DFE0CF0F5FD15480DF09EFC1F
:10A8B8000CF00EFBFFF7BAFD04F0A8FD00F0EEFC6B
:10A8C80005F07AFB284601F0DFFC2846FDF708FF73
:10A8D80004F018F9FCF718FE18B1062801D0044650
:10A8E800B2E708480CF03CF90022074B1A60012235
:10A8F800024B1A70A8E70E24A6E700BFFC39002017
:10A908007DA702005C2E0020003A002010B582B01E
:10A918001C4B1B78012B0BD07BB3033B012B2CD892
:10A928000CF01EFE044648BB0222164B1A7025E0A6
:10A938000DF064FB01F0BAFCFDF714FFFCF7E4FD31
:10A948000446B8B1062815D00F4B1B6813F4804F86
:10A9580014D00E4B1B68012B10DD0D4BD3F80435BA
:10A9680001900C4A009240F297120B49022002F023
:10A9780015FA03E001F06EF8D2E70824204602B089
:10A9880010BD00BFFC3900206C2E0020682E00206E
:10A9980000100140BC1504003716040008B50A4B26
:10A9A8001B78022B02D00823184608BD0322064B49
:10A9B8001A7006480CF090FD03460028F4D078463B
:10A9C800FCF754FE0023EFE7FC39002011A8020031
:10A9D80008B5FDF7CBFE08BD08B5FEF76DF908BD53
:10A9E80008B5FEF779F908BD08B500F0BDFD0020EF
:10A9F80008BD08B506F0C8FE08BD0000064A136881
:10AA080001331360B3F1704F02D0034B18687047DD
:10AA18000122014B1A60F8E7043A002010B50446F9
:10AA280018B100232360636010BD7846FCF71EFE52
:10AA3800F7E738B50C46054668B184B10023636072
:10AA4800EFF3108372B62A686AB16A6854606C6062
:10AA580003B962B638BD7846FCF708FEEDE77846DC
:10AA6800FCF704FEEAE72C60F1E710B5044658B19C
:10AA7800EFF3108372B6206808B14268226022683A
:10AA880032B103B962B610BD7846FCF7EFFDEFE7C7
:10AA98006260F6E710B5044608B1206810BD784634
:10AAA800FCF7E4FDF9E735DF7047000008B54FF023
:10AAB800FF30FFF7F8FFBFF34F8F0549CA6802F46C
:10AAC800E062044B1343CB60BFF34F8F00BFFDE739
:10AAD80000ED00E00400FA05072814D8DFE800F0CC
:10AAE800080C1504110F0A066420704714207047DB
:10AAF800FA2070471E2070474FF4FA7070473220D2
:10AB080070474B207047FA20704796207047000026
:10AB1800024B5868103840B2704700BF00ED00E0A3
:10AB2800034600280FDB5B11084A52F823304242E3
:10AB380000F01F0002F01F0258BF504223FA00F035
:10AB480000F00100704700F11F03ECE700E100E0AE
:10AB580046DF7047F8B504460D464B1EDBB2012BA5
:10AB680002D97846FCF782FD002222616261A26167
:10AB7800E2612046FFF7ECFF012612E0C818CA5C24
:10AB88005200D2B2407842EAD012CA5401339BB282
:10AB98000E2BF3DDCB7B5B00CB73002F08DB01367C
:10ABA800F6B2AE420BD8214611F9207F0023EFE719
:10ABB80094F82F3083F0870384F82F30EFE7F8BD3F
:10ABC8002DE9F04190B086460C4694461F4602F1A6
:10ABD8000F0636111FFA86F804AD0068DEF8041077
:10ABE800DEF80820DEF80C300FC50CF00F05B8F1C0
:10ABF800000F02D085B1002300E0002398466BB116
:10AC0800012104A8FFF7A6FFB8F1000F1BD0B0B2CE
:10AC18000138000110230EE00123EFE70221F0E7DD
:10AC2800013B9BB22218D25C10A9194411F8101CE0
:10AC38004A400DF80320002BF2D100250C950D9504
:10AC48000E950F9534E0B1B20139ADB22A4604EB46
:10AC58000111684615F0ECFF80230DF805306B1CD8
:10AC680003E000220DF8032001330F2BF9DD102338
:10AC78000AE0013B9BB21DF8032010A9194411F802
:10AC8800101C4A400DF80320002BF2D1D5E7013BF8
:10AC98009BB210AA1A4412F8102C2118C95C4A4019
:10ACA80008A9CA54002BF2D104A8FFF751FF0135B7
:10ACB800B3B2013B9D4202DA28011023F2E71023C8
:10ACC8000AE0013B9BB210AAD11811F8402C11F8E8
:10ACD800101C4A4008A9CA54002BF2D104A8FFF757
:10ACE80037FF0CAC0FCC38607960BA60FB6010B0ED
:10ACF800BDE8F08110B50446144B1B684BB14068A1
:10AD0800124B1B685B68C31A002B02DB0F4B1968D8
:10AD180005E00E4B1A6862611C6008E019464B6931
:10AD28001BB15A68121A002AF8DB63614C61074AA2
:10AD380093889BB201339BB2938013B10123237094
:10AD480010BD7846FCF792FCF8E700BF0C3A0020EB
:10AD580038B5054619E06369214A13600023636129
:10AD680093889BB2591E89B291800BB3A3681BB319
:10AD780002232370A36821692846984700F010F938
:10AD880005462378DBB2022B1AD0154B1B6833B368
:10AD9800134B1B685B685B1B642B20D5104B1C682E
:10ADA8002378DBB2012BD6D07846FCF75FFCD2E7DC
:10ADB8007846FCF75BFCD9E77846FCF757FCD7E701
:10ADC800E26812B900232370DFE763681344636005
:10ADD8005B1B642BF9D42046FFF78CFFD5E738BD01
:10ADE8000C3A002010B50446144B1B68834207D068
:10ADF800124B1B68D3B15A6994420ED01346F9E737
:10AE080043690E4A136093889BB2591E89B2918098
:10AE180063B97846FCF72AFC08E062695A61074979
:10AE28008B889BB25A1E92B28A8013B1002323707A
:10AE380010BD7846FCF71AFCF8E700BF0C3A002072
:10AE480008B5064B1B6833B1044B1B6804495868A6
:10AE580000F054F908BD00F0AFF908BD0C3A002025
:10AE680085AE020008B500F09BF8FFF771FF00F00F
:10AE780097F8FFF7E5FF012008BD000008B5024B71
:10AE8800186800F0AFFE08BD083A002008B5064B68
:10AE980000221A605A60054800F084FE044B1860CE
:10AEA80000F071F808BD00BF0C3A00206DAE02003A
:10AEB800083A002010B5044600F068FF80B19CB144
:10AEC800A368ABB12378DBB2012B15D000236361F3
:10AED8002046FFF70FFF00F063F8FFF7B1FF10BD42
:10AEE8007846FCF7C3FBEAE77846FCF7BFFBE7E7E1
:10AEF8007846FCF7BBFBE5E77846FCF7B7FBE5E7E8
:10AF080010B5044600F042FF50B16CB12046FFF77F
:10AF180069FF0023636100F043F8FFF791FF10BD5C
:10AF28007846FCF7A3FBF0E77846FCF79FFBEDE7D4
:10AF380038B504460D4600F029FF70B18CB12046A3
:10AF4800FFF750FF0023636165602046FFF7D2FEDC
:10AF580000F026F8FFF774FF38BD7846FCF786FB4B
:10AF6800ECE77846FCF782FBE9E70378DBB2012BD4
:10AF780007D00378DBB2022B01D0002070470120F4
:10AF880070470120704708B515F01EFD00B108BDD7
:10AF980015F08EFC0028FAD07846FCF767FBF6E738
:10AFA80030B4EFF3108172B6184B1A68184BD3F807
:10AFB8000445D3F80431012B23D001B962B644EA21
:10AFC8000264204600216201E30E121B63EB0103B9
:10AFD8005C0244EAD25455022A1844EB01039D014D
:10AFE80045EA92659401A21A65EB030312184B41D6
:10AFF80012F5804243F10003D00B40EA434030BCD5
:10B008007047034BD3F804450132D6E7143A0020C1
:10B018000010014010B50A4B4FF40032C3F8482322
:10B02800C3F80823074B1B682BB1064B1C68FFF7B6
:10B03800B7FFA04710BD7846FCF718FBF5E700BF3F
:10B0480000100140203A0020EFF3108372B600216F
:10B05800254AC2F8041125490A6801320A6003B971
:10B0680062B6234B1B68002B3DD0214B1A68013A6E
:10B078001A601B68002B36D103F1804303F588332F
:10B08800D3F804251B4B1B689A421ED2EFF310829B
:10B0980072B6154BD3F804350133164909688B424B
:10B0A80010D3114BD3F8043502330F49C1F8443596
:10B0B80002B962B60C4B4FF40032C3F84423C3F80C
:10B0C800042370470B4B1B68EFE710B50A4B1B684E
:10B0D8002BB1094B1C68FFF763FFA04710BD7846EA
:10B0E800FCF7C4FAF5E7704700100140143A002055
:10B0F800183A00201C3A0020203A002030B583B0CE
:10B108000446002301930D46002935D0244B1D60C9
:10B11800FFF746FF031B002B32DB0023590CD80333
:10B12800204A0023204C00250019694115F052FCE3
:10B13800EFF31083019372B61C4BD3F80435022841
:10B1480038BF0220C3F1FF1202F57F42904219D89E
:10B158000344164AC2F844354FF40033C2F8443366
:10B16800C2F804330023124A1360124A1360019B89
:10B1780003B962B603B030BD7846FCF777FAC5E785
:10B18800231ACBE7034403F17F4301331A0E01323C
:10B1980007490A6023F07F43064A1360E7E700BFC8
:10B1A800203A002040420F0020A107000010014073
:10B1B800183A00201C3A0020074B4FF40032C3F81D
:10B1C8004823C3F808230023044A1360044A136081
:10B1D800044A1360704700BF00100140183A00206D
:10B1E8001C3A0020203A002030DF704731DF7047DA
:10B1F80010B4034600685A68A0EB72109C6882EA93
:10B20800F4321A60D9680C445C60014499601044B7
:10B21800D8605DF8044B704770B582B00D4606469D
:10B2280008B100240BE07846FCF720FAF9E79DF80E
:10B2380007103019FFF7DAFF9DF807301C44AC42BD
:10B248000DD20DF10700FFF7CFFF9DF80730002B57
:10B25800F7D02A1B9342EAD98DF80720E7E702B016
:10B2680070BD000030B583B00546002402A840F840
:10B27800044D0421FFF7D0FF074B2B60019B6B6047
:10B28800AB60EB6003E02846FFF7B2FF0134132CF4
:10B29800F9D903B030BD00BFED5EEAF1704748DF71
:10B2A800704749DF70474ADF70470000044B0122AE
:10B2B8005A7143F2B0629A6043F69822DA60704796
:10B2C800703A0020094B03221A74094A5A611A6815
:10B2D80040F6D8639A4204D840F6D862044B9A6084
:10B2E800704743F2B062024B9A607047503A0020B0
:10B2F800703A002008B50F4B1B78022B12D0032B95
:10B3080008D0012B03D07846FCF7B0F90EE00223F1
:10B3180003740BE0084B00225A71084999600849E8
:10B32800D960827103230374034B43610022014BEC
:10B338001A7008BD813A0020703A0020A0860100EA
:10B34800FF1FA10738B50446002505740123437182
:10B358000E4A13680133136000F0CEFA0CF0BEF900
:10B3680023680B4A1168283101FB03F1094AA2FB43
:10B378000121A3EB9141084A7839284600F038FAB0
:10B3880000B938BD7846FCF771F9FAE7843A00202D
:10B398006C3A002083DE1B43CDB2020010B5044690
:10B3A80000238360C36003680D4A92680260817954
:10B3B80091B10121017403B90A4B991A6161B1F580
:10B3C8007A7F01D3934202D24FF47A736361FFF715
:10B3D8006DFF0123A37110BDFFF7B4FFF7E700BFAE
:10B3E800703A00208096980010B50C4631B1C368B9
:10B3F8000133C360426903681344036083680133FF
:10B40800836001220274426952084261012B0DD007
:10B41800022B19D042690368134417498B4222D87A
:10B4280040F6D7639A4221D800231DE0B2F5FA7F8F
:10B4380005D040F6D8639A42ECD84361EAE7002C7D
:10B44800F7D100234361E5E7C368022B06D0012B3F
:10B45800E0D1002CDED100234361DBE70268064B14
:10B468009B1A4361D6E7002313B110BD0123FBE704
:10B47800FFF768FFF9E700BF8096980043791BB98A
:10B4880000220D4B1A70704710B504460CF042F9B3
:10B4980020680A4B1B68283300FB03F3084AA2FB09
:10B4A8000323A0EB9340783800F056FA0023637129
:10B4B8000022014B1A7010BD803A00206C3A00201F
:10B4C80083DE1B4308B50122244B1A71244B1B78D9
:10B4D80013B1244B1B781BB30022204B1A74042889
:10B4E8001AD8DFE800F00314110C07001B48FFF717
:10B4F80055FF1CE001211948FFF776FF17E00021EE
:10B508001648FFF771FF12E00CF09CF80FE000F00E
:10B51800B5F90CF0D1F80AE07846FCF7A7F806E090
:10B5280000F08CF90D4B18601846FFF7E3FE0B4B43
:10B538001B7C023BDBB2012B08D9084B1B7C022B7E
:10B5480008D0064800230371103008BD0348FFF7F0
:10B5580095FFF2E70122014B1A76F2E7503A0020F4
:10B56800813A0020803A002008B50438042808D819
:10B57800DFE800F01A2816031000174B1B7E012B7A
:10B5880000D008BDFFF78DFE0028FAD07846FCF7FA
:10B598006DF808BD0022104B1A760CF0DFF808BDD4
:10B5A8007846FCF763F808BDFFF780FE0B4840F6C5
:10B5B800D8638360FFF777FE0028E2D07846FCF76F
:10B5C80055F808BD0548FFF76EFE0028D9D0784623
:10B5D800FCF74CF8D5E700BF503A0020703A00203D
:10B5E80010B40E4A0023137013710121517143F2F4
:10B5F800B064946043F69824D460094A1060094AFC
:10B608001370094A1370094A1360094A1371537178
:10B618001360137691715DF8044B7047703A0020FF
:10B628006C3A0020803A0020813A0020843A0020B9
:10B63800503A002008B5104B1B7E012B08D01BB1D7
:10B64800022B16D1112008BD0C48FFF728FE40B97F
:10B658000B48FFF728FE40B90222074B1A76002054
:10B6680008BD7846FCF702F8F2E77846FBF7FEFFDC
:10B67800F2E7002008BD00BF503A0020CDB4020018
:10B68800703A00200B4B1B7C023BDBB2012B0BD921
:10B69800094B1B78012B09D0022B09D0032B01D0B1
:10B6A8000020704701207047012070470120704733
:10B6B80001207047503A0020813A0020014B186859
:10B6C800704700BF503A00200D4B5B790BB9002042
:10B6D800704710B50A4B1C680A4B1B68283303FBDC
:10B6E80004F3094AA2FB0323A4EB9344783C00F03B
:10B6F800A5F80346201A00D410BD181B10BD00BFC2
:10B70800503A00206C3A002083DE1B43014B187925
:10B71800704700BF503A0020024B187E003018BF17
:10B7280001207047503A0020EFF3108372B6054AA3
:10B73800527922B14FF48071034AC2F8001103B95B
:10B7480062B67047503A002000E100E008B5054BAA
:10B758001B7E022B00D008BD0122034B1A70FFF795
:10B76800E3FFF8E7503A0020813A002008B5074B7C
:10B778001B7E022B00D008BD012805D00222044BF5
:10B788001A70FFF7D1FFF6E70322F8E7503A0020D6
:10B79800813A002008B5094B1B782BB148B9084BF2
:10B7A8001B7813B1012300E00023044A107013B979
:10B7B80008BD0023F9E7FFF7B7FFF9E7803A002053
:10B7C800813A002010B4094B00F15002002443F8DC
:10B7D800224000F110040122A240C3F8042300F51E
:10B7E800A87043F820105DF8044B704700800040B3
:10B7F800022801D90720704710B5EFF310830B4CCE
:10B80800236072B60A4B43F820200022094B43F804
:10B818002020094B1B7823B9044B186820B962B65D
:10B8280010BDFFF7CFFFF7E7002010BD983A0020C2
:10B83800883A0020A43A0020943A0020EFF31083BD
:10B848000A4A136072B60A4B1B7863B1094B00228F
:10B85800C3F84C210122DA64D3F84C05034B1B686A
:10B8680003B962B67047044B1868F7E7983A0020A6
:10B87800943A0020008000409C3A00202DE9F041D5
:10B88800002411E00027174B43F82470012303FA22
:10B8980005F5154EC6F80853FFF7D0FFC04704F169
:10B8A800500346F823700134022C18D804F15003D1
:10B8B8000D4A52F82330002BF5D0D2F8043304F1A6
:10B8C8001005EB4013F0010FEDD0064B53F8248020
:10B8D800B8F1000FD6D17846FBF7C8FED2E7BDE82D
:10B8E800F08100BF883A002000800040014B1B68AF
:10B8F80018447047A03A002010B500230CE0114A04
:10B9080003F5A871002042F8210003F1500142F824
:10B91800210052F821200133022BF0D90A4B1B6871
:10B928001BB94FF48072094B1A600122084B1A7038
:10B93800FFF736FB0446FFF781FF201A054B186016
:10B9480010BD00BF00800040983A002000E100E0F0
:10B95800943A0020A03A0020002307E000220C4976
:10B9680041F823200B4941F823200133022BF5D954
:10B97800094B18600022094B1A704FF0FF32084B30
:10B98800C3F808234FF48072064BC3F88021704730
:10B99800883A0020A43A00209C3A0020943A0020DB
:10B9A8000080004000E100E008B503783BB1012BBE
:10B9B80009D143683BB1C1688068984708BD4368AE
:10B9C8000BB18068984708BD044B1B780F2B04D037
:10B9D8004FF48022024BC3F800217047F83B002047
:10B9E80000E100E010B5164C20701648164B0360B5
:10B9F800102343608360FDF793FF1448FFF70EF8A8
:10BA080023780F2B11D0072B06D8EC221A4112F0FD
:10BA1800010F0BD1002200E000224AB15B01DBB22A
:10BA28000B4A82F8123300232BB910BD0122F4E728
:10BA380042F20203F8E77846FBF718FEF5E700BF85
:10BA4800F83B0020B03A0020C43A0020FC3B00201C
:10BA580000E100E008B5144B1B780F2B0DD0134BF9
:10BA680093F812335A09EC23134113F0010F05D14F
:10BA780000232BB942F2020393B908BD0123F8E76A
:10BA88000B4B9B682BB94FF48022084B1A6000239C
:10BA9800F2E7074A136843F4802313600023EBE7B7
:10BAA8007846FBF7E3FDE8E7F83B002000E100E01B
:10BAB8003855002038B5EFF3108472B6194A136868
:10BAC800591C116003BB184B1B780F2B1CD0EFF3CC
