:020000022000DC
:1060000000F0002071630200596302005B6302002C
:106010005D6302005F630200616302000000000034
:1060200000000000000000000000000063630200A8
:1060300065630200000000006763020069630200FC
:106040006B6302006B6302006B6302006B63020010
:106050006B6302006B6302007D8902006B630200C8
:106060006B6302006B630200E96E03006B63020066
:106070006B6302006B6302006B6302006B630200E0
:106080006B63020039F8030039D202006B6302002F
:106090009DF803006B630200459703006B630200E9
:1060A0006B6302006B6302006B6302006B630200B0
:1060B0006B6302006B630200000000000000000040
:1060C0006B6302006B6302006B6302006B63020090
:1060D0006B6302006B6302006B6302000000000050
:1060E00000000000000000000000000000000000B0
:1060F00000000000000000000000000000000000A0
:10610000000000000000000000000000000000008F
:10611000000000000000000000000000000000007F
:10612000000000000000000000000000000000006F
:10613000000000000000000000000000000000005F
:10614000000000000000000000000000000000004F
:10615000000000000000000000000000000000003F
:10616000000000000000000000000000000000002F
:10617000000000000000000000000000000000001F
:10618000000000000000000000000000000000000F
:1061900000000000000000000000000000000000FF
:1061A00000000000000000000000000000000000EF
:1061B00000000000000000000000000000000000DF
:1061C00000000000000000000000000000000000CF
:1061D00000000000000000000000000000000000BF
:1061E00000000000000000000000000000000000AF
:1061F000000000000000000000000000000000009F
:10620000354936480A1A02D0072291438D4634494F
:1062100034480A1A06D00722914381F309880222E2
:1062200082F3148830483149314A00F043F831484C
:106230003149324A00F03EF831483249324A00F0E2
:1062400039F832483249334A00F034F83248334999
:10625000334A00F02FF833483349344A00F02AF823
:1062600033483449344A00F025F834483449002290
:1062700000F02BF833483449002200F026F8334868
:106280003349091A082903DB002202600430016047
:106290001F482049884205D00268043003B4904763
:1062A00003BCF7E700208646EC4600200021294A7F
:1062B0009047FEE7884207D0521A05D00378013094
:1062C0000B700131013AF9D17047884202D0027057
:1062D0000130FAE77047000000F0002000E80020DD
:1062E00000F0002000F00020B81E0400A02D0020C7
:1062F000CC2E0020A8630200A86302007CFD0300EE
:10630000B81E0400A02D0020A02D00204CFE03008C
:106310004CFE03004CFE03004CFE03004CFE030049
:106320004CFE03004CFE03004CFE0300B61E0400AE
:10633000E41F0400CC2E0020CC2E0020CC2E002008
:10634000545400205454002054540020545400202D
:10635000545800204D720200FEE7FEE7FEE7FEE71C
:10636000FEE7FEE7FEE7FEE7FEE7FEE7704700BF59
:106370000948804709484FF0070188438546084887
:1063800080470848016841F470010160BFF34F8FF6
:10639000BFF36F8FFFF734BF6D63020000F0002082
:0863A000299A030088ED00E0DA
:1063A80041DF704708B5804708BD000008B5034ABB
:1063B8007D21032013F05EFC08BD00BF100204001D
:1063C8000B7823BB124B1B6813F4804F1FD0114B63
:1063D8001B68032B1BDD10B584B00F4BD3F80435B5
:1063E8004A685088097B5269147874B992F90D206B
:1063F800039202910190094A009240F24912084919
:10640800042007F08BFE04B010BD0022F0E77047AF
:10641800402E00203C2E00200010014040FF0300C9
:106428007B02040030B5C7B0734B1B6813F4804F70
:1064380003D0724B1B68032B31DC6F4B1B6813F4C2
:10644800804F03D06D4B1B68032B34DC6A4B1B68F1
:1064580013F4804F03D0694B1B68032B68DC664B31
:106468001B6813F4804F04D0644B1B68032B00F3A4
:106478008A80614B1B6813F4804F04D05F4B1B6804
:10648800032B00F3AB805C4B1B6813F4804F04D0E4
:106498005A4B1B68032B00F3A38047B030BD584B01
:1064A800D3F80435574A00924FF415725649042020
:1064B80007F034FEC1E7524BD3F80435534A11882C
:1064C8005088D288039202900191514A009240F27A
:1064D80056224D49042007F021FEB7E74B4A1A44DB
:1064E80092F82C2059004B4804681009255C05A82F
:1064F80000F81350013102F00F02A25C425401333C
:106508000F2BEBD905AA00238DF8343003F1804313
:1065180003F58833D3F8043502923F4A01923F4A83
:10652800009240F257223849042007F0F7FD96E719
:106538000023E5E7354A1A44127B590035480468B8
:106548001009255C05A800F81350013102F00F026C
:10655800A25C425401330F2BECD905AA00238DF815
:10656800343003F1804303F58833D3F804350292BD
:106578002B4A0192294A00924FF4167222490420AC
:1065880007F0CCFD75E70023E5E7204A1A44127F9F
:106598005900204804681009255C05A800F8135024
:1065A800013102F00F02A25C425401330F2BECD9E7
:1065B80005AA00238DF8343003F1804303F58833AE
:1065C800D3F804350292174A0192144A009240F215
:1065D80059220D49042007F0A1FD54E70023E5E7FF
:1065E800074BD3F80435104A009240F25A22064964
:1065F800042007F093FD50E7402E00203C2E002099
:1066080000100140E0FF03007B020400102F00206F
:10661800FCFF0300442E0020400004004C0004004E
:1066280054000400600004006C00040003780E2B82
:1066380022D100B583B0114B1B6813F4804F03D0EF
:106648000F4B1B68042B05DC0E4B1B7873B103B092
:106658005DF804FB0C4BD3F804350C4A00924FF458
:10666800D3720B49052007F059FDEDE7FFF7DAFE75
:106678000122044B1A70EAE7704700BF402E002041
:106688003C2E00204C2F00200010014078FF030012
:106698007B0204000C4B1B6813F4804F03D00B4B98
:1066A8001B68032B00DC704700B583B0084BD3F898
:1066B8000435084A009289220749042007F02EFD74
:1066C80003B05DF804FB00BF402E00203C2E0020E4
:1066D80000100140840204007B02040000B583B06E
:1066E800194B1B6813F4804F03D0184B1B68032BFE
:1066F80012DC174B4FF6FF725A809A801A801548A1
:1067080015F0D2FCA0B9144A0021144818F0A8FDCD
:10671800A0B903B05DF804FB114BD3F80435114A56
:1067280000924FF401721049042007F0F7FCE0E7EB
:106738000E4A4FF4037113F09DFAE4E70B4A40F256
:106748000D2113F097FAE4E7402E00203C2E00209C
:10675800CC2E002079670200C9630200D42E0020E5
:1067680000100140340304007B02040010020400FE
:1067780070B582B004460D4616460E4B1B6813F4DE
:10678800804F03D00C4B1B68032B06DC324629468E
:10679800204601F0AFFE02B070BD084BD3F80435B7
:1067A800074A00924FF4AF720649042007F0B6FC7E
:1067B800ECE700BF402E00203C2E002000100140D6
:1067C80064FE03007B02040000B583B0104B1B6815
:1067D80013F4804F03D00F4B1B68032B08DC0021F8
:1067E8000D4B1970122002F013F803B05DF804FB8A
:1067F8000A4BD3F804350A4A52880192094A009292
:1068080040F223120849042007F088FCE7E700BF9C
:10681800402E00203C2E00200C2F002000100140AC
:10682800102F00207CFE03007B02040000B583B01B
:106838000E4B1B6813F4804F03D00D4B1B68032BC2
:1068480008DC00210B4B1970082001F0E1FF03B0B0
:106858005DF804FB084BD3F80435084A00924FF45E
:106868009A720749042007F059FCEAE7402E0020F5
:106878003C2E00200C2F00200010014094FF030044
:106888007B02040010B582B00446164919F01AFAC2
:1068980018B31549204619F015FA08B313492046CC
:1068A80019F010FA08B9124818E0124B1B6813F4D3
:1068B800804F0DD0104B1B68002B09DB0F4BD3F812
:1068C80004350F4A0092FC220E49002007F026FCEE
:1068D800784602F095F9002000E00B4802B010BDA0
:1068E8000948FBE790030400AC030400C803040054
:1068F80070030400402E00203C2E002000100140B0
:10690800E80304007B0204005403040000B583B0CC
:10691800614B1B78002B40F0A780604B5A881B887E
:106928009A4227D25E4B1B6813F4804F03D05D4B0D
:106938001B68032B12DC594A908893680093002344
:106948001C32022101F02EFE0121122001F060FF0D
:106958000122514B1A7003B05DF804FB524BD3F877
:106968000435524A00924FF4B8725149042007F096
:10697800D5FBE0E713BB4A4B1B6813F4804F03D0E9
:10698800484B1B68032B0DDC03234A4A4349C9883B
:10699800022000F0EBFF01F027F80121082001F0A8
:1069A80037FFD5E7404BD3F80435434A00924FF4FC
:1069B800BD723F49042007F0B1FBE5E71E2B3ED826
:1069C800374B1B6813F4804F03D0364B1B68032BDF
:1069D8001CDC324B9868FFF755FF384B1860304B7A
:1069E8001B6813F4804F03D02E4B1B68032B19DC54
:1069F8000123324A2949C988022000F0B7FF00F074
:106A0800F3FF0121082001F003FFA1E7264BD3F88B
:106A180004352B4A00924FF4C3722549042007F02D
:106A28007DFBD6E7204BD3F804350190254A009228
:106A38004FF4C5721E49042007F070FBD8E7184BC5
:106A48001B6813F4804F86D0164B1B68032B82DD1E
:106A5800154BD3F804351C4A009240F2931214499E
:106A6800042007F05BFB76E70D4B1B6813F4804F9F
:106A78003FF471AF0B4B1B68032B7FF76CAF0A4BCE
:106A8800D3F80435114A009240F29B1208490420B9
:106A980007F044FB5FE700BF0C2F0020102F0020F9
:106AA800402E00203C2E0020001001401801040058
:106AB8007B020400DC2D00204C010400542F002030
:106AC8007C010400AC010400C4010400E0010400DE
:106AD80010B582B01446154B1B6813F4804F03D0D1
:106AE800134B1B68032B07DC012C10D0022C12D08F
:106AF800032C14D002B010BD0E4BD3F804350E4A47
:106B080000926D220D49042007F008FBECE7784657
:106B180002F076F8EAE7784602F072F8E8E7084A01
:106B28007621042013F0A6F8E4E700BF402E0020E9
:106B38003C2E0020001001409C0204007B0204004F
:106B48001002040008B53C220021064819F086F816
:106B5800054808F031F800B908BD044808F0CCFA37
:106B6800FAE700BF102F0020E82E0020CC2D0020CF
:106B780010B582B00446294B1B6813F4804F03D02C
:106B8800274B1B68032B04DC8CB1032C12D002B0FA
:106B980010BD244BD3F80435421C0192224A0092BE
:106BA8004FF4EE722149042007F0B8FAECE7FFF73A
:106BB800ADFEECE7194B1B6813F4804F03D0184B5C
:106BC8001B68032B1EDCFFF7BDFF0AF008FB04223D
:106BD800C8214FF4807001F037FE104B1B6813F486
:106BE800804FD4D00E4B1B68032BD0DD0D4BD3F850
:106BF80004350F4A00924FF4F8720C49042007F04C
:106C08008DFAC4E7074BD3F804350A4A00924FF4CB
:106C1800F5720649042007F081FAD4E7402E0020D7
:106C28003C2E002000100140B00004007B0204004C
:106C3800DC000400C400040008B5A0F13003042BF4
:106C480000D908BD1846FFF793FFFAE7F8B53C22CC
:106C58000121104808F0E5F8B8B107460E4C051DAB
:106C680004F1300E26460FCE28606960AA60EB60FA
:106C7800344610357645F5D107CC28606960AA609E
:106C8800384608F007F90020F8BD044808F034FA3F
:106C9800F9E700BFE82E0020102F0020B02D0020BB
:106CA80010B582B02E4B1B6813F4804F03D02D4BC8
:106CB8001B68032B20DC0021122001F0A9FD2A4AC1
:106CC8005388013353800BF041F9FFF7BFFF10BB26
:106CD800254B5B881E2B24D9214B1B6813F4804F4E
:106CE80003D0204B1B68032B2DDC0422C8211F482E
:106CF80001F0AAFD02B010BD1D4BD3F804351A4AA5
:106D0800528801921B4A009240F207121A49042045
:106D180007F004FACFE7194A40F20D1112F0AAFF62
:106D2800D6E7114CA068FFF7ADFD154A10600123A6
:106D3800E188022000F01AFE00F056FE012108202A
:106D480001F066FDD6E70A4BD3F804350D4A0092E8
:106D580040F21B120849042007F0E0F9C5E700BF1C
:106D6800402E00203C2E0020102F0020000104009F
:106D780000100140D8FE03007B020400100204004A
:106D8800502F0020C401040000B583B0144B1B68C9
:106D980013F4804F03D0134B1B68032B0DDC002129
:106DA800082001F035FD0121122001F031FDFFF727
:106DB8004DFF70B903B05DF804FB0B4BD3F80435F5
:106DC8000A4A00924FF495720949042007F0A6F97F
:106DD800E5E7084A40F22F1112F04CFFEAE700BF3E
:106DE800402E00203C2E002000100140C4FF03006C
:106DF8007B0204001002040008B5FFF727FF00B962
:106E080008BD024AEE2112F035FFF9E7100204002E
:106E180010B582B00446104B1B6813F4804F03D0A2
:106E28000E4B1B68032B04DC23781C2B0FD002B0FD
:106E380010BD0B4BD3F8043502780192094A009231
:106E48004FF4A9720849042007F068F9ECE700201C
:106E580005F084F8EBE700BF402E00203C2E002010
:106E680000100140BCFE03007B02040000B58BB09B
:106E780008A909A80AF0FCF9A8B9194B0593194BF8
:106E88000693194B079304230493099BA3F5805396
:106E980002930123039302A9144808F0DEF838B9D5
:106EA8000BB05DF804FB124A962112F0E3FEE4E70A
:106EB800104808F021F9104B1B6813F4804FEFD0ED
:106EC8000E4B1B68002BEBDD0D4BD3F804350D4A38
:106ED8000092A3220C49012007F020F9E0E700BF47
:106EE800D96A0200B56302009D660200E82E002000
:106EF80010020400A02D0020402E00203C2E00206F
:106F08000010014014FF03007B02040010B582B09A
:106F180002AB3C2243F8042D084A0121084807F037
:106F280041FF044620B9B4FA84F0400902B010BD0C
:106F38003C220021014818F091FEF4E7102F0020B0
:106F4800E82E002010B582B0FFF790FFFFF7DEFFB4
:106F5800044658B1144B1B6813F4804F03D0134BED
:106F68001B68032B13DC204602B010BD104B002217
:106F78001A805A804FF48072DA80FFF767FE002883
:106F8800F1D00C4A40F2D11112F074FEEBE70A4B33
:106F9800D3F80435094A009240F2D5120849042072
:106FA80007F0BCF8DFE700BF402E00203C2E002091
:106FB800102F0020100204000010014000FF030001
:106FC8007B02040010B582B06421164801F0C0FBB2
:106FD800154B1B6813F4804F03D0144B1B68032B0D
:106FE8000EDC04F00BFFB8B9114C0021204601F06B
:106FF80020FC0222C821204601F026FC02B010BD68
:107008000C4BD3F804350C4A00924FF418720B4914
:10701800042007F083F8E4E7094A40F2662112F0F9
:1070280029FEE1E7416C0200402E00203C2E0020A2
:107038000001040000100140040404007B02040065
:107048001002040008B5124B998818890BF0ACFFA0
:1070580058B90F4B998818890CF06AF858B90C4B35
:10706800188817F045FE60B908BD0A4A40F2BD11FC
:1070780012F000FEEDE7074A4FF4DF7112F0FAFD57
:10708800EDE7044A40F2C11112F0F4FDECE700BF4D
:10709800CC2E00201002040030B593B02422002129
:1070A80008A818F0DBFD01238DF8203007238DF8A0
:1070B800233006238DF828302F4B0C932F4B109339
:1070C8000DF1470108A80AF0A1F858BB2C4804F0B4
:1070D800E1FEFFF737FF2B4B187602AC2A4D0FCD98
:1070E8000FC495E8030084E8030002A800F012FD2D
:1070F8009DF8473043BB254B1B6813F4804F03D0E2
:10710800234B1B68032B13DC00F02CFDFFF79AFFC1
:107118000AF01CFFFFF770FE1E491F4801F0F2FA43
:1071280013B030BD1D4A40F21A2112F0A3FDCDE77D
:107138001B4BD3F804351B4A00924FF40C721A49C2
:10714800042006F0EBFFDFE7104B1B6813F4804FB9
:1071580003D00F4B1B68032B02DC00F077FCDBE746
:107168000F4BD3F80435114A009240F239220E49E8
:10717800042006F0D3FFF0E7196E0200E56602006E
:10718800C02D0020CC2E00204CFE0300402E0020F5
:107198003C2E0020D1670200A96C020010020400F6
:1071A80000100140E80204007B02040020030400F0
:1071B80000B583B01B4A04214FF4C04006F092FF8B
:1071C800194B1B6813F4804F03D0184B1B68032B13
:1071D8000FDC18F063FBC0B901F06EFB144801F036
:1071E8009DFBC0B901F004FCFFF756FF03B05DF842
:1071F80004FB104BD3F804350F4A009240F24322A7
:107208000E49042006F08AFFE3E70D4A40F24521C3
:1072180012F030FDE0E70A4A40F2492112F02AFD57
:10722800E0E700BFC1E00200402E00203C2E002015
:10723800796B020000100140B40204007B020400D4
:107248001002040008B5FFF7B3FFFFF7BBFEFFF716
:10725800A7F8FCE71D4B1B781BB101221B4B1A70CA
:10726800704700B587B01A4A03AB07CA03C323F8AF
:10727800022B120C1A701749174813F081F8B0B98D
:10728800164B009303AB134A1349154813F034F80F
:1072980090B9144814F05EFC0146114813F058F8F0
:1072A80078B90122094B1A7007B05DF804FB0E4A41
:1072B800772112F0DFFCE3E70B4A782112F0DAFCC1
:1072C800E7E7094A792112F0D5FCEAE79432002071
:1072D800100404005C2F00209832002095730200EF
:1072E800443100207C2F00206C070400B0B130B579
:1072F80085B00546A1B10C46084618F00BFD6A4654
:1073080081B2204606F0A4F804226946284618F0FF
:107318005BFCB0FA80F0400905B030BD0020704732
:107328000020F9E770B58AB006460023039304935A
:1073380005930693079308938DF824300F4D2B89F6
:10734800ADF81C300E4B1B88ADF8223003AC6B68CF
:1073580053F80C0F59689A68DB680FC4AA7A01239E
:10736800009303AB3146074813F00EF808B90AB08A
:1073780070BD054A6E2112F07DFCF8E77C320020D2
:10738800DA320020443100206C07040070B5C8B020
:10739800044603780A2B10D8DFE813F00B00C60266
:1073A800C4000F000F000F000F006F020F00120241
:1073B8009001944B1B78012B01D048B070BD924BC3
:1073C8001B6813F4804F03D0904B1B68032B50DCD1
:1073D800E269137843B98C4B1B6813F4804F03D0D0
:1073E8008A4B1B68032B46DC637D002BE5D0864B5C
:1073F8001B6813F4804F03D0844B1B68032B6FDC8E
:107408000025834B1B789D42D7D2AE00814B1B6869
:1074180053F8251004F11600FFF768FF002861D122
:107428000135EEE7E218127959007B480568100922
:107438002E5C07A800F81360013102F00F02AA5C65
:10744800425401330F2BEDD907AA00238DF83C30A5
:1074580003F1804303F58833D3F8043502926F4A69
:1074680001926F4A00928A226E49042006F056FE65
:10747800AEE70023E6E76C4BD3F8043592F90D200C
:1074880001926A4A00928E226649042006F046FE5E
:10749800AAE7E218927D59005F48056810092E5C3A
:1074A80007A800F81360013102F00F02AA5C4254E9
:1074B8000133032BEDD907AA00238DF8243003F1FB
:1074C800804303F58833D3F804350292584A019271
:1074D800534A009293225349042006F01FFE8FE777
:1074E8000023E6E7484B1B6813F4804F03D0474B53
:1074F8001B68032B0BDC474B1B689A594D4B1A60D2
:10750800201DFFF70FFF03223E4B1A7055E7464B2D
:10751800D3F80435484A009299224249042006F0DB
:10752800FDFDE8E7384B1B6813F4804F03D0374B59
:107538001B68032B34DC334B1B78032B41D0022B05
:107548007FF43BAF3D4B5B683D4A118899801A88B0
:1075580001321A80DA883B4800880244DA80B1F5A3
:10756800807F00F09680354CE368984723699847F8
:10757800254B1B6813F4804F04D0244B1B68032B46
:1075880000F38B802D4B5A689088936800930023F2
:107598001C32022101F006F800221A4B1A700CE77F
:1075A800214BD3F80435284A12780292154A1278EA
:1075B8000192264A0092A6221A49042006F0AEFD3E
:1075C800B9E7214B1B78002B44D00F4B1B6813F4F1
:1075D800804F03D00D4B1B68032B07DC0122094B9E
:1075E8001A70194A1378013B1370E6E60E4BD3F86C
:1075F8000435174A0092AB220A49042006F08EFD92
:10760800ECE700BF78320020402E00203C2E0020FE
:10761800DE320020E4320020442E00203004040032
:107628004C000400D707040000100140380404008F
:1076380044040400E0320020500404007C3200209E
:10764800DA320020DC320020D83200207404040032
:10765800BC0404009D4B1B6813F4804F12D09C4B54
:107668001B68002B0EDD9B4BD3F80435227A9A4910
:10767800098802910192994A0092B2229849012000
:1076880006F04CFD0022974B1A70974B5B699847A0
:1076980093E6964A12689A6065E78E4BD3F80435EC
:1076A800626892889249098802910192914A0092EF
:1076B800C4228B49042006F031FD63E7834B1B6825
:1076C80013F4804F03D0824B1B68032B4EDC02223D
:1076D800844B1A707D4B1B6813F4804F03D07C4B8E
:1076E8001B68032B4DDCE3688349D88A0DF08CFEB8
:1076F800002851D1E0687C4B1968804BA268498802
:10770800C08A0EF0C5FB00284BD17C4B188814F0BA
:1077180047FD00284AD1784B1988784B188814F00F
:10772800F1FC002847D1694B1B6813F4804F3FF4E4
:1077380044AE674B1B68032B7FF73FAE654BD3F80E
:107748000435E268D28A6849096849886B48008824
:10775800049003916849098802910192684A00924D
:10776800E5225F49042006F0D9FC26E6594BD3F8F8
:107778000435644A0092CF225949042006F0CEFC11
:10778800A5E7544BD3F804355F4A0092D4225449F4
:10779800042006F0C3FCA6E75C4AD62112F06AFA78
:1077A800A8E75A4ADA2112F065FAAEE7574ADD210E
:1077B80012F060FAAFE7554ADF2112F05BFAB2E740
:1077C800027A4B4B1A80102300220121406812F0E4
:1077D8000AFE00283FF4F1AD3C4B1B6813F4804FC0
:1077E8000ED03B4B1B68002B0ADD3A4BD3F804350F
:1077F8000190474A0092F5223949012006F08EFC93
:10780800444B1B78DBB1314B1B6813F4804F03D01A
:107818002F4B1B68032B07DC0122324B1A703D4AA1
:107828001378013B1370C8E52A4BD3F804353A4A5C
:107838000092F8222A49042006F070FCECE7234B5A
:107848001B6813F4804F03D0214B1B68032B06DC05
:107858000022244B1A70244B5B699847ADE51D4BF9
:10786800D3F804351C4A128801922C4A0092FF2250
:107878001B49042006F052FCEAE707AD284B0FCB62
:1078880085E80F0010222946606812F0B5FDB0B9EE
:107898000E4B1B6813F4804F3FF48FAD0C4B1B68E5
:1078A800032B7FF78AAD0B4BD3F804351D4A0092A2
:1078B80040F20D120A49042006F030FC7DE5134A17
:1078C8004FF4867112F0D6F9E2E700BF402E00208F
:1078D8003C2E002000100140DA320020E0040400B1
:1078E800D7070400783200207C320020E0320020E4
:1078F800DC32002024050400582F00205A2F0020D5
:10790800A80504005C050400800504006C07040059
:10791800EC050400D83200201C0604002C060400E4
:107928001C040400940604000B4B1B6813F4804FDE
:107938003FF443AD094B1B68032B7FF73EAD084B63
:10794800D3F80435074A00924FF489720649042097
:1079580006F0E4FB31E500BF402E00203C2E00205D
:1079680000100140BC060400D707040010B582B01F
:107978000AB11446A3B9124B1B6813F4804F1CD0EC
:10798800104B1B68002B18DD0F4BD3F804350F4A3A
:1079980000924FF490720E49012006F0BFFB0CE0F4
:1079A8000C4A10700C4A118001210C4A11700C4AC3
:1079B80014600C4A1370FFF74DFC02B010BD00BFF5
:1079C800402E00203C2E0020001001401C0704001F
:1079D800D7070400D8320020DA320020783200209D
:1079E800E4320020DE32002000B583B0104B1B6863
:1079F80013F4804F03D00F4B1B68032B06DC0E4893
:107A080012F074FD70B903B05DF804FB0B4BD3F8AA
:107A180004350B4A009240F22F120A49042006F05E
:107A28007DFBECE7084A4FF4987112F023F9EAE776
:107A3800402E00203C2E00209573020000100140CB
:107A4800EC070400D70704006C07040000B587B0F2
:107A580006A9012341F8083D274B186802300EF0AB
:107A680009FA18BB049B012B02D0784601F0C8F82C
:107A7800214B1B6804AA191D58880EF0DDFBD8B9E4
:107A880005A80DF0B3FC1C4B1968BDF814000EF0E6
:107A980043FAB8B9194B1B6813F4804F03D0184B3D
:107AA8001B68032B14DC07B05DF804FB154A40F291
:107AB800391112F0DFF8D5E7124A40F23B1112F003
:107AC800D9F8DDE70F4A40F23F1112F0D3F8E1E7A9
:107AD8000D4BD3F80435084A1268518890881288EB
:107AE800039202900191094A00924FF4A172084949
:107AF800042006F013FBD6E77C320020402E00203D
:107B08003C2E00206C07040000100140DC06040035
:107B1800D707040038B50446C36883B1636993B1D5
:107B28002369A3B10C4D0FCC0FC594E8030085E879
:107B380003000023094A1370094A137038BD7846B8
:107B480001F05EF8EAE7784601F05AF8E8E7784687
:107B580001F056F8E6E700BF7C320020943200209E
:107B68007832002010B584B0334BDB6904A840F8A4
:107B7800043D0DF0F9FB002836D1304C6068102127
:107B88000C3004F0A7FD606810211C3004F0A2FD41
:107B9800606810212C3004F09DFD61682268023273
:107BA8000C3100200DF002FF20BB254B1B6813F49D
:107BB800804F03D0234B1B68032B21DC1F4B196814
:107BC8005A680B1D1C32498800200EF0C1F938BBD9
:107BD8001A4B19685A680B462C32498801200EF056
:107BE80057F918BB04B010BD174A40F2551112F0EE
:107BF80041F8C2E7144A40F25D1112F03BF8D4E7AD
:107C0800124BD3F804350D4A126852880192104A73
:107C180000924FF4AF720F49042006F07FFACDE7C7
:107C2800094A40F25F1112F025F8D1E7064A4FF4ED
:107C3800B17112F01FF8D5E7100404007C3200205F
:107C4800402E00203C2E00206C070400001001404C
:107C580058070400D7070400B0F5807F03D0044A12
:107C6800044B1A607047044A024B1A60704700BF01
:107C7800480B0400E82D0020F008040070B5064603
:107C880014460D4601B122B1044B5E801D705C6044
:107C980070BD784600F0B4FFF6E700BFF43200206C
:107CA80010B584B0404B5A88824219D03F4B1B68AC
:107CB80013F4804F02D1022004B010BD3C4B1B6866
:107CC800002B6BDD3B4BD3F80435029001923A4A06
:107CD8000092E1223949012006F020FA0220EBE760
:107CE80048F2190398422AD007D8022845D048F20A
:107CF8000303984227D10C7808E048F21F03984202
:107D08001FD048F23E0398421DD10C78264B1B78B1
:107D1800002B45D0254B1B6813F4804F03D0244B10
:107D28001B68032B2BDC00231F4A1278934233D2A3
:107D38001D4A5268D25C944234D00133F4E70C787F
:107D4800E4E70C78E2E7194B1B6813F4804F0DD079
:107D5800174B1B68002B09DD164BD3F80435184A5E
:107D68000092FD221549012006F0D8F9154AFE2196
:107D7800052011F07FFFFF24C8E7FF24C6E70D4B5D
:107D8800D3F804350194104A00924FF483720B49DA
:107D9800042006F0C3F9C6E701208DE702208BE72F
:107DA800002089E7002087E7F4320020402E0020D9
:107DB8003C2E002000100140880804007B080400C5
:107DC800B408040010080400D408040030B585B0D5
:107DD800044615460180104603F0D2FE2071E58066
:107DE800184B1B88A3810022A2731E23E373237CF4
:107DF80003F0030362F30103237401236374A27481
:107E0800114B1A88A4F813205B88A4F815300F4B7F
:107E18001B6813F4804F03D00D4B1B68032B01DC48
:107E280005B030BD0B4BD3F804352288029501927A
:107E3800094A009240F223120849042006F06EF91C
:107E4800EEE700BFE8320020EC320020402E002090
:107E58003C2E002000100140FC0804007B080400B0
:107E680010B50A4B1B7863B1084C2378013B04F822
:107E7800043B04F0F3FA06490144204604F0B6FA3C
:107E880010BD784600F0BCFEEEE700BF08330020C6
:107E9800404B4C0008B5034804F090FA024A034BE3
:107EA8001A6008BD0C3300209D0A0400E82D00204C
:107EB80008B5FFF7EFFF024B1B68984708BD00BFE6
:107EC800FC32002010B58CB09C4B1B681B78013B22
:107ED800092B00F22082DFE813F00A002D00510080
:107EE8007C00AA00EA005D01E8010302AC01944BA2
:107EF8001B6813F4804F03D0924B1B68032B0DDCD7
:107F0800002014F067F90446002211460220FFF70A
:107F1800B5FE002C40F007820CB010BD8A4BD3F898
:107F280004358A4A009240F25B128949042006F01F
:107F3800F5F8E5E7824B1B6813F4804F03D0814BBB
:107F48001B68032B0EDC834B1A68834B19880020AF
:107F580014F066F90446814A022148F20300FFF74B
:107F68008DFED6E7784BD3F804357D4A009240F26F
:107F780065127749042006F0D1F8E4E7704B1B68D6
:107F880013F4804F03D06F4B1B68032B15DC4FF69F
:107F9800FF73ADF818300223ADF81A30069A6E4B0D
:107FA8001988704B188814F0C1F904466E4A0121EB
:107FB80048F23E00FFF762FEABE7634BD3F80435A7
:107FC8006A4A00924FF4B8726149042006F0A6F894
:107FD800DDE75B4B1B6813F4804F03D0594B1B68DC
:107FE800032B15DC624B1A88ADF818205B88ADF8B6
:107FF8001A30069A584B19885A4B188814F096F973
:1080080004465C4A012148F23E00FFF737FE80E74C
:108018004D4BD3F80435564A52880192564A00927D
:1080280040F27F124A49042006F078F8DAE7534B09
:108038001B8823B94B4B1B880133504A1380404B94
:108048001B6813F4804F03D03E4B1B68032B1CDCCA
:108058004B4B1A88ADF818205B88ADF81A30069A91
:108068003D4B1988454B188814F060F90446454A79
:10807800012148F23E00FFF701FE002C7FF449AFD2
:108088003E4A13880133138043E72F4BD3F8043556
:108098003B4A528839490988029101923A4A00922A
:1080A8004FF4C9722A49042006F038F8D0E70023B3
:1080B80006930793089309930A930B93294A128806
:1080C800ADF8182001228DF81C20ADF81E201E21C5
:1080D8008DF827109100022060F301018DF8281017
:1080E8008DF829204FF0FF328DF82B208DF82C20A9
:1080F8008DF82D008DF82E30114B1B6813F4804F2E
:1081080003D0104B1B68032B0ADC06A814F0CAF82E
:1081180004461E4A012148F21900FFF7AFFDF8E6B0
:10812800094BD3F8043501220192194A009240F212
:10813800B3120749042005F0F1FFE6E7E82D002017
:10814800402E00203C2E0020001001406009040051
:108158007B0804002C330020E83200207C0A04004D
:108168007C090400F0320020800A04008C09040015
:1081780024330020840A0400AC09040028330020BA
:10818800EC320020880A0400CC0904008C0A0400A0
:10819800FC090400002306930793089309930A93A4
:1081A8000B93664B1B88ADF8183001228DF81C2004
:1081B80013F0010F28D14FF48173ADF81E30604BD6
:1081C8001B88ADF824301E238DF8273001238DF845
:1081D80029305C4B1A88ADF82B205A88ADF82D2031
:1081E800594B1B6813F4804F03D0584B1B68032B63
:1081F8000FDC06A814F056F80446554A012148F247
:108208001900FFF73BFD84E640F20113ADF81E307C
:10821800D5E7504BD3F80435BDF81E1002910192F2
:108228004D4A009240F2D5124C49042005F076FFE1
:10823800DFE7454B1B6813F4804F03D0434B1B68A3
:10824800032B21DC3D4B18880023079303238DF86B
:10825800183010F0010F23D04CF20303ADF81A3098
:10826800384B1A88ADF814205B88ADF81630059B9A
:1082780006AA06CA14F031F80446394A012148F220
:108288001F00FFF7FBFC44E6324BD3F80435354AB0
:1082980000924FF4F0723149042005F03FFFD1E716
:1082A8004CF20203ADF81A30DAE70023069307937D
:1082B800089309930A930B93204B198801314CF2C8
:1082C800030289B206A8FFF781FD06A813F0EAFFAA
:1082D8000446254A012148F21900FFF7CFFC18E6A9
:1082E800002306930793089309930A930B93134B60
:1082F800198802314CF2020289B206A8FFF766FD1E
:1083080006A813F0CFFF0446184A012148F21900C5
:10831800FFF7B4FCFDE5164A40F21121052011F0E3
:10832800A9FC0824F5E514F00BF8124B1B7813B9D7
:10833800FFF7BEFDF0E5FFF793FDEDE5F032002015
:10834800E832002024330020402E00203C2E00205C
:10835800900A0400001001403C0A04007B08040055
:10836800940A0400640A0400980A04009C0A0400A1
:10837800100804000833002008B5FFF7A3FD08BD66
:1083880008B5FFF787FD024B1B68984708BD00BF7B
:108398000033002000B583B01B4B1B681A789AB1D4
:1083A8000B2A11D041680088FFF77AFC38BB164ABF
:1083B8001368591C11600321144A11705B780B2B48
:1083C8001AD0FFF77FFD14E0114B1B6813F4804FA0
:1083D8000FD0104B1B68012B0BDD0F4BD3F8043566
:1083E80001920E4A009240F23F220D49022005F008
:1083F80095FE03B05DF804FBFFF7C2FFF9E701281B
:10840800F7D1FFF755FDF4E7E82D002008330020E9
:10841800402E00203C2E0020001001402C090400B2
:108428007B08040000B589B04FF6FF73ADF81E3025
:10843800ADF81C3001238DF81430ADF816000DF19D
:108448001E0105A80DF08EF9E8B907A9BDF81600B8
:108458000DF062FDE8B9BDF81C0013F0A1FEF0B9FB
:10846800BDF81E10BDF81C0013F04CFEE8B91B4BFC
:108478001B6813F4804F03D0194B1B68032B1ADCBD
:1084880009B05DF804FB174A40F2312111F0F2FB04
:10849800DBE7144A40F2322111F0ECFBDBE7114A2A
:1084A80040F2352111F0E6FBDAE70E4A40F23621B8
:1084B80011F0E0FBDBE70C4BD3F80435BDF81E20C8
:1084C8000292BDF81C200192084A009240F237221D
:1084D8000749042005F022FED2E700BF402E002005
:1084E8003C2E00201008040000100140500B04002E
:1084F8007B08040030B583B0002837D1224B1B68B5
:1085080013F4804F03D0214B1B68032B13DC204B43
:108518001B8843B31C4B1B6813F4804F03D01B4BC1
:108528001B68032B13DC1A4A1388013B1380FFF7DF
:10853800C9FC03B030BD174BD3F80435164A009276
:1085480040F267221549042005F0E8FDDFE7114BEA
:10855800D3F80435124A009240F26B220F490420E6
:1085680005F0DCFDDFE7FFF7A3FCE2E70C46154664
:108578000228DED121B129462046FFF70BFFD8E7B4
:10858800784600F03DFBF6E7402E00203C2E002008
:108598000433002000100140A00A04007B080400F6
:1085A800CC0A040010B582B0434C24682478A4B1E6
:1085B800424B1B6813F4804F46D0414B1B68002B7D
:1085C80042DD404BD3F804353F4A009240F2832203
:1085D8003E49012005F0A2FD36E03D4C20803D4893
:1085E80001803D493D48C860032008703C490A6045
:1085F8003C4A13803C49049817F064FB20B13B497E
:10860800049817F05FFB08BB41F20102384B5A800F
:108618004FF48052374B5A804FF6FF73344A138019
:10862800344A1380254B1B6813F4804F03D0244B26
:108638001B68032B30DC264C2088FFF7F3FE2088CC
:10864800FFF70AFBFFF73EFC02B010BD2A49049869
:1086580017F038FB40B941F20302254B5A8041F22A
:108668000202244B5A80D7E7144B1B6813F4804F3F
:108678000ED0134B1B68002B0ADD124BD3F80435C0
:108688001E4A009240F29A221049012005F046FD48
:10869800784600F0B5FABFE70A4BD3F804350C4A20
:1086A80012880192164A009240F2A122074904203A
:1086B80005F034FDBFE700BFE82D0020402E002064
:1086C8003C2E002000100140D80A04007B0804005A
:1086D800F032002004330020083300208183020098
:1086E8002C330020E832002090030400AC0304007F
:1086F800EC32002024330020C80304000C0B0400D3
:108708002C0B040038B50C46054628B144B1064B7D
:108718001D60064B1C6038BD784600F071FAF5E71D
:10872800784600F06DFAF2E700330020FC320020B2
:1087380008B5064B1B683BB10FF0E8FC002803DBCB
:10874800024B1B689847F7E708BD00BF303300208D
:1087580010B50C46144B1860144A0121144817F040
:10876800D5F8A0B9610CE00341F26F7200238B4287
:1087780008BF824210D24FF47A72002317F016F91C
:10878800014600220B4817F0D7F838B910BD0A4A3D
:108798004A2111F06FFAE5E70521F2E7064A4B2175
:1087A80011F068FAF2E700BF303300203987020081
:1087B800880B0400343300208C0B040008B5104BE0
:1087C8001B6873B14FF0A042D2F804350D4909680F
:1087D8004B40C2F804350A4A1368013B136023B1C1
:1087E80008BD002011F038FAECE7074817F0C2F886
:1087F800064B1A684FF0A043C3F80425F0E700BF02
:1088080054330020583300205C3300208433002088
:1088180039B9012303FA00F04FF0A043C3F8080563
:108828007047012303FA00F04FF0A043C3F80C058A
:10883800704721B94FF0A043C3F8080570474FF0BF
:10884800A043C3F80C05704712B11346132900D88A
:10885800704770B5144A10605B00013B134A1360FF
:108868004FF0A043D3F80425114B1A6000264D0C95
:10887800CC034FF47A72002314F5FA7045F1000125
:1088880017F094F8324601460A4817F055F848B9E7
:108898004FF0A042D2F804350349096823EA0103DE
:1088A800C2F8043570BD00BF58330020543300208F
:1088B800843300205C33002010B582B0144B1B6851
:1088C800ADF804301B0C8DF80630002312E002AA24
:1088D800D01810F8042C4FF0A04102F5E0720324E0
:1088E80041F8224010F8040C01228240C1F8082502
:1088F8000133DBB2032BEAD9064A0121064817F0F7
:1089080005F808B902B010BD11F0A6F9FAE700BFE2
:10891800F40B0400C5870200F80B0400F0B1104AFC
:108928001060002309E00F4AD25C02F5E0720E489D
:108938004FF0A04141F822000133012BF3D90B4B32
:108948004FF00042C3F804230020C3F87C01084B11
:10895800C02283F8062340221A6070470E20704711
:108968007C330020FC0B04000C0003000060004076
:1089780000E100E010B50024144BC3F87C4103E08B
:10898800D11A14E00134E4B2012C1ED84FF0A043F0
:10899800D3F810250E4B195D01238B409343F1D07A
:1089A8000C4B1B680C4AD2F80425991AE8D443F2F8
:1089B80033339942E6D9084BD3F80425054B1A609E
:1089C800064B1B6820469847DCE710BD0060004056
:1089D800FC0B040080330020001001407C33002091
:1089E80060DF704769DF704708B503F057FA08BDC4
:1089F80010B588B010F048FE002836D1214B0793F7
:108A0800079A0692002303930493059303A9012070
:108A1800FFF7E8FF60BB002304930593F823039353
:108A2800069A03A9A120FFF7DDFF20BB06A8FFF7E0
:108A3800D7FF0446069A079B9A4213D0124B1B682D
:108A480013F4804F0ED0114B1B68012B0ADD104B1D
:108A5800D3F8043501920F4A0092A2220E4902204F
:108A680005F05CFB54B908B010BD11F0F5F8C5E786
:108A780011F0F2F8CFE711F0EFF8D7E7204611F040
:108A8800EBF8F0E7A02D0020402E00203C2E00201F
:108A980000100140740C0400590C040006207047B3
:108AA80000B587B041F20103984245D020D944F27D
:108AB8000103984256D044F2020398426DD1454BC7
:108AC8001B6813F4804F2AD0434B1B68002B26DD0C
:108AD800424BD3F8043510880390526802920191F2
:108AE8003F4A00926C223F49012005F017FB16E02F
:108AF800012852D1374B1B6813F4804F0FD0364BE7
:108B08001B68002B0BDD354BD3F80435029201911D
:108B1800354A009260223349012005F0FFFA4FF0F0
:108B2800A043324AC3F81825C3F80C25EFF3108385
:108B380072B64DF6AD6C46E0264B1B6813F4804FB9
:108B4800EDD0254B1B68002BE9DD244BD3F8043509
:108B580002920191264A009263222249012005F0DF
:108B6800DDFADCE71B4B1B6813F4804FD7D01A4B98
:108B78001B68002BD3DD194BD3F80435106804901B
:108B8800506803900291926801921A4A00927722E3
:108B98001449012005F0C2FAC1E70E4B1B6813F413
:108BA800804FBCD00C4B1B68002BB8DD0B4BD3F8A7
:108BB80004350191104A00927B220A49012005F0F0
:108BC800ADFAACE730BF0D4B1B78002BFAD107B0DC
:108BD8005DF804FB402E00203C2E002000100140D0
:108BE8005C0D0400090D04001C0D040000010400C4
:108BF800380D04007C0D0400A00D0400EC2D0020AD
:108C080000B583B00023ADF80030054B01936A46E8
:108C1800014644F20200FFF743FF03B05DF804FB8E
:108C280090FF030010B40346044C006859689A6822
:108C3800DB680FC45DF8044B704700BF8833002021
:108C48000B4B0C4A92E8030083E8030003F1080287
:108C5800094903C982E80300DA79042161F307129C
:108C6800DA711A7A022161F387121A72704700BF0B
:108C78008833002060000010A400001000487047EE
:108C880088330020002308E0074901EBC3000022D5
:108C98004280426001F8332001331F2BF4D90022AF
:108CA800024B1A60704700BF9833002098340020A8
:108CB80030B405460F4B1B6800240AE01F230E4AF8
:108CC80012F83300A0B102EBC3025288AA4207D0BF
:108CD80001341F2C0BD85A1E002BEFD01346EEE799
:108CE800054A02EBC30252688A42F1D100E0002033
:108CF80030BC7047983400209833002030B40A4ABA
:108D080013680A4C04EBC30568806960012104F804
:108D180033100B441360202B01D030BC7047002265
:108D2800014B1A60F9E700BF9834002098330020FF
:108D3800C0F30C038B4202D3C91A08447047C91AFE
:108D48000844A0F500507047C37D002B41D08378BC
:108D58000A7802F0800203F07F0313430B70027855
:108D68000B7803F07F0343EAC2130B7003787BB3DD
:108D780030B44378082B14BF002201224B7803F04B
:108D88007F0343EAC2134B70858803F08003C5F361
:108D9800861423434B708A7802F0030242EA850264
:108DA800D2B28A70857902F0FC02C5F3C10422436D
:108DB8008A70CB7803F01F0343EA4513DBB2CB700C
:108DC800C27903F0E00302F01F021343CB7030BCFA
:108DD800704783780A7802F0BF029B0103F04003D2
:108DE80013430B70C27803F0C00302F03F02134331
:108DF8000B70B4E70023032B22D810B402E0013330
:108E0800032B19D8C3EBC30214010E4A224492F86B
:108E18004820012AF3D10B4A2244948AC2899442F9
:108E2800EDD1C3EBC3021401064A224492888A4258
:108E3800E5D10448204400E000205DF8044B704769
:108E48000020704708350020002300E00133032B81
:108E580014D8C3EBC3021101094A0A4492F8482006
:108E6800022AF3D1064A0A44918A828A9142EDD1B4
:108E7800C3EBC3031A01024810447047002070472F
:108E88000835002008B1082070470420704700000A
:108E980038B505460C46CB695B78C370CB691B783F
:108EA80083F001038370CB694362087B022814D0E6
:108EB800FFF7E8FF6870E27A32B9A18AC0F10F03C0
:108EC800994201DC082833D0A18A0346C0F10F007B
:108ED800814207DC52B3012205E0164B987DFFF76B
:108EE800D1FFE7E701222A7062B1A28A13440B334B
:108EF800114A82FB0312DB17C3EB6203013BEB71E0
:108F08000023AB710023EB7505F10C0294E8030014
:108F180082E80300A2692A622289AA82A27AAA7533
:108F2800226AAA6285F82C30184638BD0022DAE792
:108F3800072038BDF0340020ABAAAA2A30B4034673
:108F48000C460978817000214162A1680B2903D879
:108F5800217B09B3012100E001211970002058701C
:108F680029B1A1680731C9080139D971987101215E
:108F7800D97503F10C0504F1100103C985E8030054
:108F8800E1899982A1691962217F9975617F83F8C6
:108F98002C109A6230BC70470021DEE70021164B86
:108FA8001B68994226D20023144A02EBC102526878
:108FB80093421DD210B4114A52F8312002EBC30477
:108FC80012F8332082420DD001330C4A02EBC10261
:108FD80052689342EFD30131074B1B68994205D27F
:108FE8000023F2E760685DF8044B70470020FAE759
:108FF8000131D4E7002070479C340020A0340020C1
:1090080070B58CB006460D4614462C22002101A8E6
:1090180016F024FE0F238DF80430ADF808604FF0E9
:10902800000365F300038DF80A308DF80B4001A8A2
:1090380001F0E4F80CB070BD30B58DB005460C46B3
:109048002C22002101A816F009FE10238DF8043007
:1090580002958DF80C4001A801F0D0F80DB030BD94
:1090680000B58DB048B913F1020F06D001228DF872
:109078000420029301A801F0C1F8034B186804F01A
:1090880007F80DB05DF804FBA83400202DE9F04185
:10909800054688460378BBB10D4B1C68621C1A60F4
:1090A80004F00704AB8A0B4F07EBC4067380A9884A
:1090B800A869FFF73DFE7060EB6903F00103737068
:1090C80007F83480BDE8F0817846FFF799FDE3E7BB
:1090D800EC340020AC34002070B5064603784BB160
:1090E800B58A347F04F00104B188B069FFF720FE27
:1090F800002304E07846FFF783FDF1E70133072BEF
:1091080015D80C4A02EBC30252689042F6D1094ABC
:1091180002EBC30252889542F0D1064A02EBC30221
:1091280052789442EAD1034800EBC30070BD002096
:1091380070BD00BFAC340020F8B515461C460E685B
:109148004A68D1F808E0CF68E6602261C4F814E004
:10915800A7610E694A69E66122620378DB09237018
:10916800E27D32B3037803F07F03A37000236370BA
:1091780023789BB143789B0103F4FE53827843EA3A
:109188009203A3808378DB0003F01803C27843EAD4
:109198005213A371C37803F01F03E37100236362C2
:1091A8002B78052B1AD82B780E4AD35C84F82C30F0
:1091B800F8BD0278C2F38012A270027802F03F0272
:1091C800E27043B1437813F0800F02D00823637034
:1091D800CEE70423FBE704236370C9E77846FFF76B
:1091E8000FFDE0E7BC0D040070B50C461E46037881
:1091F800B3B104252A44A26000F10C032360836AFA
:10920800636090F82C30237300236373204604F0C6
:10921800A9FA024610B923691D443560104670BD8D
:109228000125E7E72DE9F0418EB00D4616461C46AC
:10923800804600282DD0002D2FD0002C31D0636A15
:109248000233059304F10C00A378002B2DD00121E3
:10925800627801AF3B46082A14BF0022012204F0BD
:109268005CF80697CDF81C80B2B2ADF820200B95BB
:1092780015440C9563788DF83430237B022B16D077
:109288000023ADF8283005A804F03FF80EB0BDE87B
:10929800F0817846FFF7B4FCCDE77846FFF7B0FCDD
:1092A800CBE77846FFF7ACFCC9E70221D0E7236992
:1092B8002BB1236909931023ADF82830E3E77846EA
:1092C800FFF79EFCF5E72DE9F04186B004460D4610
:1092D800C37D002B3CD0082605FB06F8E3799D42A8
:1092E80038D0A5716B46324601A92046FFF77CFFAE
:1092F800074648BB4DB994F8533033B9A369C3F353
:109308000C03A380012384F85330E37D7BB994F8E0
:10931800523063B91DBBB4F84A10627823468A1AE2
:10932800E16E0846FFF77EFF012384F85230059965
:109338002046FFF709FDE16E32464144009816F0D9
:1093480063FC01A804F02CFA384606B0BDE8F081A9
:109358000C26C1E7B4F84A60A6EB0806C1E77846D0
:10936800FFF74EFCD7E770B505460E4609B1002356
:109378000B6095F85040002104E0631C85F85030DC
:109388000134E4B2EB799C4210D8EA6C0123A34083
:109398001A42F5D121462846FFF795FF014628B91C
:1093A800002EEAD0336801333360E6E7084670BD23
:1093B800F0B587B044781444C37D33B10B23A3427E
:1093C80005D20924204607B0F0BD0F23F7E716465B
:1093D8000F4605466B46224601A9FFF705FF0446DE
:1093E8000028EFD105992846FFF7AEFCEB7D43B185
:1093F80032463946009816F007FC01A804F0D0F967
:10940800E0E72B46324600993846FFF70BFFF4E7B2
:1094180010B5044690F84830012B02D07846FFF783
:10942800EFFB03F01BF8237B012B07D0074BD96810
:10943800014404F1300002F0D9FF10BDA37D034AB6
:10944800D168126902FB0311F2E700BFF034002073
:1094580030B583B0002403E02846FFF7D9FF013474
:10946800032C1AD8C4EBC4031A010D4B134493F808
:109478004830012BF3D102A9002341F8043DC4EB85
:10948800C4021301064D1D442846FFF76CFF04284B
:10949800E2D0019B002BE2D0DEE703B030BD00BF75
:1094A8000835002038B5044690F84830022B02D021
:1094B8007846FFF7A5FB054B1D6802F0CFFF29187A
:1094C80004F1300002F092FF38BD00BFF0340020F4
:1094D80038B5044690F84830022B02D07846FFF79A
:1094E8008FFB084B5D7D5A689B6803FB052502F0DE
:1094F800B5FF411904F1500002F078FF012384F808
:10950800683038BDF034002038B50446C06E07F026
:1095180062FE04F13005284602F085FF70B994F820
:109528004830022B0ED070220021204616F096FB00
:10953800002084F8480002F01DF838BD284602F0E3
:109548003DFFECE704F15005284602F06CFF0028C7
:10955800E9D0284602F032FFE5E710B504460121BC
:10956800FFF794FD2046FFF7CFFF10BD10B58CB074
:10957800044690F84830012B02D07846FFF740FBAC
:1095880001238DF80430636D029301A800F036FEC4
:109598002046FFF7B9FF0CB010BD000030B585B00C
:1095A8000D460446A8B100212046FFF76FFD294665
:1095B800606DFFF741FD2046FFF7A6FF0F4B1B68C4
:1095C80013F0040F03D00E4B1B68032B05DC05B00A
:1095D80030BD7846FFF714FBE5E70A4BD3F80435AE
:1095E80094F8482002950192074A009240F2EF123F
:1095F8000649042004F092FDE9E700BF402E002050
:109608003C2E002000100140240E0400170E040018
:1096180008B508460021FFF7C1FF08BD08B5037B60
:10962800012B02D0FFF7A2FF08BD0121FFF7B6FF0B
:1096380008BD000008B590F8513013B9FFF7EEFFE8
:1096480008BD013B80F85130002380F85030024BB0
:10965800186803F01DFD08BDA834002010B50C469D
:1096680091F84830012B02D07846FFF7C9FA204616
:10967800FFF7E0FF10BD0000062900D0704770B565
:1096880082B003460178890101F4FE5140789D7843
:10969800DC78240444EA05641D7944EA05245B79EE
:1096A8001C4341EA90011046FFF7A4FB0546B8B1F8
:1096B800C66C2643C66444B3037853B3EB795A1C8B
:1096C80001239340013B9E4227D0002185F850108A
:1096D8002846FFF748FE2846FFF79AFE02B070BDFD
:1096E800104B1B6813F0040FF8D00F4B1B68012BAD
:1096F800F4DD0E4BD3F804350D4A009240F2A75220
:109708000C49022004F00AFDE8E70321FFF746FFB1
:10971800E4E77846FFF774FAD0E72846FFF726FF14
:10972800DCE700BF402E00203C2E00200010014046
:10973800480E0400170E04002DE9F04389B0804656
:109748000F4614461E4695782DB32846FFF726FC8B
:109758008146E8B18DF80050236A0693A38AADF8D4
:109768000E3004AB04F10C0292E8030083E8030016
:10977800A37D8DF81C30CDF80480029723788DF8EE
:109788000C3094F82C308DF81D3031466846C847A7
:1097980009B0BDE8F083FFF76FFFF9E72DE9F0475F
:1097A80006460F4690464B1EDBB2012B02D978467F
:1097B800FFF726FAB8F5C07F0CD80024032C16D87A
:1097C800C4EBC4031A01314B134493F848302BB14E
:1097D8000134F3E77846FFF713FAEEE7DFF8ACA0B9
:1097E80015465544404607F0F2FCE86600E00025BF
:1097F800002D32D0EB6E002B46D033462A4606F1B8
:109808003001D3F800C0D3F804E09C68D868C2F8E7
:1098180000C0C2F804E09460D060103310328B426C
:10982800EFD10023EB64A5F84A80B188B069FFF74F
:109838007FFAA861012F13D06FF00103AB620023F8
:1098480085F86830124BAB652D66124BAB632D64FF
:10985800012001F08FFE85F848702846BDE8F087A2
:109868000D4B1B7D85F85130002385F8523085F863
:10987800533085F85030B36A6B656FF00103AB6203
:10988800064BAB632D64E3E70025E6E708350020C7
:1098980049A1020019960200F034002065960200E2
:1098A800F0B5C7B045781544C37D3BB14FF480731C
:1098B800AB4206D20924204647B0F0BD4FF4C0732E
:1098C800F6E7002300E00133032B19D8C3EBC304E8
:1098D8002601394C344494F84840012CF3D1364CD5
:1098E8003444A68A848AA642EDD1C3EBC304260178
:1098F800314C3444E689C489A642E4D10824DAE725
:1099080014460E462A460121FFF748FF054600285F
:109918004ED022463146C06E16F076F946A900238D
:1099280041F8043D2846FFF71EFD044628B10428E7
:1099380003D02846FFF7E8FDBDE7459B7BB91F4BE1
:109948001C6814F00404B6D01D4B1B68032B31DDD2
:10995800B5F84A70802F28BF8027002313E02846D7
:10996800FFF756FDEBE7EA6ED25C5900154804682C
:109978001009265C04A800F81360013102F00F02F8
:10998800A25C42540133BB42EDD304AA002402F87E
:1099980017400D4BD3F8043502920C4A01920C4A39
:1099A800009240F2D1420B49042004F0B7FB82E751
:1099B800042480E700247EE708350020402E00209C
:1099C8003C2E0020442E002000100140780E040098
:1099D8004C000400170E040000B585B000238DF874
:1099E8000F3098B10346084602330B600DF10F01A2
:1099F80003F08FFC9DF80F3043B10D4B1B6813F03B
:109A0800040F03D00B4B1B68032B04DC9DF80F00DD
:109A180005B05DF804FB084BD3F80435074A0092FB
:109A280040F2A6320649042004F078FBEEE700BFB6
:109A3800402E00203C2E002000100140880E04001B
:109A4800170E04002DE9F0438FB004460E46154664
:109A58001F46D0F81890037823B181884846FFF74D
:109A680067F9A06104F10C00A378002B3AD001211A
:109A780062780DF128084346082A14BF0022012203
:109A880003F04BFCC4F81890CDF80880039663786F
:109A9800EA1A92B2ADF810203244089207978DF86E
:109AA80024300023ADF81830237B022B1CD0A37878
:109AB8006BB3237B022B1BD02546002345F8243F9C
:109AC8002A46E178206A0CF06BFC606A98B101A91B
:109AD800FFF782FF00283CD12A46E178206A0CF083
:109AE8005FFCF2E70221C3E71023ADF81830DEE788
:109AF80023690593E0E7237B022B2ED104F10C01A7
:109B0800E0890CF0FBFC0028D3D1052022E00023DB
:109B18006362237B012B0DD02146002341F8243FAB
:109B2800A08A0CF05AFC01A9606AFFF755FF70B9CA
:109B380005200FE004F12401E0890CF04EFC01A996
:109B4800606AFFF749FF0028E6D0002002E0002005
:109B580000E000200FB0BDE8F0830520FAE7000020
:109B680070B5F0B00D4614461E4610AB0A460146C5
:109B78002046FFF767FF50B11F4B1B6813F0040F17
:109B880003D01E4B1B68052B2ADC70B070BD03ABDD
:109B980001228DF80C20A28AADF80E200022049232
:109BA8008DF8142010AA06926278AD1AADF81C50F0
:109BB80008AA93E8030082E803000AAB04F10C0248
:109BC80092E8030083E80300A37D8DF83830236A08
:109BD8000C93636A0D930F9605A800F00FFBD4E76A
:109BE800074BD3F80435074A009240F21962064938
:109BF800062004F093FAC8E7402E00203C2E0020EF
:109C080000100140C00E0400170E040010B5D47DEA
:109C180014B9FFF7A5FF10BDFFF78EFD10BD70B595
:109C280004460D461646808A01F0AAFF012801D095
:109C3800102070BD237B0BB9102070BD022B0BD0F8
:109C480094F91630002B12DB237853B93246294693
:109C58002046FFF7ADFB70BD2369002BF0D1102023
:109C680070BD324629462046FFF71AFE70BD072010
:109C780070BD000010B54FF4E0720021134815F0D4
:109C8800EDFF05F0E7FC0024114B1C604022214643
:109C9800104815F0E3FF104B104A1A60104A5A603A
:109CA8004CF250329A600F49D9601A6104221A7531
:109CB8009C7508225A750C4803F0CAF90B4B1860BA
:109CC8000B4B1C600B4805F0C1FD10BD083500208A
:109CD800EC340020AC340020F0340020809698004A
:109CE800F049020020A10700999E0200A834002034
:109CF8009C3400206990020008B505F021FC08BDDD
:109D0800A8B110B58CB0044603699BB1C369ABB167
:109D18008369ABB101466846FFF7BAF8034650B904
:109D2800A28A21696846FFF77AFF034603E00E23FB
:109D3800184670470E2318460CB010BD0E23FAE7DC
:109D48000E23F8E7E8B110B58CB004464068D0B1EE
:109D5800A069D8B1227C022A1AD00AB9102013E0CF
:109D680094F90020002A01DA07200DE00A4621466E
:109D78006846FFF7E3F8A26861686846FFF74FFF97
:109D880002E00E2070470E200CB010BD0E20FBE73D
:109D98001020F9E7037B012B01D00020704730B574
:109DA8008DB001AC00230293CDF80B308288C2F34A
:109DB80086158DF8045092008DF805200A0E8DF84E
:109DC80006200A0C8DF807200A0A8DF808208DF85D
:109DD80009100622069201228DF82020828AADF809
:109DE800222009938DF810300594026A0A928DF8A2
:109DF8001C30C389ADF81E3090F82C308DF82D300A
:109E0800837D43B98DF82C306FF0010104A8FFF76A
:109E180099FF0DB030BD024B5B7D8DF82C30F3E718
:109E2800F034002038B590F84830022B00D038BD07
:109E380090F86830022BFAD10446C16CFFF7AAFFEC
:109E48000028F4D1002384F86830E56C237853B1F6
:109E5800E3795A1C01239340013B9D42E7D12046F8
:109E6800FFF77BFBE3E77846FEF7CAFEF0E7000062
:109E780010B5002407E0C4EBC402130103481844DA
:109E8800FFF7D0FF0134032CF5D910BD08350020A9
:109E980008B5FFF7DDFAFFF7EBFF012008BD00006A
:109EA8002DE9F04182B007460E4614469846104602
:109EB800FEF7CAFF054620B1A28883889A4210D3CC
:109EC80012D82046FFF708F9B8B103784BB12378C8
:109ED8007BB1E1794B1C0121994001392046FFF7FC
:109EE80059FF02B0BDE8F0810521FFF757FB0025B7
:109EF800E7E77846FEF784FEEBE7002D57D05F4B87
:109F08001B6813F0040F04D05D4B1B68032B00F390
:109F180086802846FFF7C6FA2B7B012B00F08D8040
:109F2800EA6CA17901238B401A42DAD11343EB641E
:109F3800A279EB799A4200F08980E37D002B00F04A
:109F480090800823B34240F08E80EB6E94F806E0D0
:109F5800E27D002A00F08C800820324639460EFB4C
:109F6800003015F051FEEC6C2B78002B00F082804D
:109F7800EB795A1C01239340013B9C42B1D1022347
:109F880085F86830E96C2846FFF704FF0446434625
:109F98002A46B5F84A10E86EFFF738FE002CA0D123
:109FA800002385F868302846FFF7D7FA99E7E27961
:109FB8000132E37DEBB1082102FB01F2DBB14FF482
:109FC800807393421AD22D4B1B6813F0040F88D06C
:109FD8002B4B1B68002B84DD2A4BD3F804350192E8
:109FE800294A009240F236322849012004F096F8B6
:109FF80077E70C21E0E74FF4C073E2E7022120463F
:10A00800FFF7CCFB054600287FF479AF00212046F6
:10A01800FFF7C0FE02210020FFF70EF861E7194B99
:10A02800D3F80435A2790192194A009240F25132CC
:10A038001649042004F072F86BE795F86830002B95
:10A048007FF46EAF2846FFF743FA69E79BB2E27DDB
:10A058002AB1082202FB0363A5F84A3075E70C22EF
:10A06800F8E70C236EE704212846FFF797FA38E74C
:10A078000C2072E77846FEF7C3FD79E7402E0020F2
:10A088003C2E0020001001409C0E0400170E040016
:10A09800B00E04002DE9F0418EB0002849D080466A
:10A0A800002A48D01F4614460E4600230C930D93F1
:10A0B8000CA950880CF022FA08B900253CE0226966
:10A0C800E168208905F070FA08B1002534E02269BA
:10A0D800E168208905F03CFA0546D0B96B463A4656
:10A0E80021464046FFF728F803AB0EAA12E9030001
:10A0F80083E8030002F034FF9DF800308BB13B4643
:10A108006A46311F08F10400FFF7CAFE02F06CFF2F
:10A1180012E02169002201F001012089FEF770FF99
:10A128000AE03B466A46711E08F10100FFF76EFD22
:10A13800ECE70E2500E00E2528460EB0BDE8F081BC
:10A1480010B50C4691F84830022B02D07846FEF73D
:10A1580057FD022384F86830E16C2046FFF71AFEA9
:10A1680010B9002384F8683010BD0000F8B518B3A2
:10A178000546164B1F6817B104273846F8BD0E462A
:10A188003C46B4420ED205EBC4035B68B3B115F884
:10A19800340010F0800F13D1A0B1FEF7FFFE98B97C
:10A1A8000134EEE70A4B43F8375003EBC7035E6010
:10A1B8007B1C064A1360E0E70E27DEE70E27DCE784
:10A1C8000B27DAE70F27D8E70F27D6E79C340020BC
:10A1D800A0340020084B196861B110B501E0214690
:10A1E8003CB10C680B79002BF9D0034803F0FBFE57
:10A1F800F5E710BD704700BFCC36002038B50546DE
:10A2080030B1104B1C68ACB101220F4B1A7004E03E
:10A218007846FEF7F5FCF4E724683CB12379002B77
:10A22800FAD154F8043C28469847F5E7064B1B78C2
:10A23800022B00D038BDFFF7CDFF0022024B1A7069
:10A24800F8E700BFCC360020C836002010B5044619
:10A2580030B100232372211D034803F099FE10BD7D
:10A268007846FEF7CDFCF4E7CC3600200A888368F0
:10A278009B5A07339BB223F0030313449BB2028813
:10A28800043A934200D900230B80704710B582B07E
:10A2980004468368CB1A02A921F8023DFFF7E6FFBE
:10A2A800BDF80630A068184402B010BD0088043814
:10A2B80080B2704743888268D018D15201238370D6
:10A2C800704782680023937043808380704707310A
:10A2D80089B221F0030189B2428883889A4206D262
:10A2E8009B1A994201DD042070470020704710B581
:10A2F8009A4211D90488A41A8C4217D2994201D9DA
:10A30800042010BD032C03D98368134404229A70D7
:10A3180000234380184610BD826813449B780BB114
:10A32800042010BDFFF7CDFF002010BD002010BD98
:10A3380038B504460D468368828813448B4202D0A0
:10A348007846FEF75DFC0023AB70211D2046FFF721
:10A358008DFFA288A36813449B78042B00D038BDD6
:10A368000023A380FBE710B50C468368428813449A
:10A378008B4202D07846FEF743FC0023A37010BD41
:10A3880070B5064615460C46002944D0002E46D026
:10A39800B4F1005F08D94FF08053D3F80C3103F5BE
:10A3A8000023B4EB832F0ED3B4F5000F08D94FF078
:10A3B8008053D3F80C3103F50053B4EB832F02D349
:10A3C8007846FEF71DFC6B1E2344B3F1005F08D9E5
:10A3D8004FF08052D2F80C2102F50022B3EB822F05
:10A3E8000ED3B3F5000F08D94FF08052D2F80C21E4
:10A3F80002F50052B3EB822F02D37846FEF700FC39
:10A40800042D10D9358000237380B380B460043DD7
:10A418002580A37070BD7846FEF7F2FBB6E7784654
:10A42800FEF7EEFBB4E77846FEF7EAFBEAE738B555
:10A438000446A0B16288A36813449B78012B12D00C
:10A44800EFF3108572B6A388A16819448B78032BA3
:10A458000DD02046FFF735FF05B962B638BD7846FE
:10A46800FEF7CEFBE6E77846FEF7CAFBE8E72046AC
:10A47800FFF70CFFA368C31A638000238370EBE720
:10A488002DE9F0410E461546044658B176B162886A
:10A49800A36813449B78012B0CD07DB90927384653
:10A4A800BDE8F0817846FEF7ABFBEFE77846FEF7AC
:10A4B800A7FBECE77846FEF7A3FBEEE72046FFF79D
:10A4C800F5FE854201D90927E9E7EFF3108872B64E
:10A4D80029462046FFF7FBFE074620B1B8F1000FDA
:10A4E800DDD162B6DBE729462046FFF7E3FE3060A0
:10A4F800F4E7F8B50C4616460546F8B114B3A37848
:10A50800012B02D07846FEF77BFB2388B3421DD38C
:10A5180006B3EFF3108772B626800223A370E918FA
:10A528002846FFF7A3FE6A88AB889A4203D0AB6837
:10A53800134400229A7007B962B6F8BD7846FEF750
:10A548005FFBDBE77846FEF75BFBD8E77846FEF76C
:10A5580057FBDDE77846FEF753FBDAE770B50D46A3
:10A56800044680B19DB1EFF3108672B6A288A36845
:10A5780013449A78042A0ED09A78022A13D0032A10
:10A5880018D0052013E07846FEF73AFBEAE778464C
:10A59800FEF736FBE7E7211D2046FFF767FEA28896
:10A5A800A3681344E8E703229A702B60002006B9D9
:10A5B80062B670BD7846FEF723FB0020F7E738B592
:10A5C800044680B1EFF3108572B6A088A1680144F3
:10A5D8008B78042B0BD08878022814BF0020012028
:10A5E80005B962B638BD7846FEF70AFBEAE72046A9
:10A5F800FFF74CFE0146EEE738B5044630B1EFF3FD
:10A60800108572B6A088A168014407E07846FEF775
:10A61800F7FAF4E72046FFF739FE01468878C31EAB
:10A62800DBB2012BF6D9022814BF0020012005B99E
:10A6380062B638BD70B50C46064678B194B1EFF3F2
:10A64800108572B6A378012B10D0032B13D12146A5
:10A658003046FFF76DFE05B962B670BD7846FEF765
:10A66800CFFAEBE77846FEF7CBFAE8E72146304623
:10A67800FFF779FEEFE77846FEF7C2FAEBE710B589
:10A68800EFF3108472B68388816819448B78042BA1
:10A6980006D08878B0FA80F0400904B962B610BDD7
:10A6A800FFF7F4FD0146F4E708B5064B9868002269
:10A6B8001A605A609A60DA601A615A619A6104F005
:10A6C80043FD08BDD036002000B585B00A4BDB68D5
:10A6D80002228DF8002001934FF480530293074A19
:10A6E8006946012001F05EF918B1002005B05DF857
:10A6F80004FB0120FAE700BFD0360020EC3600202A
:10A7080000B585B00A4B1B6802228DF80020019322
:10A718004FF480530293074A6946012001F042F939
:10A7280018B1002005B05DF804FB0120FAE700BF6E
:10A73800F0360020EC360020154BDA681379517991
:10A748005B1A03F57F2303F6FF731B0305D002F59D
:10A7580080520F4BDA600320704700B585B00D4B6F
:10A768001B6801208DF8000001930B4B0393042311
:10A7780002930A4A694601F015F930B90122044BDF
:10A788001A76022005B05DF804FB0020FAE700BF46
:10A79800D0360020F0360020F4360020EC360020B9
:10A7A80000B585B00C4BDA680C4B1B6804330120EC
:10A7B8008DF800000192039340F6FC730293084A57
:10A7C800694601F0EFF828B90120034B187605B067
:10A7D8005DF804FB0020FAE7D0360020F0360020B0
:10A7E800EC36002000B585B00A4B1B6801208DF8B7
:10A7F80000000193084B039304230293074A694618
:10A8080001F0D0F818B1002005B05DF804FB012074
:10A81800FAE700BFF0360020DC360020EC360020D6
:10A8280010B584B0104BDA681478104B1B680433E9
:10A8380001208DF800000193039202940C4A6946A6
:10A8480001F0B0F870B9094B1B6804F0FC041C4413
:10A858000434054B5C61D9680A780A441A610120FE
:10A8680004B010BD0020FBE7D0360020F0360020F1
:10A87800EC36002008B50023092B09D8064A52F8FF
:10A888002320824201D00133F6E7044A536008BD11
:10A898007846FEF7B5F908BDEC0E0400D036002066
:10A8A80010B5214BDB6853B11F4B1B7E5BB91E4BA8
:10A8B8005B68092B15D97846FEF7A2F911E07846AE
:10A8C800FEF79EF9F0E77846FEF79AF9EFE70022DF
:10A8D800154B5A60012C01D0032C23D1124B1B7E3F
:10A8E80003BB114B5A68114B53F822309847044662
:10A8F80002280DD00328EAD00128EBD10A4A536870
:10A9080001335360092BE5D97846FEF779F9E1E779
:10A91800054B1B7E1BB10222034B1A70DAE7FFF7C7
:10A92800C3FED7E710BD00BFD0360020EC0E0400F0
:10A93800104B1B681B685A1E12F1030F18D8C3F37B
:10A948000B020AB10020704710B50B4AD3600023F0
:10A95800137653760124147093600848FFF78AFF32
:10A968000749204601F00CF8FFF79AFF204610BD72
:10A9780000207047F0360020D0360020D1A6020013
:10A988008DA9020008B50B78032B06D00B4B1B785A
:10A99800012B06D0022B0BD008BD0022074B1A76DC
:10A9A800F4E7064B1B7E002BF6D1FFF779FF08BDB5
:10A9B8000B78032BF0D1FFF777FEEDE7D0360020B8
:10A9C80000B585B0174BDB6818784FF6FF7203F5B2
:10A9D8008051184404F0F0FEF0B10246114BD968DA
:10A9E8000B780B44984219D00E4B5B7E93B10E4BFB
:10A9F80001208DF8000001920393042302930B4A6F
:10AA0800694600F0CFFF58B90120064B187605B00B
:10AA18005DF804FB064BEBE70120F8E70120F6E7B9
:10AA28000020F4E7D036002060110400EC36002046
:10AA38005C11040008B50F4BDB681878002203F599
:10AA48008051184404F0B8FE08B1012008BD094B34
:10AA5800DA68137951795B1A03F57F2303F6FF73DC
:10AA68001B0305D002F58052024BDA60032008BDB3
:10AA7800022008BDD0360020F0B585B0544BDD6803
:10AA88006A792B79591E8A421AD005F580510C78BB
:10AA98000C4450490968081D0E7906449B1A03F5B1
:10AAA8007F2303F6FF731B0303F580531D4463885C
:10AAB800013B9BB247F6FE62934260D927461FE0EE
:10AAC8000120434B58767EE0002458E0002456E0ED
:10AAD8007846FEF795F816E027F47F6323F00F0316
:10AAE80003F580531A7813449D42EDD99C42EDD268
:10AAF8005A88013A92B21F4647F6FE618A4210D937
:10AB08003B88002BE4D03B8807EB830323F47F6268
:10AB180022F00F029342DFD07A88B2F5FE4FE3D1DC
:10AB2800DAE71C462BE07846FEF76AF816E027F4C9
:10AB38007F6323F00F0303F580531A7813449D4273
:10AB48001CD99C4237D25A88013A92B21F4647F61E
:10AB5800FE618A4210D93B88002BE4D03B8807EB82
:10AB6800830323F47F6222F00F029342DFD07A88B6
:10AB7800B2F5FE4FE3D1DAE71C4600E00024E4B169
:10AB8800144B1968628801F58051304604F014FEB0
:10AB9800064690B101200E4B18768DF800000194FE
:10ABA8000D4B0393042302930C4A694600F0FAFE06
:10ABB80058B92746CFE70024E1E7B4FA84F46409DA
:10ABC800034B5C76012005B0F0BD0020FBE700BF19
:10ABD800D0360020F036002058110400EC36002052
:10ABE8002DE9F04186B0674B1B6923B1654B5B6962
:10ABF8002BB1002748E07846FEF702F8F6E77846DA
:10AC0800FDF7FEFFF5E77846FDF7FAFF17E028F4B1
:10AC18007F6323F00F0303F580531A7813449D4292
:10AC28001FD99C4221D25A88013A92B2984647F6D7
:10AC3800FE618A4213D9B8F80030002BE3D0B8F887
:10AC4800003008EB830323F47F6222F00F02934263
:10AC5800DDD0B8F80220B2F5FE4FE0D1D7E71C46A8
:10AC680000E000241CB100943EE00024FAE7002331
:10AC78000093019B002B60D10127002C7CD06288B7
:10AC880047F6FF739A4277D0002F79D13D4B5A6926
:10AC980022F47F6626F00F06B61A06F580561C6960
:10ACA800DD682B796A799B1A03F57F2303F6FF7316
:10ACB8001B0303F580531D44002301936388013B64
:10ACC8009BB247F6FE629342CDD9A046B3E77846D9
:10ACD800FDF796FF23E024F47F6424F00F0404F5C5
:10ACE8008054237823441C46A542C2D92388019A5C
:10ACF80002EB83029642BCD9009B634023F47F6336
:10AD080023F00F03002BB4D16388013B9BB247F6B5
:10AD1800FE618B42ADD801922388002BD7D02388BF
:10AD280004EB830323F47F6222F00F029342D2D014
:10AD38006288B2F5FE4FD6D1CDE7124A526901209A
:10AD48008DF808000392009A059204930E4A02A90E
:10AD580000F028FE70B90B49019B23F003024B69F0
:10AD680013444B6114B1074B1C6186E77846FDF725
:10AD780047FFF8E7002000E0012006B0BDE8F081B9
:10AD88000120FAE7D0360020EC36002008B54FF055
:10AD980010235B69B3F1FF3F03D04FF010235B69C9
:10ADA80063B94FF080525169136903FB01F3A3F5AE
:10ADB8008053054A1360FFF7BBFD08BD4FF0102311
:10ADC8005B69A3F58053F2E7F036002010B504461E
:10ADD800B0B1104B1B78CBB10E4BD968E3685879EA
:10ADE800A3EB0032914213D31A79121A02F57F228B
:10ADF80002F6FF7203EB0233994205D9002010BD19
:10AE08007846FDF7FDFEE4E7012010BD002010BDE7
:10AE1800002010BDD0360020024B1878003018BF33
:10AE280001207047D036002010B504460E4B1B7821
:10AE3800ABB92378032B02D07846FDF7E1FE0A4B25
:10AE48009C60E268DA6000225A601A760120187065
:10AE58005A76064900F094FDFFF722FD10BD7846AA
:10AE6800FDF7CEFEE5E700BFD03600208DA9020031
:10AE7800014B1868704700BFF036002010B5044633
:10AE880080B163681BB123680BB1A36813B9784616
:10AE9800FDF7B6FEA3685A1E134207D10023E360EC
:10AEA800236110BD7846FDF7ABFEEAE77846FDF76B
:10AEB800A7FEF3E770B508B30446826812B90925FE
:10AEC800284670BDEFF3108572B60669C2689642CF
:10AED80010D0084621686268A368013B1E4006FB43
:10AEE800021108B114F090FE2369013323614DB9B2
:10AEF80062B6E5E725B962B60525E1E70E25DFE785
:10AF08000525DDE70025DBE7C0F30B030BB11020B7
:10AF1800704709B90920704701F6FF71090B022231
:10AF2800104BC3F804250F4BD3F80034002BFAD08C
:10AF380000220AE00B4BC3F808050A4BD3F800348B
:10AF4800002BFAD000F5805001328A42F2D3002259
:10AF5800044BC3F80425034BD3F80034002BFAD074
:10AF68000020704700E0014010F0030F02D01023CA
:10AF78001846704711F0030F01D01023F8E70AB9FB
:10AF88000923F5E712F0030F01D00923F0E710B405
:10AF980093080124124AC2F80445114AD2F8002441
:10AFA800002AFAD002E00430043113465A1E53B185
:10AFB8000B68B3F1FF3FF6D00360094BD3F80034B8
:10AFC800002BFAD0EFE70021054AC2F80415044A1D
:10AFD800D2F80024002AFAD018465DF8044B7047CE
:10AFE80000E001404388012B05D0022B01D1043039
:10AFF80008600120704704304860FAE708B5082265
:10B008000221084803F00DFF38B1074A91684160F2
:10B01800127B027203F03EFF08BD044804F06CF88E
:10B0280008BD00BF003700204C370020002E00204C
:10B038000E4B1B78CBB910B50D4B5C6804F500546A
:10B04800B4F1807F00D910BD04220121094803F022
:10B05800E8FE30B144600121044A117003F01AFF80
:10B06800F1E7054804F048F810BD70476037002044
:10B078004C37002000370020F02D002010B5044682
:10B0880008B1A04710BD7846FDF7BAFDF9E7000002
:10B0980008B501210C4803F025FF20B902210A4810
:10B0A80003F020FF28B1094804F026F8FFF7C0FF95
:10B0B80008BD074A0023136053609360D36013618F
:10B0C800044A1370F2E700BF00370020202E00204A
:10B0D8004C3700202437002000B58DB00B4B1B7B6C
:10B0E800012B0ED0094A926804928DF8083003901B
:10B0F8000CA8022300F82C3DFFF780F80DB05DF88E
:10B1080004FB024A9268013A0492EEE74C370020A9
:10B1180010B58CB00C4682B94B88012B23D1134B48
:10B128001B7833B16268124B5A6000220F4B1A70B9
:10B1380019E07846FDF764FDF4E7032A02D0784663
:10B14800FDF75EFD2C22002101A814F087FD1123D4
:10B158008DF804300394074BDA6805921B6906934F
:10B1680001A8FFF74BF80CB010BD00BF60370020F6
:10B178004C3700200037002000B583B001F0F0FE06
:10B188000021009101916B46144A154803F03EFDD9
:10B19800009BBBB1019AAAB1186812498860187956
:10B1A8000873934201D91B79A3B112680D4B1A6039
:10B1B8000C4B1A685A60FFF73BFF01F015FF03B00C
:10B1C8005DF804FB074B00221A609A601A73FFF7B8
:10B1D80015FFEDE700220A60EAE700BFEDAF0200C5
:10B1E800003700204C37002008B503F0DFFFA0F53A
:10B1F800805008BD00B587B00023009301930293E7
:10B20800039304930593FFF7EFFF00900123019345
:10B21800064B03936946064803F01FFF10B907B0B1
:10B228005DF804FB034803F067FFF8E719B1020073
:10B2380000370020102E002010B50B4B00241C6096
:10B248005C609C60DC601C6101F008F9074B586089
:10B25800074A9A60074ADA601C615C61064B1C70F9
:10B26800FFF7C8FF10BD00BF4C370020283700206B
:10B27800B1B30200008793036137002008B5084B7B
:10B288001B7803B108BD0748074B036000F002FEB6
:10B29800064801F06DF80122014B1A70F2E700BF71
:10B2A800FC36002040370020E1B402002837002097
:10B2B80010B501F055FE164B1B7B23B1082401F095
:10B2C80093FE204610BD124B9B7B0BB10824F6E77A
:10B2D8000F4B1A8A41F282639A4204D80D4B1B78AD
:10B2E8002BB1012300E001231BB90824E7E7002361
:10B2F800FAE7074B01221A7300241C829A6801326C
:10B308009A60FFF77BFE2046FFF7E6FED7E700BF0F
:10B318004C3700206137002010B501F021FE204B8A
:10B328005B7B9BB11E4B9B7BF3B91D4B1A8A41F289
:10B3380082639A4204D81B4B1B782BB1012300E08F
:10B3480001239BB1012302E00023FAE700231C46F6
:10B358000BB3134B00225A731B7B4BB1012B0ED03E
:10B368007846FDF74DFC16E00023F0E70023EEE7F2
:10B37800FFF79EFF78B17846FDF742FC0BE0084BDB
:10B3880000201860586018731882FFF7A5FEFFF7B1
:10B3980035FEFFF74DFE01F027FE204610BD00BF29
:10B3A8004C3700206137002010B5234B1B7B8BB135
:10B3B800012B24D07846FDF723FC01241CB11E4A3A
:10B3C800138A013313821C4B5B8A13B1013B1A4A5F
:10B3D800538210BD184B1A8A41F282639A4204D8EC
:10B3E800164B1B782BB1012300E001231BB9012464
:10B3F800E4E70023FAE7FFF78FFF0024DEE70E4BB0
:10B408001A8A41F282639A4204D80C4B1B787BB1AA
:10B41800012300E001231C4663B142F2B0139A42B3
:10B4280003D90122044B5A730024FFF775FFC5E7BF
:10B438000023F0E70124C1E74C37002061370020E2
:10B4480010B5244B1B7B002B35D10446214B5B8A5E
:10B458002BBB1AB91F4B9B688B4205D3FAB11D4B06
:10B468009B68013399421AD91A4B9B682A3399422F
:10B4780023D8184B9B7B03BB164B996000221A609C
:10B488005A601A8242F6065159825A731A73FFF7A4
:10B49800B5FDFFF7CDFD2046FFF71EFE10BD62B1DA
:10B4A8000C4B9B680133994207D10122094B5A730F
:10B4B800FFF732FF10BD012B00D010BD002AFCD1D0
:10B4C800044B9B689942F8D10122024B5A73FFF74B
:10B4D80023FFF2E74C3700200378042B00D0704795
:10B4E80043681B78002BFAD010B58468027E437E2F
:10B4F800012A14BF00220122416904F11000FFF75C
:10B508009FFF10BD10B5184B1A685B689A4225D288
:10B518000446154B1B7B012B15D0144B934214D9B1
:10B52800002028B9104B1A685B68403B9A4212D237
:10B53800EFF3108072B60C4A1368591C116023602F
:10B5480080B962B610BD0A4BE8E70122064B5A7370
:10B55800FFF7E2FEE5E7FFF76BFDE9E7FFF768FDB8
:10B568000F2010BD002010BD4C370020FFFF7F00CA
:10B5780000E0FF0008B540B90D4B1B686BB10C4AE1
:10B588001368013B136063B108BD0122094B9A732C
:10B59800074A13680133136008BD7846FDF730FB8E
:10B5A800EDE70022034B9A73FFF7B6FEECE700BF06
:10B5B800F83600204C37002000B58DB0ADF80800F3
:10B5C8008DF8102003910CA8032300F82C3DFEF7FA
:10B5D80015FE0DB05DF804FB014B9868704700BF7D
:10B5E8004C370020054B1B7B012B02D0034B98687E
:10B5F8007047024B98680138704700BF4C370020ED
:10B60800044B9B68584010F0010F00D0013B1846CE
:10B61800704700BF4C370020014B187B704700BFB4
:10B628004C3700202DE9F041002722E02449BC23B3
:10B6380003FB04F3CA5A0132CA520221404602F0FF
:10B64800A8FB01360221404602F073FB70B1BC230F
:10B658001B4A03FB04239D68002DE7D0BC2303FB92
:10B6680004F3D25A01463846A847DFE796B90137AE
:10B67800FFB2022F20D83C46BC2303FB07F3083354
:10B688000F4D1D4405F104080221404602F051FB0C
:10B698000026DBE70021404602F0E3FB0828E6D15C
:10B6A800BC22074B02FB0434A368002BDFD0002226
:10B6B800044938469847DAE70120BDE8F08100BF21
:10B6C8006C370020140F040008B508238373102377
:10B6D800437300F11C0343610323037300F1180350
:10B6E80003610C3002F08FFB08BD000008B5037839
:10B6F800012B06D0022B07D07846FDF781FA0020EF
:10B7080008BD4FF4A97008BD004808BD645E01007B
:10B7180008B50278012A07D0022A13D07846FDF727
:10B728006FFA4FF4FA7308E083685B1A98084FF4CD
:10B73800A97303FB00F303F5FA730748984228BF7F
:10B74800184608BD83685B1A180B044B03FB00F30B
:10B7580003F5FA73F1E700BF60850100645E01003C
:10B7680038B5044601210C3002F0E3FA054678B1F9
:10B77800084BC4F89C300023C4F8A0306168FFF778
:10B78800C7FFC4F8A800C4F8AC40012384F8B83057
:10B79800284638BDB5B8020010B50446FFF7E0FFEB
:10B7A80020B104F19C000BF025FC00B910BD7846CF
:10B7B800FDF726FAFAE70000F8B506460C461746E4
:10B7C80015680378012B02D07846FDF719FA10495D
:10B7D800A1FB0431C9098900B468641BA14200D8DF
:10B7E8000C466CB1706825F00305F16822462944BF
:10B7F8002844FFF7B9FB38B93B681C443C60F8BDE6
:10B808007846FDF7FDF9EDE77846FDF7F9F9F3E736
:10B81800EB5DF260F8B507460C46164615680378E6
:10B82800022B02D07846FDF7EBF90F4BA3FB04235C
:10B838001B0C1B03BC68641BA34200D81C465CB1EC
:10B84800786825F0030521462844FFF75DFB38B9E1
:10B8580033681C443460F8BD7846FDF7D1F9EFE74A
:10B868007846FDF7CDF9F3E7B77609BB38B5054655
:10B878000C4611462378012B06D0022B0FD07846B0
:10B88800FDF7BEF9002004E0021D2046FFF794FFF3
:10B89800A0686B68984214BF0020012038BD021DC3
:10B8A8002046FFF7B7FFA068F3E700002DE9F8434B
:10B8B8008846D1F8A850244B1B7863B90646A5F5ED
:10B8C800FA7501F10C090121484602F032FA0746DF
:10B8D80040B1002424E00BF0C9FB002388F8B830FD
:10B8E800BDE8F8837846FDF78BF9F2E70BF0BEFB6D
:10B8F8000121484602F04DFA0023C8F8043088F8C0
:10B90800B830124B186801F0C3FB4046FFF744FFFC
:10B91800BDE8F8833846FFF7E9FE204485420CD39A
:10B928002A1B39464046FFF7A1FF0028DED101F067
:10B93800DBF9841BEED5341AECE70BF097FB404695
:10B94800FFF72AFFBDE8F883683700206437002036
:10B9580010B5084801F07CFB074B1860002406E08E
:10B96800BC20064B00FB0430FFF7AEFE0134022C6E
:10B97800F6D910BD2DB60200643700206C370020C0
:10B9880038B504460D46022805D8BC22044B02FBF4
:10B998000434A56038BD7846FDF732F9F5E700BFF5
:10B9A8006C3700202DE9F84306460C4690460228DD
:10B9B80047D8002C49D02378012B4AD0022B67D0D6
:10B9C8007846FDF71DF9EFF3108772B6BC2505FB25
:10B9D80006F505F108034B4D1D44043500212846A2
:10B9E80002F0A7F98146002872D00021284602F00B
:10B9F800D0F920686168A268E368C9F80000C9F84E
:10BA08000410C9F80820C9F80C30B8F1000F06D0A6
:10BA1800BC233C4A03FB06235B88A8F80030BC2300
:10BA2800384A03FB06235A8801325A8093F8B83003
:10BA3800002B60D1344B1B78002B40D00024A1464A
:10BA480047E07846FDF7DCF8B3E77846FDF7D8F825
:10BA5800B1E7636813F0030F0ED1E36813F0030F27
:10BA68000ED1A36813F0030F0ED1A368002BAAD13F
:10BA78007846FDF7C5F8A6E77846FDF7C1F8ECE784
:10BA88007846FDF7BDF8ECE77846FDF7B9F8ECE73E
:10BA98006368C3F30B0353B9A368C3F30B0353B928
:10BAA800A368002B8FD17846FDF7AAF88BE7784674
:10BAB800FDF7A6F8F0E77846FDF7A2F8F0E7BC2016
:10BAC800104B00FB0630FFF74BFE8146002400E0D8
