:020000022000DC
:1060000000F000206D630200556302005763020038
:10601000596302005B6302005D6302000000000040
:106020000000000000000000000000005F630200AC
:106030006163020000000000636302006563020008
:106040006763020067630200676302006763020020
:106050006763020067630200C18902006763020090
:106060006763020067630200796E030067630200E2
:1060700067630200676302006763020067630200F0
:10608000676302008DF7030045D2020067630200D8
:10609000F1F7030067630200D19603006763020013
:1060A00067630200676302006763020067630200C0
:1060B0006763020067630200000000000000000048
:1060C00067630200676302006763020067630200A0
:1060D000676302006763020067630200000000005C
:1060E00000000000000000000000000000000000B0
:1060F00000000000000000000000000000000000A0
:10610000000000000000000000000000000000008F
:10611000000000000000000000000000000000007F
:10612000000000000000000000000000000000006F
:10613000000000000000000000000000000000005F
:10614000000000000000000000000000000000004F
:10615000000000000000000000000000000000003F
:10616000000000000000000000000000000000002F
:10617000000000000000000000000000000000001F
:10618000000000000000000000000000000000000F
:1061900000000000000000000000000000000000FF
:1061A00000000000000000000000000000000000EF
:1061B00000000000000000000000000000000000DF
:1061C00000000000000000000000000000000000CF
:1061D00000000000000000000000000000000000BF
:1061E00000000000000000000000000000000000AF
:1061F000000000000000000000000000000000009F
:10620000344935480A1A02D0072291438D46334952
:1062100033480A1A06D00722914381F309880222E3
:1062200082F314882F483049304A00F042F8304851
:106230003049314A00F03DF830483149314A00F0E8
:1062400038F831483149324A00F033F831483249A0
:10625000324A00F02EF832483249334A00F029F829
:1062600032483349334A00F024F833483349002296
:1062700000F02AF832483349002200F025F832486D
:106280003249091A082902DB0022026041601F48D6
:106290001F49884205D00268043003B4904703BC0C
:1062A000F7E700208646EC4600200021284A904768
:1062B000FEE7884207D0521A05D0037801300B70F0
:1062C0000131013AF9D17047884202D002700130A1
:1062D000FAE7704700F0002000E8002000F00020FE
:1062E00000F00020581E0400A02D0020CC2E00201D
:1062F000A4630200A463020000FD0300581E040012
:10630000A02D0020A02D0020D0FD0300D0FD030013
:10631000D0FD0300D0FD0300D0FD0300D0FD03003D
:10632000D0FD0300D0FD0300561E0400841F0400AE
:10633000CC2E0020CC2E0020CC2E00205454002047
:106340005454002054540020545400205458002029
:1063500085720200FEE7FEE7FEE7FEE7FEE7FEE7E6
:10636000FEE7FEE7FEE7FEE7704700BF094880470B
:1063700009484FF007018843854608488047084888
:10638000016841F470010160BFF34F8FBFF36F8F5D
:10639000FFF736BF6963020000F00020B5990300E3
:0463A00088ED00E0A4
:1063A40041DF704708B5804708BD000008B5034ABF
:1063B4007D21032013F026FC08BD00BFA8010400C2
:1063C4000B7823BB124B1B6813F4804F1FD0114B67
:1063D4001B68032B1BDD10B584B00F4BD3F80435B9
:1063E4004A685088097B5269147874B992F90D206F
:1063F400039202910190094A009240F2491208491D
:10640400042007F089FE04B010BD0022F0E77047B5
:10641400402E00203C2E002000100140C4FE03004A
:106424001302040030B5C7B0734B1B6813F4804FDC
:1064340003D0724B1B68032B30DC6F4B1B6813F4C7
:10644400804F03D06D4B1B68032B33DC6A4B1B68F6
:1064540013F4804F03D0694B1B68032B3DDC664B60
:106464001B6813F4804F03D0644B1B68032B60DC60
:10647400614B1B6813F4804F04D0604B1B68032BE3
:1064840000F382805C4B1B6813F4804F04D05B4B99
:106494001B68032B00F3A38047B030BD584BD3F8DF
:1064A4000435584A00924FF418725749042007F0F3
:1064B40033FEC2E7524BD3F80435544A118850884E
:1064C400D288039202900191514A009240F26222D2
:1064D4004D49042007F020FEB8E700230F2B12D803
:1064E4004A4A1A4492F82C204A490C681009590067
:1064F400255C05A800F8135002F00F020131A25CDC
:1065040042540133EAE705AA00238DF8343003F13D
:10651400804303F58833D3F8043502923E4A01924E
:106524003E4A009240F263223749042007F0F4FD0A
:1065340095E700230F2B11D8344A1A44127B3549AE
:106544000C6810095900255C05A800F8135002F0E6
:106554000F020131A25C42540133EBE705AA002388
:106564008DF8343003F1804303F58833D3F80435D0
:1065740002922B4A0192294A00924FF4197222493D
:10658400042007F0C9FD73E700230F2B11D81F4A1D
:106594001A44127F1F490C6810095900255C05A88C
:1065A40000F8135002F00F020131A25C425401338F
:1065B400EBE705AA00238DF8343003F1804303F59B
:1065C4008833D3F804350292164A0192134A009292
:1065D40040F265220C49042007F09EFD52E7084B67
:1065E400D3F80435104A009240F26622064904208A
:1065F40007F092FD50E700BF402E00203C2E002003
:106604000010014064FF030013020400102F002057
:1066140080FF0300442E0020C4FF0300D0FF0300CA
:10662400D8FF0300E4FF0300F0FF030003780E2B00
:1066340000D0704700B583B0104B1B6813F4804F33
:1066440003D00F4B1B68042B05DC0E4B1B7873B176
:1066540003B05DF804FB0C4BD3F804350B4A0092ED
:106664004FF4D3720A49052007F056FDEDE7FFF712
:10667400D9FE044B01221A70EAE700BF402E002025
:106684003C2E00204C2F002000100140FCFE030093
:10669400130204000C4B1B6813F4804F03D00B4B04
:1066A4001B68032B00DC704700B583B0084BD3F89C
:1066B4000435084A009289220749042007F02CFD7A
:1066C40003B05DF804FB00BF402E00203C2E0020E8
:1066D400001001401C0204001302040000B583B042
:1066E400194B1B6813F4804F03D0184B1B68032B02
:1066F40012DC174B4FF6FF725A809A801A801548A5
:1067040015F08EFCA0B9144A0021144818F054FD69
:10671400A0B903B05DF804FB114BD3F80435114A5A
:1067240000924FF401721049042007F0F5FCE0E7F1
:106734000E4A4FF4037113F065FAE4E70B4A40F292
:106744000D2113F05FFAE4E7402E00203C2E0020D8
:10675400CC2E002075670200C5630200D42E0020F1
:1067640000100140CC02040013020400A80104003C
:1067740070B582B004460D4616460E4B1B6813F4E2
:10678400804F03D00C4B1B68032B06DC3246294692
:10679400204601F0D1FE02B070BD084BD3F8043599
:1067A400074A00924FF4AF720649042007F0B4FC84
:1067B400ECE700BF402E00203C2E002000100140DA
:1067C400E8FD03001302040000B583B0104B1B68FE
:1067D40013F4804F03D00F4B1B68032B08DC0021FC
:1067E4000D4B1970122002F037F803B05DF804FB6A
:1067F4000A4BD3F804350A4A52880192094A009296
:1068040040F223120849042007F086FCE7E700BFA2
:10681400402E00203C2E00200C2F002000100140B0
:10682400102F002000FE03001302040000B583B003
:106834000E4B1B6813F4804F03D00D4B1B68032BC6
:1068440008DC00210B4B1970082002F005F803B096
:106854005DF804FB084BD3F80435084A00924FF462
:106864009A720749042007F057FCEAE7402E0020FB
:106874003C2E00200C2F00200010014018FF0300C4
:106884001302040010B582B00446174919F0DDF96B
:1068940020B31649204619F0D8F910B314492046FC
:1068A40019F0D3F908B9134819E0134B1B6813F412
:1068B400804F03D0114B1B68002B04DA784602F09A
:1068C400C7F900200BE00E4BD3F804350D4A0092B3
:1068D400FC220D49002007F01FFCEFE70B4802B033
:1068E40010BD0A48FBE700BF28030400440304006A
:1068F4006003040008030400402E00203C2E002006
:10690400001001408003040013020400EC020400A0
:1069140000B583B0614B1B78002B40F0A880604B1E
:106924005A881B889A4228D25E4B1B6813F4804F06
:1069340003D05D4B1B68032B13DC59488368009319
:10694400002300F11C020221808801F04DFE012188
:10695400122001F081FF514B01221A7003B05DF83F
:1069640004FB524BD3F80435514A00924FF4B872E9
:106974005049042007F0D0FBDFE713BB494B1B68E9
:1069840013F4804F03D0484B1B68032B0DDC032307
:10699400494A4349C988022000F0FCFF01F038F855
:1069A4000121082001F058FFD5E7404BD3F8043506
:1069B400424A00924FF4BD723E49042007F0ACFBFA
:1069C400E5E71E2B3ED8374B1B6813F4804F03D0EA
:1069D400354B1B68032B1CDC314B9868FFF752FFC7
:1069E400374B18602F4B1B6813F4804F03D02E4B8A
:1069F4001B68032B19DC0123314A2949C988022069
:106A040000F0C8FF01F004F80121082001F024FF80
:106A1400A1E7264BD3F804352A4A00924FF4C372F7
:106A24002449042007F078FBD6E7204BD3F804353B
:106A34000190254A00924FF4C5721E49042007F0C4
:106A44006BFBD8E7174B1B6813F4804F86D0164BAB
:106A54001B68032B82DD154BD3F804351B4A0092C7
:106A640040F293121349042007F056FB76E70D4BCE
:106A74001B6813F4804F3FF471AF0B4B1B68032B5F
:106A84007FF76CAF094BD3F80435114A009240F2FA
:106A94009B120849042007F03FFB5FE70C2F0020FE
:106AA400102F0020402E00203C2E0020001001401A
:106AB4009C00040013020400DC2D0020D00004001C
:106AC400542F002000010400300104004801040098
:106AD4006401040010B582B01446154B1B6813F40E
:106AE400804F03D0134B1B68032B07DC012C10D001
:106AF400022C12D0032C14D002B010BD0E4BD3F8CC
:106B040004350E4A00926D220D49042007F004FB5F
:106B1400ECE7784602F09CF8EAE7784602F098F849
:106B2400E8E7084A7621042013F06CF8E4E700BF94
:106B3400402E00203C2E00200010014034020400AE
:106B440013020400A801040008B53C2200210648F1
:106B540019F048F8054808F003F800B908BD0448DE
:106B640008F09AFAFAE700BF102F0020E82E002060
:106B7400CC2D002010B582B00446294B1B6813F4B9
:106B8400804F03D0274B1B68032B04DC8CB1032CF0
:106B940012D002B010BD244BD3F80435421C01922C
:106BA400224A00924FF4EE722149042007F0B4FA0D
:106BB400ECE7FFF7ADFEECE7194B1B6813F4804FCD
:106BC40003D0184B1B68032B1EDCFFF7BDFF0AF034
:106BD400CCFA0422C8214FF4807001F057FE104B08
:106BE4001B6813F4804FD4D00E4B1B68032BD0DDED
:106BF4000D4BD3F804350F4A00924FF4F8720C4948
:106C0400042007F089FAC4E7074BD3F804350A4A8D
:106C140000924FF4F5720649042007F07DFAD4E798
:106C2400402E00203C2E00200010014034000400BF
:106C340013020400600004004800040030380428F3
:106C440000D9704708B5FFF795FF08BDF8B53C2299
:106C54000121104808F0B9F8B8B107460E4C051DDB
:106C640004F1300C26460FCE28606960AA60EB6000
:106C7400344610356645F5D107CC28606960AA60B2
:106C8400384608F0DBF80020F8BD044808F004FAA0
:106C9400F9E700BFE82E0020102F0020B02D0020BF
:106CA40010B582B02E4B1B6813F4804F03D02D4BCC
:106CB4001B68032B20DC0021122001F0CDFD2A4AA1
:106CC4005388013353800BF00FF9FFF7BFFF10BB5C
:106CD400254B5B881E2B24D9214B1B6813F4804F52
:106CE40003D0204B1B68032B2DDC0422C8211F4832
:106CF40001F0CCFD02B010BD1D4BD3F804351A4A87
:106D0400528801921B4A009240F207121A49042049
:106D140007F002FACFE7194A40F20D1112F072FFA0
:106D2400D6E7114CA068FFF7ADFD154A10600123AA
:106D3400E188022000F02EFE00F06AFE0121082006
:106D440001F08AFDD6E70A4BD3F804350D4A0092C8
:106D540040F21B120849042007F0DEF9C5E700BF22
:106D6400402E00203C2E0020102F002000010400A3
:106D7400001001405CFE030013020400A80104009B
:106D8400502F00204801040000B583B0144B1B6849
:106D940013F4804F03D0134B1B68032B0DDC00212D
:106DA400082001F059FD0121122001F055FDFFF7E3
:106DB4004DFF70B903B05DF804FB0B4BD3F80435F9
:106DC4000A4A00924FF495720949042007F0A4F985
:106DD400E5E7084A40F22F1112F014FFEAE700BF7A
:106DE400402E00203C2E00200010014048FF0300EC
:106DF40013020400A801040008B5FFF727FF00B937
:106E040008BD024AEE2112F0FDFEF9E7A8010400D4
:106E140010B582B00446104B1B6813F4804F03D0A6
:106E24000E4B1B68032B04DC23781C2B0FD002B001
:106E340010BD0B4BD3F8043502780192094A009235
:106E44004FF4A9720849042007F066F9ECE7002022
:106E540005F0A6F8EBE700BF402E00203C2E0020F2
:106E64000010014040FE03001302040000B58BB083
:106E740008A909A80AF0C6F9A8B9194B0593194B32
:106E84000693194B079304230493099BA3F580539A
:106E940002930123039302A9144808F0AEF838B909
:106EA4000BB05DF804FB124A962112F0ABFEE4E746
:106EB400104808F0F1F8104B1B6813F4804FEFD022
:106EC4000E4B1B68002BEBDD0D4BD3F804350D4A3C
:106ED4000092A3220C49012007F01EF9E0E700BF4D
:106EE400D96A0200B163020099660200E82E00200C
:106EF400A8010400A02D0020402E00203C2E0020DC
:106F04000010014098FE03001302040010B582B083
:106F14003C23019301AB094A0121094807F016FFFC
:106F2400044620B9B4FA84F0400902B010BD3C22F2
:106F34000021024818F056FEF4E700BF102F00208D
:106F4400E82E002010B582B0FFF790FFFFF7DEFFB8
:106F5400044658B1134B1B6813F4804F03D0124BF3
:106F64001B68032B12DC204602B010BD0F4B00221D
:106F74001A805A800122DA80FFF768FE0028F2D0D6
:106F84000B4A40F2D11112F03DFEECE7094BD3F865
:106F94000435094A009240F2D5120849042007F04A
:106FA400BBF8E0E7402E00203C2E0020102F0020EC
:106FB400A80104000010014084FE03001302040031
:106FC40010B582B06421164801F0E6FB154B1B682E
:106FD40013F4804F03D0144B1B68032B0EDC04F016
:106FE4002BFFB8B9114C0021204601F044FC0222C9
:106FF400C821204601F04AFC02B010BD0C4BD3F866
:1070040004350C4A00924FF41B720B49042007F01C
:1070140083F8E4E7094A40F2722112F0F3FDE1E754
:10702400416C0200402E00203C2E00200001040090
:10703400001001409C03040013020400A801040092
:1070440008B5124B998818890BF09CFF58B90F4B5F
:10705400998818890CF05AF858B90C4B188817F00D
:10706400F3FD60B908BD0A4A40F2BD1112F0CAFD31
:10707400EDE7074A4FF4DF7112F0C4FDEDE7044A6F
:1070840040F2C11112F0BEFDECE700BFCC2E00208F
:10709400A801040030B593B0202200210DEB0200BA
:1070A40018F0A0FD01238DF8203007238DF823303C
:1070B40006238DF828303E4B0C933E4B10930DF174
:1070C400470108A80AF068F858BB3B4804F004FFDD
:1070D400FFF738FF394B187602AC394D0FCD0FC48A
:1070E40095E8030084E8030002A800F027FD9DF85A
:1070F400473043BB334B1B6813F4804F03D0324BF0
:107104001B68032B13DC00F041FDFFF799FF0AF025
:10711400EBFEFFF771FE2D492D4801F017FB13B06C
:1071240030BD2C4A40F21A2112F06CFDCDE72A4BF7
:10713400D3F80435294A00924FF40C7228490420EC
:1071440006F0EAFFDFE74FF0A043D3F8103513F45D
:10715400803F0BD01B4B1B6813F4804F03D01A4B9A
:107164001B68032B17DC00F085FCD4E7FFF7ECFC6D
:1071740009F0FBFF4FF4FA744FF47A40194B43F0D3
:1071840001039847013CF7D10422C8214FF48070D1
:1071940001F07CFBBFE7104BD3F80435124A009290
:1071A4004FF411720E49042006F0B6FFDBE700BF6E
:1071B400156E0200E1660200C02D0020CC2E0020D6
:1071C400D0FD0300402E00203C2E0020CD6702009D
:1071D400A56C0200A8010400001001408002040014
:1071E40013020400A0010400B802040000B583B037
:1071F4001B4A04214FF4C04006F072FF194B1B6870
:1072040013F4804F03D0184B1B68032B0FDC18F0CA
:10721400F1FAC0B901F074FB144801F0A3FBC0B942
:1072240001F00AFCFFF736FF03B05DF804FB104BD6
:10723400D3F804350F4A009240F24F220E4904203D
:1072440006F06AFFE3E70D4A40F2512112F0DAFC3E
:10725400E0E70A4A40F2552112F0D4FCE0E700BF0F
:10726400B9E00200402E00203C2E0020796B020081
:10727400001001404C02040013020400A8010400A1
:1072840008B5FFF7B3FFFFF79BFEFFF789F8FCE7AC
:107294001D4B1B781BB11C4B01221A70704700B5A3
:1072A40087B01A4A03AB07CA03C323F8022B120C94
:1072B4001A701749174813F029F8B0B9164B009300
:1072C40003AB134A1349154812F0DDFF90B9144873
:1072D40014F0FEFB0146114813F000F878B90A4B8C
:1072E40001221A7007B05DF804FB0E4A772112F0F0
:1072F40089FCE3E70B4A782112F084FCE7E7094AAA
:10730400792112F07FFCEAE794320020A8030400FC
:107314005C2F002098320020CD73020044310020FD
:107324007C2F002004070400B0B130B585B00546B9
:10733400A1B10C46084618F0AFFC6A4681B220465B
:1073440006F08EF804226946284618F0E7FBB0FAE6
:1073540080F0400905B030BD002070470020F9E7F7
:1073640070B58AB0064600230393049305930693ED
:10737400079308938DF824300F4D2B89ADF81C30FA
:107384000E4B1B88ADF8223003AC6B6853F80C0F1E
:1073940059689A68DB680FC40123009303ABAA7A87
:1073A4003146074812F0B6FF08B90AB070BD054A65
:1073B4006E2112F027FCF8E77C320020DA3200203C
:1073C400443100200407040070B5C8B004460378B3
:1073D4000A2B10D8DFE813F00B009702C4000F004B
:1073E4000F000F000F006F020F0011028F019B4B63
:1073F4001B78012B01D048B070BD994B1B6813F466
:10740400804F03D0974B1B68032B50DCE269137841
:1074140043B9934B1B6813F4804F03D0914B1B6803
:10742400032B46DC637D002BE5D08D4B1B6813F4E6
:10743400804F03D08B4B1B68032B6FDC00258A4BDA
:107444001B78AB42D7D9AE00884B1B6853F8251084
:1074540004F11600FFF768FF002861D10135EEE75B
:10746400E218127982490D68100959002E5C07A8A8
:1074740000F8136002F00F020131AA5C4254013398
:107484000F2BEDD907AA00238DF83C3003F180437C
:1074940003F58833D3F804350292764A0192764A8A
:1074A40000928A227549042006F036FEAEE70023D6
:1074B400E6E7734BD3F8043592F90D200192714A33
:1074C40000928E226D49042006F026FEAAE7E218F7
:1074D400927D67490D68100959002E5C07A800F8D1
:1074E400136002F00F020131AA5C42540133032BF2
:1074F400EDD907AA00238DF8243003F1804303F566
:107504008833D3F8043502925F4A01925A4A0092B2
:1075140093225A49042006F0FFFD8FE70023E6E793
:107524004F4B1B6813F4804F03D04E4B1B68032B47
:107534000BDC4E4B1B689A59544B1A60201DFFF705
:107544000FFF464B03221A7055E74D4BD3F8043511
:107554004F4A009299224949042006F0DDFDE8E7EC
:107564003F4B1B6813F4804F03D03E4B1B68032B27
:1075740033DC3A4B1B78032B40D0022B7FF43BAF18
:10758400444B5B68444A118899801A8801321A80F6
:10759400DA88424800880244DA80012900F09680A3
:1075A4003C4CE3689847236998472D4B1B6813F4B8
:1075B400804F04D02B4B1B68032B00F38B80354B7F
:1075C4005A6890889368009300231C32022101F0CA
:1075D4000BF8224B00221A700DE7294BD3F804351F
:1075E4002F4A127802921D4A127801922D4A009273
:1075F400A6222249042006F08FFDBAE7284B1B7807
:10760400DBB1174B1B6813F4804F03D0154B1B6879
:10761400032B07DC114B01221A70214A1378013B1A
:107624001370E8E6164BD3F804351F4A0092AB22D8
:107634001249042006F070FDECE7094B1B6813F4B3
:10764400804F03D0074B1B68002B2FDC034B002219
:107654001A70104B5B699847CDE600BF7832002062
:10766400402E00203C2E0020DE320020E432002098
:10767400442E0020C8030400D0FF03006F07040059
:1076840000100140D0030400DC030400E0320020B9
:10769400E80304007C320020DA320020DC320020CF
:1076A400D83200200C04040054040400A14BD3F885
:1076B4000435227AA0490988029101929F4A0092D6
:1076C400B2229F49012006F027FDBFE79D4A1268B8
:1076D4009A6065E7974BD3F80435626892889A49B3
:1076E400098802910192994A0092C4229449042083
:1076F40006F012FD63E7964B1B6813F4804F03D02A
:10770400944B1B68032B4EDC934B02221A70904B54
:107714001B6813F4804F03D08E4B1B68032B4DDC86
:10772400E3688E49D88A0DF057FE002851D1E068ED
:107734008B4B19688B4BA2684988C08A0EF06EFB8C
:1077440000284BD1874B188814F0E6FC00284AD156
:10775400824B1988834B188814F090FC002847D179
:107764007B4B1B6813F4804F3FF445AE794B1B6889
:10777400032B7FF740AE6F4BD3F80435E268D28A0F
:1077840077490968498877480088049003917349C8
:10779400098802910192744A0092E5226849042002
:1077A40006F0BAFC27E6634BD3F804356F4A00921F
:1077B400CF226349042006F0AFFCA5E75D4BD3F864
:1077C40004356B4A0092D4225D49042006F0A4FCDF
:1077D400A6E7684AD62112F015FAA8E7654ADA2125
:1077E40012F010FAAEE7634ADD2112F00BFAAFE7AC
:1077F400604ADF2112F006FAB2E7027A524B1A808D
:10780400102300220121406812F0B3FD00283FF448
:10781400F2AD4F4B1B6813F4804F03D04D4B1B68E4
:10782400002B13DC544B1B783BB3494B1B6813F4FC
:10783400804F03D0474B1B68032B13DC464B0122BC
:107844001A704D4A1378013B1370D4E5394BD3F8C1
:1078540004350190494A0092F5223949012006F085
:107864005BFCDFE7334BD3F80435454A0092F8223A
:107874003349042006F050FCE0E7354B1B6813F451
:10788400804F03D0334B1B68032B06DC324B0022A2
:107894001A70334B5B699847ADE5264BD3F8043532
:1078A400254A12880192374A0092FF222449042073
:1078B40006F032FCEAE707AD334B0FCB85E80F0047
:1078C40010222946606812F05DFDB0B9204B1B6898
:1078D40013F4804F3FF48FAD1E4B1B68032B7FF7CF
:1078E4008AAD144BD3F80435284A009240F20D12A5
:1078F4001349042006F010FC7DE51E4A4FF48671FE
:1079040012F080F9E2E7124B1B6813F4804F3FF446
:1079140072AD104B1B68032B7FF76DAD054BD3F88D
:1079240004351B4A00924FF489720549042006F07D
:10793400F3FB60E500100140DA3200207804040013
:107944006F070400E0320020DC320020BC04040095
:10795400402E00203C2E002078320020582F00209A
:107964007C3200205A2F002040050400F404040057
:107974001805040004070400D8320020840504001C
:10798400B4050400C4050400B40304002C06040078
:107994005406040010B582B00AB11446A3B9124BC0
:1079A4001B6813F4804F1CD0104B1B68002B18DD90
:1079B4000F4BD3F804350F4A00924FF490720E49DE
:1079C400012006F0A9FB0CE00C4A10700C4A11804F
:1079D4000C4A012111700C4A14600C4A1370FFF711
:1079E40057FC02B010BD00BF402E00203C2E0020EA
:1079F40000100140B40604006F070400D8320020D0
:107A0400DA32002078320020E4320020DE32002016
:107A140000B583B0104B1B6813F4804F03D00F4B99
:107A24001B68032B06DC0E4812F022FD70B903B06C
:107A34005DF804FB0B4BD3F804350B4A009240F27B
:107A44002F120A49042006F067FBECE7084A4FF4BA
:107A5400987112F0D7F8EAE7402E00203C2E00205F
:107A6400CD73020000100140840704006F07040076
:107A74000407040000B587B001230493284B186859
:107A840004A902300EF0BCF900BB049B012B23D1E6
:107A9400234B1B6804AA191D58880EF091FBF8B9F2
:107AA40005A80DF08BFC1E4B1968BDF814000EF0F0
:107AB400F9F9D8B91B4B1B6813F4804F03D01A4B48
:107AC4001B68032B18DC07B05DF804FB174A40F26F
:107AD400391112F097F8D8E7784601F0B9F8D7E7EA
:107AE400124A40F23B1112F08DF8D9E70F4A40F2E6
:107AF4003F1112F087F8DDE70D4BD3F80435084A3F
:107B04001268518890881288039202900191094A60
:107B140000924FF4A1720849042006F0FDFAD2E75E
:107B24007C320020402E00203C2E0020040704005C
:107B340000100140740604006F07040038B50446C1
:107B4400C36883B1636993B12369A3B10C4D0FCCAE
:107B54000FC594E8030085E803000023094A137065
:107B6400094A137038BD784601F072F8EAE778469E
:107B740001F06EF8E8E7784601F06AF8E6E700BF3E
:107B84007C320020943200207832002010B584B07A
:107B9400334BDB69039303A80DF0D6FB002837D1E0
:107BA400304C606810210C3004F0B2FD6068102184
:107BB4001C3004F0ADFD606810212C3004F0A8FDE9
:107BC4006168226802320C3100200DF0BFFE28BB30
:107BD400254B1B6813F4804F03D0244B1B68032BE5
:107BE40022DC204B19685A680B1D1C32498800207E
:107BF4000EF074F940BB1B4B19685A680B462C32C3
:107C040049884FF480500EF009F918BB04B010BD38
:107C1400174A40F2551111F0F5FFC1E7144A40F23A
:107C24005D1111F0EFFFD3E7124BD3F804350D4A81
:107C3400126852880192104A00924FF4AF720F49B1
:107C4400042006F069FACCE7094A40F25F1111F00A
:107C5400D9FFD0E7064A4FF4B17111F0D3FFD5E74D
:107C6400A80304007C320020402E00203C2E00207B
:107C74000407040000100140F00604006F0704002C
:107C8400012803D0034B044A1A607047014B034A8E
:107C94001A607047E82D0020E00A040088080400F8
:107CA40070B5064614460D4601B122B1044B5E8000
:107CB4001D705C6070BD784600F0CAFFF6E700BF37
:107CC400F432002010B584B03F4B5A8882420ED162
:107CD40048F2190398422BD022D948F21F03984244
:107CE40028D048F23E03984226D10C7840E0374B26
:107CF4001B6813F4804F03D0354B1B68002B02DC48
:107D0400022004B010BD334BD3F804350290019225
:107D1400314A0092E1223149012006F0FDF9EFE7F2
:107D2400022824D048F20303984205D10C781FE0BE
:107D34000C781DE00C781BE0244B1B6813F4804F77
:107D440003D0234B1B68002B06DC254AFE210520AB
:107D540011F058FFFF240BE01E4BD3F80435214AE1
:107D64000092FD221D49012006F0D6F9EDE7FF241B
:107D7400154B1B781BB3154B1B6813F4804F03D0B2
:107D8400134B1B68032B0BDC00230F4A12789A4217
:107D940013D90D4A5268D25CA24212D00133F4E7DF
:107DA4000C4BD3F8043501940F4A00924FF48372BC
:107DB4000A49042006F0B0F9E6E70120A1E7002013
:107DC4009FE700209DE700BFF4320020402E0020F2
:107DD4003C2E002000100140200804001308040079
:107DE400A80704004C0804006C08040030B585B0F2
:107DF400044615460180104603F0E2FE2071E5803A
:107E0400184B1B88A3810022A2731E23E373237CD7
:107E140003F0030362F30103237401236374A27464
:107E2400114B1A88A4F813205B88A4F815300F4B63
:107E34001B6813F4804F03D00D4B1B68032B01DC2C
:107E440005B030BD0B4BD3F804352288029501925E
:107E5400094A009240F223120849042006F05CF912
:107E6400EEE700BFE8320020EC320020402E002074
:107E74003C2E002000100140940804001308040064
:107E840010B50A4B1B7863B1084C2378013B04F806
:107E9400043B04F001FB06490144204604F0C4FA03
:107EA40010BD784600F0D4FEEEE700BF0833002092
:107EB400404B4C0008B5034804F09EFA024B034AB9
:107EC4001A6008BD0C330020E82D0020350A040098
:107ED40008B5FFF7EFFF024B1B68984708BD00BFCA
:107EE400FC32002010B58CB0A64B1B681B78013BFC
:107EF400092B00F23A82DFE813F00A00340058003C
:107F04008300B100F100730102021D02C6019E4B01
:107F14001B6813F4804F03D09C4B1B68032B14DCA9
:107F2400002014F013F90446002211460220FFF742
:107F3400B7FE44B114F0BCF9954B1B78002B00F04C
:107F44001B82FFF79DFF0CB010BD924BD3F8043594
:107F5400914A009240F25B129049042006F0DCF84A
:107F6400DEE7894B1B6813F4804F03D0874B1B68F3
:107F7400032B0EDC8A4B1A688A4B1988002014F0F4
:107F840009F90446884A022148F20300FFF788FEF3
:107F9400CFE7804BD3F80435844A009240F265124F
:107FA4007E49042006F0B8F8E4E7774B1B6813F425
:107FB400804F03D0754B1B68032B15DC4FF6FF7302
:107FC400ADF818300223ADF81A30069A754B1988AB
:107FD400774B188814F062F90446764A012148F276
:107FE4003E00FFF75DFEA4E76A4BD3F80435724AFE
:107FF40000924FF4B8726949042006F08DF8DDE769
:10800400614B1B6813F4804F03D0604B1B68032B38
:1080140015DC6A4B1A88ADF818205B88ADF81A3065
:10802400069A604B1988624B188814F037F9044695
:10803400634A012148F23E00FFF732FE79E7554BCF
:10804400D3F804355D4A528801925E4A009240F2A8
:108054007F125249042006F05FF8DAE75A4B1B8876
:1080640023B9534B1B880133574A1380464B1B6873
:1080740013F4804F03D0454B1B68032B1CDC534B7C
:108084001A88ADF818205B88ADF81A30069A454B6B
:1080940019884D4B188814F001F904464C4A012103
:1080A40048F23E00FFF7FCFD002C7FF442AF464A45
:1080B4001388013313803CE7364BD3F80435434A25
:1080C40052884149098802910192424A00924FF430
:1080D400C9723249042006F01FF8D0E70023CDF816
:1080E4001A30CDF81E30CDF82230CDF82630CDF838
:1080F4002A30ADF82E302E4A1288ADF8182001210E
:108104008DF81C104FF48052ADF81E201E228DF8FD
:1081140027209DF8282061F38702022060F30102E2
:108124008DF828208DF829104FF0FF328DF82B2080
:108134008DF82C208DF82D008DF82E30124B1B68F5
:1081440013F4804F03D0114B1B68032B0ADC06A8E1
:1081540014F062F80446204A012148F21900FFF79E
:108164009FFDE6E60B4BD3F804354FF480520192A1
:108174001A4A009240F2B3120849042005F0CCFFD9
:10818400E5E700BFE82D0020402E00203C2E002013
:108194000833002000100140F8080400130804000C
:1081A4002C330020E8320020140A040014090400CF
:1081B400F0320020180A04002409040024330020AB
:1081C4001C0A04004409040028330020EC32002077
:1081D400200A040064090400240A04009409040029
:1081E4000023CDF81A30CDF81E30CDF82230CDF86A
:1081F4002630CDF82A30ADF82E30614B1B88ADF80F
:10820400183001228DF81C2013F0010F27D103230D
:10821400ADF81E305B4B1B88ADF824301E238DF85F
:10822400273001238DF82930574B1A88ADF82B20BD
:108234005A88ADF82D20554B1B6813F4804F03D09A
:10824400534B1B68032B0EDC06A813F0E5FF044612
:10825400504A012148F21900FFF722FD69E6022382
:10826400ADF81E30D6E74C4BD3F80435BDF81E10DC
:1082740002910192494A009240F2D51248490420E1
:1082840005F04AFFE0E7414B1B6813F4804F03D02D
:108294003F4B1B68032B21DC394B188800230793C1
:1082A40003238DF8183010F0010F23D04CF2010392
:1082B400ADF81A30344B1A88ADF814205B88ADF849
:1082C4001630059B06AA06CA13F0C0FF0446354AB9
:1082D400012148F21F00FFF7E3FC2AE62E4BD3F8F6
:1082E4000435314A00924FF4F0722D49042005F010
:1082F40013FFD1E74CF20203ADF81A30DAE700239A
:1083040006930793089309930A930B931C4B1988BC
:1083140001314CF2010289B206A8FFF767FD06A8F5
:1083240013F07AFF0446214A012148F21900FFF7AD
:10833400B7FCFEE5002306930793089309930A9379
:108344000B930F4B198802314CF2020289B206A832
:10835400FFF74CFD06A813F05FFF0446144A012101
:1083640048F21900FFF79CFCE3E5124A40F21121A0
:10837400052011F047FCDDE5FFF7AAFDE3E500BFAA
:10838400F0320020E832002024330020402E002068
:108394003C2E0020280A040000100140D4090400E7
:1083A400130804002C0A0400FC090400300A040029
:1083B400340A0400A807040008B5FFF793FD08BDBC
:1083C40008B5FFF777FD024B1B68984708BD00BF4F
:1083D4000033002000B583B01C4B1B681A789AB197
:1083E4000B2A11D041680088FFF76CFC28BB174AA0
:1083F4001368591C1160164A032111705B780B2B0A
:1084040018D0FFF76FFD1AE0124B1B6813F4804F6E
:1084140015D0114B1B68012B11DD104BD3F804351B
:1084240001920F4A009240F23F220E49022005F0C9
:1084340073FE04E0FFF7C4FF01E0012802D003B09B
:108444005DF804FBFFF744FDF9E700BFE82D0020C9
:1084540008330020402E00203C2E00200010014054
:10846400C40804001308040000B589B04FF6FF7374
:10847400ADF81E30ADF81C3001238DF81430ADF882
:1084840016000DF11E0105A80DF038F9E8B907A989
:10849400BDF816000DF006FDE8B9BDF81C0013F098
:1084A4003BFEF0B9BDF81E10BDF81C0013F0E6FD4C
:1084B400E8B91B4B1B6813F4804F03D0194B1B689E
:1084C400032B1ADC09B05DF804FB174A40F2312192
:1084D40011F098FBDBE7144A40F2322111F092FBD1
:1084E400DBE7114A40F2352111F08CFBDAE70E4A42
:1084F40040F2362111F086FBDBE70C4BD3F8043550
:10850400BDF81E200292BDF81C200192084A009278
:1085140040F237220749042005F0FEFDD2E700BFF0
:10852400402E00203C2E0020A8070400001001402B
:10853400E80A04001308040030B583B0002837D1DA
:10854400224B1B6813F4804F03D0214B1B68032B71
:1085540013DC204B1B8843B31C4B1B6813F4804F64
:1085640003D01B4B1B68032B13DC1A4A1388013BF3
:108574001380FFF7B7FC03B030BD174BD3F80435B5
:10858400164A009240F267221549042005F0C4FD02
:10859400DFE7114BD3F80435124A009240F26B2204
:1085A4000F49042005F0B8FDDFE7FFF791FCE2E78F
:1085B4000C4615460228DED121B129462046FFF794
:1085C40009FFD8E7784600F043FBF6E7402E002089
:1085D4003C2E00200433002000100140380A04001F
:1085E40013080400640A040010B582B0444C2468E3
:1085F4002478002C39D1434C2080434801804349DE
:108604004348C8600320087042490A60424A138004
:108614004249049817F019FB28B14149049817F00E
:1086240014FB002836D13F4B41F201025A803E4BE5
:108634004FF480525A804FF6FF733A4A13803A4AF5
:1086440013803A4B1B6813F4804F03D0384B1B68DC
:10865400032B46DC2B4C2088FFF706FF2088FFF70E
:108664000FFBFFF73FFC02B010BD304B1B6813F447
:10867400804FF8D02E4B1B68002BF4DD2D4BD3F824
:1086840004352D4A009240F283222C49012005F042
:1086940043FDE8E72A49049817F0D7FA40B9214B7B
:1086A40041F203025A80204B41F202025A80C2E78F
:1086B4001E4B1B6813F4804F03D01D4B1B68002B0B
:1086C40003DC784600F0C4FAB5E71A4BD3F8043556
:1086D4001C4A009240F29A221849012005F01CFD20
:1086E400EFE7144BD3F80435064A12880192164A70
:1086F400009240F2A1221149042005F00DFDA9E7E2
:10870400E82D0020F032002004330020083300203C
:10871400BD8302002C330020E8320020280304002B
:1087240044030400EC32002024330020402E0020B7
:108734003C2E002000100140700A040013080400BD
:1087440060030400A40A0400C40A040038B50C46FB
:10875400054628B144B1064B1D60064B1C6038BD6C
:10876400784600F075FAF5E7784600F071FAF2E71A
:1087740000330020FC32002008B5064B1B683BB1D7
:108784000FF094FC002803DB024B1B689847F7E7C3
:1087940008BD00BF3033002010B50C46144B1860E0
:1087A400144A0121144817F05DF878B9610CE0030C
:1087B40041F26F7200238B4208BF82420BD24FF406
:1087C4007A72002317F09EF8014605E00B4A4A210D
:1087D40011F018FAEAE705210022094817F058F8C1
:1087E40000B910BD054A4B2111F00CFAF9E700BF9E
:1087F400303300207D870200200B0400240B04008A
:108804003433002008B5104B1B6873B14FF0A042FD
:10881400D2F804350D4909684B40C2F804350A4AB8
:108824001368013B136023B108BD002011F0DCF98B
:10883400ECE7074817F04AF8064B1A684FF0A043D4
:10884400C3F80425F0E700BF543300205833002058
:108854005C3300208433002031B1012383404FF086
:10886400A042C2F80C357047012383404FF0A04268
:10887400C2F80835704721B14FF0A043C3F80C0586
:1088840070474FF0A043C3F80805704772B338B57A
:108894001346132900D838BD154A10605B00013B0C
:1088A400144A13604FF0A043D3F80425124B1A6006
:1088B40000254C0CC8034FF47A72002310F5FA70AB
:1088C40044EB050117F01EF82A4601460B4816F042
:1088D400DFFF0028DFD14FF0A042D2F8043504496D
:1088E400096823EA0103C2F80435D4E7704700BFDE
:1088F4005833002054330020843300205C3300209C
:1089040010B582B0144B1B68ADF804301B0C8DF805
:108914000630002312E002AAD01810F8042C4FF0FD
:10892400A04102F5E072032441F8224010F8040C3F
:1089340001228240C1F808250133DBB2032BEAD9B6
:10894400064A0121064816F08DFF08B902B010BD91
:1089540011F04AF9FAE700BF8C0B04000988020001
:10896400900B0400F0B1104A1060002309E00F4A94
:10897400D25C02F5E0724FF0A0410D4841F82200AC
:108984000133012BF3D90B4B4FF00042C3F80423FE
:108994000020C3F87C01084BC02283F80623402240
:1089A4001A6070470E2070477C330020940B04003B
:1089B4000C0003000060004000E100E010B500245A
:1089C400144BC3F87C4103E0D11A14E00134E4B23F
:1089D400012C1ED84FF0A043D3F810250E4B195D7F
:1089E40001238B409343F1D00C4B1B680C4AD2F803
:1089F4000425991AE8D443F233339942E6D9084B53
:108A0400D3F80425054B1A60064B1B68204698478B
:108A1400DCE710BD00600040940B040080330020AC
:108A2400001001407C33002060DF704769DF70472D
:108A340008B503F055FA08BD10B588B010F0EEFD86
:108A440000282BD1224B0793079A06920023039305
:108A54000493059303A90120FFF7E8FF08BB002353
:108A640004930593F8230393069A03A9A120FFF71F
:108A7400DDFFC8B906A8FFF7D7FF0446069A079B8F
:108A84009A4208D0134B1B6813F4804F03D0124B47
:108A94001B68012B0BDCB4B908B010BD11F0A4F8AD
:108AA400D0E711F0A1F8DAE711F09EF8E2E70B4BFA
:108AB400D3F8043501920A4A0092A22209490220FD
:108AC40005F02AFBE7E7204611F08EF8E4E700BF43
:108AD400A02D0020402E00203C2E0020001001403C
:108AE4000C0C0400F10B04000620704700B587B09D
:108AF40041F2010398424BD020D944F20103984239
:108B04005CD044F20203984273D1464B1B6813F4C1
:108B1400804F1ED0444B1B68002B1ADD434BD3F807
:108B2400043510880390526802920191404A0092E1
:108B34006C224049012005F0EFFA0AE0012858D1DF
:108B4400384B1B6813F4804F03D0374B1B68002B42
:108B540011DC4FF0A043384AC3F81825C3F80C259C
:108B6400EFF3108372B64DF6AD6C344B1B78002BCB
:108B740054D030BFF9E72D4BD3F80435029201915C
:108B84002F4A009260222B49012005F0C5FAE0E744
:108B9400244B1B6813F4804FDBD0234B1B68002B42
:108BA400D7DD224BD3F8043502920191254A009275
:108BB40063222049012005F0AFFACAE7194B1B686C
:108BC40013F4804FC5D0184B1B68002BC1DD174B25
:108BD400D3F80435106804905068039002919268A9
:108BE4000192194A009277221249012005F094FA61
:108BF400AFE70C4B1B6813F4804FAAD00A4B1B68D9
:108C0400002BA6DD094BD3F8043501910F4A0092DD
:108C14007B220849012005F07FFA9AE707B05DF846
:108C240004FB00BF402E00203C2E00200010014019
:108C3400F40C0400A10C040000010400EC2D00203D
:108C4400B40C0400D00C0400140D0400380D04000E
:108C540000B583B00023ADF80030054B01936A469C
:108C6400014644F20200FFF741FF03B05DF804FB44
:108C740014FF030010B40346044C006859689A6852
:108C8400DB680FC45DF8044B704700BF88330020D5
:108C94000B4B0C4A92E8030083E8030003F108023B
:108CA400094903C982E80300DA79042161F3071250
:108CB400DA711A7A022161F387121A72704700BFBF
:108CC4008833002060000010A400001000487047A2
:108CD4008833002000231F2B09D8074901EBC30068
:108CE40000224280426001F833200133F3E7034B52
:108CF40000221A60704700BF983300209834002087
:108D040030B405460F4B1B6800240AE01F230E4AAB
:108D140012F83300A0B102EBC3025288AA4207D072
:108D240001341F2C0BD85A1E002BEFD01346EEE74C
:108D3400054A02EBC30252688A42F1D100E00020E6
:108D440030BC7047983400209833002030B40A4A6D
:108D540013680A4C04EBC30568806960012104F8B8
:108D640033100B441360202B01D030BC70471346E2
:108D740000221A60F9E700BF9834002098330020DD
:108D8400C0F30C038B4204D2C91A0144A1F500506C
:108D94007047C91A08447047C37D002B42D08378BA
:108DA4000A7802F0800203F07F0313430B70027809
:108DB4000B7803F07F0343EAC2130B700378002B94
:108DC40041D030B44378082B14BF002201224B78E1
:108DD40003F07F0343EAC2134B70858803F08003DA
:108DE400C5F3861423434B708A7802F0030242EAE7
:108DF4008502D2B28A70857902F0FC02C5F3C104FF
:108E040022438A70CB7803F01F0343EA4513DBB295
:108E1400CB70C27903F0E00302F01F021343CB705E
:108E240030BC704783780A7802F0BF029B0103F0DC
:108E3400400313430B70C27803F0C00302F03F02F7
:108E440013430B70B3E770470023032B22D810B4ED
:108E540002E00133032B19D8C3EBC30214010E4AF9
:108E6400224492F84820012AF3D10B4A2244948ADE
:108E7400C2899442EDD1C3EBC3021401064A2244D1
:108E840092888A42E5D10448204400E000205DF83D
:108E9400044B70470020704708350020002300E091
:108EA4000133032B14D8C3EBC3021101094A0A444A
:108EB40092F84820022AF3D1064A0A44918A828A07
:108EC4009142EDD1C3EBC3031A0102481044704729
:108ED400002070470835002008B904207047082096
:108EE4007047000038B505460C46CB695B78C37003
:108EF400CB691B7883F001038370CB694362087BE1
:108F0400022814D0FFF7E8FF6870E27A32B9A18A28
:108F1400C0F10F03994201DC082833D0A18A03462B
:108F2400C0F10F00814207DC52B3012205E0164B69
:108F3400987DFFF7D1FFE7E701222A7062B1A28A88
:108F440013440B33114A82FB0312DB17C3EB620396
:108F5400013BEB710023AB710023EB7505F10C02AF
:108F640094E8030082E80300A2692A622289AA82A3
:108F7400A27AAA75226AAA6285F82C30184638BDEE
:108F84000022DAE70720FAE7F0340020ABAAAA2A85
:108F940030B403460C460978817000214162A1680F
:108FA4000B2903D8217B09B3012100E001211970A9
:108FB4000020587029B1A1680731C9080139D97155
:108FC40098710121D97503F10C0504F1100103C94D
:108FD40085E80300E1899982A1691962217F997565
:108FE400617F83F82C109A6230BC70470021DEE761
:108FF4000021174B1B688B4227D90023154A02EB2B
:10900400C10252689A421ED910B40FE060685DF83C
:10901400044B704701310E4B1B688B4211D900235E
:109024000C4A02EBC10252689A42F3D9094A52F837
:10903400312002EBC30412F833208242E6D001331C
:10904400EEE70020E3E70131D3E70020704700BFDB
:109054009C340020A034002070B58CB006460D4628
:1090640014462C22002101A816F0BCFD0F238DF814
:109074000430ADF808604FF0000365F300038DF889
:109084000A308DF80B4001A801F0E6F80CB070BD71
:1090940030B58DB005460C462C22002101A816F0EF
:1090A400A1FD10238DF8043002958DF80C4001A821
:1090B40001F0D2F80DB030BD00B58DB010B913F188
:1090C400020F06D1074B186803F0EAFF0DB05DF8F4
:1090D40004FB01228DF80420029301A801F0BCF8DE
:1090E400F0E700BFA83400202DE9F041054688468A
:1090F4000378BBB10D4B1C68621C1A6004F00704B2
:10910400AB8A0B4F07EBC4067380A988A869FFF7E5
:1091140037FE7060EB6903F00103737007F8348065
:10912400BDE8F0817846FFF793FDE3E7EC340020D7
:10913400AC34002070B5064603784BB1B58A347F51
:1091440004F00104B188B069FFF71AFE002304E0BB
:109154007846FFF77DFDF1E70133072B15D80C4A5C
:1091640002EBC30252688242F6D1094A02EBC302FF
:109174005288AA42F0D1064A02EBC3025278A242B4
:10918400EAD1034800EBC30000E0002070BD00BF3B
:10919400AC340020F8B515461C460E684A68D1F870
:1091A40008C0CF68E6602261C4F814C0A7610E69E4
:1091B4004A69E66122620378DB092370E27D2AB3FF
:1091C400027802F07F02A270002262709BB14378A1
:1091D4009B0103F4FE53827843EA9203A3808378CD
:1091E400DB0003F01803C27843EA5213A371C37877
:1091F40003F01F03E371002363622B78052B1AD855
:109204002B780F4AD35C84F82C30F8BD0278C2F373
:109214008012A270027802F03F02E27043B190F92A
:109224000120002A02DB04226270CFE70822FBE758
:1092340004226270CAE77846FFF70AFDE0E700BF40
:10924400540D040070B50C461E460378B3B10425D2
:109254002A44A26000F10C032360836A636090F8DF
:109264002C30237300236373204604F07DFA0346F5
:1092740010B9226915443560184670BD0125E7E729
:109284002DE9F0418EB00D4616461C468046002856
:109294002DD0002D2FD0002C31D0636A02330593DA
:1092A40004F10C00A378002B2DD00121627801AFCA
:1092B4003B46082A14BF0022012204F036F8069720
:1092C400CDF81C80B2B2ADF820200B9515440C9556
:1092D40063788DF83430237B022B16D00023ADF84D
:1092E400283005A804F019F80EB0BDE8F0817846DE
:1092F400FFF7AEFCCDE77846FFF7AAFCCBE778464C
:10930400FFF7A6FCC9E70221D0E723692BB1236943
:1093140009931023ADF82830E3E77846FFF798FC6B
:10932400F5E72DE9F04186B004460D46C37D002BD8
:109334003CD0082605FB06F8E379AB4238D0A5718A
:109344006B46324601A92046FFF77CFF074648BB1F
:109354004DB994F8533033B9A369C3F30C03A38014
:10936400012384F85330E37D7BB994F8523063B918
:109374001DBBB4F84A10627823468A1AE16E084687
:10938400FFF77EFF012384F8523005992046FFF74A
:1093940003FDE16E32464144009816F0FAFB01A841
:1093A40004F001FA384606B0BDE8F0810C26C1E7A6
:1093B400B4F84A60A6EB0806C1E77846FFF748FC14
:1093C400D7E770B505460E4609B100230B6095F842
:1093D4005040002104E0631C85F850300134E4B2AD
:1093E400EB79A34210D3EA6C0123A3401A42F5D1CE
:1093F40021462846FFF795FF014628B9002EEAD0FA
:10940400336801333360E6E7084670BDF0B587B0D2
:1094140045781544C37D7BB10B239D4224D8164661
:109424000F4604466B462A4601A9FFF70BFF054683
:1094340020B1284607B0F0BD0F23EEE7059920467A
:10944400FFF7AAFCE37D43B132463946009816F093
:10945400A0FB01A804F0A7F9EBE7234632460099E4
:109464003846FFF70DFFF4E70925E2E710B5044697
:1094740090F84830012B0CD103F00EF8237B012B1C
:109484000BD0094BD968014404F1300002F0CCFF41
:1094940010BD7846FFF7DCFBEEE7A37D024AD168F6
:1094A400126902FB0311EEE7F034002030B583B0FB
:1094B400002403E02846FFF7D9FF0134032C19D810
:1094C400C4EBC4031A010C4B134493F84830012B2A
:1094D400F3D100230193C4EBC4021301064D1D44D0
:1094E40001A92846FFF76DFF0428E3D0019B002B58
:1094F400E3D0DFE703B030BD0835002038B50446BB
:1095040090F84830022B09D1064B1D6802F0C4FFC5
:10951400411904F1300002F087FF38BD7846FFF7A7
:1095240097FBF1E7F034002038B5044690F8483052
:10953400022B10D10A4B5D7D5A689B6803FB0525FD
:1095440002F0AAFF411904F1500002F06DFF01235B
:1095540084F8683038BD7846FFF77AFBEAE700BF45
:10956400F034002038B50446C06E07F0FAFD04F16B
:109574003005284602F075FF70B994F84830022B84
:109584000ED070220021204616F02CFB002084F817
:10959400480002F011F838BD284602F02DFFECE730
:1095A40004F15005284602F05CFF0028E9D0284663
:1095B40002F022FFE5E710B504460121FFF794FD10
:1095C4002046FFF7CFFF10BD10B58CB0044690F8CD
:1095D4004830012B0CD101238DF80430636D0293C4
:1095E40001A800F039FE2046FFF7BCFF0CB010BD07
:1095F4007846FFF72DFBEEE730B585B00D460446FF
:10960400A8B100212046FFF76FFD2946606DFFF7E2
:109614003FFD2046FFF7A6FF0F4B1B6813F0040F16
:1096240003D00E4B1B68032B05DC05B030BD784618
:10963400FFF70EFBE5E70A4BD3F8043594F848200E
:1096440002950192074A009240F2EF120649042063
:1096540004F062FDE9E700BF402E00203C2E00200C
:1096640000100140BC0D0400AF0D040008B508460D
:109674000021FFF7C1FF08BD08B5037B012B02D011
:10968400FFF7A2FF08BD0121FFF7B6FFFAE70000CC
:1096940008B590F8513053B1013B80F851300023A4
:1096A40080F85030034B186803F0FAFC08BDFFF74C
:1096B400E3FFFBE7A834002010B50C4691F84830CE
:1096C400012B03D12046FFF7E3FF10BD7846FFF7D7
:1096D400BFFAF7E7062951D170B582B00346017885
:1096E400890101F4FE5140789D78DC78240444EA31
:1096F40005641D7944EA05245B791C4341EA900121
:109704001046FFF7A1FB0546B8B1C66C2643C664F4
:1097140044B3037853B3EB795A1C01239340013BC0
:109724009E4227D0002185F850102846FFF749FEB5
:109734002846FFF79BFE02B070BD114B1B6813F067
:10974400040FF8D00F4B1B68012BF4DD0E4BD3F83C
:1097540004350E4A009240F2A7520D49022004F04B
:10976400DBFCE8E70321FFF747FFE4E77846FFF770
:109774006FFAD0E72846FFF727FFDCE7704700BF02
:10978400402E00203C2E002000100140E00D04007B
:10979400AF0D04002DE9F04389B080460F4614460E
:1097A4001E46957825B9FFF795FF09B0BDE8F0830B
:1097B4002846FFF71DFC81460028F6D08DF800509E
:1097C400236A0693A38AADF80E3004AB04F10C02AD
:1097D40092E8030083E80300A37D8DF81C30CDF8E4
:1097E4000480029723788DF80C3094F82C308DF88F
:1097F4001D3031466846C847D7E700002DE9F047D9
:1098040006460F4690464B1EDBB2012B0FD8B8F527
:10981400C07F10D80024032C1AD8C4EBC4031A0147
:10982400314B134493F848304BB10134F3E7784695
:10983400FFF70EFAEBE77846FFF70AFAEAE7DFF8F4
:10984400A8A015465544404607F087FCE86600E0AA
:10985400002585B3EB6E002B44D033462A4606F12F
:10986400300ED3F800C05C689868D968C2F800C0AC
:1098740054609060D160103310327345F1D10023ED
:10988400EB64A5F84A80B188B069FFF779FAA8615A
:10989400012F13D06FF00103AB62002385F8683009
:1098A400124BAB652D66124BAB632D64012001F0A6
:1098B40083FE85F848702846BDE8F0870D4B1B7D74
:1098C40085F85130002385F8523085F8533085F8F7
:1098D4005030B36A6B656FF00103AB62064BAB6348
:1098E4002D64E3E70025E6E708350020A1A1020086
:1098F40071960200F0340020BD960200F0B5C7B0A6
:1099040046781644C37D2BB14FF48073B3427ED3A3
:10991400002303E04FF4C073F8E70133032B19D895
:10992400C3EBC30425013C4C2C4494F84840012C5F
:10993400F3D1394C2C44A58A848AA542EDD1C3EBDA
:10994400C3042501344C2C44E589C489A542E4D1DF
:10995400082455E014460F4632460121FFF74EFF16
:109964000546002855D022463946C06E16F011F936
:109974000023459345A92846FFF723FD044608B173
:10998400042840D1459B7BB9244B1B6813F0040F7A
:1099940035D0234B1B68032B31DDB5F84A70802F7B
:1099A40028BF8027002313E02846FFF75FFDEBE77D
:1099B400EA6ED25C1B490C6810095900265C04A8A5
:1099C40000F8136002F00F020131A25C425401332B
:1099D400BB42EDD304AA002302F8173003F18043FD
:1099E40003F58833D3F8043502920F4A01920F4AE3
:1099F400009240F2D1420E49042004F08DFB002471
:109A0400204647B0F0BD2846FFF7ACFDF8E709242F
:109A1400F6E70424F4E700BF08350020402E0020B8
:109A24003C2E0020442E0020100E0400D0FF030022
:109A3400AF0D040000B585B000238DF80F3098B148
:109A44000346084602330B600DF10F0103F069FC75
:109A54009DF80F3043B10D4B1B6813F0040F03D076
:109A64000B4B1B68032B04DC9DF80F0005B05DF85D
:109A740004FB084BD3F80435074A009240F2A6329F
:109A84000649042004F048FBEEE700BF402E002006
:109A94003C2E002000100140200E0400AF0D0400F5
:109AA4002DE9F0438FB004460E4615461F46D0F804
:109AB4001890037823B181884846FFF761F9A061C3
:109AC40004F10C00A378002B3AD0012162780DF147
:109AD40028084346082A14BF0022012203F025FC6B
:109AE400C4F81890CDF8088003966378EA1A92B205
:109AF400ADF810203244089207978DF824300023E3
:109B0400ADF81830237B022B1CD0A3786BB3237BD6
:109B1400022B1BD02546002345F8243F2A46E17832
:109B2400206A0CF003FC606A98B101A9FFF782FF78
:109B340000283AD12A46E178206A0CF0F7FBF2E7D4
:109B44000221C3E71023ADF81830DEE7236905933B
:109B5400E0E7237B022B2CD104F10C01E0890CF00B
:109B640093FC0028D3D1052020E000236362237BEB
:109B7400012B0DD02146002341F8243FA08A0CF08C
:109B8400F2FB01A9606AFFF755FFA0B905200DE0BB
:109B940004F12401E0890CF0E6FB01A9606AFFF7F7
:109BA40049FF0028E6D0002000E000200FB0BDE807
:109BB400F0830520FAE70020F8E7000070B5F0B064
:109BC4000D4614461E4610AB0A4601462046FFF7D2
:109BD40067FFA0B11F4B1B6813F0040F37D01E4B57
:109BE4001B68052B33DD1D4BD3F804351C4A00924A
:109BF40040F219621B49062004F08EFA27E003ABF9
:109C040001228DF80C20A28AADF80E2000220492C5
:109C14008DF8142010AA06926278AD1AADF81C5083
:109C240008AA93E8030082E803000AAB04F10C02DB
:109C340092E8030083E80300A37D8DF83830236A9B
:109C44000C93636A0D930F9605A800F005FB70B0A2
:109C540070BD00BF402E00203C2E002000100140AB
:109C6400580E0400AF0D040010B5D47D14B1FFF7F5
:109C740091FD10BDFFF7A2FFFBE770B504460D464A
:109C84001646808A01F09CFF01281AD1237BD3B1A8
:109C9400022B0BD094F91630002B16DB237853B12A
:109CA400324629462046FFF729FE0BE02369002BA4
:109CB400F0D1102006E0324629462046FFF7A6FBE5
:109CC40000E0102070BD1020FCE70720FAE7000038
:109CD40010B54FF4E0720021134815F083FF05F02E
:109CE4007BFC0024114B1C6040222146104815F0D7
:109CF40079FF104B104A1A60104A5A604CF25032E5
:109D04009A600F49D9601A6104221A759C75082259
:109D14005A750C4803F0A4F90B4B18600B4B1C60EC
:109D24000B4805F05DFD10BD08350020EC34002023
:109D3400AC340020F034002080969800F0490200F2
:109D440020A10700F59E0200A83400209C340020C6
:109D5400BD90020008B505F0B7FB08BDC0B110B551
:109D64008CB004460369B3B1C369B3B18369B3B1B9
:109D740001466846FFF7B6F8034610B118460CB022
:109D840010BDA28A21696846FFF777FF0346F5E70D
:109D94000E23184670470E23F0E70E23EEE70E233A
:109DA400ECE7D0B110B58CB004464268BAB1826910
:109DB400BAB1027C022A16D0BAB190F90020002A66
:109DC40015DB0A4601466846FFF7E2F8A2686168B7
:109DD4006846FFF752FF0CB010BD0E2070470E20EE
:109DE400F9E70E20F7E71020F5E71020F3E7072046
:109DF400F1E70000037B012B01D00020704730B550
:109E04008DB001AC00230293CDF80B308288C2F3ED
:109E140086158DF8045092008DF805200A0E8DF8F1
:109E240006200A0C8DF807200A0A8DF808208DF800
:109E340009100622069201228DF82020828AADF8AC
:109E4400222009938DF810300594026A0A928DF845
:109E54001C30C389ADF81E3090F82C308DF82D30AD
:109E6400837D43B98DF82C306FF0010104A8FFF70E
:109E740098FF0DB030BD024B5B7D8DF82C30F3E7BD
:109E8400F034002038B590F84830022B00D038BDAB
:109E940090F86830022BFAD10446C16CFFF7AAFF90
:109EA4000028F4D1002384F86830E56C237853B19A
:109EB400E3795A1C01239340013B9D42E7D120469C
:109EC400FFF779FBE3E77846FEF7C2FEF0E7000010
:109ED40010B5002407E0C4EBC4021301034818447E
:109EE400FFF7D0FF0134032CF5D910BD083500204D
:109EF40008B5FFF7DBFAFFF7EBFF012008BD000010
:109F04002DE9F04182B007460E46144698461046A5
:109F1400FEF7C4FF054620B1A28883889A4210D375
:109F240012D82046FFF706F9B8B103784BB123786D
:109F34007BB1E1794B1C0121994001392046FFF79F
:109F440059FF02B0BDE8F0810521FFF755FB00255C
:109F5400E7E77846FEF77CFEEBE7002D56D05F4B33
:109F64001B6813F0040F04D05D4B1B68032B00F334
:109F740085802846FFF7C2FA2B7B012B00F08C80EA
:109F8400EA6CA17901238B401A42DAD11343EB64C2
:109F9400A279EB799A4200F08880E37D002B00F0EF
:109FA4008F800823B34240F08D80EB6EA079E27D70
:109FB400002A00F08C8008243246394604FB003025
:109FC40015F0E7FDEC6C2B78002B00F08280EB7928
:109FD4005A1C01239340013B9C42B2D1022385F8D1
:109FE4006830E96C2846FFF705FF044643462A46D5
:109FF400B5F84A10E86EFFF737FE002CA1D1002314
:10A0040085F868302846FFF7D6FA9AE7E279531CB8
:10A01400E17DE9B1082202FB03F2D9B14FF4807368
:10A0240093421AD22D4B1B6813F0040F89D02C4B8A
:10A034001B68002B85DD2B4BD3F8043501922A4A8B
:10A04400009240F236322949012004F065F878E79D
:10A054000C22E0E74FF4C073E2E702212046FFF749
:10A06400CDFB054600287FF47AAF00212046FFF798
:10A07400C1FE02210020FFF70BF862E7194BD3F869
:10A084000435A27901921A4A009240F251321749DA
:10A09400042004F041F86CE795F86830002B7FF455
:10A0A4006FAF2846FFF740FA6AE79BB2E27D2AB118
:10A0B400082203FB0263A5F84A3076E70C22F8E78E
:10A0C4000C236FE704212846FFF796FA39E70C249E
:10A0D40072E77846FEF7BCFD79E700BF402E00200A
:10A0E4003C2E002000100140340E0400AF0D04008B
:10A0F400480E04002DE9F0418EB000284AD00546F0
:10A10400002A49D0984614460E4600220C920D921D
:10A114000CA960880CF0B8F920B9002738460EB0B5
:10A12400BDE8F0812269E168208905F001FA08B1EF
:10A134000027F3E72269E168208905F0CDF9074695
:10A14400C8B96B46424621462846FFF723F803ABBD
:10A154000EAA12E9030083E8030002F009FF9DF848
:10A16400003083B143466A46311F281DFFF7C8FEFD
:10A1740002F042FFD2E72169002201F001012089A7
:10A18400FEF76AFFCAE743466A46711E681CFFF77A
:10A194006BFDEDE70E27C1E70E27BFE710B50C46B0
:10A1A40091F84830022B0BD1022384F86830E16C1B
:10A1B4002046FFF71FFE10B9002384F8683010BD55
:10A1C4007846FEF745FDEFE7F8B500B30546164BB4
:10A1D4001F68F7B90E463C46B4420ED205EBC403E1
:10A1E4005B68CBB115F8340010F0800F16D1B8B10C
:10A1F400FEF7FEFEB0B90134EEE70C4B43F83750DE
:10A2040003EBC7035E607B1C074A136002E00E2762
:10A2140000E004273846F8BD0E27FBE70B27F9E7D3
:10A224000F27F7E70F27F5E79C340020A034002020
:10A23400084B196861B110B504E0064803F0D5FE77
:10A24400214624B10C680B79002BF9D0F5E710BD39
:10A25400704700BFCC36002038B5054630B1104BEE
:10A264001C68ACB10F4B01221A7004E07846FEF76B
:10A27400EFFCF4E724683CB12379002BFAD154F8BD
:10A28400043C28469847F5E7064B1B78022B00D080
:10A2940038BDFFF7CDFF034B00221A70F8E700BF6B
:10A2A400CC360020C836002010B5044630B1002357
:10A2B4002372211D034803F06DFE10BD7846FEF79E
:10A2C400C7FCF4E7CC3600200A8883689B5A07331E
:10A2D4009BB223F0030313449BB20288043A9342D3
:10A2E40000D900230B80704710B582B00446836800
:10A2F400C91AADF806100DF10601FFF7E5FFBDF828
:10A304000630A068184402B010BD0088043880B23A
:10A31400704743888268D018D152012383707047F4
:10A32400826800239370438083807047073189B229
:10A3340021F0030189B2428883889A4204D29B1A8D
:10A3440099421EDC0020704710B59A420FD9048848
:10A35400A41AA14217D98B4217D3032C03D98368BB
:10A36400134404229A7000234380184604E0826850
:10A3740013449B780BB1042010BDFFF7D1FF0020DC
:10A38400FAE7042070470020F6E70420F4E738B524
:10A3940004460D468368828813448B4202D0784673
:10A3A400FEF756FC0023AB70211D2046FFF78CFFFF
:10A3B400A288A36813449B78042B00D038BD0023E3
:10A3C400A380FBE710B50C468368428813448B4294
:10A3D40002D07846FEF73CFC0023A37010BD70B594
:10A3E400064615460C46002944D0002E46D0B4F14A
:10A3F400005F08D94FF08053D3F80C3103F50023E4
:10A40400B4EB832F0ED3B4F5000F08D94FF080536B
:10A41400D3F80C3103F50053B4EB832F02D3784601
:10A42400FEF716FC6B1E2344B3F1005F08D94FF00E
:10A434008052D2F80C2102F50022B3EB822F0ED306
:10A44400B3F5000F08D94FF08052D2F80C2102F571
:10A454000052B3EB822F02D37846FEF7F9FB042DAA
:10A4640010D9358000237380B380B460043D258007
:10A47400A37070BD7846FEF7EBFBB6E77846FEF7AF
:10A48400E7FBB4E77846FEF7E3FBEAE738B50446B2
:10A49400A0B16288A36813449B78012B12D0EFF318
:10A4A400108572B6A388A16819448B78032B0DD04C
:10A4B4002046FFF735FF05B962B638BD7846FEF78A
:10A4C400C7FBE6E77846FEF7C3FBE8E72046FFF75D
:10A4D4000BFFA368C31A638000238370EBE72DE9A5
:10A4E400F0410E4615460446D0B1EEB16288A36829
:10A4F40013449B78012B1BD025B32046FFF705FF9F
:10A50400A84221D3EFF3108872B629462046FFF7FC
:10A514000DFF074680B1B8F1000F16D162B614E002
:10A524007846FEF795FBE0E77846FEF791FBDDE71A
:10A534007846FEF78DFBDFE729462046FFF7E9FE64
:10A544003060E8E7092700E009273846BDE8F081D4
:10A55400F8B50C4616460546E0B1FCB1A378012BCC
:10A5640020D12388B34221D326B3EFF3108772B6E8
:10A5740026800223A370E9182846FFF7A5FE6B88FE
:10A58400AA88934203D0AA68134400229A7007B998
:10A5940062B6F8BD7846FEF75BFBDEE77846FEF769
:10A5A40057FBDBE77846FEF753FBDAE77846FEF71E
:10A5B4004FFBD9E77846FEF74BFBD6E770B50D465F
:10A5C400044690B1ADB1EFF3108672B6A288A368C9
:10A5D40013449A78042A10D09A78022A15D0032AB0
:10A5E40018D0052006B962B670BD7846FEF730FB78
:10A5F400E8E77846FEF72CFBE5E7211D2046FFF748
:10A6040063FEA288A3681344E6E703229A702B60D2
:10A614000020E7E77846FEF71BFB0020E2E738B5A9
:10A62400044680B1EFF3108572B6A088A168014496
:10A634008B78042B0BD08878022814BF00200120CB
:10A6440005B962B638BD7846FEF702FBEAE7204654
:10A65400FFF74AFE0146EEE738B5044678B1EFF35A
:10A66400108572B6A088A16801448878C31EDBB245
:10A67400012B08D82046FFF737FE0146F5E7784658
:10A68400FEF7E6FAEBE7022814BF0020012005B923
:10A6940062B638BD70B50C46064678B194B1EFF396
:10A6A400108572B6A378012B10D0032B13D1214649
:10A6B4003046FFF76CFE05B962B670BD7846FEF70A
:10A6C400C7FAEBE77846FEF7C3FAE8E721463046D7
:10A6D400FFF778FEEFE77846FEF7BAFAEBE710B536
:10A6E400EFF3108472B68388816819448B78042B45
:10A6F40006D08878B0FA80F0400904B962B610BD7B
:10A70400FFF7F2FD0146F4E708B5064B986800220E
:10A714001A605A609A60DA601A615A619A6104F0A8
:10A72400E3FC08BDD036002000B585B00A4BDB68D9
:10A7340002228DF8002001934FF480530293074ABC
:10A744006946012001F052F918B9012005B05DF8FD
:10A7540004FB0020FAE700BFD0360020EC360020CE
:10A7640000B585B00A4B1B6802228DF800200193C6
:10A774004FF480530293074A6946012001F036F9E9
:10A7840018B9012005B05DF804FB0020FAE700BF0A
:10A79400F0360020EC360020164BDA681379517934
:10A7A4005B1A03F57F2303F6FF7302EB03339A422C
:10A7B40005D002F580520F4BDA600320704700B5D4
:10A7C40085B00D4B1B6801208DF8000001930B4BE5
:10A7D4000393042302930A4A694601F007F918B166
:10A7E400002005B05DF804FB024B01221A7602201A
:10A7F400F7E700BFD0360020F0360020F436002002
:10A80400EC36002000B585B00C4BDA680C4B1B68A5
:10A81400043301208DF800000192039340F6FC7389
:10A824000293084A694601F0E1F818B90120034B84
:10A83400187600E0002005B05DF804FBD036002057
:10A84400F0360020EC36002000B585B00A4B1B68BA
:10A8540001208DF800000193084B03930423029315
:10A86400074A694601F0C2F818B9012005B05DF83D
:10A8740004FB0020FAE700BFF0360020DC3600209D
:10A88400EC36002010B584B0104BDA681478104B05
:10A894001B68043301208DF8000001930392029495
:10A8A4000C4A694601F0A2F868B9094B1B6804F028
:10A8B400FC041C440434054B5C61D9680A780A44DE
:10A8C4001A61012000E0002004B010BDD036002041
:10A8D400F0360020EC36002008B50023092B09D8F7
:10A8E400064A52F82320824201D00133F6E7044A93
:10A8F400536002E07846FEF7ABF908BD840E04000D
:10A90400D036002010B5214BDB6853B11F4B1B7EA2
:10A914005BB91E4B5B68092B26D97846FEF798F97C
:10A9240022E07846FEF794F9F0E77846FEF790F9CE
:10A93400EFE7164A536801335360092B21D978464F
:10A94400FEF786F91DE0114B00225A6019E00F4B07
:10A954001B7E1BB10D4B02221A7012E0FFF7D4FECE
:10A964000FE00A4B1B7E83B9084B5A68084B53F817
:10A974002230984704460228E9D00328E3D001286E
:10A98400D7D0012CEDD0032CEBD010BDD036002055
:10A99400840E0400104B1B681B685A1E12F1030F2F
:10A9A40018D8C3F30B020AB10020704710B50B4A44
:10A9B400D3600023137653760124147093600848FF
:10A9C400FFF78AFF0749204600F0FEFFFFF79AFFD2
:10A9D400204610BD00207047F0360020D0360020FD
:10A9E4002DA70200EDA9020008B50B78032B06D0B1
:10A9F4000B4B1B78012B06D0022B0BD008BD084B48
:10AA040000221A76F4E7064B1B7E002BF6D1FFF7E3
:10AA140079FFF3E70B78032BF0D1FFF775FEEDE731
:10AA2400D036002000B585B0174BDB6818784FF698
:10AA3400FF7203F58051184404F088FEF0B1024619
:10AA4400114BD9680B780B44984219D00E4B5B7E9E
:10AA540093B10E4B01208DF800000192039304235F
:10AA640002930B4A694600F0C1FF58B90120064B16
:10AA7400187605B05DF804FB064BEBE70120F8E718
:10AA84000120F6E70020F4E7D0360020F810040097
:10AA9400EC360020F410040008B5104BDB6818787D
:10AAA400002203F58051184404F050FE08B101203F
:10AAB40008BD0A4BDA68137951795B1A03F57F23D1
:10AAC40003F6FF7302EB03339A4205D002F580527A
:10AAD400024BDA600320EBE70220E9E7D0360020DE
:10AAE400F0B585B0514BDD686A792B79591E8A42DD
:10AAF40014D005F580510C780C444D490968081DA3
:10AB04000E7906449B1A05EB03356388013B9BB21F
:10AB140047F6FE62934260D927461BE00120434B6F
:10AB240058767EE07846FEF793F816E027F47F63C4
:10AB340023F00F0303F580531A7813449D4247D939
:10AB44009C4247D25A88013A92B21F4647F6FE61A8
:10AB54008A4210D93B88002BE4D03B8807EB83035F
:10AB640023F47F6222F00F029342DFD07A88B2F599
:10AB7400FE4FE3D1DAE71C462FE07846FEF768F88B
:10AB840016E027F47F6323F00F0303F580531A784C
:10AB940013449D4220D99C423BD25A88013A92B236
:10ABA4001F4647F6FE618A4210D93B88002BE4D049
:10ABB4003B8807EB830323F47F6222F00F02934266
:10ABC400DFD07A88B2F5FE4FE3D1DAE71C4604E021
:10ABD400002402E0002400E00024E4B1144B1968CE
:10ABE400628801F58051304604F0B0FD064690B10C
:10ABF40001200E4B18768DF8000001940D4B039341
:10AC0400042302930C4A694600F0F0FE58B9274623
:10AC1400CBE70024E1E7B4FA84F46409034B5C76DF
:10AC2400012005B0F0BD0020FBE700BFD0360020B6
:10AC3400F0360020F0100400EC3600202DE9F0413D
:10AC440086B0644B1B6923B1624B5B692BB100274F
:10AC540048E07846FDF7FCFFF6E77846FDF7F8FF95
:10AC6400F5E77846FDF7F4FF17E028F47F6323F057
:10AC74000F0303F580531A7813449E421FD99C4254
:10AC840021D25A88013A92B2984647F6FE618A4226
:10AC940013D9B8F80030002BE3D0B8F8003008EB33
:10ACA400830323F47F6222F00F029342DDD0B8F8CD
:10ACB4000220B2F5FE4FE0D1D7E71C4600E00024A5
:10ACC4001CB1009438E00024FAE700230093019BB0
:10ACD400002B5AD10127002C76D0628847F6FF73E7
:10ACE4009A4271D0002F73D13A4B5A6922F47F658E
:10ACF40025F00F05AD1A05F580551C69DE6833791A
:10AD040072799B1A06EB0336002301936388013B97
:10AD14009BB247F6FE629342D3D9A046B9E7784680
:10AD2400FDF796FF23E024F47F6424F00F0404F578
:10AD34008054237823441C46A642C8D92388019A08
:10AD440002EB83029542C2D9009B634023F47F63E4
:10AD540023F00F03002BBAD16388013B9BB247F663
:10AD6400FE618B42B3D801922388002BD7D023886D
:10AD740004EB830323F47F6222F00F029342D2D0C8
:10AD84006288B2F5FE4FD6D1CDE7124A526901204E
:10AD94008DF808000392009A059204930E4A02A9C2
:10ADA40000F024FE70B90B49019B23F003024B69A8
:10ADB40013444B6114B1074B1C618CE77846FDF7D3
:10ADC40047FFF8E7002000E0012006B0BDE8F0816D
:10ADD4000120FAE7D0360020EC36002008B54FF009
:10ADE40010235B69B3F1FF3F09D04FF010235B6977
:10ADF4002BB14FF010235B69A3F5805305E04FF0AE
:10AE040080525169136903FB01F3A3F58053024A8D
:10AE14001360FFF7BFFD08BDF036002010B50446EF
:10AE2400B0B1104B1B78BBB10E4BD968E3685879AD
:10AE3400A3EB0032914211D31A79121A02F57F2240
:10AE440002F6FF7203EB0233994209D8012004E0B1
:10AE54007846FDF7FDFEE4E7002010BD0020FCE786
:10AE64000020FAE7D0360020024B1878003018BFD3
:10AE740001207047D036002010B504460E4B1B78D5
:10AE840093B92378032B13D10B4B9C60E268DA60EF
:10AE940000225A601A76012018705A76074900F089
:10AEA40093FDFFF72FFD10BD7846FDF7D1FEE8E7CF
:10AEB4007846FDF7CDFEE7E7D0360020EDA9020085
:10AEC400014B1868704700BFF036002010B50446E7
:10AED40080B163681BB123680BB1A36813B97846CA
:10AEE400FDF7B6FEA3685A1E134207D10023E360A0
:10AEF400236110BD7846FDF7ABFEEAE77846FDF71F
:10AF0400A7FEF3E770B5F0B104468368EBB1EFF345
:10AF1400108572B60369C068834210D00846216860
:10AF24006268A668013E334003FB021108B114F0C5
:10AF340030FE2369013323614DB962B608E005B9D7
:10AF440062B6052504E00E2502E0092500E000258F
:10AF5400284670BDC0F30B033BBB41B301F6FF7140
:10AF6400090B144B0222C3F80425124BD3F8003406
:10AF7400002BFAD0002202E000F5805001328A4210
:10AF840008D20C4BC3F808050A4BD3F80034002B45
:10AF9400FAD0F1E7074B0022C3F80425054BD3F898
:10AFA4000034002BFAD0002070471020704709208D
:10AFB400704700BF00E0014010F0030F2FD111F0E3
:10AFC400030F2FD182B312F0030F2FD110B49208C4
:10AFD400174B0124C3F80445154BD3F80034002B58
:10AFE400FAD002E0043004312246541E52B10B68F8
:10AFF400B3F1FF3FF6D003600D4BD3F80034002BC0
:10B00400FAD0EFE70A4B0021C3F80415084BD3F834
:10B014000034002BFAD010465DF8044B7047102220
:10B02400104670471022FBE70922F9E70922F7E7E7
:10B0340000E001404388012B05D0022B01D10430EC
:10B0440008600120704704304860FAE708B5082218
:10B054000221084803F0B9FE38B1074A91684160FB
:10B06400127B027203F0EAFE08BD044804F014F8EF
:10B07400FAE700BF003700204C370020002E0020E4
:10B084000E4B1B78CBB910B50D4B5C6804F500541E
:10B09400B4F1807F00D910BD04220121094803F0D6
:10B0A40094FE30B14460054A0121117003F0C6FEDC
:10B0B400F1E7054803F0F0FFEDE770476037002043
:10B0C4004C37002000370020F02D002010B5044636
:10B0D40008B1A04710BD7846FDF7BAFDF9E70000B6
:10B0E40008B501210C4803F0D1FE20B902210A4819
:10B0F40003F0CCFE28B1094803F0CEFFFFF7C0FFF0
:10B1040008BD074A0023136053609360D360136142
:10B11400044A1370F2E700BF00370020202E0020FD
:10B124004C3700202437002000B58DB00B4B1B7B1F
:10B13400012B0ED0094A926804928DF808300390CE
:10B1440002238DF8043001A8FFF786F80DB05DF8EE
:10B1540004FB024A9268013A0492EEE74C3700205D
:10B1640010B58CB00C4682B94B88012B20D1134BFF
:10B174001B7833B16268124B5A60104B00221A706C
:10B1840016E07846FDF764FDF4E7032A12D12C2279
:10B19400002101A814F026FD11238DF80430039436
:10B1A400084BDA6805921B69069301A8FFF754F867
:10B1B4000CB010BD7846FDF74BFDE8E76037002082
:10B1C4004C3700200037002000B583B001F0D0FEDA
:10B1D4000021009101916B46134A144803F0EAFCE4
:10B1E400009B63B1019A52B11868114988601879BB
:10B1F400087393420BD950B900220A600AE00C4B41
:10B2040000221A609A601A73FFF720FF02E01268A6
:10B21400074B1A60064B1A685A60FFF731FF01F0BA
:10B22400EBFE03B05DF804FB39B0020000370020E8
:10B234004C37002008B503F083FFA0F5805008BD0B
:10B2440000B587B000230093019302930393049302
:10B254000593FFF7EFFF009001230193064B03933F
:10B264006946064803F0C9FE10B907B05DF804FB4F
:10B27400034803F011FFF8E765B10200003700202E
:10B28400102E002010B50B4B00241C605C609C60E9
:10B29400DC601C6101F000F9074B5860074A9A60B2
:10B2A400074ADA601C615C61064B1C70FFF7C8FF3B
:10B2B40010BD00BF4C37002028370020F9B302002E
:10B2C400008793036137002008B5084B1B7803B14E
:10B2D40008BD0748074B036000F0FEFD064801F077
:10B2E40065F8024B01221A70F2E700BFFC36002019
:10B2F4004037002021B502002837002010B501F0A6
:10B3040037FE164B1B7B0BBB144B9B7B1BBB134B9E
:10B314001A8A41F282639A4204D8114B1B782BB1EA
:10B32400012300E001231BB9082410E00023FAE7FD
:10B334000A4B01221A7300241C829A6801329A6013
:10B34400FFF784FE2046FFF7EFFE00E0082401F03B
:10B3540053FE204610BD0824F9E700BF4C370020F7
:10B364006137002010B501F003FE204B5B7B9BB1DD
:10B374001E4B9B7BF3B91D4B1A8A41F282639A429E
:10B3840004D81B4B1B782BB1012300E001239BB194
:10B39400012302E00023FAE700231C460BB3134BFE
:10B3A40000225A731B7B4BB1012B0ED07846FDF75C
:10B3B4004FFC16E00023F0E70023EEE7FFF79EFFC3
:10B3C40078B17846FDF744FC0BE0084B0020186088
:10B3D400586018731882FFF7A7FEFFF737FEFFF7D0
:10B3E4004FFE01F009FE204610BD00BF4C3700207F
:10B3F4006137002008B5214B1B7B7BB1012B20D08A
:10B404007846FDF725FC1D4A138A013313821B4B32
:10B414005B8A13B1013B194A538208BD174B1A8A40
:10B4240041F282639A4204D8154B1B783BB1012345
:10B4340000E00123002BE6D0FFF794FFE7E70023A9
:10B44400F8E70E4B1B8A41F28262934204D80C4AFD
:10B45400127872B1012200E00122002AD3D042F214
:10B46400B012934207D9054B01225A73FFF77AFFB2
:10B47400CDE70022F1E7FFF775FFC4E74C37002062
:10B484006137002010B5244B1B7B002B35D10446BB
:10B49400214B5B8A2BBB1AB91F4B9B688B4205D38C
:10B4A400FAB11D4B9B6801338B421AD21A4B9B682D
:10B4B4002A338B4223D3184B9B7B03BB164B9960D7
:10B4C40000221A605A601A8242F6065159825A734F
:10B4D4001A73FFF7BBFDFFF7D3FD2046FFF724FEE9
:10B4E4000DE062B10C4B9B6801338B4207D10A4BD0
:10B4F40001225A73FFF736FF01E0012B00D010BD83
:10B50400002AFCD1044B9B688B42F8D1024B0122E8
:10B514005A73FFF727FFF2E74C3700200378042B18
:10B5240000D0704743681B78002BFAD010B58468AC
:10B53400027E437E012A14BF00220122416904F1E4
:10B544001000FFF79FFF10BD10B5184B1A685B6819
:10B554009A4226D20446154B1B7B012B14D0144B64
:10B564009A4213D2114B1A685B68403B9A4215D237
:10B57400EFF3108172B60D4A1368581C10602360F3
:10B5840001B962B6002010BD0A4BE9E7074B01225E
:10B594005A73FFF7E7FE0028EAD1E3E7FFF770FDEF
:10B5A400E6E7FFF76DFD0F20EDE700BF4C37002005
:10B5B400FFFF7F0000E0FF0008B538B10D4B01220A
:10B5C4009A730D4A13680133136008BD0A4B1B6854
:10B5D4005BB1094A1368013B1360002BF5D1054B9D
:10B5E40000229A73FFF7BEFEEFE77846FDF730FBC3
:10B5F400EFE700BF4C370020F836002000B58DB0CF
:10B60400ADF808008DF81020039103238DF8043061
:10B6140001A8FEF721FE0DB05DF804FB014B98680C
:10B62400704700BF4C370020054B1B7B012B02D019
:10B63400034B98687047024B98680138704700BF05
:10B644004C370020044B9B68584010F0010F00D089
:10B65400013B1846704700BF4C370020014B187B54
:10B66400704700BF4C3700202DE9F041002722E04D
:10B674002449BC2303FB04F3CA5A0132CA520221EF
:10B68400404602F088FB01360221404602F053FB9B
:10B6940070B11C4ABC2303FB04239D68002DE7D032
:10B6A400BC2303FB04F3D25A01463846A847DFE71C
:10B6B40096B90137FFB2022F20D83C46BC2303FBC6
:10B6C40007F308330F4D1D4405F1040802214046D9
:10B6D40002F031FB0026DBE70021404602F0C3FB09
:10B6E4000828E6D1074BBC2202FB0434A368002BD4
:10B6F400DFD00022044938469847DAE70120BDE844
:10B70400F08100BF6C370020AC0E040008B508239C
:10B7140083731023437300F11C03436103230373F6
:10B7240000F1180303610C3002F06FFB08BD000048
:10B7340008B50378012B06D0022B07D07846FDF715
:10B7440087FA002003E04FF4A97000E0004808BD28
:10B75400645E010008B50278012A07D0022A13D0DA
:10B764007846FDF775FA4FF4FA7308E083685B1ABC
:10B7740098084FF4A97303FB00F303F5FA73074821
:10B78400984228BF184608BD83685B1A180B044BFF
:10B7940003FB00F303F5FA73F1E700BF60850100D2
:10B7A400645E010038B5044601210C3002F0C3FA8E
:10B7B400054678B1084BC4F89C300023C4F8A03087
:10B7C4006168FFF7C7FFC4F8A800C4F8AC400123C0
:10B7D40084F8B830284638BDFDB8020010B50446D8
:10B7E400FFF7E0FF20B104F19C000BF0CDFB00B9A2
:10B7F40010BD7846FDF72CFAFAE70000F8B50646C6
:10B804000C46174615680378012B18D11249A1FB81
:10B814000431C9098900B468641B8C4200D30C4606
:10B824008CB1706825F00305F16822462944284448
:10B83400FFF7C2FB58B93B681C443C60F8BD78462E
:10B84400FDF706FAE2E77846FDF702FAE9E77846FB
:10B85400FDF7FEF9EFE700BFEB5DF260F8B50746D0
:10B864000C46164615680378022B16D1114BA3FB20
:10B8740004231B0C1B03BC68641B9C4200D31C46A2
:10B884007CB1786825F0030521462844FFF762FB64
:10B8940058B933681C443460F8BD7846FDF7D8F9CC
:10B8A400E4E77846FDF7D4F9EBE77846FDF7D0F9FD
:10B8B400EFE700BFB77609BB38B505460C4611461D
:10B8C4002378012B06D0022B0FD07846FDF7C0F960
:10B8D400002304E0021D2046FFF790FFA368686878
:10B8E400984214BF0020012038BD021D2046FFF7F6
:10B8F400B5FFA368F3E700002DE9F8438846D1F8C3
:10B90400A860234B1B7863B90546A6F5FA7601F1C6
:10B914000C090121484602F00EFA074640B1002402
:10B9240024E00BF06DFB002388F8B830BDE8F88301
:10B934007846FDF78DF9F2E70BF062FB01214846EA
:10B9440002F029FA0023C8F8043088F8B830114B03
:10B95400186801F0A5FB4046FFF740FFE6E72C1A04
:10B964003846FFF7E5FE2044B0420BD8321B394677
:10B974004046FFF7A1FF0028DED101F0D1F9441BB6
:10B98400EED5ECE70BF03CFB4046FFF727FFCDE795
:10B99400683700206437002010B5084801F060FBC8
:10B9A400074B18600024022C07D8064BBC2000FB70
:10B9B4000430FFF7ABFE0134F5E710BD6DB60200AD
:10B9C400643700206C37002038B504460D46022841
:10B9D40005D8054BBC2202FB0434A56038BD78466B
:10B9E400FDF736F9F5E700BF6C3700202DE9F84381
:10B9F40006460C461746022816D8CCB12378012BEC
:10BA04001AD0022B3ED16368C3F30B03002B31D150
:10BA1400A368C3F30B03002B30D1A368002B34D1EC
:10BA24007846FDF715F930E07846FDF711F9E4E7BB
:10BA34007846FDF70DF9E1E7636813F0030F0DD1C4
:10BA4400E36813F0030F0DD1A36813F0030F0DD1B6
:10BA5400A368D3B97846FDF7FBF816E07846FDF7FE
:10BA6400F7F8EDE77846FDF7F3F8EDE77846FDF7EC
:10BA7400EFF8EDE77846FDF7EBF8C9E77846FDF710
:10BA8400E7F8CAE77846FDF7E3F8EFF3108872B6F3
:10BA9400BC2505FB06F505F108032A4D1D440435B4
:10BAA4000021284602F047F9814678B30021284650
:10BAB40002F071F920686168A268E368C9F80000BF
:10BAC400C9F80410C9F80820C9F80C302FB11D4A70
